{"contracts/swap/CroakSwap.sol":{"CroakSwap":{"abi":[{"inputs":[{"internalType":"address","name":"_croakToken","type":"address"},{"internalType":"address","name":"_feeCollector","type":"address"},{"internalType":"address","name":"initialOwner","type":"address"}],"stateMutability":"nonpayable","type":"constructor"},{"anonymous":false,"inputs":[{"indexed":true,"internalType":"address","name":"newFeeCollector","type":"address"}],"name":"FeeCollectorUpdated","type":"event"},{"anonymous":false,"inputs":[{"indexed":true,"internalType":"address","name":"token","type":"address"},{"indexed":false,"internalType":"uint256","name":"croakAmount","type":"uint256"},{"indexed":false,"internalType":"uint256","name":"tokenAmount","type":"uint256"}],"name":"LiquidityAdded","type":"event"},{"anonymous":false,"inputs":[{"indexed":true,"internalType":"address","name":"token","type":"address"},{"indexed":false,"internalType":"uint256","name":"croakAmount","type":"uint256"},{"indexed":false,"internalType":"uint256","name":"tokenAmount","type":"uint256"}],"name":"LiquidityRemoved","type":"event"},{"anonymous":false,"inputs":[{"indexed":true,"internalType":"address","name":"previousOwner","type":"address"},{"indexed":true,"internalType":"address","name":"newOwner","type":"address"}],"name":"OwnershipTransferred","type":"event"},{"anonymous":false,"inputs":[{"indexed":true,"internalType":"address","name":"fromToken","type":"address"},{"indexed":true,"internalType":"address","name":"toToken","type":"address"},{"indexed":false,"internalType":"uint256","name":"amountIn","type":"uint256"},{"indexed":false,"internalType":"uint256","name":"amountOut","type":"uint256"}],"name":"Swap","type":"event"},{"anonymous":false,"inputs":[{"indexed":true,"internalType":"address","name":"token","type":"address"}],"name":"TokenPairAdded","type":"event"},{"anonymous":false,"inputs":[{"indexed":true,"internalType":"address","name":"token","type":"address"}],"name":"TokenPairRemoved","type":"event"},{"inputs":[],"name":"BASIS_POINTS","outputs":[{"internalType":"uint256","name":"","type":"uint256"}],"stateMutability":"view","type":"function"},{"inputs":[],"name":"SWAP_FEE","outputs":[{"internalType":"uint256","name":"","type":"uint256"}],"stateMutability":"view","type":"function"},{"inputs":[{"internalType":"address","name":"token","type":"address"},{"internalType":"uint256","name":"croakAmount","type":"uint256"},{"internalType":"uint256","name":"tokenAmount","type":"uint256"}],"name":"addLiquidity","outputs":[],"stateMutability":"nonpayable","type":"function"},{"inputs":[{"internalType":"address","name":"token","type":"address"}],"name":"addTokenPair","outputs":[],"stateMutability":"nonpayable","type":"function"},{"inputs":[],"name":"croakToken","outputs":[{"internalType":"address","name":"","type":"address"}],"stateMutability":"view","type":"function"},{"inputs":[],"name":"feeCollector","outputs":[{"internalType":"address","name":"","type":"address"}],"stateMutability":"view","type":"function"},{"inputs":[{"internalType":"address","name":"token","type":"address"}],"name":"getExchangeRate","outputs":[{"internalType":"uint256","name":"croakToToken","type":"uint256"},{"internalType":"uint256","name":"tokenToCroak","type":"uint256"}],"stateMutability":"view","type":"function"},{"inputs":[],"name":"getSupportedTokensCount","outputs":[{"internalType":"uint256","name":"","type":"uint256"}],"stateMutability":"view","type":"function"},{"inputs":[],"name":"owner","outputs":[{"internalType":"address","name":"","type":"address"}],"stateMutability":"view","type":"function"},{"inputs":[{"internalType":"address","name":"tokenAddress","type":"address"},{"internalType":"uint256","name":"amount","type":"uint256"}],"name":"recoverERC20","outputs":[],"stateMutability":"nonpayable","type":"function"},{"inputs":[{"internalType":"address","name":"token","type":"address"},{"internalType":"uint256","name":"croakAmount","type":"uint256"},{"internalType":"uint256","name":"tokenAmount","type":"uint256"}],"name":"removeLiquidity","outputs":[],"stateMutability":"nonpayable","type":"function"},{"inputs":[{"internalType":"address","name":"token","type":"address"}],"name":"removeTokenPair","outputs":[],"stateMutability":"nonpayable","type":"function"},{"inputs":[],"name":"renounceOwnership","outputs":[],"stateMutability":"nonpayable","type":"function"},{"inputs":[{"internalType":"address","name":"_feeCollector","type":"address"}],"name":"setFeeCollector","outputs":[],"stateMutability":"nonpayable","type":"function"},{"inputs":[{"internalType":"uint256","name":"","type":"uint256"}],"name":"supportedTokens","outputs":[{"internalType":"address","name":"","type":"address"}],"stateMutability":"view","type":"function"},{"inputs":[{"internalType":"address","name":"token","type":"address"},{"internalType":"uint256","name":"croakAmount","type":"uint256"},{"internalType":"uint256","name":"minTokenAmount","type":"uint256"}],"name":"swapCroakForToken","outputs":[{"internalType":"uint256","name":"","type":"uint256"}],"stateMutability":"nonpayable","type":"function"},{"inputs":[{"internalType":"address","name":"token","type":"address"},{"internalType":"uint256","name":"tokenAmount","type":"uint256"},{"internalType":"uint256","name":"minCroakAmount","type":"uint256"}],"name":"swapTokenForCroak","outputs":[{"internalType":"uint256","name":"","type":"uint256"}],"stateMutability":"nonpayable","type":"function"},{"inputs":[{"internalType":"address","name":"","type":"address"}],"name":"tokenPairs","outputs":[{"internalType":"bool","name":"isSupported","type":"bool"},{"internalType":"uint256","name":"croakReserve","type":"uint256"},{"internalType":"uint256","name":"tokenReserve","type":"uint256"}],"stateMutability":"view","type":"function"},{"inputs":[{"internalType":"address","name":"newOwner","type":"address"}],"name":"transferOwnership","outputs":[],"stateMutability":"nonpayable","type":"function"}],"evm":{"bytecode":{"linkReferences":{},"object":"60a034620001bb57601f62001c9b38819003918201601f19168301916001600160401b03831184841017620001c057808492606094604052833981010312620001bb576200004d81620001d6565b906200006a60406200006260208401620001d6565b9201620001d6565b600080546001600160a01b039283166001600160a01b03198083168217845560405190959390928516907f8be0079c531659141344cd1fd0a4f28419497f9722a3daafe3b4186f6b6457e09080a360018055828516156200016e5750169182156200011d576080526002541617600255604051611aaf9081620001ec82396080518181816102c9015281816103b20152818161050d0152818161066101528181610786015281816109950152610ee10152f35b60405162461bcd60e51b8152602060048201526024808201527f46656520636f6c6c6563746f722063616e6e6f74206265207a65726f206164646044820152637265737360e01b6064820152608490fd5b62461bcd60e51b815260206004820152602260248201527f43524f414b20746f6b656e2063616e6e6f74206265207a65726f206164647265604482015261737360f01b6064820152608490fd5b600080fd5b634e487b7160e01b600052604160045260246000fd5b51906001600160a01b0382168203620001bb5756fe6080604052600436101561001257600080fd5b60003560e01c80630459f882146101475780631d1639231461014257806329fa1bdc1461013d5780632d2eb9f31461013857806347bbbdf51461013357806355776b771461012e578063715018a614610129578063768aebde146101245780638980f11f1461011f5780638da5cb5b1461011a57806399a3a755146101155780639df6a37914610110578063a42dce801461010b578063c415b95c14610106578063c625562614610101578063e1f1c4a7146100fc578063e38192e3146100f7578063efb7601d146100f25763f2fde38b146100ed57600080fd5b610fe7565b610f2a565b610e22565b610e05565b610dab565b610d32565b610c60565b610abe565b61095c565b610935565b610756565b61073a565b6106dd565b6105b7565b610561565b6103d6565b610392565b610374565b610191565b600435906001600160a01b038216820361016257565b600080fd5b6060906003190112610162576004356001600160a01b038116810361016257906024359060443590565b346101625761036461029a7ffa2dda1cc1b86e41239702756b13effbc1a092b5c57e3ad320fbe4f3b13fe2356101c636610167565b6101d8600260019593955414156110bf565b600260015561020c610207610200856001600160a01b03166000526003602052604060002090565b5460ff1690565b61110a565b610217841515611155565b610234836001600160a01b03166000526003602052604060002090565b9260018401906102a28661028f600285549889151580610368575b610258906111a0565b019761028961027a61027461026f8c548097611262565b61124b565b92611201565b6102838c61124b565b90611291565b9061129e565b9889958610156112be565b841115611309565b6102b66102ae87611218565b612710900490565b946001600160a01b039261031f610318857f000000000000000000000000000000000000000000000000000000000000000016986102f68b30338d611734565b6103128161030c6002546001600160a01b031690565b8c6117a5565b8a611284565b8254611291565b905561032c848254611284565b9055169361033b8233876117a5565b604080519182526020820192909252a361035460018055565b6040519081529081906020820190565b0390f35b5080820154151561024f565b34610162576000366003190112610162576020600454604051908152f35b346101625760003660031901126101625760206040516001600160a01b037f0000000000000000000000000000000000000000000000000000000000000000168152f35b34610162576103646104c47ffa2dda1cc1b86e41239702756b13effbc1a092b5c57e3ad320fbe4f3b13fe23561040b36610167565b61041e60026001959394955414156110bf565b6002600155610446610207610200866001600160a01b03166000526003602052604060002090565b610451831515611155565b61046e846001600160a01b03166000526003602052604060002090565b9261033b60018501956104cc875480151580610554575b61048e906111a0565b6104b960026104a061026f8489611262565b9901986102896104b08b54611201565b6102838961124b565b998a968710156112be565b851115611354565b6104d86102ae85611218565b966001600160a01b03809216966104f18530338b611734565b6104fc858254611291565b9055610509858254611284565b90557f0000000000000000000000000000000000000000000000000000000000000000169561054261053b8286611284565b33896117a5565b6002546001600160a01b0316876117a5565b5060028801541515610485565b34610162576020366003190112610162576001600160a01b0361058261014c565b1660005260036020526060604060002060ff815416906002600182015491015490604051921515835260208301526040820152f35b34610162577fac1d76749e5447b7b16f5ab61447e1bd502f3bb4807af3b28e620d1700a6ee456105e636610167565b906105f9600260019594955414156110bf565b600260015560026001600160a01b036106868361065a8389169889600052600360205261062f610207604060002060ff90541690565b821515806106d4575b6106419061139f565b6001600160a01b03166000526003602052604060002090565b92309033907f000000000000000000000000000000000000000000000000000000000000000016611734565b61069284303389611734565b600181016106a1848254611291565b9055016106af838254611291565b905560408051918252602082019290925290819081015b0390a26106d260018055565b005b50871515610638565b3461016257600080600319360112610737576106f761180b565b806001600160a01b0381546001600160a01b031981168355167f8be0079c531659141344cd1fd0a4f28419497f9722a3daafe3b4186f6b6457e08280a380f35b80fd5b34610162576000366003190112610162576020604051601e8152f35b346101625760403660031901126101625761076f61014c565b60243561077a61180b565b6001600160a01b0391827f0000000000000000000000000000000000000000000000000000000000000000169280821691848314600014610889575060009360006004545b80821061084e5750506040516370a0823160e01b815230600482015290602090829060249082905afa94851561084957610809856106d2976108109460009161081a575b50611284565b10156114cf565b60005416906117a5565b61083c915060203d602011610842575b6108348183611447565b810190611469565b38610803565b503d61082a565b611478565b9095610881600191826108796106416108668c610d6f565b90546001600160a01b039160031b1c1690565b015490611291565b9601906107bf565b93506108b26108ae610200866001600160a01b03166000526003602052604060002090565b1590565b9384156108cc575b506108c76106d294611484565b610810565b6040516370a0823160e01b8152306004820152909450602081602481865afa94851561084957600261092a610910876106d2996108c79660009161081a5750611284565b926001600160a01b03166000526003602052604060002090565b0154111594506108ba565b346101625760003660031901126101625760206001600160a01b0360005416604051908152f35b346101625760203660031901126101625761097561014c565b61097d61180b565b6001600160a01b03808216908115610a7a576109bd907f00000000000000000000000000000000000000000000000000000000000000001682141561151a565b6109e86109e36108ae610200856001600160a01b03166000526003602052604060002090565b611565565b610a536109f36115b0565b6001815292610a4e600094856020820152856040820152610a27836001600160a01b03166000526003602052604060002090565b9060406002918051151560ff80198654169116178455602081015160018501550151910155565b6115d0565b7f9a8e8b3031c7740f71e486c661d6cda066a43ca21c18a260bfee3c6845ed8a288280a280f35b606460405162461bcd60e51b815260206004820152601c60248201527f546f6b656e2063616e6e6f74206265207a65726f2061646472657373000000006044820152fd5b3461016257602036600319011261016257610ad761014c565b610adf61180b565b610b07610b02610200836001600160a01b03166000526003602052604060002090565b611636565b6001906001610b29826001600160a01b03166000526003602052604060002090565b01541580610c33575b610b3b90611681565b8160006001600160a01b0390818416945b610bab575b84610b84610b72866001600160a01b03166000526003602052604060002090565b60026000918281558260018201550155565b7f42b32e12fba575d8587c6751131d30c3c27e44397ea815fa7904eb350cb6edff600080a2005b60045480821015610c2d578583610bc461086685610d6f565b1614610bd35750820182610b4c565b610b729350610b8494925090610bff610bf9610866610bf4610c1e95611275565b610d6f565b91610d6f565b9091906001600160a01b038084549260031b9316831b921b1916179055565b610c266116cc565b9138610b51565b50610b51565b50610b3b6002610c56836001600160a01b03166000526003602052604060002090565b0154159050610b32565b34610162576020366003190112610162576001600160a01b03610c8161014c565b610c8961180b565b168015610cc957806001600160a01b031960025416176002557fe5693914d19c789bdee50a362998c0bc8d035a835f9871da5d51152f0582c34f600080a2005b608460405162461bcd60e51b8152602060048201526024808201527f46656520636f6c6c6563746f722063616e6e6f74206265207a65726f2061646460448201527f72657373000000000000000000000000000000000000000000000000000000006064820152fd5b346101625760003660031901126101625760206001600160a01b0360025416604051908152f35b634e487b7160e01b600052603260045260246000fd5b600454811015610da65760046000527f8a35acfbc15ff81a39ae7d344fd709f28e8600b4aa8c65c6b64bfe7fe36bd19b0190600090565b610d59565b3461016257602036600319011261016257600435600454811015610162576001600160a01b0360209160046000527f8a35acfbc15ff81a39ae7d344fd709f28e8600b4aa8c65c6b64bfe7fe36bd19b015416604051908152f35b346101625760003660031901126101625760206040516127108152f35b34610162577f96cd817c6329656790ef8fba7675405193677d39619571282f5e21f3a98cd059610e5136610167565b90610e64600260019594955414156110bf565b6002600155610e7161180b565b610f06816001600160a01b03610ea081881697886000526003602052610641610207604060002060ff90541690565b610edb8660018301926002845491610eba88841015611354565b0193610ed487865493610ecf86861015611309565b611284565b9055611284565b905533907f0000000000000000000000000000000000000000000000000000000000000000166117a5565b610f118233866117a5565b60408051918252602082019290925290819081016106c6565b34610162576020366003190112610162576001600160a01b03610f4b61014c565b16806000526003602052610f6660ff6040600020541661110a565b60005260036020526040600020600260018201549182151580610fdb575b610f8d906111a0565b0154670de0b6b3a764000090818102918183041481151715610fd657610fbf610fb984610fc49461129e565b9361122e565b61129e565b60408051928352602083019190915290f35b6111eb565b50808201541515610f84565b346101625760203660031901126101625761100061014c565b61100861180b565b6001600160a01b038091168015611055576000918254826001600160a01b03198216178455167f8be0079c531659141344cd1fd0a4f28419497f9722a3daafe3b4186f6b6457e08380a380f35b608460405162461bcd60e51b815260206004820152602660248201527f4f776e61626c653a206e6577206f776e657220697320746865207a65726f206160448201527f64647265737300000000000000000000000000000000000000000000000000006064820152fd5b156110c657565b606460405162461bcd60e51b815260206004820152601f60248201527f5265656e7472616e637947756172643a207265656e7472616e742063616c6c006044820152fd5b1561111157565b606460405162461bcd60e51b815260206004820152601860248201527f546f6b656e2070616972206e6f7420737570706f7274656400000000000000006044820152fd5b1561115c57565b606460405162461bcd60e51b815260206004820152602060248201527f416d6f756e74206d7573742062652067726561746572207468616e207a65726f6044820152fd5b156111a757565b606460405162461bcd60e51b815260206004820152601660248201527f496e73756666696369656e74206c6971756964697479000000000000000000006044820152fd5b634e487b7160e01b600052601160045260246000fd5b9061271091828102928184041490151715610fd657565b90601e820291808304601e1490151715610fd657565b90670de0b6b3a764000091828102928184041490151715610fd657565b906126f291828102928184041490151715610fd657565b81810292918115918404141715610fd657565b600019810191908211610fd657565b91908203918211610fd657565b91908201809211610fd657565b81156112a8570490565b634e487b7160e01b600052601260045260246000fd5b156112c557565b606460405162461bcd60e51b815260206004820152601160248201527f536c69707061676520746f6f20686967680000000000000000000000000000006044820152fd5b1561131057565b606460405162461bcd60e51b815260206004820152601a60248201527f496e73756666696369656e7420746f6b656e20726573657276650000000000006044820152fd5b1561135b57565b606460405162461bcd60e51b815260206004820152601a60248201527f496e73756666696369656e742043524f414b20726573657276650000000000006044820152fd5b156113a657565b608460405162461bcd60e51b815260206004820152602160248201527f416d6f756e7473206d7573742062652067726561746572207468616e207a657260448201527f6f000000000000000000000000000000000000000000000000000000000000006064820152fd5b634e487b7160e01b600052604160045260246000fd5b6040810190811067ffffffffffffffff82111761144257604052565b611410565b90601f8019910116810190811067ffffffffffffffff82111761144257604052565b90816020910312610162575190565b6040513d6000823e3d90fd5b1561148b57565b606460405162461bcd60e51b815260206004820152601e60248201527f43616e6e6f74207265636f76657220726573657276656420746f6b656e7300006044820152fd5b156114d657565b606460405162461bcd60e51b815260206004820152601d60248201527f43616e6e6f74207265636f7665722072657365727665642043524f414b0000006044820152fd5b1561152157565b606460405162461bcd60e51b815260206004820152601560248201527f546f6b656e2063616e6e6f742062652043524f414b00000000000000000000006044820152fd5b1561156c57565b606460405162461bcd60e51b815260206004820152601960248201527f546f6b656e207061697220616c726561647920657869737473000000000000006044820152fd5b604051906060820182811067ffffffffffffffff82111761144257604052565b60045468010000000000000000811015611442576001810180600455811015610da6576001600160a01b039060046000527f8a35acfbc15ff81a39ae7d344fd709f28e8600b4aa8c65c6b64bfe7fe36bd19b0191166001600160a01b0319825416179055565b1561163d57565b606460405162461bcd60e51b815260206004820152601960248201527f546f6b656e207061697220646f6573206e6f74206578697374000000000000006044820152fd5b1561168857565b606460405162461bcd60e51b815260206004820152601660248201527f4c6971756964697479206d757374206265207a65726f000000000000000000006044820152fd5b600454801561171e5760001981019080821015610da6577f8a35acfbc15ff81a39ae7d344fd709f28e8600b4aa8c65c6b64bfe7fe36bd19a906004600052016001600160a01b03198154169055600455565b634e487b7160e01b600052603160045260246000fd5b9290604051927f23b872dd0000000000000000000000000000000000000000000000000000000060208501526001600160a01b03809216602485015216604483015260648201526064815260a081019181831067ffffffffffffffff841117611442576117a3926040526118ec565b565b916001600160a01b03604051927fa9059cbb000000000000000000000000000000000000000000000000000000006020850152166024830152604482015260448152608081019181831067ffffffffffffffff841117611442576117a3926040526118ec565b6001600160a01b0360005416330361181f57565b606460405162461bcd60e51b815260206004820152602060248201527f4f776e61626c653a2063616c6c6572206973206e6f7420746865206f776e65726044820152fd5b90816020910312610162575180151581036101625790565b1561188257565b608460405162461bcd60e51b815260206004820152602a60248201527f5361666545524332303a204552433230206f7065726174696f6e20646964206e60448201527f6f742073756363656564000000000000000000000000000000000000000000006064820152fd5b6001600160a01b0316906040519061190382611426565b6020928383527f5361666545524332303a206c6f772d6c6576656c2063616c6c206661696c656484840152803b1561197a57600082819282876119559796519301915af161194f6119be565b906119fe565b8051908161196257505050565b826117a393611975938301019101611863565b61187b565b6064846040519062461bcd60e51b82526004820152601d60248201527f416464726573733a2063616c6c20746f206e6f6e2d636f6e74726163740000006044820152fd5b3d156119f9573d9067ffffffffffffffff821161144257604051916119ed601f8201601f191660200184611447565b82523d6000602084013e565b606090565b90919015611a0a575090565b815115611a1a5750805190602001fd5b6040519062461bcd60e51b82528160208060048301528251908160248401526000935b828510611a60575050604492506000838284010152601f80199101168101030190fd5b8481018201518686016044015293810193859350611a3d56fea2646970667358221220096b3130d7063fe291423411de96c9b3bb03af46e09501955a9f2c0bb681e59764736f6c63430008160033","opcodes":"PUSH1 0xA0 CALLVALUE PUSH3 0x1BB JUMPI PUSH1 0x1F PUSH3 0x1C9B CODESIZE DUP2 SWAP1 SUB SWAP2 DUP3 ADD PUSH1 0x1F NOT AND DUP4 ADD SWAP2 PUSH1 0x1 PUSH1 0x1 PUSH1 0x40 SHL SUB DUP4 GT DUP5 DUP5 LT OR PUSH3 0x1C0 JUMPI DUP1 DUP5 SWAP3 PUSH1 0x60 SWAP5 PUSH1 0x40 MSTORE DUP4 CODECOPY DUP2 ADD SUB SLT PUSH3 0x1BB JUMPI PUSH3 0x4D DUP2 PUSH3 0x1D6 JUMP JUMPDEST SWAP1 PUSH3 0x6A PUSH1 0x40 PUSH3 0x62 PUSH1 0x20 DUP5 ADD PUSH3 0x1D6 JUMP JUMPDEST SWAP3 ADD PUSH3 0x1D6 JUMP JUMPDEST PUSH1 0x0 DUP1 SLOAD PUSH1 0x1 PUSH1 0x1 PUSH1 0xA0 SHL SUB SWAP3 DUP4 AND PUSH1 0x1 PUSH1 0x1 PUSH1 0xA0 SHL SUB NOT DUP1 DUP4 AND DUP3 OR DUP5 SSTORE PUSH1 0x40 MLOAD SWAP1 SWAP6 SWAP4 SWAP1 SWAP3 DUP6 AND SWAP1 PUSH32 0x8BE0079C531659141344CD1FD0A4F28419497F9722A3DAAFE3B4186F6B6457E0 SWAP1 DUP1 LOG3 PUSH1 0x1 DUP1 SSTORE DUP3 DUP6 AND ISZERO PUSH3 0x16E JUMPI POP AND SWAP2 DUP3 ISZERO PUSH3 0x11D JUMPI PUSH1 0x80 MSTORE PUSH1 0x2 SLOAD AND OR PUSH1 0x2 SSTORE PUSH1 0x40 MLOAD PUSH2 0x1AAF SWAP1 DUP2 PUSH3 0x1EC DUP3 CODECOPY PUSH1 0x80 MLOAD DUP2 DUP2 DUP2 PUSH2 0x2C9 ADD MSTORE DUP2 DUP2 PUSH2 0x3B2 ADD MSTORE DUP2 DUP2 PUSH2 0x50D ADD MSTORE DUP2 DUP2 PUSH2 0x661 ADD MSTORE DUP2 DUP2 PUSH2 0x786 ADD MSTORE DUP2 DUP2 PUSH2 0x995 ADD MSTORE PUSH2 0xEE1 ADD MSTORE RETURN JUMPDEST PUSH1 0x40 MLOAD PUSH3 0x461BCD PUSH1 0xE5 SHL DUP2 MSTORE PUSH1 0x20 PUSH1 0x4 DUP3 ADD MSTORE PUSH1 0x24 DUP1 DUP3 ADD MSTORE PUSH32 0x46656520636F6C6C6563746F722063616E6E6F74206265207A65726F20616464 PUSH1 0x44 DUP3 ADD MSTORE PUSH4 0x72657373 PUSH1 0xE0 SHL PUSH1 0x64 DUP3 ADD MSTORE PUSH1 0x84 SWAP1 REVERT JUMPDEST PUSH3 0x461BCD PUSH1 0xE5 SHL DUP2 MSTORE PUSH1 0x20 PUSH1 0x4 DUP3 ADD MSTORE PUSH1 0x22 PUSH1 0x24 DUP3 ADD MSTORE PUSH32 0x43524F414B20746F6B656E2063616E6E6F74206265207A65726F206164647265 PUSH1 0x44 DUP3 ADD MSTORE PUSH2 0x7373 PUSH1 0xF0 SHL PUSH1 0x64 DUP3 ADD MSTORE PUSH1 0x84 SWAP1 REVERT JUMPDEST PUSH1 0x0 DUP1 REVERT JUMPDEST PUSH4 0x4E487B71 PUSH1 0xE0 SHL PUSH1 0x0 MSTORE PUSH1 0x41 PUSH1 0x4 MSTORE PUSH1 0x24 PUSH1 0x0 REVERT JUMPDEST MLOAD SWAP1 PUSH1 0x1 PUSH1 0x1 PUSH1 0xA0 SHL SUB DUP3 AND DUP3 SUB PUSH3 0x1BB JUMPI JUMP INVALID PUSH1 0x80 PUSH1 0x40 MSTORE PUSH1 0x4 CALLDATASIZE LT ISZERO PUSH2 0x12 JUMPI PUSH1 0x0 DUP1 REVERT JUMPDEST PUSH1 0x0 CALLDATALOAD PUSH1 0xE0 SHR DUP1 PUSH4 0x459F882 EQ PUSH2 0x147 JUMPI DUP1 PUSH4 0x1D163923 EQ PUSH2 0x142 JUMPI DUP1 PUSH4 0x29FA1BDC EQ PUSH2 0x13D JUMPI DUP1 PUSH4 0x2D2EB9F3 EQ PUSH2 0x138 JUMPI DUP1 PUSH4 0x47BBBDF5 EQ PUSH2 0x133 JUMPI DUP1 PUSH4 0x55776B77 EQ PUSH2 0x12E JUMPI DUP1 PUSH4 0x715018A6 EQ PUSH2 0x129 JUMPI DUP1 PUSH4 0x768AEBDE EQ PUSH2 0x124 JUMPI DUP1 PUSH4 0x8980F11F EQ PUSH2 0x11F JUMPI DUP1 PUSH4 0x8DA5CB5B EQ PUSH2 0x11A JUMPI DUP1 PUSH4 0x99A3A755 EQ PUSH2 0x115 JUMPI DUP1 PUSH4 0x9DF6A379 EQ PUSH2 0x110 JUMPI DUP1 PUSH4 0xA42DCE80 EQ PUSH2 0x10B JUMPI DUP1 PUSH4 0xC415B95C EQ PUSH2 0x106 JUMPI DUP1 PUSH4 0xC6255626 EQ PUSH2 0x101 JUMPI DUP1 PUSH4 0xE1F1C4A7 EQ PUSH2 0xFC JUMPI DUP1 PUSH4 0xE38192E3 EQ PUSH2 0xF7 JUMPI DUP1 PUSH4 0xEFB7601D EQ PUSH2 0xF2 JUMPI PUSH4 0xF2FDE38B EQ PUSH2 0xED JUMPI PUSH1 0x0 DUP1 REVERT JUMPDEST PUSH2 0xFE7 JUMP JUMPDEST PUSH2 0xF2A JUMP JUMPDEST PUSH2 0xE22 JUMP JUMPDEST PUSH2 0xE05 JUMP JUMPDEST PUSH2 0xDAB JUMP JUMPDEST PUSH2 0xD32 JUMP JUMPDEST PUSH2 0xC60 JUMP JUMPDEST PUSH2 0xABE JUMP JUMPDEST PUSH2 0x95C JUMP JUMPDEST PUSH2 0x935 JUMP JUMPDEST PUSH2 0x756 JUMP JUMPDEST PUSH2 0x73A JUMP JUMPDEST PUSH2 0x6DD JUMP JUMPDEST PUSH2 0x5B7 JUMP JUMPDEST PUSH2 0x561 JUMP JUMPDEST PUSH2 0x3D6 JUMP JUMPDEST PUSH2 0x392 JUMP JUMPDEST PUSH2 0x374 JUMP JUMPDEST PUSH2 0x191 JUMP JUMPDEST PUSH1 0x4 CALLDATALOAD SWAP1 PUSH1 0x1 PUSH1 0x1 PUSH1 0xA0 SHL SUB DUP3 AND DUP3 SUB PUSH2 0x162 JUMPI JUMP JUMPDEST PUSH1 0x0 DUP1 REVERT JUMPDEST PUSH1 0x60 SWAP1 PUSH1 0x3 NOT ADD SLT PUSH2 0x162 JUMPI PUSH1 0x4 CALLDATALOAD PUSH1 0x1 PUSH1 0x1 PUSH1 0xA0 SHL SUB DUP2 AND DUP2 SUB PUSH2 0x162 JUMPI SWAP1 PUSH1 0x24 CALLDATALOAD SWAP1 PUSH1 0x44 CALLDATALOAD SWAP1 JUMP JUMPDEST CALLVALUE PUSH2 0x162 JUMPI PUSH2 0x364 PUSH2 0x29A PUSH32 0xFA2DDA1CC1B86E41239702756B13EFFBC1A092B5C57E3AD320FBE4F3B13FE235 PUSH2 0x1C6 CALLDATASIZE PUSH2 0x167 JUMP JUMPDEST PUSH2 0x1D8 PUSH1 0x2 PUSH1 0x1 SWAP6 SWAP4 SWAP6 SLOAD EQ ISZERO PUSH2 0x10BF JUMP JUMPDEST PUSH1 0x2 PUSH1 0x1 SSTORE PUSH2 0x20C PUSH2 0x207 PUSH2 0x200 DUP6 PUSH1 0x1 PUSH1 0x1 PUSH1 0xA0 SHL SUB AND PUSH1 0x0 MSTORE PUSH1 0x3 PUSH1 0x20 MSTORE PUSH1 0x40 PUSH1 0x0 KECCAK256 SWAP1 JUMP JUMPDEST SLOAD PUSH1 0xFF AND SWAP1 JUMP JUMPDEST PUSH2 0x110A JUMP JUMPDEST PUSH2 0x217 DUP5 ISZERO ISZERO PUSH2 0x1155 JUMP JUMPDEST PUSH2 0x234 DUP4 PUSH1 0x1 PUSH1 0x1 PUSH1 0xA0 SHL SUB AND PUSH1 0x0 MSTORE PUSH1 0x3 PUSH1 0x20 MSTORE PUSH1 0x40 PUSH1 0x0 KECCAK256 SWAP1 JUMP JUMPDEST SWAP3 PUSH1 0x1 DUP5 ADD SWAP1 PUSH2 0x2A2 DUP7 PUSH2 0x28F PUSH1 0x2 DUP6 SLOAD SWAP9 DUP10 ISZERO ISZERO DUP1 PUSH2 0x368 JUMPI JUMPDEST PUSH2 0x258 SWAP1 PUSH2 0x11A0 JUMP JUMPDEST ADD SWAP8 PUSH2 0x289 PUSH2 0x27A PUSH2 0x274 PUSH2 0x26F DUP13 SLOAD DUP1 SWAP8 PUSH2 0x1262 JUMP JUMPDEST PUSH2 0x124B JUMP JUMPDEST SWAP3 PUSH2 0x1201 JUMP JUMPDEST PUSH2 0x283 DUP13 PUSH2 0x124B JUMP JUMPDEST SWAP1 PUSH2 0x1291 JUMP JUMPDEST SWAP1 PUSH2 0x129E JUMP JUMPDEST SWAP9 DUP10 SWAP6 DUP7 LT ISZERO PUSH2 0x12BE JUMP JUMPDEST DUP5 GT ISZERO PUSH2 0x1309 JUMP JUMPDEST PUSH2 0x2B6 PUSH2 0x2AE DUP8 PUSH2 0x1218 JUMP JUMPDEST PUSH2 0x2710 SWAP1 DIV SWAP1 JUMP JUMPDEST SWAP5 PUSH1 0x1 PUSH1 0x1 PUSH1 0xA0 SHL SUB SWAP3 PUSH2 0x31F PUSH2 0x318 DUP6 PUSH32 0x0 AND SWAP9 PUSH2 0x2F6 DUP12 ADDRESS CALLER DUP14 PUSH2 0x1734 JUMP JUMPDEST PUSH2 0x312 DUP2 PUSH2 0x30C PUSH1 0x2 SLOAD PUSH1 0x1 PUSH1 0x1 PUSH1 0xA0 SHL SUB AND SWAP1 JUMP JUMPDEST DUP13 PUSH2 0x17A5 JUMP JUMPDEST DUP11 PUSH2 0x1284 JUMP JUMPDEST DUP3 SLOAD PUSH2 0x1291 JUMP JUMPDEST SWAP1 SSTORE PUSH2 0x32C DUP5 DUP3 SLOAD PUSH2 0x1284 JUMP JUMPDEST SWAP1 SSTORE AND SWAP4 PUSH2 0x33B DUP3 CALLER DUP8 PUSH2 0x17A5 JUMP JUMPDEST PUSH1 0x40 DUP1 MLOAD SWAP2 DUP3 MSTORE PUSH1 0x20 DUP3 ADD SWAP3 SWAP1 SWAP3 MSTORE LOG3 PUSH2 0x354 PUSH1 0x1 DUP1 SSTORE JUMP JUMPDEST PUSH1 0x40 MLOAD SWAP1 DUP2 MSTORE SWAP1 DUP2 SWAP1 PUSH1 0x20 DUP3 ADD SWAP1 JUMP JUMPDEST SUB SWAP1 RETURN JUMPDEST POP DUP1 DUP3 ADD SLOAD ISZERO ISZERO PUSH2 0x24F JUMP JUMPDEST CALLVALUE PUSH2 0x162 JUMPI PUSH1 0x0 CALLDATASIZE PUSH1 0x3 NOT ADD SLT PUSH2 0x162 JUMPI PUSH1 0x20 PUSH1 0x4 SLOAD PUSH1 0x40 MLOAD SWAP1 DUP2 MSTORE RETURN JUMPDEST CALLVALUE PUSH2 0x162 JUMPI PUSH1 0x0 CALLDATASIZE PUSH1 0x3 NOT ADD SLT PUSH2 0x162 JUMPI PUSH1 0x20 PUSH1 0x40 MLOAD PUSH1 0x1 PUSH1 0x1 PUSH1 0xA0 SHL SUB PUSH32 0x0 AND DUP2 MSTORE RETURN JUMPDEST CALLVALUE PUSH2 0x162 JUMPI PUSH2 0x364 PUSH2 0x4C4 PUSH32 0xFA2DDA1CC1B86E41239702756B13EFFBC1A092B5C57E3AD320FBE4F3B13FE235 PUSH2 0x40B CALLDATASIZE PUSH2 0x167 JUMP JUMPDEST PUSH2 0x41E PUSH1 0x2 PUSH1 0x1 SWAP6 SWAP4 SWAP5 SWAP6 SLOAD EQ ISZERO PUSH2 0x10BF JUMP JUMPDEST PUSH1 0x2 PUSH1 0x1 SSTORE PUSH2 0x446 PUSH2 0x207 PUSH2 0x200 DUP7 PUSH1 0x1 PUSH1 0x1 PUSH1 0xA0 SHL SUB AND PUSH1 0x0 MSTORE PUSH1 0x3 PUSH1 0x20 MSTORE PUSH1 0x40 PUSH1 0x0 KECCAK256 SWAP1 JUMP JUMPDEST PUSH2 0x451 DUP4 ISZERO ISZERO PUSH2 0x1155 JUMP JUMPDEST PUSH2 0x46E DUP5 PUSH1 0x1 PUSH1 0x1 PUSH1 0xA0 SHL SUB AND PUSH1 0x0 MSTORE PUSH1 0x3 PUSH1 0x20 MSTORE PUSH1 0x40 PUSH1 0x0 KECCAK256 SWAP1 JUMP JUMPDEST SWAP3 PUSH2 0x33B PUSH1 0x1 DUP6 ADD SWAP6 PUSH2 0x4CC DUP8 SLOAD DUP1 ISZERO ISZERO DUP1 PUSH2 0x554 JUMPI JUMPDEST PUSH2 0x48E SWAP1 PUSH2 0x11A0 JUMP JUMPDEST PUSH2 0x4B9 PUSH1 0x2 PUSH2 0x4A0 PUSH2 0x26F DUP5 DUP10 PUSH2 0x1262 JUMP JUMPDEST SWAP10 ADD SWAP9 PUSH2 0x289 PUSH2 0x4B0 DUP12 SLOAD PUSH2 0x1201 JUMP JUMPDEST PUSH2 0x283 DUP10 PUSH2 0x124B JUMP JUMPDEST SWAP10 DUP11 SWAP7 DUP8 LT ISZERO PUSH2 0x12BE JUMP JUMPDEST DUP6 GT ISZERO PUSH2 0x1354 JUMP JUMPDEST PUSH2 0x4D8 PUSH2 0x2AE DUP6 PUSH2 0x1218 JUMP JUMPDEST SWAP7 PUSH1 0x1 PUSH1 0x1 PUSH1 0xA0 SHL SUB DUP1 SWAP3 AND SWAP7 PUSH2 0x4F1 DUP6 ADDRESS CALLER DUP12 PUSH2 0x1734 JUMP JUMPDEST PUSH2 0x4FC DUP6 DUP3 SLOAD PUSH2 0x1291 JUMP JUMPDEST SWAP1 SSTORE PUSH2 0x509 DUP6 DUP3 SLOAD PUSH2 0x1284 JUMP JUMPDEST SWAP1 SSTORE PUSH32 0x0 AND SWAP6 PUSH2 0x542 PUSH2 0x53B DUP3 DUP7 PUSH2 0x1284 JUMP JUMPDEST CALLER DUP10 PUSH2 0x17A5 JUMP JUMPDEST PUSH1 0x2 SLOAD PUSH1 0x1 PUSH1 0x1 PUSH1 0xA0 SHL SUB AND DUP8 PUSH2 0x17A5 JUMP JUMPDEST POP PUSH1 0x2 DUP9 ADD SLOAD ISZERO ISZERO PUSH2 0x485 JUMP JUMPDEST CALLVALUE PUSH2 0x162 JUMPI PUSH1 0x20 CALLDATASIZE PUSH1 0x3 NOT ADD SLT PUSH2 0x162 JUMPI PUSH1 0x1 PUSH1 0x1 PUSH1 0xA0 SHL SUB PUSH2 0x582 PUSH2 0x14C JUMP JUMPDEST AND PUSH1 0x0 MSTORE PUSH1 0x3 PUSH1 0x20 MSTORE PUSH1 0x60 PUSH1 0x40 PUSH1 0x0 KECCAK256 PUSH1 0xFF DUP2 SLOAD AND SWAP1 PUSH1 0x2 PUSH1 0x1 DUP3 ADD SLOAD SWAP2 ADD SLOAD SWAP1 PUSH1 0x40 MLOAD SWAP3 ISZERO ISZERO DUP4 MSTORE PUSH1 0x20 DUP4 ADD MSTORE PUSH1 0x40 DUP3 ADD MSTORE RETURN JUMPDEST CALLVALUE PUSH2 0x162 JUMPI PUSH32 0xAC1D76749E5447B7B16F5AB61447E1BD502F3BB4807AF3B28E620D1700A6EE45 PUSH2 0x5E6 CALLDATASIZE PUSH2 0x167 JUMP JUMPDEST SWAP1 PUSH2 0x5F9 PUSH1 0x2 PUSH1 0x1 SWAP6 SWAP5 SWAP6 SLOAD EQ ISZERO PUSH2 0x10BF JUMP JUMPDEST PUSH1 0x2 PUSH1 0x1 SSTORE PUSH1 0x2 PUSH1 0x1 PUSH1 0x1 PUSH1 0xA0 SHL SUB PUSH2 0x686 DUP4 PUSH2 0x65A DUP4 DUP10 AND SWAP9 DUP10 PUSH1 0x0 MSTORE PUSH1 0x3 PUSH1 0x20 MSTORE PUSH2 0x62F PUSH2 0x207 PUSH1 0x40 PUSH1 0x0 KECCAK256 PUSH1 0xFF SWAP1 SLOAD AND SWAP1 JUMP JUMPDEST DUP3 ISZERO ISZERO DUP1 PUSH2 0x6D4 JUMPI JUMPDEST PUSH2 0x641 SWAP1 PUSH2 0x139F JUMP JUMPDEST PUSH1 0x1 PUSH1 0x1 PUSH1 0xA0 SHL SUB AND PUSH1 0x0 MSTORE PUSH1 0x3 PUSH1 0x20 MSTORE PUSH1 0x40 PUSH1 0x0 KECCAK256 SWAP1 JUMP JUMPDEST SWAP3 ADDRESS SWAP1 CALLER SWAP1 PUSH32 0x0 AND PUSH2 0x1734 JUMP JUMPDEST PUSH2 0x692 DUP5 ADDRESS CALLER DUP10 PUSH2 0x1734 JUMP JUMPDEST PUSH1 0x1 DUP2 ADD PUSH2 0x6A1 DUP5 DUP3 SLOAD PUSH2 0x1291 JUMP JUMPDEST SWAP1 SSTORE ADD PUSH2 0x6AF DUP4 DUP3 SLOAD PUSH2 0x1291 JUMP JUMPDEST SWAP1 SSTORE PUSH1 0x40 DUP1 MLOAD SWAP2 DUP3 MSTORE PUSH1 0x20 DUP3 ADD SWAP3 SWAP1 SWAP3 MSTORE SWAP1 DUP2 SWAP1 DUP2 ADD JUMPDEST SUB SWAP1 LOG2 PUSH2 0x6D2 PUSH1 0x1 DUP1 SSTORE JUMP JUMPDEST STOP JUMPDEST POP DUP8 ISZERO ISZERO PUSH2 0x638 JUMP JUMPDEST CALLVALUE PUSH2 0x162 JUMPI PUSH1 0x0 DUP1 PUSH1 0x3 NOT CALLDATASIZE ADD SLT PUSH2 0x737 JUMPI PUSH2 0x6F7 PUSH2 0x180B JUMP JUMPDEST DUP1 PUSH1 0x1 PUSH1 0x1 PUSH1 0xA0 SHL SUB DUP2 SLOAD PUSH1 0x1 PUSH1 0x1 PUSH1 0xA0 SHL SUB NOT DUP2 AND DUP4 SSTORE AND PUSH32 0x8BE0079C531659141344CD1FD0A4F28419497F9722A3DAAFE3B4186F6B6457E0 DUP3 DUP1 LOG3 DUP1 RETURN JUMPDEST DUP1 REVERT JUMPDEST CALLVALUE PUSH2 0x162 JUMPI PUSH1 0x0 CALLDATASIZE PUSH1 0x3 NOT ADD SLT PUSH2 0x162 JUMPI PUSH1 0x20 PUSH1 0x40 MLOAD PUSH1 0x1E DUP2 MSTORE RETURN JUMPDEST CALLVALUE PUSH2 0x162 JUMPI PUSH1 0x40 CALLDATASIZE PUSH1 0x3 NOT ADD SLT PUSH2 0x162 JUMPI PUSH2 0x76F PUSH2 0x14C JUMP JUMPDEST PUSH1 0x24 CALLDATALOAD PUSH2 0x77A PUSH2 0x180B JUMP JUMPDEST PUSH1 0x1 PUSH1 0x1 PUSH1 0xA0 SHL SUB SWAP2 DUP3 PUSH32 0x0 AND SWAP3 DUP1 DUP3 AND SWAP2 DUP5 DUP4 EQ PUSH1 0x0 EQ PUSH2 0x889 JUMPI POP PUSH1 0x0 SWAP4 PUSH1 0x0 PUSH1 0x4 SLOAD JUMPDEST DUP1 DUP3 LT PUSH2 0x84E JUMPI POP POP PUSH1 0x40 MLOAD PUSH4 0x70A08231 PUSH1 0xE0 SHL DUP2 MSTORE ADDRESS PUSH1 0x4 DUP3 ADD MSTORE SWAP1 PUSH1 0x20 SWAP1 DUP3 SWAP1 PUSH1 0x24 SWAP1 DUP3 SWAP1 GAS STATICCALL SWAP5 DUP6 ISZERO PUSH2 0x849 JUMPI PUSH2 0x809 DUP6 PUSH2 0x6D2 SWAP8 PUSH2 0x810 SWAP5 PUSH1 0x0 SWAP2 PUSH2 0x81A JUMPI JUMPDEST POP PUSH2 0x1284 JUMP JUMPDEST LT ISZERO PUSH2 0x14CF JUMP JUMPDEST PUSH1 0x0 SLOAD AND SWAP1 PUSH2 0x17A5 JUMP JUMPDEST PUSH2 0x83C SWAP2 POP PUSH1 0x20 RETURNDATASIZE PUSH1 0x20 GT PUSH2 0x842 JUMPI JUMPDEST PUSH2 0x834 DUP2 DUP4 PUSH2 0x1447 JUMP JUMPDEST DUP2 ADD SWAP1 PUSH2 0x1469 JUMP JUMPDEST CODESIZE PUSH2 0x803 JUMP JUMPDEST POP RETURNDATASIZE PUSH2 0x82A JUMP JUMPDEST PUSH2 0x1478 JUMP JUMPDEST SWAP1 SWAP6 PUSH2 0x881 PUSH1 0x1 SWAP2 DUP3 PUSH2 0x879 PUSH2 0x641 PUSH2 0x866 DUP13 PUSH2 0xD6F JUMP JUMPDEST SWAP1 SLOAD PUSH1 0x1 PUSH1 0x1 PUSH1 0xA0 SHL SUB SWAP2 PUSH1 0x3 SHL SHR AND SWAP1 JUMP JUMPDEST ADD SLOAD SWAP1 PUSH2 0x1291 JUMP JUMPDEST SWAP7 ADD SWAP1 PUSH2 0x7BF JUMP JUMPDEST SWAP4 POP PUSH2 0x8B2 PUSH2 0x8AE PUSH2 0x200 DUP7 PUSH1 0x1 PUSH1 0x1 PUSH1 0xA0 SHL SUB AND PUSH1 0x0 MSTORE PUSH1 0x3 PUSH1 0x20 MSTORE PUSH1 0x40 PUSH1 0x0 KECCAK256 SWAP1 JUMP JUMPDEST ISZERO SWAP1 JUMP JUMPDEST SWAP4 DUP5 ISZERO PUSH2 0x8CC JUMPI JUMPDEST POP PUSH2 0x8C7 PUSH2 0x6D2 SWAP5 PUSH2 0x1484 JUMP JUMPDEST PUSH2 0x810 JUMP JUMPDEST PUSH1 0x40 MLOAD PUSH4 0x70A08231 PUSH1 0xE0 SHL DUP2 MSTORE ADDRESS PUSH1 0x4 DUP3 ADD MSTORE SWAP1 SWAP5 POP PUSH1 0x20 DUP2 PUSH1 0x24 DUP2 DUP7 GAS STATICCALL SWAP5 DUP6 ISZERO PUSH2 0x849 JUMPI PUSH1 0x2 PUSH2 0x92A PUSH2 0x910 DUP8 PUSH2 0x6D2 SWAP10 PUSH2 0x8C7 SWAP7 PUSH1 0x0 SWAP2 PUSH2 0x81A JUMPI POP PUSH2 0x1284 JUMP JUMPDEST SWAP3 PUSH1 0x1 PUSH1 0x1 PUSH1 0xA0 SHL SUB AND PUSH1 0x0 MSTORE PUSH1 0x3 PUSH1 0x20 MSTORE PUSH1 0x40 PUSH1 0x0 KECCAK256 SWAP1 JUMP JUMPDEST ADD SLOAD GT ISZERO SWAP5 POP PUSH2 0x8BA JUMP JUMPDEST CALLVALUE PUSH2 0x162 JUMPI PUSH1 0x0 CALLDATASIZE PUSH1 0x3 NOT ADD SLT PUSH2 0x162 JUMPI PUSH1 0x20 PUSH1 0x1 PUSH1 0x1 PUSH1 0xA0 SHL SUB PUSH1 0x0 SLOAD AND PUSH1 0x40 MLOAD SWAP1 DUP2 MSTORE RETURN JUMPDEST CALLVALUE PUSH2 0x162 JUMPI PUSH1 0x20 CALLDATASIZE PUSH1 0x3 NOT ADD SLT PUSH2 0x162 JUMPI PUSH2 0x975 PUSH2 0x14C JUMP JUMPDEST PUSH2 0x97D PUSH2 0x180B JUMP JUMPDEST PUSH1 0x1 PUSH1 0x1 PUSH1 0xA0 SHL SUB DUP1 DUP3 AND SWAP1 DUP2 ISZERO PUSH2 0xA7A JUMPI PUSH2 0x9BD SWAP1 PUSH32 0x0 AND DUP3 EQ ISZERO PUSH2 0x151A JUMP JUMPDEST PUSH2 0x9E8 PUSH2 0x9E3 PUSH2 0x8AE PUSH2 0x200 DUP6 PUSH1 0x1 PUSH1 0x1 PUSH1 0xA0 SHL SUB AND PUSH1 0x0 MSTORE PUSH1 0x3 PUSH1 0x20 MSTORE PUSH1 0x40 PUSH1 0x0 KECCAK256 SWAP1 JUMP JUMPDEST PUSH2 0x1565 JUMP JUMPDEST PUSH2 0xA53 PUSH2 0x9F3 PUSH2 0x15B0 JUMP JUMPDEST PUSH1 0x1 DUP2 MSTORE SWAP3 PUSH2 0xA4E PUSH1 0x0 SWAP5 DUP6 PUSH1 0x20 DUP3 ADD MSTORE DUP6 PUSH1 0x40 DUP3 ADD MSTORE PUSH2 0xA27 DUP4 PUSH1 0x1 PUSH1 0x1 PUSH1 0xA0 SHL SUB AND PUSH1 0x0 MSTORE PUSH1 0x3 PUSH1 0x20 MSTORE PUSH1 0x40 PUSH1 0x0 KECCAK256 SWAP1 JUMP JUMPDEST SWAP1 PUSH1 0x40 PUSH1 0x2 SWAP2 DUP1 MLOAD ISZERO ISZERO PUSH1 0xFF DUP1 NOT DUP7 SLOAD AND SWAP2 AND OR DUP5 SSTORE PUSH1 0x20 DUP2 ADD MLOAD PUSH1 0x1 DUP6 ADD SSTORE ADD MLOAD SWAP2 ADD SSTORE JUMP JUMPDEST PUSH2 0x15D0 JUMP JUMPDEST PUSH32 0x9A8E8B3031C7740F71E486C661D6CDA066A43CA21C18A260BFEE3C6845ED8A28 DUP3 DUP1 LOG2 DUP1 RETURN JUMPDEST PUSH1 0x64 PUSH1 0x40 MLOAD PUSH3 0x461BCD PUSH1 0xE5 SHL DUP2 MSTORE PUSH1 0x20 PUSH1 0x4 DUP3 ADD MSTORE PUSH1 0x1C PUSH1 0x24 DUP3 ADD MSTORE PUSH32 0x546F6B656E2063616E6E6F74206265207A65726F206164647265737300000000 PUSH1 0x44 DUP3 ADD MSTORE REVERT JUMPDEST CALLVALUE PUSH2 0x162 JUMPI PUSH1 0x20 CALLDATASIZE PUSH1 0x3 NOT ADD SLT PUSH2 0x162 JUMPI PUSH2 0xAD7 PUSH2 0x14C JUMP JUMPDEST PUSH2 0xADF PUSH2 0x180B JUMP JUMPDEST PUSH2 0xB07 PUSH2 0xB02 PUSH2 0x200 DUP4 PUSH1 0x1 PUSH1 0x1 PUSH1 0xA0 SHL SUB AND PUSH1 0x0 MSTORE PUSH1 0x3 PUSH1 0x20 MSTORE PUSH1 0x40 PUSH1 0x0 KECCAK256 SWAP1 JUMP JUMPDEST PUSH2 0x1636 JUMP JUMPDEST PUSH1 0x1 SWAP1 PUSH1 0x1 PUSH2 0xB29 DUP3 PUSH1 0x1 PUSH1 0x1 PUSH1 0xA0 SHL SUB AND PUSH1 0x0 MSTORE PUSH1 0x3 PUSH1 0x20 MSTORE PUSH1 0x40 PUSH1 0x0 KECCAK256 SWAP1 JUMP JUMPDEST ADD SLOAD ISZERO DUP1 PUSH2 0xC33 JUMPI JUMPDEST PUSH2 0xB3B SWAP1 PUSH2 0x1681 JUMP JUMPDEST DUP2 PUSH1 0x0 PUSH1 0x1 PUSH1 0x1 PUSH1 0xA0 SHL SUB SWAP1 DUP2 DUP5 AND SWAP5 JUMPDEST PUSH2 0xBAB JUMPI JUMPDEST DUP5 PUSH2 0xB84 PUSH2 0xB72 DUP7 PUSH1 0x1 PUSH1 0x1 PUSH1 0xA0 SHL SUB AND PUSH1 0x0 MSTORE PUSH1 0x3 PUSH1 0x20 MSTORE PUSH1 0x40 PUSH1 0x0 KECCAK256 SWAP1 JUMP JUMPDEST PUSH1 0x2 PUSH1 0x0 SWAP2 DUP3 DUP2 SSTORE DUP3 PUSH1 0x1 DUP3 ADD SSTORE ADD SSTORE JUMP JUMPDEST PUSH32 0x42B32E12FBA575D8587C6751131D30C3C27E44397EA815FA7904EB350CB6EDFF PUSH1 0x0 DUP1 LOG2 STOP JUMPDEST PUSH1 0x4 SLOAD DUP1 DUP3 LT ISZERO PUSH2 0xC2D JUMPI DUP6 DUP4 PUSH2 0xBC4 PUSH2 0x866 DUP6 PUSH2 0xD6F JUMP JUMPDEST AND EQ PUSH2 0xBD3 JUMPI POP DUP3 ADD DUP3 PUSH2 0xB4C JUMP JUMPDEST PUSH2 0xB72 SWAP4 POP PUSH2 0xB84 SWAP5 SWAP3 POP SWAP1 PUSH2 0xBFF PUSH2 0xBF9 PUSH2 0x866 PUSH2 0xBF4 PUSH2 0xC1E SWAP6 PUSH2 0x1275 JUMP JUMPDEST PUSH2 0xD6F JUMP JUMPDEST SWAP2 PUSH2 0xD6F JUMP JUMPDEST SWAP1 SWAP2 SWAP1 PUSH1 0x1 PUSH1 0x1 PUSH1 0xA0 SHL SUB DUP1 DUP5 SLOAD SWAP3 PUSH1 0x3 SHL SWAP4 AND DUP4 SHL SWAP3 SHL NOT AND OR SWAP1 SSTORE JUMP JUMPDEST PUSH2 0xC26 PUSH2 0x16CC JUMP JUMPDEST SWAP2 CODESIZE PUSH2 0xB51 JUMP JUMPDEST POP PUSH2 0xB51 JUMP JUMPDEST POP PUSH2 0xB3B PUSH1 0x2 PUSH2 0xC56 DUP4 PUSH1 0x1 PUSH1 0x1 PUSH1 0xA0 SHL SUB AND PUSH1 0x0 MSTORE PUSH1 0x3 PUSH1 0x20 MSTORE PUSH1 0x40 PUSH1 0x0 KECCAK256 SWAP1 JUMP JUMPDEST ADD SLOAD ISZERO SWAP1 POP PUSH2 0xB32 JUMP JUMPDEST CALLVALUE PUSH2 0x162 JUMPI PUSH1 0x20 CALLDATASIZE PUSH1 0x3 NOT ADD SLT PUSH2 0x162 JUMPI PUSH1 0x1 PUSH1 0x1 PUSH1 0xA0 SHL SUB PUSH2 0xC81 PUSH2 0x14C JUMP JUMPDEST PUSH2 0xC89 PUSH2 0x180B JUMP JUMPDEST AND DUP1 ISZERO PUSH2 0xCC9 JUMPI DUP1 PUSH1 0x1 PUSH1 0x1 PUSH1 0xA0 SHL SUB NOT PUSH1 0x2 SLOAD AND OR PUSH1 0x2 SSTORE PUSH32 0xE5693914D19C789BDEE50A362998C0BC8D035A835F9871DA5D51152F0582C34F PUSH1 0x0 DUP1 LOG2 STOP JUMPDEST PUSH1 0x84 PUSH1 0x40 MLOAD PUSH3 0x461BCD PUSH1 0xE5 SHL DUP2 MSTORE PUSH1 0x20 PUSH1 0x4 DUP3 ADD MSTORE PUSH1 0x24 DUP1 DUP3 ADD MSTORE PUSH32 0x46656520636F6C6C6563746F722063616E6E6F74206265207A65726F20616464 PUSH1 0x44 DUP3 ADD MSTORE PUSH32 0x7265737300000000000000000000000000000000000000000000000000000000 PUSH1 0x64 DUP3 ADD MSTORE REVERT JUMPDEST CALLVALUE PUSH2 0x162 JUMPI PUSH1 0x0 CALLDATASIZE PUSH1 0x3 NOT ADD SLT PUSH2 0x162 JUMPI PUSH1 0x20 PUSH1 0x1 PUSH1 0x1 PUSH1 0xA0 SHL SUB PUSH1 0x2 SLOAD AND PUSH1 0x40 MLOAD SWAP1 DUP2 MSTORE RETURN JUMPDEST PUSH4 0x4E487B71 PUSH1 0xE0 SHL PUSH1 0x0 MSTORE PUSH1 0x32 PUSH1 0x4 MSTORE PUSH1 0x24 PUSH1 0x0 REVERT JUMPDEST PUSH1 0x4 SLOAD DUP2 LT ISZERO PUSH2 0xDA6 JUMPI PUSH1 0x4 PUSH1 0x0 MSTORE PUSH32 0x8A35ACFBC15FF81A39AE7D344FD709F28E8600B4AA8C65C6B64BFE7FE36BD19B ADD SWAP1 PUSH1 0x0 SWAP1 JUMP JUMPDEST PUSH2 0xD59 JUMP JUMPDEST CALLVALUE PUSH2 0x162 JUMPI PUSH1 0x20 CALLDATASIZE PUSH1 0x3 NOT ADD SLT PUSH2 0x162 JUMPI PUSH1 0x4 CALLDATALOAD PUSH1 0x4 SLOAD DUP2 LT ISZERO PUSH2 0x162 JUMPI PUSH1 0x1 PUSH1 0x1 PUSH1 0xA0 SHL SUB PUSH1 0x20 SWAP2 PUSH1 0x4 PUSH1 0x0 MSTORE PUSH32 0x8A35ACFBC15FF81A39AE7D344FD709F28E8600B4AA8C65C6B64BFE7FE36BD19B ADD SLOAD AND PUSH1 0x40 MLOAD SWAP1 DUP2 MSTORE RETURN JUMPDEST CALLVALUE PUSH2 0x162 JUMPI PUSH1 0x0 CALLDATASIZE PUSH1 0x3 NOT ADD SLT PUSH2 0x162 JUMPI PUSH1 0x20 PUSH1 0x40 MLOAD PUSH2 0x2710 DUP2 MSTORE RETURN JUMPDEST CALLVALUE PUSH2 0x162 JUMPI PUSH32 0x96CD817C6329656790EF8FBA7675405193677D39619571282F5E21F3A98CD059 PUSH2 0xE51 CALLDATASIZE PUSH2 0x167 JUMP JUMPDEST SWAP1 PUSH2 0xE64 PUSH1 0x2 PUSH1 0x1 SWAP6 SWAP5 SWAP6 SLOAD EQ ISZERO PUSH2 0x10BF JUMP JUMPDEST PUSH1 0x2 PUSH1 0x1 SSTORE PUSH2 0xE71 PUSH2 0x180B JUMP JUMPDEST PUSH2 0xF06 DUP2 PUSH1 0x1 PUSH1 0x1 PUSH1 0xA0 SHL SUB PUSH2 0xEA0 DUP2 DUP9 AND SWAP8 DUP9 PUSH1 0x0 MSTORE PUSH1 0x3 PUSH1 0x20 MSTORE PUSH2 0x641 PUSH2 0x207 PUSH1 0x40 PUSH1 0x0 KECCAK256 PUSH1 0xFF SWAP1 SLOAD AND SWAP1 JUMP JUMPDEST PUSH2 0xEDB DUP7 PUSH1 0x1 DUP4 ADD SWAP3 PUSH1 0x2 DUP5 SLOAD SWAP2 PUSH2 0xEBA DUP9 DUP5 LT ISZERO PUSH2 0x1354 JUMP JUMPDEST ADD SWAP4 PUSH2 0xED4 DUP8 DUP7 SLOAD SWAP4 PUSH2 0xECF DUP7 DUP7 LT ISZERO PUSH2 0x1309 JUMP JUMPDEST PUSH2 0x1284 JUMP JUMPDEST SWAP1 SSTORE PUSH2 0x1284 JUMP JUMPDEST SWAP1 SSTORE CALLER SWAP1 PUSH32 0x0 AND PUSH2 0x17A5 JUMP JUMPDEST PUSH2 0xF11 DUP3 CALLER DUP7 PUSH2 0x17A5 JUMP JUMPDEST PUSH1 0x40 DUP1 MLOAD SWAP2 DUP3 MSTORE PUSH1 0x20 DUP3 ADD SWAP3 SWAP1 SWAP3 MSTORE SWAP1 DUP2 SWAP1 DUP2 ADD PUSH2 0x6C6 JUMP JUMPDEST CALLVALUE PUSH2 0x162 JUMPI PUSH1 0x20 CALLDATASIZE PUSH1 0x3 NOT ADD SLT PUSH2 0x162 JUMPI PUSH1 0x1 PUSH1 0x1 PUSH1 0xA0 SHL SUB PUSH2 0xF4B PUSH2 0x14C JUMP JUMPDEST AND DUP1 PUSH1 0x0 MSTORE PUSH1 0x3 PUSH1 0x20 MSTORE PUSH2 0xF66 PUSH1 0xFF PUSH1 0x40 PUSH1 0x0 KECCAK256 SLOAD AND PUSH2 0x110A JUMP JUMPDEST PUSH1 0x0 MSTORE PUSH1 0x3 PUSH1 0x20 MSTORE PUSH1 0x40 PUSH1 0x0 KECCAK256 PUSH1 0x2 PUSH1 0x1 DUP3 ADD SLOAD SWAP2 DUP3 ISZERO ISZERO DUP1 PUSH2 0xFDB JUMPI JUMPDEST PUSH2 0xF8D SWAP1 PUSH2 0x11A0 JUMP JUMPDEST ADD SLOAD PUSH8 0xDE0B6B3A7640000 SWAP1 DUP2 DUP2 MUL SWAP2 DUP2 DUP4 DIV EQ DUP2 ISZERO OR ISZERO PUSH2 0xFD6 JUMPI PUSH2 0xFBF PUSH2 0xFB9 DUP5 PUSH2 0xFC4 SWAP5 PUSH2 0x129E JUMP JUMPDEST SWAP4 PUSH2 0x122E JUMP JUMPDEST PUSH2 0x129E JUMP JUMPDEST PUSH1 0x40 DUP1 MLOAD SWAP3 DUP4 MSTORE PUSH1 0x20 DUP4 ADD SWAP2 SWAP1 SWAP2 MSTORE SWAP1 RETURN JUMPDEST PUSH2 0x11EB JUMP JUMPDEST POP DUP1 DUP3 ADD SLOAD ISZERO ISZERO PUSH2 0xF84 JUMP JUMPDEST CALLVALUE PUSH2 0x162 JUMPI PUSH1 0x20 CALLDATASIZE PUSH1 0x3 NOT ADD SLT PUSH2 0x162 JUMPI PUSH2 0x1000 PUSH2 0x14C JUMP JUMPDEST PUSH2 0x1008 PUSH2 0x180B JUMP JUMPDEST PUSH1 0x1 PUSH1 0x1 PUSH1 0xA0 SHL SUB DUP1 SWAP2 AND DUP1 ISZERO PUSH2 0x1055 JUMPI PUSH1 0x0 SWAP2 DUP3 SLOAD DUP3 PUSH1 0x1 PUSH1 0x1 PUSH1 0xA0 SHL SUB NOT DUP3 AND OR DUP5 SSTORE AND PUSH32 0x8BE0079C531659141344CD1FD0A4F28419497F9722A3DAAFE3B4186F6B6457E0 DUP4 DUP1 LOG3 DUP1 RETURN JUMPDEST PUSH1 0x84 PUSH1 0x40 MLOAD PUSH3 0x461BCD PUSH1 0xE5 SHL DUP2 MSTORE PUSH1 0x20 PUSH1 0x4 DUP3 ADD MSTORE PUSH1 0x26 PUSH1 0x24 DUP3 ADD MSTORE PUSH32 0x4F776E61626C653A206E6577206F776E657220697320746865207A65726F2061 PUSH1 0x44 DUP3 ADD MSTORE PUSH32 0x6464726573730000000000000000000000000000000000000000000000000000 PUSH1 0x64 DUP3 ADD MSTORE REVERT JUMPDEST ISZERO PUSH2 0x10C6 JUMPI JUMP JUMPDEST PUSH1 0x64 PUSH1 0x40 MLOAD PUSH3 0x461BCD PUSH1 0xE5 SHL DUP2 MSTORE PUSH1 0x20 PUSH1 0x4 DUP3 ADD MSTORE PUSH1 0x1F PUSH1 0x24 DUP3 ADD MSTORE PUSH32 0x5265656E7472616E637947756172643A207265656E7472616E742063616C6C00 PUSH1 0x44 DUP3 ADD MSTORE REVERT JUMPDEST ISZERO PUSH2 0x1111 JUMPI JUMP JUMPDEST PUSH1 0x64 PUSH1 0x40 MLOAD PUSH3 0x461BCD PUSH1 0xE5 SHL DUP2 MSTORE PUSH1 0x20 PUSH1 0x4 DUP3 ADD MSTORE PUSH1 0x18 PUSH1 0x24 DUP3 ADD MSTORE PUSH32 0x546F6B656E2070616972206E6F7420737570706F727465640000000000000000 PUSH1 0x44 DUP3 ADD MSTORE REVERT JUMPDEST ISZERO PUSH2 0x115C JUMPI JUMP JUMPDEST PUSH1 0x64 PUSH1 0x40 MLOAD PUSH3 0x461BCD PUSH1 0xE5 SHL DUP2 MSTORE PUSH1 0x20 PUSH1 0x4 DUP3 ADD MSTORE PUSH1 0x20 PUSH1 0x24 DUP3 ADD MSTORE PUSH32 0x416D6F756E74206D7573742062652067726561746572207468616E207A65726F PUSH1 0x44 DUP3 ADD MSTORE REVERT JUMPDEST ISZERO PUSH2 0x11A7 JUMPI JUMP JUMPDEST PUSH1 0x64 PUSH1 0x40 MLOAD PUSH3 0x461BCD PUSH1 0xE5 SHL DUP2 MSTORE PUSH1 0x20 PUSH1 0x4 DUP3 ADD MSTORE PUSH1 0x16 PUSH1 0x24 DUP3 ADD MSTORE PUSH32 0x496E73756666696369656E74206C697175696469747900000000000000000000 PUSH1 0x44 DUP3 ADD MSTORE REVERT JUMPDEST PUSH4 0x4E487B71 PUSH1 0xE0 SHL PUSH1 0x0 MSTORE PUSH1 0x11 PUSH1 0x4 MSTORE PUSH1 0x24 PUSH1 0x0 REVERT JUMPDEST SWAP1 PUSH2 0x2710 SWAP2 DUP3 DUP2 MUL SWAP3 DUP2 DUP5 DIV EQ SWAP1 ISZERO OR ISZERO PUSH2 0xFD6 JUMPI JUMP JUMPDEST SWAP1 PUSH1 0x1E DUP3 MUL SWAP2 DUP1 DUP4 DIV PUSH1 0x1E EQ SWAP1 ISZERO OR ISZERO PUSH2 0xFD6 JUMPI JUMP JUMPDEST SWAP1 PUSH8 0xDE0B6B3A7640000 SWAP2 DUP3 DUP2 MUL SWAP3 DUP2 DUP5 DIV EQ SWAP1 ISZERO OR ISZERO PUSH2 0xFD6 JUMPI JUMP JUMPDEST SWAP1 PUSH2 0x26F2 SWAP2 DUP3 DUP2 MUL SWAP3 DUP2 DUP5 DIV EQ SWAP1 ISZERO OR ISZERO PUSH2 0xFD6 JUMPI JUMP JUMPDEST DUP2 DUP2 MUL SWAP3 SWAP2 DUP2 ISZERO SWAP2 DUP5 DIV EQ OR ISZERO PUSH2 0xFD6 JUMPI JUMP JUMPDEST PUSH1 0x0 NOT DUP2 ADD SWAP2 SWAP1 DUP3 GT PUSH2 0xFD6 JUMPI JUMP JUMPDEST SWAP2 SWAP1 DUP3 SUB SWAP2 DUP3 GT PUSH2 0xFD6 JUMPI JUMP JUMPDEST SWAP2 SWAP1 DUP3 ADD DUP1 SWAP3 GT PUSH2 0xFD6 JUMPI JUMP JUMPDEST DUP2 ISZERO PUSH2 0x12A8 JUMPI DIV SWAP1 JUMP JUMPDEST PUSH4 0x4E487B71 PUSH1 0xE0 SHL PUSH1 0x0 MSTORE PUSH1 0x12 PUSH1 0x4 MSTORE PUSH1 0x24 PUSH1 0x0 REVERT JUMPDEST ISZERO PUSH2 0x12C5 JUMPI JUMP JUMPDEST PUSH1 0x64 PUSH1 0x40 MLOAD PUSH3 0x461BCD PUSH1 0xE5 SHL DUP2 MSTORE PUSH1 0x20 PUSH1 0x4 DUP3 ADD MSTORE PUSH1 0x11 PUSH1 0x24 DUP3 ADD MSTORE PUSH32 0x536C69707061676520746F6F2068696768000000000000000000000000000000 PUSH1 0x44 DUP3 ADD MSTORE REVERT JUMPDEST ISZERO PUSH2 0x1310 JUMPI JUMP JUMPDEST PUSH1 0x64 PUSH1 0x40 MLOAD PUSH3 0x461BCD PUSH1 0xE5 SHL DUP2 MSTORE PUSH1 0x20 PUSH1 0x4 DUP3 ADD MSTORE PUSH1 0x1A PUSH1 0x24 DUP3 ADD MSTORE PUSH32 0x496E73756666696369656E7420746F6B656E2072657365727665000000000000 PUSH1 0x44 DUP3 ADD MSTORE REVERT JUMPDEST ISZERO PUSH2 0x135B JUMPI JUMP JUMPDEST PUSH1 0x64 PUSH1 0x40 MLOAD PUSH3 0x461BCD PUSH1 0xE5 SHL DUP2 MSTORE PUSH1 0x20 PUSH1 0x4 DUP3 ADD MSTORE PUSH1 0x1A PUSH1 0x24 DUP3 ADD MSTORE PUSH32 0x496E73756666696369656E742043524F414B2072657365727665000000000000 PUSH1 0x44 DUP3 ADD MSTORE REVERT JUMPDEST ISZERO PUSH2 0x13A6 JUMPI JUMP JUMPDEST PUSH1 0x84 PUSH1 0x40 MLOAD PUSH3 0x461BCD PUSH1 0xE5 SHL DUP2 MSTORE PUSH1 0x20 PUSH1 0x4 DUP3 ADD MSTORE PUSH1 0x21 PUSH1 0x24 DUP3 ADD MSTORE PUSH32 0x416D6F756E7473206D7573742062652067726561746572207468616E207A6572 PUSH1 0x44 DUP3 ADD MSTORE PUSH32 0x6F00000000000000000000000000000000000000000000000000000000000000 PUSH1 0x64 DUP3 ADD MSTORE REVERT JUMPDEST PUSH4 0x4E487B71 PUSH1 0xE0 SHL PUSH1 0x0 MSTORE PUSH1 0x41 PUSH1 0x4 MSTORE PUSH1 0x24 PUSH1 0x0 REVERT JUMPDEST PUSH1 0x40 DUP2 ADD SWAP1 DUP2 LT PUSH8 0xFFFFFFFFFFFFFFFF DUP3 GT OR PUSH2 0x1442 JUMPI PUSH1 0x40 MSTORE JUMP JUMPDEST PUSH2 0x1410 JUMP JUMPDEST SWAP1 PUSH1 0x1F DUP1 NOT SWAP2 ADD AND DUP2 ADD SWAP1 DUP2 LT PUSH8 0xFFFFFFFFFFFFFFFF DUP3 GT OR PUSH2 0x1442 JUMPI PUSH1 0x40 MSTORE JUMP JUMPDEST SWAP1 DUP2 PUSH1 0x20 SWAP2 SUB SLT PUSH2 0x162 JUMPI MLOAD SWAP1 JUMP JUMPDEST PUSH1 0x40 MLOAD RETURNDATASIZE PUSH1 0x0 DUP3 RETURNDATACOPY RETURNDATASIZE SWAP1 REVERT JUMPDEST ISZERO PUSH2 0x148B JUMPI JUMP JUMPDEST PUSH1 0x64 PUSH1 0x40 MLOAD PUSH3 0x461BCD PUSH1 0xE5 SHL DUP2 MSTORE PUSH1 0x20 PUSH1 0x4 DUP3 ADD MSTORE PUSH1 0x1E PUSH1 0x24 DUP3 ADD MSTORE PUSH32 0x43616E6E6F74207265636F76657220726573657276656420746F6B656E730000 PUSH1 0x44 DUP3 ADD MSTORE REVERT JUMPDEST ISZERO PUSH2 0x14D6 JUMPI JUMP JUMPDEST PUSH1 0x64 PUSH1 0x40 MLOAD PUSH3 0x461BCD PUSH1 0xE5 SHL DUP2 MSTORE PUSH1 0x20 PUSH1 0x4 DUP3 ADD MSTORE PUSH1 0x1D PUSH1 0x24 DUP3 ADD MSTORE PUSH32 0x43616E6E6F74207265636F7665722072657365727665642043524F414B000000 PUSH1 0x44 DUP3 ADD MSTORE REVERT JUMPDEST ISZERO PUSH2 0x1521 JUMPI JUMP JUMPDEST PUSH1 0x64 PUSH1 0x40 MLOAD PUSH3 0x461BCD PUSH1 0xE5 SHL DUP2 MSTORE PUSH1 0x20 PUSH1 0x4 DUP3 ADD MSTORE PUSH1 0x15 PUSH1 0x24 DUP3 ADD MSTORE PUSH32 0x546F6B656E2063616E6E6F742062652043524F414B0000000000000000000000 PUSH1 0x44 DUP3 ADD MSTORE REVERT JUMPDEST ISZERO PUSH2 0x156C JUMPI JUMP JUMPDEST PUSH1 0x64 PUSH1 0x40 MLOAD PUSH3 0x461BCD PUSH1 0xE5 SHL DUP2 MSTORE PUSH1 0x20 PUSH1 0x4 DUP3 ADD MSTORE PUSH1 0x19 PUSH1 0x24 DUP3 ADD MSTORE PUSH32 0x546F6B656E207061697220616C72656164792065786973747300000000000000 PUSH1 0x44 DUP3 ADD MSTORE REVERT JUMPDEST PUSH1 0x40 MLOAD SWAP1 PUSH1 0x60 DUP3 ADD DUP3 DUP2 LT PUSH8 0xFFFFFFFFFFFFFFFF DUP3 GT OR PUSH2 0x1442 JUMPI PUSH1 0x40 MSTORE JUMP JUMPDEST PUSH1 0x4 SLOAD PUSH9 0x10000000000000000 DUP2 LT ISZERO PUSH2 0x1442 JUMPI PUSH1 0x1 DUP2 ADD DUP1 PUSH1 0x4 SSTORE DUP2 LT ISZERO PUSH2 0xDA6 JUMPI PUSH1 0x1 PUSH1 0x1 PUSH1 0xA0 SHL SUB SWAP1 PUSH1 0x4 PUSH1 0x0 MSTORE PUSH32 0x8A35ACFBC15FF81A39AE7D344FD709F28E8600B4AA8C65C6B64BFE7FE36BD19B ADD SWAP2 AND PUSH1 0x1 PUSH1 0x1 PUSH1 0xA0 SHL SUB NOT DUP3 SLOAD AND OR SWAP1 SSTORE JUMP JUMPDEST ISZERO PUSH2 0x163D JUMPI JUMP JUMPDEST PUSH1 0x64 PUSH1 0x40 MLOAD PUSH3 0x461BCD PUSH1 0xE5 SHL DUP2 MSTORE PUSH1 0x20 PUSH1 0x4 DUP3 ADD MSTORE PUSH1 0x19 PUSH1 0x24 DUP3 ADD MSTORE PUSH32 0x546F6B656E207061697220646F6573206E6F7420657869737400000000000000 PUSH1 0x44 DUP3 ADD MSTORE REVERT JUMPDEST ISZERO PUSH2 0x1688 JUMPI JUMP JUMPDEST PUSH1 0x64 PUSH1 0x40 MLOAD PUSH3 0x461BCD PUSH1 0xE5 SHL DUP2 MSTORE PUSH1 0x20 PUSH1 0x4 DUP3 ADD MSTORE PUSH1 0x16 PUSH1 0x24 DUP3 ADD MSTORE PUSH32 0x4C6971756964697479206D757374206265207A65726F00000000000000000000 PUSH1 0x44 DUP3 ADD MSTORE REVERT JUMPDEST PUSH1 0x4 SLOAD DUP1 ISZERO PUSH2 0x171E JUMPI PUSH1 0x0 NOT DUP2 ADD SWAP1 DUP1 DUP3 LT ISZERO PUSH2 0xDA6 JUMPI PUSH32 0x8A35ACFBC15FF81A39AE7D344FD709F28E8600B4AA8C65C6B64BFE7FE36BD19A SWAP1 PUSH1 0x4 PUSH1 0x0 MSTORE ADD PUSH1 0x1 PUSH1 0x1 PUSH1 0xA0 SHL SUB NOT DUP2 SLOAD AND SWAP1 SSTORE PUSH1 0x4 SSTORE JUMP JUMPDEST PUSH4 0x4E487B71 PUSH1 0xE0 SHL PUSH1 0x0 MSTORE PUSH1 0x31 PUSH1 0x4 MSTORE PUSH1 0x24 PUSH1 0x0 REVERT JUMPDEST SWAP3 SWAP1 PUSH1 0x40 MLOAD SWAP3 PUSH32 0x23B872DD00000000000000000000000000000000000000000000000000000000 PUSH1 0x20 DUP6 ADD MSTORE PUSH1 0x1 PUSH1 0x1 PUSH1 0xA0 SHL SUB DUP1 SWAP3 AND PUSH1 0x24 DUP6 ADD MSTORE AND PUSH1 0x44 DUP4 ADD MSTORE PUSH1 0x64 DUP3 ADD MSTORE PUSH1 0x64 DUP2 MSTORE PUSH1 0xA0 DUP2 ADD SWAP2 DUP2 DUP4 LT PUSH8 0xFFFFFFFFFFFFFFFF DUP5 GT OR PUSH2 0x1442 JUMPI PUSH2 0x17A3 SWAP3 PUSH1 0x40 MSTORE PUSH2 0x18EC JUMP JUMPDEST JUMP JUMPDEST SWAP2 PUSH1 0x1 PUSH1 0x1 PUSH1 0xA0 SHL SUB PUSH1 0x40 MLOAD SWAP3 PUSH32 0xA9059CBB00000000000000000000000000000000000000000000000000000000 PUSH1 0x20 DUP6 ADD MSTORE AND PUSH1 0x24 DUP4 ADD MSTORE PUSH1 0x44 DUP3 ADD MSTORE PUSH1 0x44 DUP2 MSTORE PUSH1 0x80 DUP2 ADD SWAP2 DUP2 DUP4 LT PUSH8 0xFFFFFFFFFFFFFFFF DUP5 GT OR PUSH2 0x1442 JUMPI PUSH2 0x17A3 SWAP3 PUSH1 0x40 MSTORE PUSH2 0x18EC JUMP JUMPDEST PUSH1 0x1 PUSH1 0x1 PUSH1 0xA0 SHL SUB PUSH1 0x0 SLOAD AND CALLER SUB PUSH2 0x181F JUMPI JUMP JUMPDEST PUSH1 0x64 PUSH1 0x40 MLOAD PUSH3 0x461BCD PUSH1 0xE5 SHL DUP2 MSTORE PUSH1 0x20 PUSH1 0x4 DUP3 ADD MSTORE PUSH1 0x20 PUSH1 0x24 DUP3 ADD MSTORE PUSH32 0x4F776E61626C653A2063616C6C6572206973206E6F7420746865206F776E6572 PUSH1 0x44 DUP3 ADD MSTORE REVERT JUMPDEST SWAP1 DUP2 PUSH1 0x20 SWAP2 SUB SLT PUSH2 0x162 JUMPI MLOAD DUP1 ISZERO ISZERO DUP2 SUB PUSH2 0x162 JUMPI SWAP1 JUMP JUMPDEST ISZERO PUSH2 0x1882 JUMPI JUMP JUMPDEST PUSH1 0x84 PUSH1 0x40 MLOAD PUSH3 0x461BCD PUSH1 0xE5 SHL DUP2 MSTORE PUSH1 0x20 PUSH1 0x4 DUP3 ADD MSTORE PUSH1 0x2A PUSH1 0x24 DUP3 ADD MSTORE PUSH32 0x5361666545524332303A204552433230206F7065726174696F6E20646964206E PUSH1 0x44 DUP3 ADD MSTORE PUSH32 0x6F74207375636365656400000000000000000000000000000000000000000000 PUSH1 0x64 DUP3 ADD MSTORE REVERT JUMPDEST PUSH1 0x1 PUSH1 0x1 PUSH1 0xA0 SHL SUB AND SWAP1 PUSH1 0x40 MLOAD SWAP1 PUSH2 0x1903 DUP3 PUSH2 0x1426 JUMP JUMPDEST PUSH1 0x20 SWAP3 DUP4 DUP4 MSTORE PUSH32 0x5361666545524332303A206C6F772D6C6576656C2063616C6C206661696C6564 DUP5 DUP5 ADD MSTORE DUP1 EXTCODESIZE ISZERO PUSH2 0x197A JUMPI PUSH1 0x0 DUP3 DUP2 SWAP3 DUP3 DUP8 PUSH2 0x1955 SWAP8 SWAP7 MLOAD SWAP4 ADD SWAP2 GAS CALL PUSH2 0x194F PUSH2 0x19BE JUMP JUMPDEST SWAP1 PUSH2 0x19FE JUMP JUMPDEST DUP1 MLOAD SWAP1 DUP2 PUSH2 0x1962 JUMPI POP POP POP JUMP JUMPDEST DUP3 PUSH2 0x17A3 SWAP4 PUSH2 0x1975 SWAP4 DUP4 ADD ADD SWAP2 ADD PUSH2 0x1863 JUMP JUMPDEST PUSH2 0x187B JUMP JUMPDEST PUSH1 0x64 DUP5 PUSH1 0x40 MLOAD SWAP1 PUSH3 0x461BCD PUSH1 0xE5 SHL DUP3 MSTORE PUSH1 0x4 DUP3 ADD MSTORE PUSH1 0x1D PUSH1 0x24 DUP3 ADD MSTORE PUSH32 0x416464726573733A2063616C6C20746F206E6F6E2D636F6E7472616374000000 PUSH1 0x44 DUP3 ADD MSTORE REVERT JUMPDEST RETURNDATASIZE ISZERO PUSH2 0x19F9 JUMPI RETURNDATASIZE SWAP1 PUSH8 0xFFFFFFFFFFFFFFFF DUP3 GT PUSH2 0x1442 JUMPI PUSH1 0x40 MLOAD SWAP2 PUSH2 0x19ED PUSH1 0x1F DUP3 ADD PUSH1 0x1F NOT AND PUSH1 0x20 ADD DUP5 PUSH2 0x1447 JUMP JUMPDEST DUP3 MSTORE RETURNDATASIZE PUSH1 0x0 PUSH1 0x20 DUP5 ADD RETURNDATACOPY JUMP JUMPDEST PUSH1 0x60 SWAP1 JUMP JUMPDEST SWAP1 SWAP2 SWAP1 ISZERO PUSH2 0x1A0A JUMPI POP SWAP1 JUMP JUMPDEST DUP2 MLOAD ISZERO PUSH2 0x1A1A JUMPI POP DUP1 MLOAD SWAP1 PUSH1 0x20 ADD REVERT JUMPDEST PUSH1 0x40 MLOAD SWAP1 PUSH3 0x461BCD PUSH1 0xE5 SHL DUP3 MSTORE DUP2 PUSH1 0x20 DUP1 PUSH1 0x4 DUP4 ADD MSTORE DUP3 MLOAD SWAP1 DUP2 PUSH1 0x24 DUP5 ADD MSTORE PUSH1 0x0 SWAP4 JUMPDEST DUP3 DUP6 LT PUSH2 0x1A60 JUMPI POP POP PUSH1 0x44 SWAP3 POP PUSH1 0x0 DUP4 DUP3 DUP5 ADD ADD MSTORE PUSH1 0x1F DUP1 NOT SWAP2 ADD AND DUP2 ADD SUB ADD SWAP1 REVERT JUMPDEST DUP5 DUP2 ADD DUP3 ADD MLOAD DUP7 DUP7 ADD PUSH1 0x44 ADD MSTORE SWAP4 DUP2 ADD SWAP4 DUP6 SWAP4 POP PUSH2 0x1A3D JUMP INVALID LOG2 PUSH5 0x6970667358 0x22 SLT KECCAK256 MULMOD PUSH12 0x3130D7063FE291423411DE96 0xC9 0xB3 0xBB SUB 0xAF CHAINID 0xE0 SWAP6 ADD SWAP6 GAS SWAP16 0x2C SIGNEXTEND 0xB6 DUP2 0xE5 SWAP8 PUSH5 0x736F6C6343 STOP ADDMOD AND STOP CALLER "},"methodIdentifiers":{"BASIS_POINTS()":"e1f1c4a7","SWAP_FEE()":"768aebde","addLiquidity(address,uint256,uint256)":"55776b77","addTokenPair(address)":"99a3a755","croakToken()":"29fa1bdc","feeCollector()":"c415b95c","getExchangeRate(address)":"efb7601d","getSupportedTokensCount()":"1d163923","owner()":"8da5cb5b","recoverERC20(address,uint256)":"8980f11f","removeLiquidity(address,uint256,uint256)":"e38192e3","removeTokenPair(address)":"9df6a379","renounceOwnership()":"715018a6","setFeeCollector(address)":"a42dce80","supportedTokens(uint256)":"c6255626","swapCroakForToken(address,uint256,uint256)":"0459f882","swapTokenForCroak(address,uint256,uint256)":"2d2eb9f3","tokenPairs(address)":"47bbbdf5","transferOwnership(address)":"f2fde38b"}}}}}