{"contracts/collab.sol":{"Collab":{"abi":[{"inputs":[{"internalType":"address","name":"_treasuryAddress","type":"address"}],"stateMutability":"nonpayable","type":"constructor"},{"anonymous":false,"inputs":[{"indexed":true,"internalType":"address","name":"tokenAddress","type":"address"},{"indexed":true,"internalType":"address","name":"stakingAddress","type":"address"},{"indexed":true,"internalType":"address","name":"swapAddress","type":"address"}],"name":"CroakEcosystemDeployed","type":"event"},{"anonymous":false,"inputs":[{"indexed":true,"internalType":"address","name":"previousOwner","type":"address"},{"indexed":true,"internalType":"address","name":"newOwner","type":"address"}],"name":"OwnershipTransferred","type":"event"},{"anonymous":false,"inputs":[{"indexed":true,"internalType":"address","name":"newStakingAddress","type":"address"}],"name":"StakingContractUpdated","type":"event"},{"anonymous":false,"inputs":[{"indexed":true,"internalType":"address","name":"newSwapAddress","type":"address"}],"name":"SwapContractUpdated","type":"event"},{"inputs":[{"internalType":"address","name":"tokenAddress","type":"address"},{"internalType":"uint256","name":"croakAmount","type":"uint256"},{"internalType":"uint256","name":"tokenAmount","type":"uint256"}],"name":"addLiquidity","outputs":[],"stateMutability":"nonpayable","type":"function"},{"inputs":[],"name":"croakToken","outputs":[{"internalType":"contract CroakToken","name":"","type":"address"}],"stateMutability":"view","type":"function"},{"inputs":[],"name":"enableTrading","outputs":[],"stateMutability":"nonpayable","type":"function"},{"inputs":[],"name":"getContractAddresses","outputs":[{"internalType":"address","name":"tokenAddress","type":"address"},{"internalType":"address","name":"stakingAddress","type":"address"},{"internalType":"address","name":"swapAddress","type":"address"}],"stateMutability":"view","type":"function"},{"inputs":[],"name":"owner","outputs":[{"internalType":"address","name":"","type":"address"}],"stateMutability":"view","type":"function"},{"inputs":[{"internalType":"address","name":"tokenAddress","type":"address"},{"internalType":"uint256","name":"amount","type":"uint256"}],"name":"recoverERC20","outputs":[],"stateMutability":"nonpayable","type":"function"},{"inputs":[],"name":"renounceOwnership","outputs":[],"stateMutability":"nonpayable","type":"function"},{"inputs":[{"internalType":"address","name":"tokenAddress","type":"address"}],"name":"setupTokenPair","outputs":[],"stateMutability":"nonpayable","type":"function"},{"inputs":[],"name":"stakingContract","outputs":[{"internalType":"contract CroakStaking","name":"","type":"address"}],"stateMutability":"view","type":"function"},{"inputs":[],"name":"swapContract","outputs":[{"internalType":"contract CroakSwap","name":"","type":"address"}],"stateMutability":"view","type":"function"},{"inputs":[{"internalType":"address","name":"newOwner","type":"address"}],"name":"transferOwnership","outputs":[],"stateMutability":"nonpayable","type":"function"},{"inputs":[],"name":"treasuryAddress","outputs":[{"internalType":"address","name":"","type":"address"}],"stateMutability":"view","type":"function"},{"inputs":[{"internalType":"address","name":"_newStakingContract","type":"address"}],"name":"updateStakingContract","outputs":[],"stateMutability":"nonpayable","type":"function"},{"inputs":[{"internalType":"address","name":"_newSwapContract","type":"address"}],"name":"updateSwapContract","outputs":[],"stateMutability":"nonpayable","type":"function"},{"inputs":[{"internalType":"address","name":"_newTreasuryAddress","type":"address"}],"name":"updateTreasuryAddress","outputs":[],"stateMutability":"nonpayable","type":"function"}],"evm":{"bytecode":{"linkReferences":{},"object":"608060408181523462000402576000918062006091803803809162000025828562000431565b83396020928391810103126200035d57516001600160a01b039182821691829003620003fe5784546001600160a01b0319808216339081178855865191939286167f8be0079c531659141344cd1fd0a4f28419497f9722a3daafe3b4186f6b6457e08980a38315620003be5750600480548316909317835584516001600160401b039290611a098082019085821183831017620003ab578491839162004688833930815203019088f080156200037b5785169260019380838654161785558686541690885191611664918284019284841086851117620003985791608093918593620013898539825265010d7adb7d2f888301528b82015230606082015203019089f080156200032d578616826002541617600255858454169086865416885192611c9b8085019385851090851117620003855791606093918593620029ed8539825286820152308a82015203019088f080156200037b5785169060035416176003558382541686856002541691803b1562000377578190604489518094819363c125c86160e01b978884528b8401528960248401525af180156200032d5762000361575b50869085845416908660035416823b156200035d5760448492838b51958694859384528b8401528960248401525af18015620003535762000337575b508483541693828682541695604489518095819363a9059cbb60e01b9a8b8452878401526a108b2a2c2802909400000060248401525af19182156200032d5783926200030b575b5060448685541695898860025416978a51988995869485528401526a084595161401484a00000060248401525af192831562000301578493620002cc575b505054167f8f69794098affd5a50afb8d34a0ae71df3222ba113fa95ddbff521435c94023b8260025416926003541693519480a4610f199081620004708239f35b81620002f092903d10620002f9575b620002e7818362000431565b81019062000455565b5038806200028b565b503d620002db565b85513d88823e3d90fd5b6200032590833d8511620002f957620002e7818362000431565b50386200024d565b87513d8a823e3d90fd5b620003429062000407565b6200034f57853862000206565b8580fd5b87513d84823e3d90fd5b8380fd5b6200036f9097919762000407565b9538620001ca565b5080fd5b86513d89823e3d90fd5b634e487b7160e01b8c526041895260248cfd5b634e487b7160e01b8d5260418a5260248dfd5b634e487b7160e01b8a526041875260248afd5b60649162461bcd60e51b82526004820152601f60248201527f54726561737572792063616e6e6f74206265207a65726f2061646472657373006044820152fd5b8480fd5b600080fd5b6001600160401b0381116200041b57604052565b634e487b7160e01b600052604160045260246000fd5b601f909101601f19168101906001600160401b038211908210176200041b57604052565b90816020910312620004025751801515810362000402579056fe6080604052600436101561001257600080fd5b60003560e01c806320f626721461010757806329fa1bdc146101025780633347e4d6146100fd57806355776b77146100f85780636e985dc0146100f3578063715018a6146100ee578063841e4561146100e95780638980f11f146100e45780638a8c523c146100df5780638da5cb5b146100da5780638ea83031146100d5578063953874d2146100d0578063c5f956af146100cb578063ee99205c146100c65763f2fde38b146100c157600080fd5b610927565b610900565b6108d9565b61089b565b610874565b61084d565b6107de565b61075f565b6105a0565b610546565b610466565b6102e1565b6101ef565b6101c8565b610127565b600435906001600160a01b038216820361012257565b600080fd5b3461012257600060203660031901126101ba5761014261010c565b61014a610af4565b816001600160a01b03806003541692833b156101b6576024908360405195869485937f99a3a7550000000000000000000000000000000000000000000000000000000085521660048401525af180156101b1576101a5575080f35b6101ae90610a2e565b80f35b610a85565b8280fd5b80fd5b600091031261012257565b346101225760003660031901126101225760206001600160a01b0360015416604051908152f35b346101225760203660031901126101225761020861010c565b610210610af4565b6001600160a01b038116610225811515610a91565b806001600160a01b0319600254161760025561025861024c6001546001600160a01b031690565b6001600160a01b031690565b91823b156101225760405163c125c86160e01b81526001600160a01b039190911660048201526001602482015260009283908290604490829084905af180156101b1576102c8575b507f6397f5b135542bb3f477cb346cfab5abdec1251d08dc8f8d4efb4ffe122ea0bf8280a280f35b806102d56102db92610a2e565b806101bd565b386102a0565b34610122576060366003190112610122576102fa61010c565b6024359061036b60443561030c610af4565b61032161024c6001546001600160a01b031690565b9360208161033a61024c6003546001600160a01b031690565b604051958692839263a9059cbb60e01b845260048401602090939291936001600160a01b0360408201951681520152565b0381600080995af19283156101b1578593610437575b506103aa8261039b61024c6003546001600160a01b031690565b6001600160a01b038716610bcc565b6103bf61024c6003546001600160a01b031690565b90813b15610433576040517f55776b770000000000000000000000000000000000000000000000000000000081526001600160a01b039095166004860152602485015260448401919091528290818381606481015b03925af180156101b157610426575080f35b806102d56101ae92610a2e565b8380fd5b6104589060203d60201161045f575b6104508183610a63565b810190610adc565b5038610381565b503d610446565b346101225760203660031901126101225761047f61010c565b610487610af4565b6001600160a01b03811661049c811515610a91565b806001600160a01b031960035416176003556104c361024c6001546001600160a01b031690565b91823b156101225760405163c125c86160e01b81526001600160a01b039190911660048201526001602482015260009283908290604490829084905af180156101b157610533575b507f7a100de36a66305ed9ca3998196d0fb9a1806f6dc498d570393b88ab275ed4df8280a280f35b806102d561054092610a2e565b3861050b565b34610122576000806003193601126101ba57610560610af4565b806001600160a01b0381546001600160a01b031981168355167f8be0079c531659141344cd1fd0a4f28419497f9722a3daafe3b4186f6b6457e08280a380f35b34610122576020366003190112610122576105b961010c565b6105c1610af4565b6105d56001600160a01b0382161515610a91565b6105f5816001600160a01b03166001600160a01b03196004541617600455565b61060a61024c6001546001600160a01b031690565b90813b15610122576040517f6605bfda0000000000000000000000000000000000000000000000000000000081526001600160a01b038216600482015260009283908290602490829084905af180156101b15761074c575b5061067861024c6002546001600160a01b031690565b90813b156101b6576040517fe74b981b0000000000000000000000000000000000000000000000000000000081526001600160a01b03821660048201529183908390602490829084905af19182156101b1578392610739575b506106e761024c6003546001600160a01b031690565b90813b15610735576040517fa42dce800000000000000000000000000000000000000000000000000000000081526001600160a01b0390911660048201529190829081838160248101610414565b5050fd5b806102d561074692610a2e565b386106d1565b806102d561075992610a2e565b38610662565b346101225760403660031901126101225761077861010c565b610780610af4565b6000805460405163a9059cbb60e01b81526001600160a01b0391821660048201526024803590820152926020928492604492849291165af180156101b1576107c457005b6107dc9060203d60201161045f576104508183610a63565b005b34610122576000806003193601126101ba576107f8610af4565b806001600160a01b0360015416803b1561084a5781906004604051809481937f8a8c523c0000000000000000000000000000000000000000000000000000000083525af180156101b1576101a5575080f35b50fd5b346101225760003660031901126101225760206001600160a01b0360005416604051908152f35b346101225760003660031901126101225760206001600160a01b0360035416604051908152f35b346101225760003660031901126101225760606001600160a01b03806001541690806002541690600354169060405192835260208301526040820152f35b346101225760003660031901126101225760206001600160a01b0360045416604051908152f35b346101225760003660031901126101225760206001600160a01b0360025416604051908152f35b346101225760203660031901126101225761094061010c565b610948610af4565b6001600160a01b038091168015610995576000918254826001600160a01b03198216178455167f8be0079c531659141344cd1fd0a4f28419497f9722a3daafe3b4186f6b6457e08380a380f35b608460405162461bcd60e51b815260206004820152602660248201527f4f776e61626c653a206e6577206f776e657220697320746865207a65726f206160448201527f64647265737300000000000000000000000000000000000000000000000000006064820152fd5b7f4e487b7100000000000000000000000000000000000000000000000000000000600052604160045260246000fd5b67ffffffffffffffff8111610a4257604052565b6109ff565b6040810190811067ffffffffffffffff821117610a4257604052565b90601f8019910116810190811067ffffffffffffffff821117610a4257604052565b6040513d6000823e3d90fd5b15610a9857565b606460405162461bcd60e51b815260206004820152600f60248201527f496e76616c6964206164647265737300000000000000000000000000000000006044820152fd5b90816020910312610122575180151581036101225790565b6001600160a01b03600054163303610b0857565b606460405162461bcd60e51b815260206004820152602060248201527f4f776e61626c653a2063616c6c6572206973206e6f7420746865206f776e65726044820152fd5b90816020910312610122575190565b15610b6257565b608460405162461bcd60e51b815260206004820152603660248201527f5361666545524332303a20617070726f76652066726f6d206e6f6e2d7a65726f60448201527f20746f206e6f6e2d7a65726f20616c6c6f77616e6365000000000000000000006064820152fd5b91909181158015610c3d575b610c3b93610be8610c3692610b5b565b6040517f095ea7b30000000000000000000000000000000000000000000000000000000060208201526001600160a01b03919091166024820152604480820194909452928352606483610a63565b610d56565b565b506040517fdd62ed3e0000000000000000000000000000000000000000000000000000000081523060048201526001600160a01b038416602482015292602084806044810103816001600160a01b0386165afa9081156101b157610be8610c3692610c3b96600091610cb6575b50159250509350610bd8565b610cd8915060203d602011610cde575b610cd08183610a63565b810190610b4c565b38610caa565b503d610cc6565b15610cec57565b608460405162461bcd60e51b815260206004820152602a60248201527f5361666545524332303a204552433230206f7065726174696f6e20646964206e60448201527f6f742073756363656564000000000000000000000000000000000000000000006064820152fd5b6001600160a01b03169060405190610d6d82610a47565b6020928383527f5361666545524332303a206c6f772d6c6576656c2063616c6c206661696c656484840152803b15610de45760008281928287610dbf9796519301915af1610db9610e28565b90610e68565b80519081610dcc57505050565b82610c3b93610ddf938301019101610adc565b610ce5565b6064846040519062461bcd60e51b82526004820152601d60248201527f416464726573733a2063616c6c20746f206e6f6e2d636f6e74726163740000006044820152fd5b3d15610e63573d9067ffffffffffffffff8211610a425760405191610e57601f8201601f191660200184610a63565b82523d6000602084013e565b606090565b90919015610e74575090565b815115610e845750805190602001fd5b6040519062461bcd60e51b82528160208060048301528251908160248401526000935b828510610eca575050604492506000838284010152601f80199101168101030190fd5b8481018201518686016044015293810193859350610ea756fea2646970667358221220421e8e2ce25e57140f68b5b34b6073a32d75c0cb802c72578d6df8b2950f86c164736f6c6343000816003360a034620001d657601f6200166438819003918201601f19168301916001600160401b03831184841017620001db57808492608094604052833981010312620001d6576200004d81620001f1565b60208201516200006e60606200006660408601620001f1565b9401620001f1565b600080546001600160a01b03198082166001600160a01b039485169081178455604051979196919385938416907f8be0079c531659141344cd1fd0a4f28419497f9722a3daafe3b4186f6b6457e09080a36001805568056bc75e2d631000006005556107d06007551694851562000188575016928315620001375760805260025560085416176008554260035560405161145d908162000207823960805181818161039501528181610435015281816105810152818161070901528181610e9501526111060152f35b60405162461bcd60e51b8152602060048201526024808201527f46656520726563697069656e742063616e6e6f74206265207a65726f206164646044820152637265737360e01b6064820152608490fd5b62461bcd60e51b8152602060048201526024808201527f5374616b696e6720746f6b656e2063616e6e6f74206265207a65726f206164646044820152637265737360e01b6064820152608490fd5b600080fd5b634e487b7160e01b600052604160045260246000fd5b51906001600160a01b0382168203620001d65756fe6080604052600436101561001257600080fd5b60003560e01c80628cc262146101f15780630906cfc61461017e57806311f7758f146101ec57806316330d40146101e75780631ea860d6146101e2578063233e9903146101dd5780632e1a7d4d146101d857806346904840146101d3578063715018a6146101ce57806372f702f3146101c95780637304eb8d146101c4578063733bdef0146101bf5780637b0472f0146101ba5780637b0a47ee146101b5578063817b1cd2146101b05780638980f11f146101ab5780638da5cb5b146101a65780639168ae72146101a15780639e447fc61461019c578063a84cd70814610197578063b88a802f14610192578063c8f33c911461018d578063cd3daf9d14610188578063df136d6514610183578063e1f1c4a71461017e578063e74b981b14610179578063ec5ffac214610174578063ecf008891461016f578063f2fde38b1461016a5763f826ed2e1461016557600080fd5b610bc4565b610adf565b610ac2565b610aa4565b6109b0565b61023c565b610992565b610977565b610959565b6108e6565b6108c8565b61086d565b610807565b6107e0565b6106d9565b6106bb565b61069d565b610622565b6105c2565b6105a5565b610561565b6104f7565b6104d0565b6102ff565b6102b3565b610295565b610277565b610259565b610211565b600435906001600160a01b038216820361020c57565b600080fd5b3461020c57602036600319011261020c57602061023461022f6101f6565b610ca6565b604051908152f35b3461020c57600036600319011261020c5760206040516127108152f35b3461020c57600036600319011261020c57602060405162093a808152f35b3461020c57600036600319011261020c576020600754604051908152f35b3461020c57600036600319011261020c57602060405162278d008152f35b3461020c57602036600319011261020c577ff4045d7dd317de89564c3f12c35961242ed2a4dce3ae4e7a75847ffa04bb083460206004356102f2611056565b80600555604051908152a1005b3461020c57602036600319011261020c5760043561032260026001541415610d5b565b600260015561032f611003565b60045542600355336104a6575b33600090815260096020526040902090808254106104625761035d336110ae565b600282015442109181926103f2575b818161037f61038e946103899454610c74565b9055600654610c74565b600655565b6103b981337f000000000000000000000000000000000000000000000000000000000000000061113a565b60405190815233907f7084f5476618d8e60b11ef0d7d3f06914655adb8793e28ff7f018d4c76d505d590602090a26103f060018055565b005b915061038961038e9161041261040a60075483610c86565b612710900490565b936104596104208684610c74565b956104336008546001600160a01b031690565b7f000000000000000000000000000000000000000000000000000000000000000061113a565b9150915061036c565b606460405162461bcd60e51b815260206004820152601a60248201527f496e73756666696369656e74207374616b656420616d6f756e740000000000006044820152fd5b6104af33610ca6565b3360005260096020526040600020906004820155600360045491015561033c565b3461020c57600036600319011261020c5760206001600160a01b0360085416604051908152f35b3461020c5760008060031936011261055e57610511611056565b806001600160a01b03815473ffffffffffffffffffffffffffffffffffffffff1981168355167f8be0079c531659141344cd1fd0a4f28419497f9722a3daafe3b4186f6b6457e08280a380f35b80fd5b3461020c57600036600319011261020c5760206040516001600160a01b037f0000000000000000000000000000000000000000000000000000000000000000168152f35b3461020c57600036600319011261020c576020604051613a988152f35b3461020c57602036600319011261020c5760806105dd6101f6565b6001600160a01b0381166000526009602052604060002080549161060a6002600184015493015491610ca6565b91604051938452602084015260408301526060820152f35b3461020c57604036600319011261020c5761064260026001541415610d5b565b600260015561064f611003565b6004554260035533610673575b61066a602435600435610e3c565b6103f060018055565b61067c33610ca6565b3360005260096020526040600020906004820155600360045491015561065c565b3461020c57600036600319011261020c576020600254604051908152f35b3461020c57600036600319011261020c576020600654604051908152f35b3461020c57604036600319011261020c576106f26101f6565b6024356106fd611056565b6001600160a01b0380807f000000000000000000000000000000000000000000000000000000000000000016931690838214610743575b6103f09350600054169061113a565b6040517f70a0823100000000000000000000000000000000000000000000000000000000815230600482015293602090859060249082905afa80156107db5761079f6107a7916103f0966000916107ac575b5060065490610c74565b841115610fb8565b610734565b6107ce915060203d6020116107d4575b6107c68183610f7b565b810190610f9d565b38610795565b503d6107bc565b610fac565b3461020c57600036600319011261020c5760206001600160a01b0360005416604051908152f35b3461020c57602036600319011261020c576001600160a01b036108286101f6565b16600052600960205260a06040600020805490600181015490600281015460046003830154920154926040519485526020850152604084015260608301526080820152f35b3461020c57602036600319011261020c577f41d466ebd06fb97e7786086ac8b69b7eb7da798592036251291d34e9791cde0160206004356108ac611056565b6108b4611003565b6004554260035580600255604051908152a1005b3461020c57600036600319011261020c5760206040516276a7008152f35b3461020c5760008060031936011261055e5761090760026001541415610d5b565b6002600155610914611003565b6004554260035533610931575b61092a336110ae565b6001805580f35b61093a33610ca6565b3382526009602052604082209060048201556003600454910155610921565b3461020c57600036600319011261020c576020600354604051908152f35b3461020c57600036600319011261020c576020610234611003565b3461020c57600036600319011261020c576020600454604051908152f35b3461020c57602036600319011261020c576109c96101f6565b6109d1611056565b6001600160a01b0381168015610a3b576008805473ffffffffffffffffffffffffffffffffffffffff19169190911790556040516001600160a01b039190911681527f7a7b5a0a132f9e0581eb8527f66eae9ee89c2a3e79d4ac7e41a1f1f4d48a7fc290602090a1005b608460405162461bcd60e51b8152602060048201526024808201527f46656520726563697069656e742063616e6e6f74206265207a65726f2061646460448201527f72657373000000000000000000000000000000000000000000000000000000006064820152fd5b3461020c57600036600319011261020c576020600554604051908152f35b3461020c57600036600319011261020c576020604051612ee08152f35b3461020c57602036600319011261020c57610af86101f6565b610b00611056565b6001600160a01b038091168015610b5a5760009182548273ffffffffffffffffffffffffffffffffffffffff198216178455167f8be0079c531659141344cd1fd0a4f28419497f9722a3daafe3b4186f6b6457e08380a380f35b608460405162461bcd60e51b815260206004820152602660248201527f4f776e61626c653a206e6577206f776e657220697320746865207a65726f206160448201527f64647265737300000000000000000000000000000000000000000000000000006064820152fd5b3461020c57602036600319011261020c57600435610be0611056565b610bb88111610c1a576020817f45108bbe17e2c6b15aef1a0c3b1668a1bc7f6d41aeb46a048100e839ba6fdac892600755604051908152a1005b606460405162461bcd60e51b815260206004820152600c60248201527f46656520746f6f206869676800000000000000000000000000000000000000006044820152fd5b634e487b7160e01b600052601160045260246000fd5b91908203918211610c8157565b610c5e565b81810292918115918404141715610c8157565b91908201809211610c8157565b6001600160a01b031660005260096020526040600020600481015490805480610cce57505090565b61040a610d309392610d0a610cfc610d2a94610cf6610ceb611003565b600386015490610c74565b90610c86565b670de0b6b3a7640000900490565b6001600092015462093a808114600014610d33575061271091505b610c86565b90610c99565b90565b62278d008103610d485750612ee09150610c86565b6276a70003610d2557613a989150610c86565b15610d6257565b606460405162461bcd60e51b815260206004820152601f60248201527f5265656e7472616e637947756172643a207265656e7472616e742063616c6c006044820152fd5b15610dad57565b606460405162461bcd60e51b815260206004820152601a60248201527f416d6f756e742062656c6f77206d696e696d756d207374616b650000000000006044820152fd5b15610df857565b606460405162461bcd60e51b815260206004820152601360248201527f496e76616c6964206c6f636b20706572696f64000000000000000000000000006044820152fd5b90610f197f1449c6dd7851abc30abf37f57715f492010519147cc2652fbc38202c18a6ee9091610e70600554851015610da6565b62093a8081148015610f38575b8015610f2c575b610e8d90610df1565b610eb98430337f00000000000000000000000000000000000000000000000000000000000000006111a2565b3360009081526009602052604090208054610f1e575b610eda858254610c99565b81558160018201556002610eee8342610c99565b910155610f0061038985600654610c99565b6040805194855260208501919091523393918291820190565b0390a2565b610f27336110ae565b610ecf565b506276a7008114610e84565b5062278d008114610e7d565b634e487b7160e01b600052604160045260246000fd5b6040810190811067ffffffffffffffff821117610f7657604052565b610f44565b90601f8019910116810190811067ffffffffffffffff821117610f7657604052565b9081602091031261020c575190565b6040513d6000823e3d90fd5b15610fbf57565b606460405162461bcd60e51b815260206004820152601c60248201527f43616e6e6f74207265636f766572207374616b656420746f6b656e73000000006044820152fd5b600654801561104f57600454906003544203428111610c815760025461102891610c86565b670de0b6b3a764000090818102918183041490151715610c8157048101809111610c815790565b5060045490565b6001600160a01b0360005416330361106a57565b606460405162461bcd60e51b815260206004820152602060248201527f4f776e61626c653a2063616c6c6572206973206e6f7420746865206f776e65726044820152fd5b6001600160a01b0381169081600052600960205260046040600020018054806110d8575b50505050565b61112a817f106f923f993c2149d49b4255ff723acafa1f2d94393f561d3eda32ae348f7241946000602095557f000000000000000000000000000000000000000000000000000000000000000061113a565b604051908152a2388080806110d2565b916001600160a01b03604051927fa9059cbb000000000000000000000000000000000000000000000000000000006020850152166024830152604482015260448152608081019181831067ffffffffffffffff841117610f76576111a09260405261129a565b565b9290604051927f23b872dd0000000000000000000000000000000000000000000000000000000060208501526001600160a01b03809216602485015216604483015260648201526064815260a081019181831067ffffffffffffffff841117610f76576111a09260405261129a565b9081602091031261020c5751801515810361020c5790565b1561123057565b608460405162461bcd60e51b815260206004820152602a60248201527f5361666545524332303a204552433230206f7065726174696f6e20646964206e60448201527f6f742073756363656564000000000000000000000000000000000000000000006064820152fd5b6001600160a01b031690604051906112b182610f5a565b6020928383527f5361666545524332303a206c6f772d6c6576656c2063616c6c206661696c656484840152803b1561132857600082819282876113039796519301915af16112fd61136c565b906113ac565b8051908161131057505050565b826111a093611323938301019101611211565b611229565b6064846040519062461bcd60e51b82526004820152601d60248201527f416464726573733a2063616c6c20746f206e6f6e2d636f6e74726163740000006044820152fd5b3d156113a7573d9067ffffffffffffffff8211610f76576040519161139b601f8201601f191660200184610f7b565b82523d6000602084013e565b606090565b909190156113b8575090565b8151156113c85750805190602001fd5b6040519062461bcd60e51b82528160208060048301528251908160248401526000935b82851061140e575050604492506000838284010152601f80199101168101030190fd5b84810182015186860160440152938101938593506113eb56fea2646970667358221220c64dfa7beb1091d54b20d9c904cb3f2cb605f5309457c9a1b16903a42ee309da64736f6c6343000816003360a034620001bb57601f62001c9b38819003918201601f19168301916001600160401b03831184841017620001c057808492606094604052833981010312620001bb576200004d81620001d6565b906200006a60406200006260208401620001d6565b9201620001d6565b600080546001600160a01b039283166001600160a01b03198083168217845560405190959390928516907f8be0079c531659141344cd1fd0a4f28419497f9722a3daafe3b4186f6b6457e09080a360018055828516156200016e5750169182156200011d576080526002541617600255604051611aaf9081620001ec82396080518181816102c9015281816103b20152818161050d0152818161066101528181610786015281816109950152610ee10152f35b60405162461bcd60e51b8152602060048201526024808201527f46656520636f6c6c6563746f722063616e6e6f74206265207a65726f206164646044820152637265737360e01b6064820152608490fd5b62461bcd60e51b815260206004820152602260248201527f43524f414b20746f6b656e2063616e6e6f74206265207a65726f206164647265604482015261737360f01b6064820152608490fd5b600080fd5b634e487b7160e01b600052604160045260246000fd5b51906001600160a01b0382168203620001bb5756fe6080604052600436101561001257600080fd5b60003560e01c80630459f882146101475780631d1639231461014257806329fa1bdc1461013d5780632d2eb9f31461013857806347bbbdf51461013357806355776b771461012e578063715018a614610129578063768aebde146101245780638980f11f1461011f5780638da5cb5b1461011a57806399a3a755146101155780639df6a37914610110578063a42dce801461010b578063c415b95c14610106578063c625562614610101578063e1f1c4a7146100fc578063e38192e3146100f7578063efb7601d146100f25763f2fde38b146100ed57600080fd5b610fe7565b610f2a565b610e22565b610e05565b610dab565b610d32565b610c60565b610abe565b61095c565b610935565b610756565b61073a565b6106dd565b6105b7565b610561565b6103d6565b610392565b610374565b610191565b600435906001600160a01b038216820361016257565b600080fd5b6060906003190112610162576004356001600160a01b038116810361016257906024359060443590565b346101625761036461029a7ffa2dda1cc1b86e41239702756b13effbc1a092b5c57e3ad320fbe4f3b13fe2356101c636610167565b6101d8600260019593955414156110bf565b600260015561020c610207610200856001600160a01b03166000526003602052604060002090565b5460ff1690565b61110a565b610217841515611155565b610234836001600160a01b03166000526003602052604060002090565b9260018401906102a28661028f600285549889151580610368575b610258906111a0565b019761028961027a61027461026f8c548097611262565b61124b565b92611201565b6102838c61124b565b90611291565b9061129e565b9889958610156112be565b841115611309565b6102b66102ae87611218565b612710900490565b946001600160a01b039261031f610318857f000000000000000000000000000000000000000000000000000000000000000016986102f68b30338d611734565b6103128161030c6002546001600160a01b031690565b8c6117a5565b8a611284565b8254611291565b905561032c848254611284565b9055169361033b8233876117a5565b604080519182526020820192909252a361035460018055565b6040519081529081906020820190565b0390f35b5080820154151561024f565b34610162576000366003190112610162576020600454604051908152f35b346101625760003660031901126101625760206040516001600160a01b037f0000000000000000000000000000000000000000000000000000000000000000168152f35b34610162576103646104c47ffa2dda1cc1b86e41239702756b13effbc1a092b5c57e3ad320fbe4f3b13fe23561040b36610167565b61041e60026001959394955414156110bf565b6002600155610446610207610200866001600160a01b03166000526003602052604060002090565b610451831515611155565b61046e846001600160a01b03166000526003602052604060002090565b9261033b60018501956104cc875480151580610554575b61048e906111a0565b6104b960026104a061026f8489611262565b9901986102896104b08b54611201565b6102838961124b565b998a968710156112be565b851115611354565b6104d86102ae85611218565b966001600160a01b03809216966104f18530338b611734565b6104fc858254611291565b9055610509858254611284565b90557f0000000000000000000000000000000000000000000000000000000000000000169561054261053b8286611284565b33896117a5565b6002546001600160a01b0316876117a5565b5060028801541515610485565b34610162576020366003190112610162576001600160a01b0361058261014c565b1660005260036020526060604060002060ff815416906002600182015491015490604051921515835260208301526040820152f35b34610162577fac1d76749e5447b7b16f5ab61447e1bd502f3bb4807af3b28e620d1700a6ee456105e636610167565b906105f9600260019594955414156110bf565b600260015560026001600160a01b036106868361065a8389169889600052600360205261062f610207604060002060ff90541690565b821515806106d4575b6106419061139f565b6001600160a01b03166000526003602052604060002090565b92309033907f000000000000000000000000000000000000000000000000000000000000000016611734565b61069284303389611734565b600181016106a1848254611291565b9055016106af838254611291565b905560408051918252602082019290925290819081015b0390a26106d260018055565b005b50871515610638565b3461016257600080600319360112610737576106f761180b565b806001600160a01b0381546001600160a01b031981168355167f8be0079c531659141344cd1fd0a4f28419497f9722a3daafe3b4186f6b6457e08280a380f35b80fd5b34610162576000366003190112610162576020604051601e8152f35b346101625760403660031901126101625761076f61014c565b60243561077a61180b565b6001600160a01b0391827f0000000000000000000000000000000000000000000000000000000000000000169280821691848314600014610889575060009360006004545b80821061084e5750506040516370a0823160e01b815230600482015290602090829060249082905afa94851561084957610809856106d2976108109460009161081a575b50611284565b10156114cf565b60005416906117a5565b61083c915060203d602011610842575b6108348183611447565b810190611469565b38610803565b503d61082a565b611478565b9095610881600191826108796106416108668c610d6f565b90546001600160a01b039160031b1c1690565b015490611291565b9601906107bf565b93506108b26108ae610200866001600160a01b03166000526003602052604060002090565b1590565b9384156108cc575b506108c76106d294611484565b610810565b6040516370a0823160e01b8152306004820152909450602081602481865afa94851561084957600261092a610910876106d2996108c79660009161081a5750611284565b926001600160a01b03166000526003602052604060002090565b0154111594506108ba565b346101625760003660031901126101625760206001600160a01b0360005416604051908152f35b346101625760203660031901126101625761097561014c565b61097d61180b565b6001600160a01b03808216908115610a7a576109bd907f00000000000000000000000000000000000000000000000000000000000000001682141561151a565b6109e86109e36108ae610200856001600160a01b03166000526003602052604060002090565b611565565b610a536109f36115b0565b6001815292610a4e600094856020820152856040820152610a27836001600160a01b03166000526003602052604060002090565b9060406002918051151560ff80198654169116178455602081015160018501550151910155565b6115d0565b7f9a8e8b3031c7740f71e486c661d6cda066a43ca21c18a260bfee3c6845ed8a288280a280f35b606460405162461bcd60e51b815260206004820152601c60248201527f546f6b656e2063616e6e6f74206265207a65726f2061646472657373000000006044820152fd5b3461016257602036600319011261016257610ad761014c565b610adf61180b565b610b07610b02610200836001600160a01b03166000526003602052604060002090565b611636565b6001906001610b29826001600160a01b03166000526003602052604060002090565b01541580610c33575b610b3b90611681565b8160006001600160a01b0390818416945b610bab575b84610b84610b72866001600160a01b03166000526003602052604060002090565b60026000918281558260018201550155565b7f42b32e12fba575d8587c6751131d30c3c27e44397ea815fa7904eb350cb6edff600080a2005b60045480821015610c2d578583610bc461086685610d6f565b1614610bd35750820182610b4c565b610b729350610b8494925090610bff610bf9610866610bf4610c1e95611275565b610d6f565b91610d6f565b9091906001600160a01b038084549260031b9316831b921b1916179055565b610c266116cc565b9138610b51565b50610b51565b50610b3b6002610c56836001600160a01b03166000526003602052604060002090565b0154159050610b32565b34610162576020366003190112610162576001600160a01b03610c8161014c565b610c8961180b565b168015610cc957806001600160a01b031960025416176002557fe5693914d19c789bdee50a362998c0bc8d035a835f9871da5d51152f0582c34f600080a2005b608460405162461bcd60e51b8152602060048201526024808201527f46656520636f6c6c6563746f722063616e6e6f74206265207a65726f2061646460448201527f72657373000000000000000000000000000000000000000000000000000000006064820152fd5b346101625760003660031901126101625760206001600160a01b0360025416604051908152f35b634e487b7160e01b600052603260045260246000fd5b600454811015610da65760046000527f8a35acfbc15ff81a39ae7d344fd709f28e8600b4aa8c65c6b64bfe7fe36bd19b0190600090565b610d59565b3461016257602036600319011261016257600435600454811015610162576001600160a01b0360209160046000527f8a35acfbc15ff81a39ae7d344fd709f28e8600b4aa8c65c6b64bfe7fe36bd19b015416604051908152f35b346101625760003660031901126101625760206040516127108152f35b34610162577f96cd817c6329656790ef8fba7675405193677d39619571282f5e21f3a98cd059610e5136610167565b90610e64600260019594955414156110bf565b6002600155610e7161180b565b610f06816001600160a01b03610ea081881697886000526003602052610641610207604060002060ff90541690565b610edb8660018301926002845491610eba88841015611354565b0193610ed487865493610ecf86861015611309565b611284565b9055611284565b905533907f0000000000000000000000000000000000000000000000000000000000000000166117a5565b610f118233866117a5565b60408051918252602082019290925290819081016106c6565b34610162576020366003190112610162576001600160a01b03610f4b61014c565b16806000526003602052610f6660ff6040600020541661110a565b60005260036020526040600020600260018201549182151580610fdb575b610f8d906111a0565b0154670de0b6b3a764000090818102918183041481151715610fd657610fbf610fb984610fc49461129e565b9361122e565b61129e565b60408051928352602083019190915290f35b6111eb565b50808201541515610f84565b346101625760203660031901126101625761100061014c565b61100861180b565b6001600160a01b038091168015611055576000918254826001600160a01b03198216178455167f8be0079c531659141344cd1fd0a4f28419497f9722a3daafe3b4186f6b6457e08380a380f35b608460405162461bcd60e51b815260206004820152602660248201527f4f776e61626c653a206e6577206f776e657220697320746865207a65726f206160448201527f64647265737300000000000000000000000000000000000000000000000000006064820152fd5b156110c657565b606460405162461bcd60e51b815260206004820152601f60248201527f5265656e7472616e637947756172643a207265656e7472616e742063616c6c006044820152fd5b1561111157565b606460405162461bcd60e51b815260206004820152601860248201527f546f6b656e2070616972206e6f7420737570706f7274656400000000000000006044820152fd5b1561115c57565b606460405162461bcd60e51b815260206004820152602060248201527f416d6f756e74206d7573742062652067726561746572207468616e207a65726f6044820152fd5b156111a757565b606460405162461bcd60e51b815260206004820152601660248201527f496e73756666696369656e74206c6971756964697479000000000000000000006044820152fd5b634e487b7160e01b600052601160045260246000fd5b9061271091828102928184041490151715610fd657565b90601e820291808304601e1490151715610fd657565b90670de0b6b3a764000091828102928184041490151715610fd657565b906126f291828102928184041490151715610fd657565b81810292918115918404141715610fd657565b600019810191908211610fd657565b91908203918211610fd657565b91908201809211610fd657565b81156112a8570490565b634e487b7160e01b600052601260045260246000fd5b156112c557565b606460405162461bcd60e51b815260206004820152601160248201527f536c69707061676520746f6f20686967680000000000000000000000000000006044820152fd5b1561131057565b606460405162461bcd60e51b815260206004820152601a60248201527f496e73756666696369656e7420746f6b656e20726573657276650000000000006044820152fd5b1561135b57565b606460405162461bcd60e51b815260206004820152601a60248201527f496e73756666696369656e742043524f414b20726573657276650000000000006044820152fd5b156113a657565b608460405162461bcd60e51b815260206004820152602160248201527f416d6f756e7473206d7573742062652067726561746572207468616e207a657260448201527f6f000000000000000000000000000000000000000000000000000000000000006064820152fd5b634e487b7160e01b600052604160045260246000fd5b6040810190811067ffffffffffffffff82111761144257604052565b611410565b90601f8019910116810190811067ffffffffffffffff82111761144257604052565b90816020910312610162575190565b6040513d6000823e3d90fd5b1561148b57565b606460405162461bcd60e51b815260206004820152601e60248201527f43616e6e6f74207265636f76657220726573657276656420746f6b656e7300006044820152fd5b156114d657565b606460405162461bcd60e51b815260206004820152601d60248201527f43616e6e6f74207265636f7665722072657365727665642043524f414b0000006044820152fd5b1561152157565b606460405162461bcd60e51b815260206004820152601560248201527f546f6b656e2063616e6e6f742062652043524f414b00000000000000000000006044820152fd5b1561156c57565b606460405162461bcd60e51b815260206004820152601960248201527f546f6b656e207061697220616c726561647920657869737473000000000000006044820152fd5b604051906060820182811067ffffffffffffffff82111761144257604052565b60045468010000000000000000811015611442576001810180600455811015610da6576001600160a01b039060046000527f8a35acfbc15ff81a39ae7d344fd709f28e8600b4aa8c65c6b64bfe7fe36bd19b0191166001600160a01b0319825416179055565b1561163d57565b606460405162461bcd60e51b815260206004820152601960248201527f546f6b656e207061697220646f6573206e6f74206578697374000000000000006044820152fd5b1561168857565b606460405162461bcd60e51b815260206004820152601660248201527f4c6971756964697479206d757374206265207a65726f000000000000000000006044820152fd5b600454801561171e5760001981019080821015610da6577f8a35acfbc15ff81a39ae7d344fd709f28e8600b4aa8c65c6b64bfe7fe36bd19a906004600052016001600160a01b03198154169055600455565b634e487b7160e01b600052603160045260246000fd5b9290604051927f23b872dd0000000000000000000000000000000000000000000000000000000060208501526001600160a01b03809216602485015216604483015260648201526064815260a081019181831067ffffffffffffffff841117611442576117a3926040526118ec565b565b916001600160a01b03604051927fa9059cbb000000000000000000000000000000000000000000000000000000006020850152166024830152604482015260448152608081019181831067ffffffffffffffff841117611442576117a3926040526118ec565b6001600160a01b0360005416330361181f57565b606460405162461bcd60e51b815260206004820152602060248201527f4f776e61626c653a2063616c6c6572206973206e6f7420746865206f776e65726044820152fd5b90816020910312610162575180151581036101625790565b1561188257565b608460405162461bcd60e51b815260206004820152602a60248201527f5361666545524332303a204552433230206f7065726174696f6e20646964206e60448201527f6f742073756363656564000000000000000000000000000000000000000000006064820152fd5b6001600160a01b0316906040519061190382611426565b6020928383527f5361666545524332303a206c6f772d6c6576656c2063616c6c206661696c656484840152803b1561197a57600082819282876119559796519301915af161194f6119be565b906119fe565b8051908161196257505050565b826117a393611975938301019101611863565b61187b565b6064846040519062461bcd60e51b82526004820152601d60248201527f416464726573733a2063616c6c20746f206e6f6e2d636f6e74726163740000006044820152fd5b3d156119f9573d9067ffffffffffffffff821161144257604051916119ed601f8201601f191660200184611447565b82523d6000602084013e565b606090565b90919015611a0a575090565b815115611a1a5750805190602001fd5b6040519062461bcd60e51b82528160208060048301528251908160248401526000935b828510611a60575050604492506000838284010152601f80199101168101030190fd5b8481018201518686016044015293810193859350611a3d56fea2646970667358221220096b3130d7063fe291423411de96c9b3bb03af46e09501955a9f2c0bb681e59764736f6c6343000816003360a034620004ab57601f62001a0938819003828101601f19908116850194926001600160401b039283871185881017620003ac5780859260409889528339602094859181010312620004ab57516001600160a01b038082169591869003620004ab576200006b620004b0565b90600b82526a21b937b0b5902a37b5b2b760a91b868301526200008d620004b0565b946005948587526443524f414b60d81b88880152835190828211620003ac5760039182546001968782811c92168015620004a0575b8c8310146200048a578b828a85941162000433575b50508b90898311600114620003ce57600092620003c2575b505060001982851b1c191690861b1782555b8751928311620003ac5760049788548681811c91168015620003a1575b8b8210146200038c579081888d97969594931162000330575b508a91888511600114620002b55750600092919084620002a9575b505082861b92600019911b1c19161786555b84546001600160a01b031981168317909555885194167f8be0079c531659141344cd1fd0a4f28419497f9722a3daafe3b4186f6b6457e0600080a36103e860805261012c80600655600755600854339060018060a81b031916176008553360005260098552866000209060ff1982541617905584156200026c5750506002546aa56fa5b99019a5c80000009182820180921162000257575060025560008381528083528481208054830190558451918252917fddf252ad1be2c89b69c2b068fc378daa952ba7f163c4a11628f55a4df523b3ef91a3516115389081620004d1823960805181818161059f01526109240152f35b601190634e487b7160e01b6000525260246000fd5b8360649362461bcd60e51b845283015260248201527f45524332303a206d696e7420746f20746865207a65726f2061646472657373006044820152fd5b01519150388062000152565b9184939192889516928b6000528c600020938d6000905b828210620003085750508511620002ed575b50505050811b01865562000164565b01519060f884600019921b161c1916905538808080620002de565b929496989950949683978392948601518155019601930191889593918e989795938e620002cc565b90919293949550896000528a600020888087018b1c8201928d881062000382575b9189918f99989796959493018c1c01915b8281106200037257505062000137565b600081558e985089910162000362565b9250819262000351565b60228a634e487b7160e01b6000525260246000fd5b90607f16906200011e565b634e487b7160e01b600052604160045260246000fd5b015190503880620000ef565b908c91858a95168760005283600020936000905b8282106200041b575050841162000402575b505050811b01825562000101565b015160001983871b60f8161c19169055388080620003f4565b8385015186558c979095019493840193018f620003e2565b90919250856000528982600020918186018d1c830193861062000480575b918a9186959493018d1c01915b8281106200047057508d9150620000d7565b600081558594508a91016200045e565b9250819262000451565b634e487b7160e01b600052602260045260246000fd5b91607f1691620000c2565b600080fd5b60408051919082016001600160401b03811183821017620003ac5760405256fe6080604081815260048036101561001557600080fd5b600092833560e01c90816306fdde0314610d3657508063095ea7b314610d0c57806313f1800614610ccb57806316c2be6b14610c8f57806318160ddd14610c7057806323b872dd14610ba557806324024efd14610b86578063313ce56714610b6a5780633950935114610b1b57806340c10f1914610a5557806342966c6814610a375780634ada218b14610a105780635cb23e12146109015780636605bfda1461083f578063691f224f1461082057806370a08231146107ea578063715018a61461078257806379cc6790146106ba5780638a8c523c146105ea5780638da5cb5b146105c25780638fa817321461058757806395d89b4114610465578063a457c2d7146103a5578063a9059cbb14610374578063c125c861146102fe578063c5f956af146102d6578063cd952c1a1461029a578063dd62ed3e1461024d5763f2fde38b1461016257600080fd5b346102495760203660031901126102495761017b610e76565b9061018461102d565b6001600160a01b038092169283156101e05750506005548273ffffffffffffffffffffffffffffffffffffffff19821617600555167f8be0079c531659141344cd1fd0a4f28419497f9722a3daafe3b4186f6b6457e08380a380f35b906020608492519162461bcd60e51b8352820152602660248201527f4f776e61626c653a206e6577206f776e657220697320746865207a65726f206160448201527f64647265737300000000000000000000000000000000000000000000000000006064820152fd5b8280fd5b5050346102965780600319360112610296578060209261026b610e76565b610273610e91565b6001600160a01b0391821683526001865283832091168252845220549051908152f35b5080fd5b5050346102965760203660031901126102965760ff816020936001600160a01b036102c3610e76565b168152600a855220541690519015158152f35b5050346102965781600319360112610296576020906001600160a01b03600854169051908152f35b505034610296577ffbfae68f9027deb3162c567e8a5a612cd34dc187a51bdc30a207add323bebe35906001600160a01b0361033836610ea7565b919061034261102d565b16908185526009602052610364818487209060ff801983541691151516179055565b825191825215156020820152a180f35b50503461029657806003193601126102965760209061039e610394610e76565b6024359033611098565b5160018152f35b5082346104625782600319360112610462576103bf610e76565b91836024359233815260016020528181206001600160a01b03861682526020522054908282106103f95760208561039e8585038733610ef9565b608490602086519162461bcd60e51b8352820152602560248201527f45524332303a2064656372656173656420616c6c6f77616e63652062656c6f7760448201527f207a65726f0000000000000000000000000000000000000000000000000000006064820152fd5b80fd5b5091903461029657816003193601126102965780519082845460018160011c906001831692831561057d575b602093848410811461056a5783885290811561054e57506001146104f9575b505050829003601f01601f191682019267ffffffffffffffff8411838510176104e657508291826104e2925282610e2d565b0390f35b80604186634e487b7160e01b6024945252fd5b8787529192508591837f8a35acfbc15ff81a39ae7d344fd709f28e8600b4aa8c65c6b64bfe7fe36bd19b5b83851061053a57505050508301013880806104b0565b805488860183015293019284908201610524565b60ff1916878501525050151560051b84010190503880806104b0565b60248960228c634e487b7160e01b835252fd5b91607f1691610491565b505034610296578160031936011261029657602090517f00000000000000000000000000000000000000000000000000000000000000008152f35b5050346102965781600319360112610296576020906001600160a01b03600554169051908152f35b503461024957826003193601126102495761060361102d565b6008549160ff8360a01c166106775783740100000000000000000000000000000000000000007fffffffffffffffffffffff00ffffffffffffffffffffffffffffffffffffffff8516176008557f799663458a5ef2936f7fa0c99b3336c69c25890f82974f04e811e5bb359186c78180a180f35b906020606492519162461bcd60e51b8352820152601760248201527f54726164696e6720616c726561647920656e61626c65640000000000000000006044820152fd5b508290346102965782600319360112610296576106d5610e76565b602435916001600160a01b03821684526001602052848420338552602052848420549083821061071a575090610712836107179493033383610ef9565b611212565b80f35b608490602087519162461bcd60e51b83528201526024808201527f45524332303a206275726e20616d6f756e74206578636565647320616c6c6f7760448201527f616e6365000000000000000000000000000000000000000000000000000000006064820152fd5b833461046257806003193601126104625761079b61102d565b806001600160a01b0360055473ffffffffffffffffffffffffffffffffffffffff198116600555167f8be0079c531659141344cd1fd0a4f28419497f9722a3daafe3b4186f6b6457e08280a380f35b50503461029657602036600319011261029657806020926001600160a01b03610811610e76565b16815280845220549051908152f35b5050346102965781600319360112610296576020906006549051908152f35b509034610249576020366003190112610249576001600160a01b03610862610e76565b61086a61102d565b169182156108bf5750816020917f9073dfac663173e64aa95665faedae52e2246f9bcdd3890fbfaf6733b46bba139373ffffffffffffffffffffffffffffffffffffffff19600854161760085551908152a180f35b6020606492519162461bcd60e51b8352820152601f60248201527f54726561737572792063616e6e6f74206265207a65726f2061646472657373006044820152fd5b5091903461029657806003193601126102965782356024359361092261102d565b7f00000000000000000000000000000000000000000000000000000000000000008083116109cd57851161098a57507fab04935564bd7f43810636a24deb03e99f1516e9ba0b68115f9f8c8e3c08f3339293816006558060075582519182526020820152a180f35b606490602084519162461bcd60e51b8352820152601d60248201527f53656c6c2074617820726174652065786365656473206d6178696d756d0000006044820152fd5b606482602086519162461bcd60e51b8352820152601c60248201527f4275792074617820726174652065786365656473206d6178696d756d000000006044820152fd5b50503461029657816003193601126102965760209060ff60085460a01c1690519015158152f35b83823461029657602036600319011261029657610717903533611212565b509034610249578060031936011261024957610a6f610e76565b906001600160a01b0360243592610a8461102d565b16928315610ad957506020827fddf252ad1be2c89b69c2b068fc378daa952ba7f163c4a11628f55a4df523b3ef92610abf8795600254610ed6565b60025585855284835280852082815401905551908152a380f35b6020606492519162461bcd60e51b8352820152601f60248201527f45524332303a206d696e7420746f20746865207a65726f2061646472657373006044820152fd5b50503461029657806003193601126102965761039e602092610b63610b3e610e76565b91338152600186528481206001600160a01b0384168252865284602435912054610ed6565b9033610ef9565b5050346102965781600319360112610296576020905160128152f35b5050346102965781600319360112610296576020906007549051908152f35b5082903461029657606036600319011261029657610bc1610e76565b610bc9610e91565b9184604435946001600160a01b038416815260016020528181203382526020522054906000198203610c04575b60208661039e878787611098565b848210610c2d5750918391610c226020969561039e95033383610ef9565b919394819350610bf6565b606490602087519162461bcd60e51b8352820152601d60248201527f45524332303a20696e73756666696369656e7420616c6c6f77616e63650000006044820152fd5b5050346102965781600319360112610296576020906002549051908152f35b5050346102965760203660031901126102965760ff816020936001600160a01b03610cb8610e76565b1681526009855220541690519015158152f35b505034610296576001600160a01b0361071791610ce736610ea7565b9290610cf161102d565b168452600a60205283209060ff801983541691151516179055565b50503461029657806003193601126102965760209061039e610d2c610e76565b6024359033610ef9565b84915083346102495782600319360112610249578260035460018160011c9060018316928315610e23575b602093848410811461056a57838852908115610e075750600114610db157505050829003601f01601f191682019267ffffffffffffffff8411838510176104e657508291826104e2925282610e2d565b600387529192508591837fc2575a0e9e593c00f959f8c92f12db2869c3395a3b0502d05e2516446f71f85b5b838510610df357505050508301018580806104b0565b805488860183015293019284908201610ddd565b60ff1916878501525050151560051b84010190508580806104b0565b91607f1691610d61565b6020808252825181830181905290939260005b828110610e6257505060409293506000838284010152601f8019910116010190565b818101860151848201604001528501610e40565b600435906001600160a01b0382168203610e8c57565b600080fd5b602435906001600160a01b0382168203610e8c57565b6040906003190112610e8c576004356001600160a01b0381168103610e8c57906024358015158103610e8c5790565b91908201809211610ee357565b634e487b7160e01b600052601160045260246000fd5b6001600160a01b03809116918215610fc45716918215610f5a5760207f8c5be1e5ebec7d5bd14f71427d1e84f3dd0314c0f7b2291e5b200ac8c7c3b925918360005260018252604060002085600052825280604060002055604051908152a3565b608460405162461bcd60e51b815260206004820152602260248201527f45524332303a20617070726f766520746f20746865207a65726f20616464726560448201527f73730000000000000000000000000000000000000000000000000000000000006064820152fd5b608460405162461bcd60e51b8152602060048201526024808201527f45524332303a20617070726f76652066726f6d20746865207a65726f2061646460448201527f72657373000000000000000000000000000000000000000000000000000000006064820152fd5b6001600160a01b0360055416330361104157565b606460405162461bcd60e51b815260206004820152602060248201527f4f776e61626c653a2063616c6c6572206973206e6f7420746865206f776e65726044820152fd5b81810292918115918404141715610ee357565b92919060ff938460085460a01c1615611191575b6001600160a01b0380821690600096828852600960205280604089205416801561117f575b6111715787928852600a60205280604089205416600014611149575090506127106110fe60065486611085565b04905b8180611134575b505083039283116111205761111e93945061134e565b565b602485634e487b7160e01b81526011600452fd5b61114291600854168461134e565b3881611108565b81851688526040882054161561110157905061271061116a60075486611085565b0490611101565b50505061111e93945061134e565b508185168852806040892054166110d1565b6001600160a01b03808216600052600960205285604060002054169081156111fd575b506110ac57606460405162461bcd60e51b815260206004820152601760248201527f54726164696e67206e6f742079657420656e61626c65640000000000000000006044820152fd5b905082166000528460406000205416386111b4565b6001600160a01b031680156112e45760009181835282602052604083205481811061127a57817fddf252ad1be2c89b69c2b068fc378daa952ba7f163c4a11628f55a4df523b3ef926020928587528684520360408620558060025403600255604051908152a3565b608460405162461bcd60e51b815260206004820152602260248201527f45524332303a206275726e20616d6f756e7420657863656564732062616c616e60448201527f63650000000000000000000000000000000000000000000000000000000000006064820152fd5b608460405162461bcd60e51b815260206004820152602160248201527f45524332303a206275726e2066726f6d20746865207a65726f2061646472657360448201527f73000000000000000000000000000000000000000000000000000000000000006064820152fd5b6001600160a01b03809116918215611498571691821561142e576000828152806020526040812054918083106113c457604082827fddf252ad1be2c89b69c2b068fc378daa952ba7f163c4a11628f55a4df523b3ef958760209652828652038282205586815220818154019055604051908152a3565b608460405162461bcd60e51b815260206004820152602660248201527f45524332303a207472616e7366657220616d6f756e742065786365656473206260448201527f616c616e636500000000000000000000000000000000000000000000000000006064820152fd5b608460405162461bcd60e51b815260206004820152602360248201527f45524332303a207472616e7366657220746f20746865207a65726f206164647260448201527f65737300000000000000000000000000000000000000000000000000000000006064820152fd5b608460405162461bcd60e51b815260206004820152602560248201527f45524332303a207472616e736665722066726f6d20746865207a65726f20616460448201527f64726573730000000000000000000000000000000000000000000000000000006064820152fdfea26469706673582212209b3e43f58893f80909c9f09a791959d93b6cee7a98c2e02db551906f5bc600f264736f6c63430008160033","opcodes":"PUSH1 0x80 PUSH1 0x40 DUP2 DUP2 MSTORE CALLVALUE PUSH3 0x402 JUMPI PUSH1 0x0 SWAP2 DUP1 PUSH3 0x6091 DUP1 CODESIZE SUB DUP1 SWAP2 PUSH3 0x25 DUP3 DUP6 PUSH3 0x431 JUMP JUMPDEST DUP4 CODECOPY PUSH1 0x20 SWAP3 DUP4 SWAP2 DUP2 ADD SUB SLT PUSH3 0x35D JUMPI MLOAD PUSH1 0x1 PUSH1 0x1 PUSH1 0xA0 SHL SUB SWAP2 DUP3 DUP3 AND SWAP2 DUP3 SWAP1 SUB PUSH3 0x3FE JUMPI DUP5 SLOAD PUSH1 0x1 PUSH1 0x1 PUSH1 0xA0 SHL SUB NOT DUP1 DUP3 AND CALLER SWAP1 DUP2 OR DUP9 SSTORE DUP7 MLOAD SWAP2 SWAP4 SWAP3 DUP7 AND PUSH32 0x8BE0079C531659141344CD1FD0A4F28419497F9722A3DAAFE3B4186F6B6457E0 DUP10 DUP1 LOG3 DUP4 ISZERO PUSH3 0x3BE JUMPI POP PUSH1 0x4 DUP1 SLOAD DUP4 AND SWAP1 SWAP4 OR DUP4 SSTORE DUP5 MLOAD PUSH1 0x1 PUSH1 0x1 PUSH1 0x40 SHL SUB SWAP3 SWAP1 PUSH2 0x1A09 DUP1 DUP3 ADD SWAP1 DUP6 DUP3 GT DUP4 DUP4 LT OR PUSH3 0x3AB JUMPI DUP5 SWAP2 DUP4 SWAP2 PUSH3 0x4688 DUP4 CODECOPY ADDRESS DUP2 MSTORE SUB ADD SWAP1 DUP9 CREATE DUP1 ISZERO PUSH3 0x37B JUMPI DUP6 AND SWAP3 PUSH1 0x1 SWAP4 DUP1 DUP4 DUP7 SLOAD AND OR DUP6 SSTORE DUP7 DUP7 SLOAD AND SWAP1 DUP9 MLOAD SWAP2 PUSH2 0x1664 SWAP2 DUP3 DUP5 ADD SWAP3 DUP5 DUP5 LT DUP7 DUP6 GT OR PUSH3 0x398 JUMPI SWAP2 PUSH1 0x80 SWAP4 SWAP2 DUP6 SWAP4 PUSH3 0x1389 DUP6 CODECOPY DUP3 MSTORE PUSH6 0x10D7ADB7D2F DUP9 DUP4 ADD MSTORE DUP12 DUP3 ADD MSTORE ADDRESS PUSH1 0x60 DUP3 ADD MSTORE SUB ADD SWAP1 DUP10 CREATE DUP1 ISZERO PUSH3 0x32D JUMPI DUP7 AND DUP3 PUSH1 0x2 SLOAD AND OR PUSH1 0x2 SSTORE DUP6 DUP5 SLOAD AND SWAP1 DUP7 DUP7 SLOAD AND DUP9 MLOAD SWAP3 PUSH2 0x1C9B DUP1 DUP6 ADD SWAP4 DUP6 DUP6 LT SWAP1 DUP6 GT OR PUSH3 0x385 JUMPI SWAP2 PUSH1 0x60 SWAP4 SWAP2 DUP6 SWAP4 PUSH3 0x29ED DUP6 CODECOPY DUP3 MSTORE DUP7 DUP3 ADD MSTORE ADDRESS DUP11 DUP3 ADD MSTORE SUB ADD SWAP1 DUP9 CREATE DUP1 ISZERO PUSH3 0x37B JUMPI DUP6 AND SWAP1 PUSH1 0x3 SLOAD AND OR PUSH1 0x3 SSTORE DUP4 DUP3 SLOAD AND DUP7 DUP6 PUSH1 0x2 SLOAD AND SWAP2 DUP1 EXTCODESIZE ISZERO PUSH3 0x377 JUMPI DUP2 SWAP1 PUSH1 0x44 DUP10 MLOAD DUP1 SWAP5 DUP2 SWAP4 PUSH4 0xC125C861 PUSH1 0xE0 SHL SWAP8 DUP9 DUP5 MSTORE DUP12 DUP5 ADD MSTORE DUP10 PUSH1 0x24 DUP5 ADD MSTORE GAS CALL DUP1 ISZERO PUSH3 0x32D JUMPI PUSH3 0x361 JUMPI JUMPDEST POP DUP7 SWAP1 DUP6 DUP5 SLOAD AND SWAP1 DUP7 PUSH1 0x3 SLOAD AND DUP3 EXTCODESIZE ISZERO PUSH3 0x35D JUMPI PUSH1 0x44 DUP5 SWAP3 DUP4 DUP12 MLOAD SWAP6 DUP7 SWAP5 DUP6 SWAP4 DUP5 MSTORE DUP12 DUP5 ADD MSTORE DUP10 PUSH1 0x24 DUP5 ADD MSTORE GAS CALL DUP1 ISZERO PUSH3 0x353 JUMPI PUSH3 0x337 JUMPI JUMPDEST POP DUP5 DUP4 SLOAD AND SWAP4 DUP3 DUP7 DUP3 SLOAD AND SWAP6 PUSH1 0x44 DUP10 MLOAD DUP1 SWAP6 DUP2 SWAP4 PUSH4 0xA9059CBB PUSH1 0xE0 SHL SWAP11 DUP12 DUP5 MSTORE DUP8 DUP5 ADD MSTORE PUSH11 0x108B2A2C28029094000000 PUSH1 0x24 DUP5 ADD MSTORE GAS CALL SWAP2 DUP3 ISZERO PUSH3 0x32D JUMPI DUP4 SWAP3 PUSH3 0x30B JUMPI JUMPDEST POP PUSH1 0x44 DUP7 DUP6 SLOAD AND SWAP6 DUP10 DUP9 PUSH1 0x2 SLOAD AND SWAP8 DUP11 MLOAD SWAP9 DUP10 SWAP6 DUP7 SWAP5 DUP6 MSTORE DUP5 ADD MSTORE PUSH11 0x84595161401484A000000 PUSH1 0x24 DUP5 ADD MSTORE GAS CALL SWAP3 DUP4 ISZERO PUSH3 0x301 JUMPI DUP5 SWAP4 PUSH3 0x2CC JUMPI JUMPDEST POP POP SLOAD AND PUSH32 0x8F69794098AFFD5A50AFB8D34A0AE71DF3222BA113FA95DDBFF521435C94023B DUP3 PUSH1 0x2 SLOAD AND SWAP3 PUSH1 0x3 SLOAD AND SWAP4 MLOAD SWAP5 DUP1 LOG4 PUSH2 0xF19 SWAP1 DUP2 PUSH3 0x470 DUP3 CODECOPY RETURN JUMPDEST DUP2 PUSH3 0x2F0 SWAP3 SWAP1 RETURNDATASIZE LT PUSH3 0x2F9 JUMPI JUMPDEST PUSH3 0x2E7 DUP2 DUP4 PUSH3 0x431 JUMP JUMPDEST DUP2 ADD SWAP1 PUSH3 0x455 JUMP JUMPDEST POP CODESIZE DUP1 PUSH3 0x28B JUMP JUMPDEST POP RETURNDATASIZE PUSH3 0x2DB JUMP JUMPDEST DUP6 MLOAD RETURNDATASIZE DUP9 DUP3 RETURNDATACOPY RETURNDATASIZE SWAP1 REVERT JUMPDEST PUSH3 0x325 SWAP1 DUP4 RETURNDATASIZE DUP6 GT PUSH3 0x2F9 JUMPI PUSH3 0x2E7 DUP2 DUP4 PUSH3 0x431 JUMP JUMPDEST POP CODESIZE PUSH3 0x24D JUMP JUMPDEST DUP8 MLOAD RETURNDATASIZE DUP11 DUP3 RETURNDATACOPY RETURNDATASIZE SWAP1 REVERT JUMPDEST PUSH3 0x342 SWAP1 PUSH3 0x407 JUMP JUMPDEST PUSH3 0x34F JUMPI DUP6 CODESIZE PUSH3 0x206 JUMP JUMPDEST DUP6 DUP1 REVERT JUMPDEST DUP8 MLOAD RETURNDATASIZE DUP5 DUP3 RETURNDATACOPY RETURNDATASIZE SWAP1 REVERT JUMPDEST DUP4 DUP1 REVERT JUMPDEST PUSH3 0x36F SWAP1 SWAP8 SWAP2 SWAP8 PUSH3 0x407 JUMP JUMPDEST SWAP6 CODESIZE PUSH3 0x1CA JUMP JUMPDEST POP DUP1 REVERT JUMPDEST DUP7 MLOAD RETURNDATASIZE DUP10 DUP3 RETURNDATACOPY RETURNDATASIZE SWAP1 REVERT JUMPDEST PUSH4 0x4E487B71 PUSH1 0xE0 SHL DUP13 MSTORE PUSH1 0x41 DUP10 MSTORE PUSH1 0x24 DUP13 REVERT JUMPDEST PUSH4 0x4E487B71 PUSH1 0xE0 SHL DUP14 MSTORE PUSH1 0x41 DUP11 MSTORE PUSH1 0x24 DUP14 REVERT JUMPDEST PUSH4 0x4E487B71 PUSH1 0xE0 SHL DUP11 MSTORE PUSH1 0x41 DUP8 MSTORE PUSH1 0x24 DUP11 REVERT JUMPDEST PUSH1 0x64 SWAP2 PUSH3 0x461BCD PUSH1 0xE5 SHL DUP3 MSTORE PUSH1 0x4 DUP3 ADD MSTORE PUSH1 0x1F PUSH1 0x24 DUP3 ADD MSTORE PUSH32 0x54726561737572792063616E6E6F74206265207A65726F206164647265737300 PUSH1 0x44 DUP3 ADD MSTORE REVERT JUMPDEST DUP5 DUP1 REVERT JUMPDEST PUSH1 0x0 DUP1 REVERT JUMPDEST PUSH1 0x1 PUSH1 0x1 PUSH1 0x40 SHL SUB DUP2 GT PUSH3 0x41B JUMPI PUSH1 0x40 MSTORE JUMP JUMPDEST PUSH4 0x4E487B71 PUSH1 0xE0 SHL PUSH1 0x0 MSTORE PUSH1 0x41 PUSH1 0x4 MSTORE PUSH1 0x24 PUSH1 0x0 REVERT JUMPDEST PUSH1 0x1F SWAP1 SWAP2 ADD PUSH1 0x1F NOT AND DUP2 ADD SWAP1 PUSH1 0x1 PUSH1 0x1 PUSH1 0x40 SHL SUB DUP3 GT SWAP1 DUP3 LT OR PUSH3 0x41B JUMPI PUSH1 0x40 MSTORE JUMP JUMPDEST SWAP1 DUP2 PUSH1 0x20 SWAP2 SUB SLT PUSH3 0x402 JUMPI MLOAD DUP1 ISZERO ISZERO DUP2 SUB PUSH3 0x402 JUMPI SWAP1 JUMP INVALID PUSH1 0x80 PUSH1 0x40 MSTORE PUSH1 0x4 CALLDATASIZE LT ISZERO PUSH2 0x12 JUMPI PUSH1 0x0 DUP1 REVERT JUMPDEST PUSH1 0x0 CALLDATALOAD PUSH1 0xE0 SHR DUP1 PUSH4 0x20F62672 EQ PUSH2 0x107 JUMPI DUP1 PUSH4 0x29FA1BDC EQ PUSH2 0x102 JUMPI DUP1 PUSH4 0x3347E4D6 EQ PUSH2 0xFD JUMPI DUP1 PUSH4 0x55776B77 EQ PUSH2 0xF8 JUMPI DUP1 PUSH4 0x6E985DC0 EQ PUSH2 0xF3 JUMPI DUP1 PUSH4 0x715018A6 EQ PUSH2 0xEE JUMPI DUP1 PUSH4 0x841E4561 EQ PUSH2 0xE9 JUMPI DUP1 PUSH4 0x8980F11F EQ PUSH2 0xE4 JUMPI DUP1 PUSH4 0x8A8C523C EQ PUSH2 0xDF JUMPI DUP1 PUSH4 0x8DA5CB5B EQ PUSH2 0xDA JUMPI DUP1 PUSH4 0x8EA83031 EQ PUSH2 0xD5 JUMPI DUP1 PUSH4 0x953874D2 EQ PUSH2 0xD0 JUMPI DUP1 PUSH4 0xC5F956AF EQ PUSH2 0xCB JUMPI DUP1 PUSH4 0xEE99205C EQ PUSH2 0xC6 JUMPI PUSH4 0xF2FDE38B EQ PUSH2 0xC1 JUMPI PUSH1 0x0 DUP1 REVERT JUMPDEST PUSH2 0x927 JUMP JUMPDEST PUSH2 0x900 JUMP JUMPDEST PUSH2 0x8D9 JUMP JUMPDEST PUSH2 0x89B JUMP JUMPDEST PUSH2 0x874 JUMP JUMPDEST PUSH2 0x84D JUMP JUMPDEST PUSH2 0x7DE JUMP JUMPDEST PUSH2 0x75F JUMP JUMPDEST PUSH2 0x5A0 JUMP JUMPDEST PUSH2 0x546 JUMP JUMPDEST PUSH2 0x466 JUMP JUMPDEST PUSH2 0x2E1 JUMP JUMPDEST PUSH2 0x1EF JUMP JUMPDEST PUSH2 0x1C8 JUMP JUMPDEST PUSH2 0x127 JUMP JUMPDEST PUSH1 0x4 CALLDATALOAD SWAP1 PUSH1 0x1 PUSH1 0x1 PUSH1 0xA0 SHL SUB DUP3 AND DUP3 SUB PUSH2 0x122 JUMPI JUMP JUMPDEST PUSH1 0x0 DUP1 REVERT JUMPDEST CALLVALUE PUSH2 0x122 JUMPI PUSH1 0x0 PUSH1 0x20 CALLDATASIZE PUSH1 0x3 NOT ADD SLT PUSH2 0x1BA JUMPI PUSH2 0x142 PUSH2 0x10C JUMP JUMPDEST PUSH2 0x14A PUSH2 0xAF4 JUMP JUMPDEST DUP2 PUSH1 0x1 PUSH1 0x1 PUSH1 0xA0 SHL SUB DUP1 PUSH1 0x3 SLOAD AND SWAP3 DUP4 EXTCODESIZE ISZERO PUSH2 0x1B6 JUMPI PUSH1 0x24 SWAP1 DUP4 PUSH1 0x40 MLOAD SWAP6 DUP7 SWAP5 DUP6 SWAP4 PUSH32 0x99A3A75500000000000000000000000000000000000000000000000000000000 DUP6 MSTORE AND PUSH1 0x4 DUP5 ADD MSTORE GAS CALL DUP1 ISZERO PUSH2 0x1B1 JUMPI PUSH2 0x1A5 JUMPI POP DUP1 RETURN JUMPDEST PUSH2 0x1AE SWAP1 PUSH2 0xA2E JUMP JUMPDEST DUP1 RETURN JUMPDEST PUSH2 0xA85 JUMP JUMPDEST DUP3 DUP1 REVERT JUMPDEST DUP1 REVERT JUMPDEST PUSH1 0x0 SWAP2 SUB SLT PUSH2 0x122 JUMPI JUMP JUMPDEST CALLVALUE PUSH2 0x122 JUMPI PUSH1 0x0 CALLDATASIZE PUSH1 0x3 NOT ADD SLT PUSH2 0x122 JUMPI PUSH1 0x20 PUSH1 0x1 PUSH1 0x1 PUSH1 0xA0 SHL SUB PUSH1 0x1 SLOAD AND PUSH1 0x40 MLOAD SWAP1 DUP2 MSTORE RETURN JUMPDEST CALLVALUE PUSH2 0x122 JUMPI PUSH1 0x20 CALLDATASIZE PUSH1 0x3 NOT ADD SLT PUSH2 0x122 JUMPI PUSH2 0x208 PUSH2 0x10C JUMP JUMPDEST PUSH2 0x210 PUSH2 0xAF4 JUMP JUMPDEST PUSH1 0x1 PUSH1 0x1 PUSH1 0xA0 SHL SUB DUP2 AND PUSH2 0x225 DUP2 ISZERO ISZERO PUSH2 0xA91 JUMP JUMPDEST DUP1 PUSH1 0x1 PUSH1 0x1 PUSH1 0xA0 SHL SUB NOT PUSH1 0x2 SLOAD AND OR PUSH1 0x2 SSTORE PUSH2 0x258 PUSH2 0x24C PUSH1 0x1 SLOAD PUSH1 0x1 PUSH1 0x1 PUSH1 0xA0 SHL SUB AND SWAP1 JUMP JUMPDEST PUSH1 0x1 PUSH1 0x1 PUSH1 0xA0 SHL SUB AND SWAP1 JUMP JUMPDEST SWAP2 DUP3 EXTCODESIZE ISZERO PUSH2 0x122 JUMPI PUSH1 0x40 MLOAD PUSH4 0xC125C861 PUSH1 0xE0 SHL DUP2 MSTORE PUSH1 0x1 PUSH1 0x1 PUSH1 0xA0 SHL SUB SWAP2 SWAP1 SWAP2 AND PUSH1 0x4 DUP3 ADD MSTORE PUSH1 0x1 PUSH1 0x24 DUP3 ADD MSTORE PUSH1 0x0 SWAP3 DUP4 SWAP1 DUP3 SWAP1 PUSH1 0x44 SWAP1 DUP3 SWAP1 DUP5 SWAP1 GAS CALL DUP1 ISZERO PUSH2 0x1B1 JUMPI PUSH2 0x2C8 JUMPI JUMPDEST POP PUSH32 0x6397F5B135542BB3F477CB346CFAB5ABDEC1251D08DC8F8D4EFB4FFE122EA0BF DUP3 DUP1 LOG2 DUP1 RETURN JUMPDEST DUP1 PUSH2 0x2D5 PUSH2 0x2DB SWAP3 PUSH2 0xA2E JUMP JUMPDEST DUP1 PUSH2 0x1BD JUMP JUMPDEST CODESIZE PUSH2 0x2A0 JUMP JUMPDEST CALLVALUE PUSH2 0x122 JUMPI PUSH1 0x60 CALLDATASIZE PUSH1 0x3 NOT ADD SLT PUSH2 0x122 JUMPI PUSH2 0x2FA PUSH2 0x10C JUMP JUMPDEST PUSH1 0x24 CALLDATALOAD SWAP1 PUSH2 0x36B PUSH1 0x44 CALLDATALOAD PUSH2 0x30C PUSH2 0xAF4 JUMP JUMPDEST PUSH2 0x321 PUSH2 0x24C PUSH1 0x1 SLOAD PUSH1 0x1 PUSH1 0x1 PUSH1 0xA0 SHL SUB AND SWAP1 JUMP JUMPDEST SWAP4 PUSH1 0x20 DUP2 PUSH2 0x33A PUSH2 0x24C PUSH1 0x3 SLOAD PUSH1 0x1 PUSH1 0x1 PUSH1 0xA0 SHL SUB AND SWAP1 JUMP JUMPDEST PUSH1 0x40 MLOAD SWAP6 DUP7 SWAP3 DUP4 SWAP3 PUSH4 0xA9059CBB PUSH1 0xE0 SHL DUP5 MSTORE PUSH1 0x4 DUP5 ADD PUSH1 0x20 SWAP1 SWAP4 SWAP3 SWAP2 SWAP4 PUSH1 0x1 PUSH1 0x1 PUSH1 0xA0 SHL SUB PUSH1 0x40 DUP3 ADD SWAP6 AND DUP2 MSTORE ADD MSTORE JUMP JUMPDEST SUB DUP2 PUSH1 0x0 DUP1 SWAP10 GAS CALL SWAP3 DUP4 ISZERO PUSH2 0x1B1 JUMPI DUP6 SWAP4 PUSH2 0x437 JUMPI JUMPDEST POP PUSH2 0x3AA DUP3 PUSH2 0x39B PUSH2 0x24C PUSH1 0x3 SLOAD PUSH1 0x1 PUSH1 0x1 PUSH1 0xA0 SHL SUB AND SWAP1 JUMP JUMPDEST PUSH1 0x1 PUSH1 0x1 PUSH1 0xA0 SHL SUB DUP8 AND PUSH2 0xBCC JUMP JUMPDEST PUSH2 0x3BF PUSH2 0x24C PUSH1 0x3 SLOAD PUSH1 0x1 PUSH1 0x1 PUSH1 0xA0 SHL SUB AND SWAP1 JUMP JUMPDEST SWAP1 DUP2 EXTCODESIZE ISZERO PUSH2 0x433 JUMPI PUSH1 0x40 MLOAD PUSH32 0x55776B7700000000000000000000000000000000000000000000000000000000 DUP2 MSTORE PUSH1 0x1 PUSH1 0x1 PUSH1 0xA0 SHL SUB SWAP1 SWAP6 AND PUSH1 0x4 DUP7 ADD MSTORE PUSH1 0x24 DUP6 ADD MSTORE PUSH1 0x44 DUP5 ADD SWAP2 SWAP1 SWAP2 MSTORE DUP3 SWAP1 DUP2 DUP4 DUP2 PUSH1 0x64 DUP2 ADD JUMPDEST SUB SWAP3 GAS CALL DUP1 ISZERO PUSH2 0x1B1 JUMPI PUSH2 0x426 JUMPI POP DUP1 RETURN JUMPDEST DUP1 PUSH2 0x2D5 PUSH2 0x1AE SWAP3 PUSH2 0xA2E JUMP JUMPDEST DUP4 DUP1 REVERT JUMPDEST PUSH2 0x458 SWAP1 PUSH1 0x20 RETURNDATASIZE PUSH1 0x20 GT PUSH2 0x45F JUMPI JUMPDEST PUSH2 0x450 DUP2 DUP4 PUSH2 0xA63 JUMP JUMPDEST DUP2 ADD SWAP1 PUSH2 0xADC JUMP JUMPDEST POP CODESIZE PUSH2 0x381 JUMP JUMPDEST POP RETURNDATASIZE PUSH2 0x446 JUMP JUMPDEST CALLVALUE PUSH2 0x122 JUMPI PUSH1 0x20 CALLDATASIZE PUSH1 0x3 NOT ADD SLT PUSH2 0x122 JUMPI PUSH2 0x47F PUSH2 0x10C JUMP JUMPDEST PUSH2 0x487 PUSH2 0xAF4 JUMP JUMPDEST PUSH1 0x1 PUSH1 0x1 PUSH1 0xA0 SHL SUB DUP2 AND PUSH2 0x49C DUP2 ISZERO ISZERO PUSH2 0xA91 JUMP JUMPDEST DUP1 PUSH1 0x1 PUSH1 0x1 PUSH1 0xA0 SHL SUB NOT PUSH1 0x3 SLOAD AND OR PUSH1 0x3 SSTORE PUSH2 0x4C3 PUSH2 0x24C PUSH1 0x1 SLOAD PUSH1 0x1 PUSH1 0x1 PUSH1 0xA0 SHL SUB AND SWAP1 JUMP JUMPDEST SWAP2 DUP3 EXTCODESIZE ISZERO PUSH2 0x122 JUMPI PUSH1 0x40 MLOAD PUSH4 0xC125C861 PUSH1 0xE0 SHL DUP2 MSTORE PUSH1 0x1 PUSH1 0x1 PUSH1 0xA0 SHL SUB SWAP2 SWAP1 SWAP2 AND PUSH1 0x4 DUP3 ADD MSTORE PUSH1 0x1 PUSH1 0x24 DUP3 ADD MSTORE PUSH1 0x0 SWAP3 DUP4 SWAP1 DUP3 SWAP1 PUSH1 0x44 SWAP1 DUP3 SWAP1 DUP5 SWAP1 GAS CALL DUP1 ISZERO PUSH2 0x1B1 JUMPI PUSH2 0x533 JUMPI JUMPDEST POP PUSH32 0x7A100DE36A66305ED9CA3998196D0FB9A1806F6DC498D570393B88AB275ED4DF DUP3 DUP1 LOG2 DUP1 RETURN JUMPDEST DUP1 PUSH2 0x2D5 PUSH2 0x540 SWAP3 PUSH2 0xA2E JUMP JUMPDEST CODESIZE PUSH2 0x50B JUMP JUMPDEST CALLVALUE PUSH2 0x122 JUMPI PUSH1 0x0 DUP1 PUSH1 0x3 NOT CALLDATASIZE ADD SLT PUSH2 0x1BA JUMPI PUSH2 0x560 PUSH2 0xAF4 JUMP JUMPDEST DUP1 PUSH1 0x1 PUSH1 0x1 PUSH1 0xA0 SHL SUB DUP2 SLOAD PUSH1 0x1 PUSH1 0x1 PUSH1 0xA0 SHL SUB NOT DUP2 AND DUP4 SSTORE AND PUSH32 0x8BE0079C531659141344CD1FD0A4F28419497F9722A3DAAFE3B4186F6B6457E0 DUP3 DUP1 LOG3 DUP1 RETURN JUMPDEST CALLVALUE PUSH2 0x122 JUMPI PUSH1 0x20 CALLDATASIZE PUSH1 0x3 NOT ADD SLT PUSH2 0x122 JUMPI PUSH2 0x5B9 PUSH2 0x10C JUMP JUMPDEST PUSH2 0x5C1 PUSH2 0xAF4 JUMP JUMPDEST PUSH2 0x5D5 PUSH1 0x1 PUSH1 0x1 PUSH1 0xA0 SHL SUB DUP3 AND ISZERO ISZERO PUSH2 0xA91 JUMP JUMPDEST PUSH2 0x5F5 DUP2 PUSH1 0x1 PUSH1 0x1 PUSH1 0xA0 SHL SUB AND PUSH1 0x1 PUSH1 0x1 PUSH1 0xA0 SHL SUB NOT PUSH1 0x4 SLOAD AND OR PUSH1 0x4 SSTORE JUMP JUMPDEST PUSH2 0x60A PUSH2 0x24C PUSH1 0x1 SLOAD PUSH1 0x1 PUSH1 0x1 PUSH1 0xA0 SHL SUB AND SWAP1 JUMP JUMPDEST SWAP1 DUP2 EXTCODESIZE ISZERO PUSH2 0x122 JUMPI PUSH1 0x40 MLOAD PUSH32 0x6605BFDA00000000000000000000000000000000000000000000000000000000 DUP2 MSTORE PUSH1 0x1 PUSH1 0x1 PUSH1 0xA0 SHL SUB DUP3 AND PUSH1 0x4 DUP3 ADD MSTORE PUSH1 0x0 SWAP3 DUP4 SWAP1 DUP3 SWAP1 PUSH1 0x24 SWAP1 DUP3 SWAP1 DUP5 SWAP1 GAS CALL DUP1 ISZERO PUSH2 0x1B1 JUMPI PUSH2 0x74C JUMPI JUMPDEST POP PUSH2 0x678 PUSH2 0x24C PUSH1 0x2 SLOAD PUSH1 0x1 PUSH1 0x1 PUSH1 0xA0 SHL SUB AND SWAP1 JUMP JUMPDEST SWAP1 DUP2 EXTCODESIZE ISZERO PUSH2 0x1B6 JUMPI PUSH1 0x40 MLOAD PUSH32 0xE74B981B00000000000000000000000000000000000000000000000000000000 DUP2 MSTORE PUSH1 0x1 PUSH1 0x1 PUSH1 0xA0 SHL SUB DUP3 AND PUSH1 0x4 DUP3 ADD MSTORE SWAP2 DUP4 SWAP1 DUP4 SWAP1 PUSH1 0x24 SWAP1 DUP3 SWAP1 DUP5 SWAP1 GAS CALL SWAP2 DUP3 ISZERO PUSH2 0x1B1 JUMPI DUP4 SWAP3 PUSH2 0x739 JUMPI JUMPDEST POP PUSH2 0x6E7 PUSH2 0x24C PUSH1 0x3 SLOAD PUSH1 0x1 PUSH1 0x1 PUSH1 0xA0 SHL SUB AND SWAP1 JUMP JUMPDEST SWAP1 DUP2 EXTCODESIZE ISZERO PUSH2 0x735 JUMPI PUSH1 0x40 MLOAD PUSH32 0xA42DCE8000000000000000000000000000000000000000000000000000000000 DUP2 MSTORE PUSH1 0x1 PUSH1 0x1 PUSH1 0xA0 SHL SUB SWAP1 SWAP2 AND PUSH1 0x4 DUP3 ADD MSTORE SWAP2 SWAP1 DUP3 SWAP1 DUP2 DUP4 DUP2 PUSH1 0x24 DUP2 ADD PUSH2 0x414 JUMP JUMPDEST POP POP REVERT JUMPDEST DUP1 PUSH2 0x2D5 PUSH2 0x746 SWAP3 PUSH2 0xA2E JUMP JUMPDEST CODESIZE PUSH2 0x6D1 JUMP JUMPDEST DUP1 PUSH2 0x2D5 PUSH2 0x759 SWAP3 PUSH2 0xA2E JUMP JUMPDEST CODESIZE PUSH2 0x662 JUMP JUMPDEST CALLVALUE PUSH2 0x122 JUMPI PUSH1 0x40 CALLDATASIZE PUSH1 0x3 NOT ADD SLT PUSH2 0x122 JUMPI PUSH2 0x778 PUSH2 0x10C JUMP JUMPDEST PUSH2 0x780 PUSH2 0xAF4 JUMP JUMPDEST PUSH1 0x0 DUP1 SLOAD PUSH1 0x40 MLOAD PUSH4 0xA9059CBB PUSH1 0xE0 SHL DUP2 MSTORE PUSH1 0x1 PUSH1 0x1 PUSH1 0xA0 SHL SUB SWAP2 DUP3 AND PUSH1 0x4 DUP3 ADD MSTORE PUSH1 0x24 DUP1 CALLDATALOAD SWAP1 DUP3 ADD MSTORE SWAP3 PUSH1 0x20 SWAP3 DUP5 SWAP3 PUSH1 0x44 SWAP3 DUP5 SWAP3 SWAP2 AND GAS CALL DUP1 ISZERO PUSH2 0x1B1 JUMPI PUSH2 0x7C4 JUMPI STOP JUMPDEST PUSH2 0x7DC SWAP1 PUSH1 0x20 RETURNDATASIZE PUSH1 0x20 GT PUSH2 0x45F JUMPI PUSH2 0x450 DUP2 DUP4 PUSH2 0xA63 JUMP JUMPDEST STOP JUMPDEST CALLVALUE PUSH2 0x122 JUMPI PUSH1 0x0 DUP1 PUSH1 0x3 NOT CALLDATASIZE ADD SLT PUSH2 0x1BA JUMPI PUSH2 0x7F8 PUSH2 0xAF4 JUMP JUMPDEST DUP1 PUSH1 0x1 PUSH1 0x1 PUSH1 0xA0 SHL SUB PUSH1 0x1 SLOAD AND DUP1 EXTCODESIZE ISZERO PUSH2 0x84A JUMPI DUP2 SWAP1 PUSH1 0x4 PUSH1 0x40 MLOAD DUP1 SWAP5 DUP2 SWAP4 PUSH32 0x8A8C523C00000000000000000000000000000000000000000000000000000000 DUP4 MSTORE GAS CALL DUP1 ISZERO PUSH2 0x1B1 JUMPI PUSH2 0x1A5 JUMPI POP DUP1 RETURN JUMPDEST POP REVERT JUMPDEST CALLVALUE PUSH2 0x122 JUMPI PUSH1 0x0 CALLDATASIZE PUSH1 0x3 NOT ADD SLT PUSH2 0x122 JUMPI PUSH1 0x20 PUSH1 0x1 PUSH1 0x1 PUSH1 0xA0 SHL SUB PUSH1 0x0 SLOAD AND PUSH1 0x40 MLOAD SWAP1 DUP2 MSTORE RETURN JUMPDEST CALLVALUE PUSH2 0x122 JUMPI PUSH1 0x0 CALLDATASIZE PUSH1 0x3 NOT ADD SLT PUSH2 0x122 JUMPI PUSH1 0x20 PUSH1 0x1 PUSH1 0x1 PUSH1 0xA0 SHL SUB PUSH1 0x3 SLOAD AND PUSH1 0x40 MLOAD SWAP1 DUP2 MSTORE RETURN JUMPDEST CALLVALUE PUSH2 0x122 JUMPI PUSH1 0x0 CALLDATASIZE PUSH1 0x3 NOT ADD SLT PUSH2 0x122 JUMPI PUSH1 0x60 PUSH1 0x1 PUSH1 0x1 PUSH1 0xA0 SHL SUB DUP1 PUSH1 0x1 SLOAD AND SWAP1 DUP1 PUSH1 0x2 SLOAD AND SWAP1 PUSH1 0x3 SLOAD AND SWAP1 PUSH1 0x40 MLOAD SWAP3 DUP4 MSTORE PUSH1 0x20 DUP4 ADD MSTORE PUSH1 0x40 DUP3 ADD MSTORE RETURN JUMPDEST CALLVALUE PUSH2 0x122 JUMPI PUSH1 0x0 CALLDATASIZE PUSH1 0x3 NOT ADD SLT PUSH2 0x122 JUMPI PUSH1 0x20 PUSH1 0x1 PUSH1 0x1 PUSH1 0xA0 SHL SUB PUSH1 0x4 SLOAD AND PUSH1 0x40 MLOAD SWAP1 DUP2 MSTORE RETURN JUMPDEST CALLVALUE PUSH2 0x122 JUMPI PUSH1 0x0 CALLDATASIZE PUSH1 0x3 NOT ADD SLT PUSH2 0x122 JUMPI PUSH1 0x20 PUSH1 0x1 PUSH1 0x1 PUSH1 0xA0 SHL SUB PUSH1 0x2 SLOAD AND PUSH1 0x40 MLOAD SWAP1 DUP2 MSTORE RETURN JUMPDEST CALLVALUE PUSH2 0x122 JUMPI PUSH1 0x20 CALLDATASIZE PUSH1 0x3 NOT ADD SLT PUSH2 0x122 JUMPI PUSH2 0x940 PUSH2 0x10C JUMP JUMPDEST PUSH2 0x948 PUSH2 0xAF4 JUMP JUMPDEST PUSH1 0x1 PUSH1 0x1 PUSH1 0xA0 SHL SUB DUP1 SWAP2 AND DUP1 ISZERO PUSH2 0x995 JUMPI PUSH1 0x0 SWAP2 DUP3 SLOAD DUP3 PUSH1 0x1 PUSH1 0x1 PUSH1 0xA0 SHL SUB NOT DUP3 AND OR DUP5 SSTORE AND PUSH32 0x8BE0079C531659141344CD1FD0A4F28419497F9722A3DAAFE3B4186F6B6457E0 DUP4 DUP1 LOG3 DUP1 RETURN JUMPDEST PUSH1 0x84 PUSH1 0x40 MLOAD PUSH3 0x461BCD PUSH1 0xE5 SHL DUP2 MSTORE PUSH1 0x20 PUSH1 0x4 DUP3 ADD MSTORE PUSH1 0x26 PUSH1 0x24 DUP3 ADD MSTORE PUSH32 0x4F776E61626C653A206E6577206F776E657220697320746865207A65726F2061 PUSH1 0x44 DUP3 ADD MSTORE PUSH32 0x6464726573730000000000000000000000000000000000000000000000000000 PUSH1 0x64 DUP3 ADD MSTORE REVERT JUMPDEST PUSH32 0x4E487B7100000000000000000000000000000000000000000000000000000000 PUSH1 0x0 MSTORE PUSH1 0x41 PUSH1 0x4 MSTORE PUSH1 0x24 PUSH1 0x0 REVERT JUMPDEST PUSH8 0xFFFFFFFFFFFFFFFF DUP2 GT PUSH2 0xA42 JUMPI PUSH1 0x40 MSTORE JUMP JUMPDEST PUSH2 0x9FF JUMP JUMPDEST PUSH1 0x40 DUP2 ADD SWAP1 DUP2 LT PUSH8 0xFFFFFFFFFFFFFFFF DUP3 GT OR PUSH2 0xA42 JUMPI PUSH1 0x40 MSTORE JUMP JUMPDEST SWAP1 PUSH1 0x1F DUP1 NOT SWAP2 ADD AND DUP2 ADD SWAP1 DUP2 LT PUSH8 0xFFFFFFFFFFFFFFFF DUP3 GT OR PUSH2 0xA42 JUMPI PUSH1 0x40 MSTORE JUMP JUMPDEST PUSH1 0x40 MLOAD RETURNDATASIZE PUSH1 0x0 DUP3 RETURNDATACOPY RETURNDATASIZE SWAP1 REVERT JUMPDEST ISZERO PUSH2 0xA98 JUMPI JUMP JUMPDEST PUSH1 0x64 PUSH1 0x40 MLOAD PUSH3 0x461BCD PUSH1 0xE5 SHL DUP2 MSTORE PUSH1 0x20 PUSH1 0x4 DUP3 ADD MSTORE PUSH1 0xF PUSH1 0x24 DUP3 ADD MSTORE PUSH32 0x496E76616C696420616464726573730000000000000000000000000000000000 PUSH1 0x44 DUP3 ADD MSTORE REVERT JUMPDEST SWAP1 DUP2 PUSH1 0x20 SWAP2 SUB SLT PUSH2 0x122 JUMPI MLOAD DUP1 ISZERO ISZERO DUP2 SUB PUSH2 0x122 JUMPI SWAP1 JUMP JUMPDEST PUSH1 0x1 PUSH1 0x1 PUSH1 0xA0 SHL SUB PUSH1 0x0 SLOAD AND CALLER SUB PUSH2 0xB08 JUMPI JUMP JUMPDEST PUSH1 0x64 PUSH1 0x40 MLOAD PUSH3 0x461BCD PUSH1 0xE5 SHL DUP2 MSTORE PUSH1 0x20 PUSH1 0x4 DUP3 ADD MSTORE PUSH1 0x20 PUSH1 0x24 DUP3 ADD MSTORE PUSH32 0x4F776E61626C653A2063616C6C6572206973206E6F7420746865206F776E6572 PUSH1 0x44 DUP3 ADD MSTORE REVERT JUMPDEST SWAP1 DUP2 PUSH1 0x20 SWAP2 SUB SLT PUSH2 0x122 JUMPI MLOAD SWAP1 JUMP JUMPDEST ISZERO PUSH2 0xB62 JUMPI JUMP JUMPDEST PUSH1 0x84 PUSH1 0x40 MLOAD PUSH3 0x461BCD PUSH1 0xE5 SHL DUP2 MSTORE PUSH1 0x20 PUSH1 0x4 DUP3 ADD MSTORE PUSH1 0x36 PUSH1 0x24 DUP3 ADD MSTORE PUSH32 0x5361666545524332303A20617070726F76652066726F6D206E6F6E2D7A65726F PUSH1 0x44 DUP3 ADD MSTORE PUSH32 0x20746F206E6F6E2D7A65726F20616C6C6F77616E636500000000000000000000 PUSH1 0x64 DUP3 ADD MSTORE REVERT JUMPDEST SWAP2 SWAP1 SWAP2 DUP2 ISZERO DUP1 ISZERO PUSH2 0xC3D JUMPI JUMPDEST PUSH2 0xC3B SWAP4 PUSH2 0xBE8 PUSH2 0xC36 SWAP3 PUSH2 0xB5B JUMP JUMPDEST PUSH1 0x40 MLOAD PUSH32 0x95EA7B300000000000000000000000000000000000000000000000000000000 PUSH1 0x20 DUP3 ADD MSTORE PUSH1 0x1 PUSH1 0x1 PUSH1 0xA0 SHL SUB SWAP2 SWAP1 SWAP2 AND PUSH1 0x24 DUP3 ADD MSTORE PUSH1 0x44 DUP1 DUP3 ADD SWAP5 SWAP1 SWAP5 MSTORE SWAP3 DUP4 MSTORE PUSH1 0x64 DUP4 PUSH2 0xA63 JUMP JUMPDEST PUSH2 0xD56 JUMP JUMPDEST JUMP JUMPDEST POP PUSH1 0x40 MLOAD PUSH32 0xDD62ED3E00000000000000000000000000000000000000000000000000000000 DUP2 MSTORE ADDRESS PUSH1 0x4 DUP3 ADD MSTORE PUSH1 0x1 PUSH1 0x1 PUSH1 0xA0 SHL SUB DUP5 AND PUSH1 0x24 DUP3 ADD MSTORE SWAP3 PUSH1 0x20 DUP5 DUP1 PUSH1 0x44 DUP2 ADD SUB DUP2 PUSH1 0x1 PUSH1 0x1 PUSH1 0xA0 SHL SUB DUP7 AND GAS STATICCALL SWAP1 DUP2 ISZERO PUSH2 0x1B1 JUMPI PUSH2 0xBE8 PUSH2 0xC36 SWAP3 PUSH2 0xC3B SWAP7 PUSH1 0x0 SWAP2 PUSH2 0xCB6 JUMPI JUMPDEST POP ISZERO SWAP3 POP POP SWAP4 POP PUSH2 0xBD8 JUMP JUMPDEST PUSH2 0xCD8 SWAP2 POP PUSH1 0x20 RETURNDATASIZE PUSH1 0x20 GT PUSH2 0xCDE JUMPI JUMPDEST PUSH2 0xCD0 DUP2 DUP4 PUSH2 0xA63 JUMP JUMPDEST DUP2 ADD SWAP1 PUSH2 0xB4C JUMP JUMPDEST CODESIZE PUSH2 0xCAA JUMP JUMPDEST POP RETURNDATASIZE PUSH2 0xCC6 JUMP JUMPDEST ISZERO PUSH2 0xCEC JUMPI JUMP JUMPDEST PUSH1 0x84 PUSH1 0x40 MLOAD PUSH3 0x461BCD PUSH1 0xE5 SHL DUP2 MSTORE PUSH1 0x20 PUSH1 0x4 DUP3 ADD MSTORE PUSH1 0x2A PUSH1 0x24 DUP3 ADD MSTORE PUSH32 0x5361666545524332303A204552433230206F7065726174696F6E20646964206E PUSH1 0x44 DUP3 ADD MSTORE PUSH32 0x6F74207375636365656400000000000000000000000000000000000000000000 PUSH1 0x64 DUP3 ADD MSTORE REVERT JUMPDEST PUSH1 0x1 PUSH1 0x1 PUSH1 0xA0 SHL SUB AND SWAP1 PUSH1 0x40 MLOAD SWAP1 PUSH2 0xD6D DUP3 PUSH2 0xA47 JUMP JUMPDEST PUSH1 0x20 SWAP3 DUP4 DUP4 MSTORE PUSH32 0x5361666545524332303A206C6F772D6C6576656C2063616C6C206661696C6564 DUP5 DUP5 ADD MSTORE DUP1 EXTCODESIZE ISZERO PUSH2 0xDE4 JUMPI PUSH1 0x0 DUP3 DUP2 SWAP3 DUP3 DUP8 PUSH2 0xDBF SWAP8 SWAP7 MLOAD SWAP4 ADD SWAP2 GAS CALL PUSH2 0xDB9 PUSH2 0xE28 JUMP JUMPDEST SWAP1 PUSH2 0xE68 JUMP JUMPDEST DUP1 MLOAD SWAP1 DUP2 PUSH2 0xDCC JUMPI POP POP POP JUMP JUMPDEST DUP3 PUSH2 0xC3B SWAP4 PUSH2 0xDDF SWAP4 DUP4 ADD ADD SWAP2 ADD PUSH2 0xADC JUMP JUMPDEST PUSH2 0xCE5 JUMP JUMPDEST PUSH1 0x64 DUP5 PUSH1 0x40 MLOAD SWAP1 PUSH3 0x461BCD PUSH1 0xE5 SHL DUP3 MSTORE PUSH1 0x4 DUP3 ADD MSTORE PUSH1 0x1D PUSH1 0x24 DUP3 ADD MSTORE PUSH32 0x416464726573733A2063616C6C20746F206E6F6E2D636F6E7472616374000000 PUSH1 0x44 DUP3 ADD MSTORE REVERT JUMPDEST RETURNDATASIZE ISZERO PUSH2 0xE63 JUMPI RETURNDATASIZE SWAP1 PUSH8 0xFFFFFFFFFFFFFFFF DUP3 GT PUSH2 0xA42 JUMPI PUSH1 0x40 MLOAD SWAP2 PUSH2 0xE57 PUSH1 0x1F DUP3 ADD PUSH1 0x1F NOT AND PUSH1 0x20 ADD DUP5 PUSH2 0xA63 JUMP JUMPDEST DUP3 MSTORE RETURNDATASIZE PUSH1 0x0 PUSH1 0x20 DUP5 ADD RETURNDATACOPY JUMP JUMPDEST PUSH1 0x60 SWAP1 JUMP JUMPDEST SWAP1 SWAP2 SWAP1 ISZERO PUSH2 0xE74 JUMPI POP SWAP1 JUMP JUMPDEST DUP2 MLOAD ISZERO PUSH2 0xE84 JUMPI POP DUP1 MLOAD SWAP1 PUSH1 0x20 ADD REVERT JUMPDEST PUSH1 0x40 MLOAD SWAP1 PUSH3 0x461BCD PUSH1 0xE5 SHL DUP3 MSTORE DUP2 PUSH1 0x20 DUP1 PUSH1 0x4 DUP4 ADD MSTORE DUP3 MLOAD SWAP1 DUP2 PUSH1 0x24 DUP5 ADD MSTORE PUSH1 0x0 SWAP4 JUMPDEST DUP3 DUP6 LT PUSH2 0xECA JUMPI POP POP PUSH1 0x44 SWAP3 POP PUSH1 0x0 DUP4 DUP3 DUP5 ADD ADD MSTORE PUSH1 0x1F DUP1 NOT SWAP2 ADD AND DUP2 ADD SUB ADD SWAP1 REVERT JUMPDEST DUP5 DUP2 ADD DUP3 ADD MLOAD DUP7 DUP7 ADD PUSH1 0x44 ADD MSTORE SWAP4 DUP2 ADD SWAP4 DUP6 SWAP4 POP PUSH2 0xEA7 JUMP INVALID LOG2 PUSH5 0x6970667358 0x22 SLT KECCAK256 TIMESTAMP 0x1E DUP15 0x2C 0xE2 0x5E JUMPI EQ 0xF PUSH9 0xB5B34B6073A32D75C0 0xCB DUP1 0x2C PUSH19 0x578D6DF8B2950F86C164736F6C634300081600 CALLER PUSH1 0xA0 CALLVALUE PUSH3 0x1D6 JUMPI PUSH1 0x1F PUSH3 0x1664 CODESIZE DUP2 SWAP1 SUB SWAP2 DUP3 ADD PUSH1 0x1F NOT AND DUP4 ADD SWAP2 PUSH1 0x1 PUSH1 0x1 PUSH1 0x40 SHL SUB DUP4 GT DUP5 DUP5 LT OR PUSH3 0x1DB JUMPI DUP1 DUP5 SWAP3 PUSH1 0x80 SWAP5 PUSH1 0x40 MSTORE DUP4 CODECOPY DUP2 ADD SUB SLT PUSH3 0x1D6 JUMPI PUSH3 0x4D DUP2 PUSH3 0x1F1 JUMP JUMPDEST PUSH1 0x20 DUP3 ADD MLOAD PUSH3 0x6E PUSH1 0x60 PUSH3 0x66 PUSH1 0x40 DUP7 ADD PUSH3 0x1F1 JUMP JUMPDEST SWAP5 ADD PUSH3 0x1F1 JUMP JUMPDEST PUSH1 0x0 DUP1 SLOAD PUSH1 0x1 PUSH1 0x1 PUSH1 0xA0 SHL SUB NOT DUP1 DUP3 AND PUSH1 0x1 PUSH1 0x1 PUSH1 0xA0 SHL SUB SWAP5 DUP6 AND SWAP1 DUP2 OR DUP5 SSTORE PUSH1 0x40 MLOAD SWAP8 SWAP2 SWAP7 SWAP2 SWAP4 DUP6 SWAP4 DUP5 AND SWAP1 PUSH32 0x8BE0079C531659141344CD1FD0A4F28419497F9722A3DAAFE3B4186F6B6457E0 SWAP1 DUP1 LOG3 PUSH1 0x1 DUP1 SSTORE PUSH9 0x56BC75E2D63100000 PUSH1 0x5 SSTORE PUSH2 0x7D0 PUSH1 0x7 SSTORE AND SWAP5 DUP6 ISZERO PUSH3 0x188 JUMPI POP AND SWAP3 DUP4 ISZERO PUSH3 0x137 JUMPI PUSH1 0x80 MSTORE PUSH1 0x2 SSTORE PUSH1 0x8 SLOAD AND OR PUSH1 0x8 SSTORE TIMESTAMP PUSH1 0x3 SSTORE PUSH1 0x40 MLOAD PUSH2 0x145D SWAP1 DUP2 PUSH3 0x207 DUP3 CODECOPY PUSH1 0x80 MLOAD DUP2 DUP2 DUP2 PUSH2 0x395 ADD MSTORE DUP2 DUP2 PUSH2 0x435 ADD MSTORE DUP2 DUP2 PUSH2 0x581 ADD MSTORE DUP2 DUP2 PUSH2 0x709 ADD MSTORE DUP2 DUP2 PUSH2 0xE95 ADD MSTORE PUSH2 0x1106 ADD MSTORE RETURN JUMPDEST PUSH1 0x40 MLOAD PUSH3 0x461BCD PUSH1 0xE5 SHL DUP2 MSTORE PUSH1 0x20 PUSH1 0x4 DUP3 ADD MSTORE PUSH1 0x24 DUP1 DUP3 ADD MSTORE PUSH32 0x46656520726563697069656E742063616E6E6F74206265207A65726F20616464 PUSH1 0x44 DUP3 ADD MSTORE PUSH4 0x72657373 PUSH1 0xE0 SHL PUSH1 0x64 DUP3 ADD MSTORE PUSH1 0x84 SWAP1 REVERT JUMPDEST PUSH3 0x461BCD PUSH1 0xE5 SHL DUP2 MSTORE PUSH1 0x20 PUSH1 0x4 DUP3 ADD MSTORE PUSH1 0x24 DUP1 DUP3 ADD MSTORE PUSH32 0x5374616B696E6720746F6B656E2063616E6E6F74206265207A65726F20616464 PUSH1 0x44 DUP3 ADD MSTORE PUSH4 0x72657373 PUSH1 0xE0 SHL PUSH1 0x64 DUP3 ADD MSTORE PUSH1 0x84 SWAP1 REVERT JUMPDEST PUSH1 0x0 DUP1 REVERT JUMPDEST PUSH4 0x4E487B71 PUSH1 0xE0 SHL PUSH1 0x0 MSTORE PUSH1 0x41 PUSH1 0x4 MSTORE PUSH1 0x24 PUSH1 0x0 REVERT JUMPDEST MLOAD SWAP1 PUSH1 0x1 PUSH1 0x1 PUSH1 0xA0 SHL SUB DUP3 AND DUP3 SUB PUSH3 0x1D6 JUMPI JUMP INVALID PUSH1 0x80 PUSH1 0x40 MSTORE PUSH1 0x4 CALLDATASIZE LT ISZERO PUSH2 0x12 JUMPI PUSH1 0x0 DUP1 REVERT JUMPDEST PUSH1 0x0 CALLDATALOAD PUSH1 0xE0 SHR DUP1 PUSH3 0x8CC262 EQ PUSH2 0x1F1 JUMPI DUP1 PUSH4 0x906CFC6 EQ PUSH2 0x17E JUMPI DUP1 PUSH4 0x11F7758F EQ PUSH2 0x1EC JUMPI DUP1 PUSH4 0x16330D40 EQ PUSH2 0x1E7 JUMPI DUP1 PUSH4 0x1EA860D6 EQ PUSH2 0x1E2 JUMPI DUP1 PUSH4 0x233E9903 EQ PUSH2 0x1DD JUMPI DUP1 PUSH4 0x2E1A7D4D EQ PUSH2 0x1D8 JUMPI DUP1 PUSH4 0x46904840 EQ PUSH2 0x1D3 JUMPI DUP1 PUSH4 0x715018A6 EQ PUSH2 0x1CE JUMPI DUP1 PUSH4 0x72F702F3 EQ PUSH2 0x1C9 JUMPI DUP1 PUSH4 0x7304EB8D EQ PUSH2 0x1C4 JUMPI DUP1 PUSH4 0x733BDEF0 EQ PUSH2 0x1BF JUMPI DUP1 PUSH4 0x7B0472F0 EQ PUSH2 0x1BA JUMPI DUP1 PUSH4 0x7B0A47EE EQ PUSH2 0x1B5 JUMPI DUP1 PUSH4 0x817B1CD2 EQ PUSH2 0x1B0 JUMPI DUP1 PUSH4 0x8980F11F EQ PUSH2 0x1AB JUMPI DUP1 PUSH4 0x8DA5CB5B EQ PUSH2 0x1A6 JUMPI DUP1 PUSH4 0x9168AE72 EQ PUSH2 0x1A1 JUMPI DUP1 PUSH4 0x9E447FC6 EQ PUSH2 0x19C JUMPI DUP1 PUSH4 0xA84CD708 EQ PUSH2 0x197 JUMPI DUP1 PUSH4 0xB88A802F EQ PUSH2 0x192 JUMPI DUP1 PUSH4 0xC8F33C91 EQ PUSH2 0x18D JUMPI DUP1 PUSH4 0xCD3DAF9D EQ PUSH2 0x188 JUMPI DUP1 PUSH4 0xDF136D65 EQ PUSH2 0x183 JUMPI DUP1 PUSH4 0xE1F1C4A7 EQ PUSH2 0x17E JUMPI DUP1 PUSH4 0xE74B981B EQ PUSH2 0x179 JUMPI DUP1 PUSH4 0xEC5FFAC2 EQ PUSH2 0x174 JUMPI DUP1 PUSH4 0xECF00889 EQ PUSH2 0x16F JUMPI DUP1 PUSH4 0xF2FDE38B EQ PUSH2 0x16A JUMPI PUSH4 0xF826ED2E EQ PUSH2 0x165 JUMPI PUSH1 0x0 DUP1 REVERT JUMPDEST PUSH2 0xBC4 JUMP JUMPDEST PUSH2 0xADF JUMP JUMPDEST PUSH2 0xAC2 JUMP JUMPDEST PUSH2 0xAA4 JUMP JUMPDEST PUSH2 0x9B0 JUMP JUMPDEST PUSH2 0x23C JUMP JUMPDEST PUSH2 0x992 JUMP JUMPDEST PUSH2 0x977 JUMP JUMPDEST PUSH2 0x959 JUMP JUMPDEST PUSH2 0x8E6 JUMP JUMPDEST PUSH2 0x8C8 JUMP JUMPDEST PUSH2 0x86D JUMP JUMPDEST PUSH2 0x807 JUMP JUMPDEST PUSH2 0x7E0 JUMP JUMPDEST PUSH2 0x6D9 JUMP JUMPDEST PUSH2 0x6BB JUMP JUMPDEST PUSH2 0x69D JUMP JUMPDEST PUSH2 0x622 JUMP JUMPDEST PUSH2 0x5C2 JUMP JUMPDEST PUSH2 0x5A5 JUMP JUMPDEST PUSH2 0x561 JUMP JUMPDEST PUSH2 0x4F7 JUMP JUMPDEST PUSH2 0x4D0 JUMP JUMPDEST PUSH2 0x2FF JUMP JUMPDEST PUSH2 0x2B3 JUMP JUMPDEST PUSH2 0x295 JUMP JUMPDEST PUSH2 0x277 JUMP JUMPDEST PUSH2 0x259 JUMP JUMPDEST PUSH2 0x211 JUMP JUMPDEST PUSH1 0x4 CALLDATALOAD SWAP1 PUSH1 0x1 PUSH1 0x1 PUSH1 0xA0 SHL SUB DUP3 AND DUP3 SUB PUSH2 0x20C JUMPI JUMP JUMPDEST PUSH1 0x0 DUP1 REVERT JUMPDEST CALLVALUE PUSH2 0x20C JUMPI PUSH1 0x20 CALLDATASIZE PUSH1 0x3 NOT ADD SLT PUSH2 0x20C JUMPI PUSH1 0x20 PUSH2 0x234 PUSH2 0x22F PUSH2 0x1F6 JUMP JUMPDEST PUSH2 0xCA6 JUMP JUMPDEST PUSH1 0x40 MLOAD SWAP1 DUP2 MSTORE RETURN JUMPDEST CALLVALUE PUSH2 0x20C JUMPI PUSH1 0x0 CALLDATASIZE PUSH1 0x3 NOT ADD SLT PUSH2 0x20C JUMPI PUSH1 0x20 PUSH1 0x40 MLOAD PUSH2 0x2710 DUP2 MSTORE RETURN JUMPDEST CALLVALUE PUSH2 0x20C JUMPI PUSH1 0x0 CALLDATASIZE PUSH1 0x3 NOT ADD SLT PUSH2 0x20C JUMPI PUSH1 0x20 PUSH1 0x40 MLOAD PUSH3 0x93A80 DUP2 MSTORE RETURN JUMPDEST CALLVALUE PUSH2 0x20C JUMPI PUSH1 0x0 CALLDATASIZE PUSH1 0x3 NOT ADD SLT PUSH2 0x20C JUMPI PUSH1 0x20 PUSH1 0x7 SLOAD PUSH1 0x40 MLOAD SWAP1 DUP2 MSTORE RETURN JUMPDEST CALLVALUE PUSH2 0x20C JUMPI PUSH1 0x0 CALLDATASIZE PUSH1 0x3 NOT ADD SLT PUSH2 0x20C JUMPI PUSH1 0x20 PUSH1 0x40 MLOAD PUSH3 0x278D00 DUP2 MSTORE RETURN JUMPDEST CALLVALUE PUSH2 0x20C JUMPI PUSH1 0x20 CALLDATASIZE PUSH1 0x3 NOT ADD SLT PUSH2 0x20C JUMPI PUSH32 0xF4045D7DD317DE89564C3F12C35961242ED2A4DCE3AE4E7A75847FFA04BB0834 PUSH1 0x20 PUSH1 0x4 CALLDATALOAD PUSH2 0x2F2 PUSH2 0x1056 JUMP JUMPDEST DUP1 PUSH1 0x5 SSTORE PUSH1 0x40 MLOAD SWAP1 DUP2 MSTORE LOG1 STOP JUMPDEST CALLVALUE PUSH2 0x20C JUMPI PUSH1 0x20 CALLDATASIZE PUSH1 0x3 NOT ADD SLT PUSH2 0x20C JUMPI PUSH1 0x4 CALLDATALOAD PUSH2 0x322 PUSH1 0x2 PUSH1 0x1 SLOAD EQ ISZERO PUSH2 0xD5B JUMP JUMPDEST PUSH1 0x2 PUSH1 0x1 SSTORE PUSH2 0x32F PUSH2 0x1003 JUMP JUMPDEST PUSH1 0x4 SSTORE TIMESTAMP PUSH1 0x3 SSTORE CALLER PUSH2 0x4A6 JUMPI JUMPDEST CALLER PUSH1 0x0 SWAP1 DUP2 MSTORE PUSH1 0x9 PUSH1 0x20 MSTORE PUSH1 0x40 SWAP1 KECCAK256 SWAP1 DUP1 DUP3 SLOAD LT PUSH2 0x462 JUMPI PUSH2 0x35D CALLER PUSH2 0x10AE JUMP JUMPDEST PUSH1 0x2 DUP3 ADD SLOAD TIMESTAMP LT SWAP2 DUP2 SWAP3 PUSH2 0x3F2 JUMPI JUMPDEST DUP2 DUP2 PUSH2 0x37F PUSH2 0x38E SWAP5 PUSH2 0x389 SWAP5 SLOAD PUSH2 0xC74 JUMP JUMPDEST SWAP1 SSTORE PUSH1 0x6 SLOAD PUSH2 0xC74 JUMP JUMPDEST PUSH1 0x6 SSTORE JUMP JUMPDEST PUSH2 0x3B9 DUP2 CALLER PUSH32 0x0 PUSH2 0x113A JUMP JUMPDEST PUSH1 0x40 MLOAD SWAP1 DUP2 MSTORE CALLER SWAP1 PUSH32 0x7084F5476618D8E60B11EF0D7D3F06914655ADB8793E28FF7F018D4C76D505D5 SWAP1 PUSH1 0x20 SWAP1 LOG2 PUSH2 0x3F0 PUSH1 0x1 DUP1 SSTORE JUMP JUMPDEST STOP JUMPDEST SWAP2 POP PUSH2 0x389 PUSH2 0x38E SWAP2 PUSH2 0x412 PUSH2 0x40A PUSH1 0x7 SLOAD DUP4 PUSH2 0xC86 JUMP JUMPDEST PUSH2 0x2710 SWAP1 DIV SWAP1 JUMP JUMPDEST SWAP4 PUSH2 0x459 PUSH2 0x420 DUP7 DUP5 PUSH2 0xC74 JUMP JUMPDEST SWAP6 PUSH2 0x433 PUSH1 0x8 SLOAD PUSH1 0x1 PUSH1 0x1 PUSH1 0xA0 SHL SUB AND SWAP1 JUMP JUMPDEST PUSH32 0x0 PUSH2 0x113A JUMP JUMPDEST SWAP2 POP SWAP2 POP PUSH2 0x36C JUMP JUMPDEST PUSH1 0x64 PUSH1 0x40 MLOAD PUSH3 0x461BCD PUSH1 0xE5 SHL DUP2 MSTORE PUSH1 0x20 PUSH1 0x4 DUP3 ADD MSTORE PUSH1 0x1A PUSH1 0x24 DUP3 ADD MSTORE PUSH32 0x496E73756666696369656E74207374616B656420616D6F756E74000000000000 PUSH1 0x44 DUP3 ADD MSTORE REVERT JUMPDEST PUSH2 0x4AF CALLER PUSH2 0xCA6 JUMP JUMPDEST CALLER PUSH1 0x0 MSTORE PUSH1 0x9 PUSH1 0x20 MSTORE PUSH1 0x40 PUSH1 0x0 KECCAK256 SWAP1 PUSH1 0x4 DUP3 ADD SSTORE PUSH1 0x3 PUSH1 0x4 SLOAD SWAP2 ADD SSTORE PUSH2 0x33C JUMP JUMPDEST CALLVALUE PUSH2 0x20C JUMPI PUSH1 0x0 CALLDATASIZE PUSH1 0x3 NOT ADD SLT PUSH2 0x20C JUMPI PUSH1 0x20 PUSH1 0x1 PUSH1 0x1 PUSH1 0xA0 SHL SUB PUSH1 0x8 SLOAD AND PUSH1 0x40 MLOAD SWAP1 DUP2 MSTORE RETURN JUMPDEST CALLVALUE PUSH2 0x20C JUMPI PUSH1 0x0 DUP1 PUSH1 0x3 NOT CALLDATASIZE ADD SLT PUSH2 0x55E JUMPI PUSH2 0x511 PUSH2 0x1056 JUMP JUMPDEST DUP1 PUSH1 0x1 PUSH1 0x1 PUSH1 0xA0 SHL SUB DUP2 SLOAD PUSH20 0xFFFFFFFFFFFFFFFFFFFFFFFFFFFFFFFFFFFFFFFF NOT DUP2 AND DUP4 SSTORE AND PUSH32 0x8BE0079C531659141344CD1FD0A4F28419497F9722A3DAAFE3B4186F6B6457E0 DUP3 DUP1 LOG3 DUP1 RETURN JUMPDEST DUP1 REVERT JUMPDEST CALLVALUE PUSH2 0x20C JUMPI PUSH1 0x0 CALLDATASIZE PUSH1 0x3 NOT ADD SLT PUSH2 0x20C JUMPI PUSH1 0x20 PUSH1 0x40 MLOAD PUSH1 0x1 PUSH1 0x1 PUSH1 0xA0 SHL SUB PUSH32 0x0 AND DUP2 MSTORE RETURN JUMPDEST CALLVALUE PUSH2 0x20C JUMPI PUSH1 0x0 CALLDATASIZE PUSH1 0x3 NOT ADD SLT PUSH2 0x20C JUMPI PUSH1 0x20 PUSH1 0x40 MLOAD PUSH2 0x3A98 DUP2 MSTORE RETURN JUMPDEST CALLVALUE PUSH2 0x20C JUMPI PUSH1 0x20 CALLDATASIZE PUSH1 0x3 NOT ADD SLT PUSH2 0x20C JUMPI PUSH1 0x80 PUSH2 0x5DD PUSH2 0x1F6 JUMP JUMPDEST PUSH1 0x1 PUSH1 0x1 PUSH1 0xA0 SHL SUB DUP2 AND PUSH1 0x0 MSTORE PUSH1 0x9 PUSH1 0x20 MSTORE PUSH1 0x40 PUSH1 0x0 KECCAK256 DUP1 SLOAD SWAP2 PUSH2 0x60A PUSH1 0x2 PUSH1 0x1 DUP5 ADD SLOAD SWAP4 ADD SLOAD SWAP2 PUSH2 0xCA6 JUMP JUMPDEST SWAP2 PUSH1 0x40 MLOAD SWAP4 DUP5 MSTORE PUSH1 0x20 DUP5 ADD MSTORE PUSH1 0x40 DUP4 ADD MSTORE PUSH1 0x60 DUP3 ADD MSTORE RETURN JUMPDEST CALLVALUE PUSH2 0x20C JUMPI PUSH1 0x40 CALLDATASIZE PUSH1 0x3 NOT ADD SLT PUSH2 0x20C JUMPI PUSH2 0x642 PUSH1 0x2 PUSH1 0x1 SLOAD EQ ISZERO PUSH2 0xD5B JUMP JUMPDEST PUSH1 0x2 PUSH1 0x1 SSTORE PUSH2 0x64F PUSH2 0x1003 JUMP JUMPDEST PUSH1 0x4 SSTORE TIMESTAMP PUSH1 0x3 SSTORE CALLER PUSH2 0x673 JUMPI JUMPDEST PUSH2 0x66A PUSH1 0x24 CALLDATALOAD PUSH1 0x4 CALLDATALOAD PUSH2 0xE3C JUMP JUMPDEST PUSH2 0x3F0 PUSH1 0x1 DUP1 SSTORE JUMP JUMPDEST PUSH2 0x67C CALLER PUSH2 0xCA6 JUMP JUMPDEST CALLER PUSH1 0x0 MSTORE PUSH1 0x9 PUSH1 0x20 MSTORE PUSH1 0x40 PUSH1 0x0 KECCAK256 SWAP1 PUSH1 0x4 DUP3 ADD SSTORE PUSH1 0x3 PUSH1 0x4 SLOAD SWAP2 ADD SSTORE PUSH2 0x65C JUMP JUMPDEST CALLVALUE PUSH2 0x20C JUMPI PUSH1 0x0 CALLDATASIZE PUSH1 0x3 NOT ADD SLT PUSH2 0x20C JUMPI PUSH1 0x20 PUSH1 0x2 SLOAD PUSH1 0x40 MLOAD SWAP1 DUP2 MSTORE RETURN JUMPDEST CALLVALUE PUSH2 0x20C JUMPI PUSH1 0x0 CALLDATASIZE PUSH1 0x3 NOT ADD SLT PUSH2 0x20C JUMPI PUSH1 0x20 PUSH1 0x6 SLOAD PUSH1 0x40 MLOAD SWAP1 DUP2 MSTORE RETURN JUMPDEST CALLVALUE PUSH2 0x20C JUMPI PUSH1 0x40 CALLDATASIZE PUSH1 0x3 NOT ADD SLT PUSH2 0x20C JUMPI PUSH2 0x6F2 PUSH2 0x1F6 JUMP JUMPDEST PUSH1 0x24 CALLDATALOAD PUSH2 0x6FD PUSH2 0x1056 JUMP JUMPDEST PUSH1 0x1 PUSH1 0x1 PUSH1 0xA0 SHL SUB DUP1 DUP1 PUSH32 0x0 AND SWAP4 AND SWAP1 DUP4 DUP3 EQ PUSH2 0x743 JUMPI JUMPDEST PUSH2 0x3F0 SWAP4 POP PUSH1 0x0 SLOAD AND SWAP1 PUSH2 0x113A JUMP JUMPDEST PUSH1 0x40 MLOAD PUSH32 0x70A0823100000000000000000000000000000000000000000000000000000000 DUP2 MSTORE ADDRESS PUSH1 0x4 DUP3 ADD MSTORE SWAP4 PUSH1 0x20 SWAP1 DUP6 SWAP1 PUSH1 0x24 SWAP1 DUP3 SWAP1 GAS STATICCALL DUP1 ISZERO PUSH2 0x7DB JUMPI PUSH2 0x79F PUSH2 0x7A7 SWAP2 PUSH2 0x3F0 SWAP7 PUSH1 0x0 SWAP2 PUSH2 0x7AC JUMPI JUMPDEST POP PUSH1 0x6 SLOAD SWAP1 PUSH2 0xC74 JUMP JUMPDEST DUP5 GT ISZERO PUSH2 0xFB8 JUMP JUMPDEST PUSH2 0x734 JUMP JUMPDEST PUSH2 0x7CE SWAP2 POP PUSH1 0x20 RETURNDATASIZE PUSH1 0x20 GT PUSH2 0x7D4 JUMPI JUMPDEST PUSH2 0x7C6 DUP2 DUP4 PUSH2 0xF7B JUMP JUMPDEST DUP2 ADD SWAP1 PUSH2 0xF9D JUMP JUMPDEST CODESIZE PUSH2 0x795 JUMP JUMPDEST POP RETURNDATASIZE PUSH2 0x7BC JUMP JUMPDEST PUSH2 0xFAC JUMP JUMPDEST CALLVALUE PUSH2 0x20C JUMPI PUSH1 0x0 CALLDATASIZE PUSH1 0x3 NOT ADD SLT PUSH2 0x20C JUMPI PUSH1 0x20 PUSH1 0x1 PUSH1 0x1 PUSH1 0xA0 SHL SUB PUSH1 0x0 SLOAD AND PUSH1 0x40 MLOAD SWAP1 DUP2 MSTORE RETURN JUMPDEST CALLVALUE PUSH2 0x20C JUMPI PUSH1 0x20 CALLDATASIZE PUSH1 0x3 NOT ADD SLT PUSH2 0x20C JUMPI PUSH1 0x1 PUSH1 0x1 PUSH1 0xA0 SHL SUB PUSH2 0x828 PUSH2 0x1F6 JUMP JUMPDEST AND PUSH1 0x0 MSTORE PUSH1 0x9 PUSH1 0x20 MSTORE PUSH1 0xA0 PUSH1 0x40 PUSH1 0x0 KECCAK256 DUP1 SLOAD SWAP1 PUSH1 0x1 DUP2 ADD SLOAD SWAP1 PUSH1 0x2 DUP2 ADD SLOAD PUSH1 0x4 PUSH1 0x3 DUP4 ADD SLOAD SWAP3 ADD SLOAD SWAP3 PUSH1 0x40 MLOAD SWAP5 DUP6 MSTORE PUSH1 0x20 DUP6 ADD MSTORE PUSH1 0x40 DUP5 ADD MSTORE PUSH1 0x60 DUP4 ADD MSTORE PUSH1 0x80 DUP3 ADD MSTORE RETURN JUMPDEST CALLVALUE PUSH2 0x20C JUMPI PUSH1 0x20 CALLDATASIZE PUSH1 0x3 NOT ADD SLT PUSH2 0x20C JUMPI PUSH32 0x41D466EBD06FB97E7786086AC8B69B7EB7DA798592036251291D34E9791CDE01 PUSH1 0x20 PUSH1 0x4 CALLDATALOAD PUSH2 0x8AC PUSH2 0x1056 JUMP JUMPDEST PUSH2 0x8B4 PUSH2 0x1003 JUMP JUMPDEST PUSH1 0x4 SSTORE TIMESTAMP PUSH1 0x3 SSTORE DUP1 PUSH1 0x2 SSTORE PUSH1 0x40 MLOAD SWAP1 DUP2 MSTORE LOG1 STOP JUMPDEST CALLVALUE PUSH2 0x20C JUMPI PUSH1 0x0 CALLDATASIZE PUSH1 0x3 NOT ADD SLT PUSH2 0x20C JUMPI PUSH1 0x20 PUSH1 0x40 MLOAD PUSH3 0x76A700 DUP2 MSTORE RETURN JUMPDEST CALLVALUE PUSH2 0x20C JUMPI PUSH1 0x0 DUP1 PUSH1 0x3 NOT CALLDATASIZE ADD SLT PUSH2 0x55E JUMPI PUSH2 0x907 PUSH1 0x2 PUSH1 0x1 SLOAD EQ ISZERO PUSH2 0xD5B JUMP JUMPDEST PUSH1 0x2 PUSH1 0x1 SSTORE PUSH2 0x914 PUSH2 0x1003 JUMP JUMPDEST PUSH1 0x4 SSTORE TIMESTAMP PUSH1 0x3 SSTORE CALLER PUSH2 0x931 JUMPI JUMPDEST PUSH2 0x92A CALLER PUSH2 0x10AE JUMP JUMPDEST PUSH1 0x1 DUP1 SSTORE DUP1 RETURN JUMPDEST PUSH2 0x93A CALLER PUSH2 0xCA6 JUMP JUMPDEST CALLER DUP3 MSTORE PUSH1 0x9 PUSH1 0x20 MSTORE PUSH1 0x40 DUP3 KECCAK256 SWAP1 PUSH1 0x4 DUP3 ADD SSTORE PUSH1 0x3 PUSH1 0x4 SLOAD SWAP2 ADD SSTORE PUSH2 0x921 JUMP JUMPDEST CALLVALUE PUSH2 0x20C JUMPI PUSH1 0x0 CALLDATASIZE PUSH1 0x3 NOT ADD SLT PUSH2 0x20C JUMPI PUSH1 0x20 PUSH1 0x3 SLOAD PUSH1 0x40 MLOAD SWAP1 DUP2 MSTORE RETURN JUMPDEST CALLVALUE PUSH2 0x20C JUMPI PUSH1 0x0 CALLDATASIZE PUSH1 0x3 NOT ADD SLT PUSH2 0x20C JUMPI PUSH1 0x20 PUSH2 0x234 PUSH2 0x1003 JUMP JUMPDEST CALLVALUE PUSH2 0x20C JUMPI PUSH1 0x0 CALLDATASIZE PUSH1 0x3 NOT ADD SLT PUSH2 0x20C JUMPI PUSH1 0x20 PUSH1 0x4 SLOAD PUSH1 0x40 MLOAD SWAP1 DUP2 MSTORE RETURN JUMPDEST CALLVALUE PUSH2 0x20C JUMPI PUSH1 0x20 CALLDATASIZE PUSH1 0x3 NOT ADD SLT PUSH2 0x20C JUMPI PUSH2 0x9C9 PUSH2 0x1F6 JUMP JUMPDEST PUSH2 0x9D1 PUSH2 0x1056 JUMP JUMPDEST PUSH1 0x1 PUSH1 0x1 PUSH1 0xA0 SHL SUB DUP2 AND DUP1 ISZERO PUSH2 0xA3B JUMPI PUSH1 0x8 DUP1 SLOAD PUSH20 0xFFFFFFFFFFFFFFFFFFFFFFFFFFFFFFFFFFFFFFFF NOT AND SWAP2 SWAP1 SWAP2 OR SWAP1 SSTORE PUSH1 0x40 MLOAD PUSH1 0x1 PUSH1 0x1 PUSH1 0xA0 SHL SUB SWAP2 SWAP1 SWAP2 AND DUP2 MSTORE PUSH32 0x7A7B5A0A132F9E0581EB8527F66EAE9EE89C2A3E79D4AC7E41A1F1F4D48A7FC2 SWAP1 PUSH1 0x20 SWAP1 LOG1 STOP JUMPDEST PUSH1 0x84 PUSH1 0x40 MLOAD PUSH3 0x461BCD PUSH1 0xE5 SHL DUP2 MSTORE PUSH1 0x20 PUSH1 0x4 DUP3 ADD MSTORE PUSH1 0x24 DUP1 DUP3 ADD MSTORE PUSH32 0x46656520726563697069656E742063616E6E6F74206265207A65726F20616464 PUSH1 0x44 DUP3 ADD MSTORE PUSH32 0x7265737300000000000000000000000000000000000000000000000000000000 PUSH1 0x64 DUP3 ADD MSTORE REVERT JUMPDEST CALLVALUE PUSH2 0x20C JUMPI PUSH1 0x0 CALLDATASIZE PUSH1 0x3 NOT ADD SLT PUSH2 0x20C JUMPI PUSH1 0x20 PUSH1 0x5 SLOAD PUSH1 0x40 MLOAD SWAP1 DUP2 MSTORE RETURN JUMPDEST CALLVALUE PUSH2 0x20C JUMPI PUSH1 0x0 CALLDATASIZE PUSH1 0x3 NOT ADD SLT PUSH2 0x20C JUMPI PUSH1 0x20 PUSH1 0x40 MLOAD PUSH2 0x2EE0 DUP2 MSTORE RETURN JUMPDEST CALLVALUE PUSH2 0x20C JUMPI PUSH1 0x20 CALLDATASIZE PUSH1 0x3 NOT ADD SLT PUSH2 0x20C JUMPI PUSH2 0xAF8 PUSH2 0x1F6 JUMP JUMPDEST PUSH2 0xB00 PUSH2 0x1056 JUMP JUMPDEST PUSH1 0x1 PUSH1 0x1 PUSH1 0xA0 SHL SUB DUP1 SWAP2 AND DUP1 ISZERO PUSH2 0xB5A JUMPI PUSH1 0x0 SWAP2 DUP3 SLOAD DUP3 PUSH20 0xFFFFFFFFFFFFFFFFFFFFFFFFFFFFFFFFFFFFFFFF NOT DUP3 AND OR DUP5 SSTORE AND PUSH32 0x8BE0079C531659141344CD1FD0A4F28419497F9722A3DAAFE3B4186F6B6457E0 DUP4 DUP1 LOG3 DUP1 RETURN JUMPDEST PUSH1 0x84 PUSH1 0x40 MLOAD PUSH3 0x461BCD PUSH1 0xE5 SHL DUP2 MSTORE PUSH1 0x20 PUSH1 0x4 DUP3 ADD MSTORE PUSH1 0x26 PUSH1 0x24 DUP3 ADD MSTORE PUSH32 0x4F776E61626C653A206E6577206F776E657220697320746865207A65726F2061 PUSH1 0x44 DUP3 ADD MSTORE PUSH32 0x6464726573730000000000000000000000000000000000000000000000000000 PUSH1 0x64 DUP3 ADD MSTORE REVERT JUMPDEST CALLVALUE PUSH2 0x20C JUMPI PUSH1 0x20 CALLDATASIZE PUSH1 0x3 NOT ADD SLT PUSH2 0x20C JUMPI PUSH1 0x4 CALLDATALOAD PUSH2 0xBE0 PUSH2 0x1056 JUMP JUMPDEST PUSH2 0xBB8 DUP2 GT PUSH2 0xC1A JUMPI PUSH1 0x20 DUP2 PUSH32 0x45108BBE17E2C6B15AEF1A0C3B1668A1BC7F6D41AEB46A048100E839BA6FDAC8 SWAP3 PUSH1 0x7 SSTORE PUSH1 0x40 MLOAD SWAP1 DUP2 MSTORE LOG1 STOP JUMPDEST PUSH1 0x64 PUSH1 0x40 MLOAD PUSH3 0x461BCD PUSH1 0xE5 SHL DUP2 MSTORE PUSH1 0x20 PUSH1 0x4 DUP3 ADD MSTORE PUSH1 0xC PUSH1 0x24 DUP3 ADD MSTORE PUSH32 0x46656520746F6F20686967680000000000000000000000000000000000000000 PUSH1 0x44 DUP3 ADD MSTORE REVERT JUMPDEST PUSH4 0x4E487B71 PUSH1 0xE0 SHL PUSH1 0x0 MSTORE PUSH1 0x11 PUSH1 0x4 MSTORE PUSH1 0x24 PUSH1 0x0 REVERT JUMPDEST SWAP2 SWAP1 DUP3 SUB SWAP2 DUP3 GT PUSH2 0xC81 JUMPI JUMP JUMPDEST PUSH2 0xC5E JUMP JUMPDEST DUP2 DUP2 MUL SWAP3 SWAP2 DUP2 ISZERO SWAP2 DUP5 DIV EQ OR ISZERO PUSH2 0xC81 JUMPI JUMP JUMPDEST SWAP2 SWAP1 DUP3 ADD DUP1 SWAP3 GT PUSH2 0xC81 JUMPI JUMP JUMPDEST PUSH1 0x1 PUSH1 0x1 PUSH1 0xA0 SHL SUB AND PUSH1 0x0 MSTORE PUSH1 0x9 PUSH1 0x20 MSTORE PUSH1 0x40 PUSH1 0x0 KECCAK256 PUSH1 0x4 DUP2 ADD SLOAD SWAP1 DUP1 SLOAD DUP1 PUSH2 0xCCE JUMPI POP POP SWAP1 JUMP JUMPDEST PUSH2 0x40A PUSH2 0xD30 SWAP4 SWAP3 PUSH2 0xD0A PUSH2 0xCFC PUSH2 0xD2A SWAP5 PUSH2 0xCF6 PUSH2 0xCEB PUSH2 0x1003 JUMP JUMPDEST PUSH1 0x3 DUP7 ADD SLOAD SWAP1 PUSH2 0xC74 JUMP JUMPDEST SWAP1 PUSH2 0xC86 JUMP JUMPDEST PUSH8 0xDE0B6B3A7640000 SWAP1 DIV SWAP1 JUMP JUMPDEST PUSH1 0x1 PUSH1 0x0 SWAP3 ADD SLOAD PUSH3 0x93A80 DUP2 EQ PUSH1 0x0 EQ PUSH2 0xD33 JUMPI POP PUSH2 0x2710 SWAP2 POP JUMPDEST PUSH2 0xC86 JUMP JUMPDEST SWAP1 PUSH2 0xC99 JUMP JUMPDEST SWAP1 JUMP JUMPDEST PUSH3 0x278D00 DUP2 SUB PUSH2 0xD48 JUMPI POP PUSH2 0x2EE0 SWAP2 POP PUSH2 0xC86 JUMP JUMPDEST PUSH3 0x76A700 SUB PUSH2 0xD25 JUMPI PUSH2 0x3A98 SWAP2 POP PUSH2 0xC86 JUMP JUMPDEST ISZERO PUSH2 0xD62 JUMPI JUMP JUMPDEST PUSH1 0x64 PUSH1 0x40 MLOAD PUSH3 0x461BCD PUSH1 0xE5 SHL DUP2 MSTORE PUSH1 0x20 PUSH1 0x4 DUP3 ADD MSTORE PUSH1 0x1F PUSH1 0x24 DUP3 ADD MSTORE PUSH32 0x5265656E7472616E637947756172643A207265656E7472616E742063616C6C00 PUSH1 0x44 DUP3 ADD MSTORE REVERT JUMPDEST ISZERO PUSH2 0xDAD JUMPI JUMP JUMPDEST PUSH1 0x64 PUSH1 0x40 MLOAD PUSH3 0x461BCD PUSH1 0xE5 SHL DUP2 MSTORE PUSH1 0x20 PUSH1 0x4 DUP3 ADD MSTORE PUSH1 0x1A PUSH1 0x24 DUP3 ADD MSTORE PUSH32 0x416D6F756E742062656C6F77206D696E696D756D207374616B65000000000000 PUSH1 0x44 DUP3 ADD MSTORE REVERT JUMPDEST ISZERO PUSH2 0xDF8 JUMPI JUMP JUMPDEST PUSH1 0x64 PUSH1 0x40 MLOAD PUSH3 0x461BCD PUSH1 0xE5 SHL DUP2 MSTORE PUSH1 0x20 PUSH1 0x4 DUP3 ADD MSTORE PUSH1 0x13 PUSH1 0x24 DUP3 ADD MSTORE PUSH32 0x496E76616C6964206C6F636B20706572696F6400000000000000000000000000 PUSH1 0x44 DUP3 ADD MSTORE REVERT JUMPDEST SWAP1 PUSH2 0xF19 PUSH32 0x1449C6DD7851ABC30ABF37F57715F492010519147CC2652FBC38202C18A6EE90 SWAP2 PUSH2 0xE70 PUSH1 0x5 SLOAD DUP6 LT ISZERO PUSH2 0xDA6 JUMP JUMPDEST PUSH3 0x93A80 DUP2 EQ DUP1 ISZERO PUSH2 0xF38 JUMPI JUMPDEST DUP1 ISZERO PUSH2 0xF2C JUMPI JUMPDEST PUSH2 0xE8D SWAP1 PUSH2 0xDF1 JUMP JUMPDEST PUSH2 0xEB9 DUP5 ADDRESS CALLER PUSH32 0x0 PUSH2 0x11A2 JUMP JUMPDEST CALLER PUSH1 0x0 SWAP1 DUP2 MSTORE PUSH1 0x9 PUSH1 0x20 MSTORE PUSH1 0x40 SWAP1 KECCAK256 DUP1 SLOAD PUSH2 0xF1E JUMPI JUMPDEST PUSH2 0xEDA DUP6 DUP3 SLOAD PUSH2 0xC99 JUMP JUMPDEST DUP2 SSTORE DUP2 PUSH1 0x1 DUP3 ADD SSTORE PUSH1 0x2 PUSH2 0xEEE DUP4 TIMESTAMP PUSH2 0xC99 JUMP JUMPDEST SWAP2 ADD SSTORE PUSH2 0xF00 PUSH2 0x389 DUP6 PUSH1 0x6 SLOAD PUSH2 0xC99 JUMP JUMPDEST PUSH1 0x40 DUP1 MLOAD SWAP5 DUP6 MSTORE PUSH1 0x20 DUP6 ADD SWAP2 SWAP1 SWAP2 MSTORE CALLER SWAP4 SWAP2 DUP3 SWAP2 DUP3 ADD SWAP1 JUMP JUMPDEST SUB SWAP1 LOG2 JUMP JUMPDEST PUSH2 0xF27 CALLER PUSH2 0x10AE JUMP JUMPDEST PUSH2 0xECF JUMP JUMPDEST POP PUSH3 0x76A700 DUP2 EQ PUSH2 0xE84 JUMP JUMPDEST POP PUSH3 0x278D00 DUP2 EQ PUSH2 0xE7D JUMP JUMPDEST PUSH4 0x4E487B71 PUSH1 0xE0 SHL PUSH1 0x0 MSTORE PUSH1 0x41 PUSH1 0x4 MSTORE PUSH1 0x24 PUSH1 0x0 REVERT JUMPDEST PUSH1 0x40 DUP2 ADD SWAP1 DUP2 LT PUSH8 0xFFFFFFFFFFFFFFFF DUP3 GT OR PUSH2 0xF76 JUMPI PUSH1 0x40 MSTORE JUMP JUMPDEST PUSH2 0xF44 JUMP JUMPDEST SWAP1 PUSH1 0x1F DUP1 NOT SWAP2 ADD AND DUP2 ADD SWAP1 DUP2 LT PUSH8 0xFFFFFFFFFFFFFFFF DUP3 GT OR PUSH2 0xF76 JUMPI PUSH1 0x40 MSTORE JUMP JUMPDEST SWAP1 DUP2 PUSH1 0x20 SWAP2 SUB SLT PUSH2 0x20C JUMPI MLOAD SWAP1 JUMP JUMPDEST PUSH1 0x40 MLOAD RETURNDATASIZE PUSH1 0x0 DUP3 RETURNDATACOPY RETURNDATASIZE SWAP1 REVERT JUMPDEST ISZERO PUSH2 0xFBF JUMPI JUMP JUMPDEST PUSH1 0x64 PUSH1 0x40 MLOAD PUSH3 0x461BCD PUSH1 0xE5 SHL DUP2 MSTORE PUSH1 0x20 PUSH1 0x4 DUP3 ADD MSTORE PUSH1 0x1C PUSH1 0x24 DUP3 ADD MSTORE PUSH32 0x43616E6E6F74207265636F766572207374616B656420746F6B656E7300000000 PUSH1 0x44 DUP3 ADD MSTORE REVERT JUMPDEST PUSH1 0x6 SLOAD DUP1 ISZERO PUSH2 0x104F JUMPI PUSH1 0x4 SLOAD SWAP1 PUSH1 0x3 SLOAD TIMESTAMP SUB TIMESTAMP DUP2 GT PUSH2 0xC81 JUMPI PUSH1 0x2 SLOAD PUSH2 0x1028 SWAP2 PUSH2 0xC86 JUMP JUMPDEST PUSH8 0xDE0B6B3A7640000 SWAP1 DUP2 DUP2 MUL SWAP2 DUP2 DUP4 DIV EQ SWAP1 ISZERO OR ISZERO PUSH2 0xC81 JUMPI DIV DUP2 ADD DUP1 SWAP2 GT PUSH2 0xC81 JUMPI SWAP1 JUMP JUMPDEST POP PUSH1 0x4 SLOAD SWAP1 JUMP JUMPDEST PUSH1 0x1 PUSH1 0x1 PUSH1 0xA0 SHL SUB PUSH1 0x0 SLOAD AND CALLER SUB PUSH2 0x106A JUMPI JUMP JUMPDEST PUSH1 0x64 PUSH1 0x40 MLOAD PUSH3 0x461BCD PUSH1 0xE5 SHL DUP2 MSTORE PUSH1 0x20 PUSH1 0x4 DUP3 ADD MSTORE PUSH1 0x20 PUSH1 0x24 DUP3 ADD MSTORE PUSH32 0x4F776E61626C653A2063616C6C6572206973206E6F7420746865206F776E6572 PUSH1 0x44 DUP3 ADD MSTORE REVERT JUMPDEST PUSH1 0x1 PUSH1 0x1 PUSH1 0xA0 SHL SUB DUP2 AND SWAP1 DUP2 PUSH1 0x0 MSTORE PUSH1 0x9 PUSH1 0x20 MSTORE PUSH1 0x4 PUSH1 0x40 PUSH1 0x0 KECCAK256 ADD DUP1 SLOAD DUP1 PUSH2 0x10D8 JUMPI JUMPDEST POP POP POP POP JUMP JUMPDEST PUSH2 0x112A DUP2 PUSH32 0x106F923F993C2149D49B4255FF723ACAFA1F2D94393F561D3EDA32AE348F7241 SWAP5 PUSH1 0x0 PUSH1 0x20 SWAP6 SSTORE PUSH32 0x0 PUSH2 0x113A JUMP JUMPDEST PUSH1 0x40 MLOAD SWAP1 DUP2 MSTORE LOG2 CODESIZE DUP1 DUP1 DUP1 PUSH2 0x10D2 JUMP JUMPDEST SWAP2 PUSH1 0x1 PUSH1 0x1 PUSH1 0xA0 SHL SUB PUSH1 0x40 MLOAD SWAP3 PUSH32 0xA9059CBB00000000000000000000000000000000000000000000000000000000 PUSH1 0x20 DUP6 ADD MSTORE AND PUSH1 0x24 DUP4 ADD MSTORE PUSH1 0x44 DUP3 ADD MSTORE PUSH1 0x44 DUP2 MSTORE PUSH1 0x80 DUP2 ADD SWAP2 DUP2 DUP4 LT PUSH8 0xFFFFFFFFFFFFFFFF DUP5 GT OR PUSH2 0xF76 JUMPI PUSH2 0x11A0 SWAP3 PUSH1 0x40 MSTORE PUSH2 0x129A JUMP JUMPDEST JUMP JUMPDEST SWAP3 SWAP1 PUSH1 0x40 MLOAD SWAP3 PUSH32 0x23B872DD00000000000000000000000000000000000000000000000000000000 PUSH1 0x20 DUP6 ADD MSTORE PUSH1 0x1 PUSH1 0x1 PUSH1 0xA0 SHL SUB DUP1 SWAP3 AND PUSH1 0x24 DUP6 ADD MSTORE AND PUSH1 0x44 DUP4 ADD MSTORE PUSH1 0x64 DUP3 ADD MSTORE PUSH1 0x64 DUP2 MSTORE PUSH1 0xA0 DUP2 ADD SWAP2 DUP2 DUP4 LT PUSH8 0xFFFFFFFFFFFFFFFF DUP5 GT OR PUSH2 0xF76 JUMPI PUSH2 0x11A0 SWAP3 PUSH1 0x40 MSTORE PUSH2 0x129A JUMP JUMPDEST SWAP1 DUP2 PUSH1 0x20 SWAP2 SUB SLT PUSH2 0x20C JUMPI MLOAD DUP1 ISZERO ISZERO DUP2 SUB PUSH2 0x20C JUMPI SWAP1 JUMP JUMPDEST ISZERO PUSH2 0x1230 JUMPI JUMP JUMPDEST PUSH1 0x84 PUSH1 0x40 MLOAD PUSH3 0x461BCD PUSH1 0xE5 SHL DUP2 MSTORE PUSH1 0x20 PUSH1 0x4 DUP3 ADD MSTORE PUSH1 0x2A PUSH1 0x24 DUP3 ADD MSTORE PUSH32 0x5361666545524332303A204552433230206F7065726174696F6E20646964206E PUSH1 0x44 DUP3 ADD MSTORE PUSH32 0x6F74207375636365656400000000000000000000000000000000000000000000 PUSH1 0x64 DUP3 ADD MSTORE REVERT JUMPDEST PUSH1 0x1 PUSH1 0x1 PUSH1 0xA0 SHL SUB AND SWAP1 PUSH1 0x40 MLOAD SWAP1 PUSH2 0x12B1 DUP3 PUSH2 0xF5A JUMP JUMPDEST PUSH1 0x20 SWAP3 DUP4 DUP4 MSTORE PUSH32 0x5361666545524332303A206C6F772D6C6576656C2063616C6C206661696C6564 DUP5 DUP5 ADD MSTORE DUP1 EXTCODESIZE ISZERO PUSH2 0x1328 JUMPI PUSH1 0x0 DUP3 DUP2 SWAP3 DUP3 DUP8 PUSH2 0x1303 SWAP8 SWAP7 MLOAD SWAP4 ADD SWAP2 GAS CALL PUSH2 0x12FD PUSH2 0x136C JUMP JUMPDEST SWAP1 PUSH2 0x13AC JUMP JUMPDEST DUP1 MLOAD SWAP1 DUP2 PUSH2 0x1310 JUMPI POP POP POP JUMP JUMPDEST DUP3 PUSH2 0x11A0 SWAP4 PUSH2 0x1323 SWAP4 DUP4 ADD ADD SWAP2 ADD PUSH2 0x1211 JUMP JUMPDEST PUSH2 0x1229 JUMP JUMPDEST PUSH1 0x64 DUP5 PUSH1 0x40 MLOAD SWAP1 PUSH3 0x461BCD PUSH1 0xE5 SHL DUP3 MSTORE PUSH1 0x4 DUP3 ADD MSTORE PUSH1 0x1D PUSH1 0x24 DUP3 ADD MSTORE PUSH32 0x416464726573733A2063616C6C20746F206E6F6E2D636F6E7472616374000000 PUSH1 0x44 DUP3 ADD MSTORE REVERT JUMPDEST RETURNDATASIZE ISZERO PUSH2 0x13A7 JUMPI RETURNDATASIZE SWAP1 PUSH8 0xFFFFFFFFFFFFFFFF DUP3 GT PUSH2 0xF76 JUMPI PUSH1 0x40 MLOAD SWAP2 PUSH2 0x139B PUSH1 0x1F DUP3 ADD PUSH1 0x1F NOT AND PUSH1 0x20 ADD DUP5 PUSH2 0xF7B JUMP JUMPDEST DUP3 MSTORE RETURNDATASIZE PUSH1 0x0 PUSH1 0x20 DUP5 ADD RETURNDATACOPY JUMP JUMPDEST PUSH1 0x60 SWAP1 JUMP JUMPDEST SWAP1 SWAP2 SWAP1 ISZERO PUSH2 0x13B8 JUMPI POP SWAP1 JUMP JUMPDEST DUP2 MLOAD ISZERO PUSH2 0x13C8 JUMPI POP DUP1 MLOAD SWAP1 PUSH1 0x20 ADD REVERT JUMPDEST PUSH1 0x40 MLOAD SWAP1 PUSH3 0x461BCD PUSH1 0xE5 SHL DUP3 MSTORE DUP2 PUSH1 0x20 DUP1 PUSH1 0x4 DUP4 ADD MSTORE DUP3 MLOAD SWAP1 DUP2 PUSH1 0x24 DUP5 ADD MSTORE PUSH1 0x0 SWAP4 JUMPDEST DUP3 DUP6 LT PUSH2 0x140E JUMPI POP POP PUSH1 0x44 SWAP3 POP PUSH1 0x0 DUP4 DUP3 DUP5 ADD ADD MSTORE PUSH1 0x1F DUP1 NOT SWAP2 ADD AND DUP2 ADD SUB ADD SWAP1 REVERT JUMPDEST DUP5 DUP2 ADD DUP3 ADD MLOAD DUP7 DUP7 ADD PUSH1 0x44 ADD MSTORE SWAP4 DUP2 ADD SWAP4 DUP6 SWAP4 POP PUSH2 0x13EB JUMP INVALID LOG2 PUSH5 0x6970667358 0x22 SLT KECCAK256 0xC6 0x4D STATICCALL PUSH28 0xEB1091D54B20D9C904CB3F2CB605F5309457C9A1B16903A42EE309DA PUSH5 0x736F6C6343 STOP ADDMOD AND STOP CALLER PUSH1 0xA0 CALLVALUE PUSH3 0x1BB JUMPI PUSH1 0x1F PUSH3 0x1C9B CODESIZE DUP2 SWAP1 SUB SWAP2 DUP3 ADD PUSH1 0x1F NOT AND DUP4 ADD SWAP2 PUSH1 0x1 PUSH1 0x1 PUSH1 0x40 SHL SUB DUP4 GT DUP5 DUP5 LT OR PUSH3 0x1C0 JUMPI DUP1 DUP5 SWAP3 PUSH1 0x60 SWAP5 PUSH1 0x40 MSTORE DUP4 CODECOPY DUP2 ADD SUB SLT PUSH3 0x1BB JUMPI PUSH3 0x4D DUP2 PUSH3 0x1D6 JUMP JUMPDEST SWAP1 PUSH3 0x6A PUSH1 0x40 PUSH3 0x62 PUSH1 0x20 DUP5 ADD PUSH3 0x1D6 JUMP JUMPDEST SWAP3 ADD PUSH3 0x1D6 JUMP JUMPDEST PUSH1 0x0 DUP1 SLOAD PUSH1 0x1 PUSH1 0x1 PUSH1 0xA0 SHL SUB SWAP3 DUP4 AND PUSH1 0x1 PUSH1 0x1 PUSH1 0xA0 SHL SUB NOT DUP1 DUP4 AND DUP3 OR DUP5 SSTORE PUSH1 0x40 MLOAD SWAP1 SWAP6 SWAP4 SWAP1 SWAP3 DUP6 AND SWAP1 PUSH32 0x8BE0079C531659141344CD1FD0A4F28419497F9722A3DAAFE3B4186F6B6457E0 SWAP1 DUP1 LOG3 PUSH1 0x1 DUP1 SSTORE DUP3 DUP6 AND ISZERO PUSH3 0x16E JUMPI POP AND SWAP2 DUP3 ISZERO PUSH3 0x11D JUMPI PUSH1 0x80 MSTORE PUSH1 0x2 SLOAD AND OR PUSH1 0x2 SSTORE PUSH1 0x40 MLOAD PUSH2 0x1AAF SWAP1 DUP2 PUSH3 0x1EC DUP3 CODECOPY PUSH1 0x80 MLOAD DUP2 DUP2 DUP2 PUSH2 0x2C9 ADD MSTORE DUP2 DUP2 PUSH2 0x3B2 ADD MSTORE DUP2 DUP2 PUSH2 0x50D ADD MSTORE DUP2 DUP2 PUSH2 0x661 ADD MSTORE DUP2 DUP2 PUSH2 0x786 ADD MSTORE DUP2 DUP2 PUSH2 0x995 ADD MSTORE PUSH2 0xEE1 ADD MSTORE RETURN JUMPDEST PUSH1 0x40 MLOAD PUSH3 0x461BCD PUSH1 0xE5 SHL DUP2 MSTORE PUSH1 0x20 PUSH1 0x4 DUP3 ADD MSTORE PUSH1 0x24 DUP1 DUP3 ADD MSTORE PUSH32 0x46656520636F6C6C6563746F722063616E6E6F74206265207A65726F20616464 PUSH1 0x44 DUP3 ADD MSTORE PUSH4 0x72657373 PUSH1 0xE0 SHL PUSH1 0x64 DUP3 ADD MSTORE PUSH1 0x84 SWAP1 REVERT JUMPDEST PUSH3 0x461BCD PUSH1 0xE5 SHL DUP2 MSTORE PUSH1 0x20 PUSH1 0x4 DUP3 ADD MSTORE PUSH1 0x22 PUSH1 0x24 DUP3 ADD MSTORE PUSH32 0x43524F414B20746F6B656E2063616E6E6F74206265207A65726F206164647265 PUSH1 0x44 DUP3 ADD MSTORE PUSH2 0x7373 PUSH1 0xF0 SHL PUSH1 0x64 DUP3 ADD MSTORE PUSH1 0x84 SWAP1 REVERT JUMPDEST PUSH1 0x0 DUP1 REVERT JUMPDEST PUSH4 0x4E487B71 PUSH1 0xE0 SHL PUSH1 0x0 MSTORE PUSH1 0x41 PUSH1 0x4 MSTORE PUSH1 0x24 PUSH1 0x0 REVERT JUMPDEST MLOAD SWAP1 PUSH1 0x1 PUSH1 0x1 PUSH1 0xA0 SHL SUB DUP3 AND DUP3 SUB PUSH3 0x1BB JUMPI JUMP INVALID PUSH1 0x80 PUSH1 0x40 MSTORE PUSH1 0x4 CALLDATASIZE LT ISZERO PUSH2 0x12 JUMPI PUSH1 0x0 DUP1 REVERT JUMPDEST PUSH1 0x0 CALLDATALOAD PUSH1 0xE0 SHR DUP1 PUSH4 0x459F882 EQ PUSH2 0x147 JUMPI DUP1 PUSH4 0x1D163923 EQ PUSH2 0x142 JUMPI DUP1 PUSH4 0x29FA1BDC EQ PUSH2 0x13D JUMPI DUP1 PUSH4 0x2D2EB9F3 EQ PUSH2 0x138 JUMPI DUP1 PUSH4 0x47BBBDF5 EQ PUSH2 0x133 JUMPI DUP1 PUSH4 0x55776B77 EQ PUSH2 0x12E JUMPI DUP1 PUSH4 0x715018A6 EQ PUSH2 0x129 JUMPI DUP1 PUSH4 0x768AEBDE EQ PUSH2 0x124 JUMPI DUP1 PUSH4 0x8980F11F EQ PUSH2 0x11F JUMPI DUP1 PUSH4 0x8DA5CB5B EQ PUSH2 0x11A JUMPI DUP1 PUSH4 0x99A3A755 EQ PUSH2 0x115 JUMPI DUP1 PUSH4 0x9DF6A379 EQ PUSH2 0x110 JUMPI DUP1 PUSH4 0xA42DCE80 EQ PUSH2 0x10B JUMPI DUP1 PUSH4 0xC415B95C EQ PUSH2 0x106 JUMPI DUP1 PUSH4 0xC6255626 EQ PUSH2 0x101 JUMPI DUP1 PUSH4 0xE1F1C4A7 EQ PUSH2 0xFC JUMPI DUP1 PUSH4 0xE38192E3 EQ PUSH2 0xF7 JUMPI DUP1 PUSH4 0xEFB7601D EQ PUSH2 0xF2 JUMPI PUSH4 0xF2FDE38B EQ PUSH2 0xED JUMPI PUSH1 0x0 DUP1 REVERT JUMPDEST PUSH2 0xFE7 JUMP JUMPDEST PUSH2 0xF2A JUMP JUMPDEST PUSH2 0xE22 JUMP JUMPDEST PUSH2 0xE05 JUMP JUMPDEST PUSH2 0xDAB JUMP JUMPDEST PUSH2 0xD32 JUMP JUMPDEST PUSH2 0xC60 JUMP JUMPDEST PUSH2 0xABE JUMP JUMPDEST PUSH2 0x95C JUMP JUMPDEST PUSH2 0x935 JUMP JUMPDEST PUSH2 0x756 JUMP JUMPDEST PUSH2 0x73A JUMP JUMPDEST PUSH2 0x6DD JUMP JUMPDEST PUSH2 0x5B7 JUMP JUMPDEST PUSH2 0x561 JUMP JUMPDEST PUSH2 0x3D6 JUMP JUMPDEST PUSH2 0x392 JUMP JUMPDEST PUSH2 0x374 JUMP JUMPDEST PUSH2 0x191 JUMP JUMPDEST PUSH1 0x4 CALLDATALOAD SWAP1 PUSH1 0x1 PUSH1 0x1 PUSH1 0xA0 SHL SUB DUP3 AND DUP3 SUB PUSH2 0x162 JUMPI JUMP JUMPDEST PUSH1 0x0 DUP1 REVERT JUMPDEST PUSH1 0x60 SWAP1 PUSH1 0x3 NOT ADD SLT PUSH2 0x162 JUMPI PUSH1 0x4 CALLDATALOAD PUSH1 0x1 PUSH1 0x1 PUSH1 0xA0 SHL SUB DUP2 AND DUP2 SUB PUSH2 0x162 JUMPI SWAP1 PUSH1 0x24 CALLDATALOAD SWAP1 PUSH1 0x44 CALLDATALOAD SWAP1 JUMP JUMPDEST CALLVALUE PUSH2 0x162 JUMPI PUSH2 0x364 PUSH2 0x29A PUSH32 0xFA2DDA1CC1B86E41239702756B13EFFBC1A092B5C57E3AD320FBE4F3B13FE235 PUSH2 0x1C6 CALLDATASIZE PUSH2 0x167 JUMP JUMPDEST PUSH2 0x1D8 PUSH1 0x2 PUSH1 0x1 SWAP6 SWAP4 SWAP6 SLOAD EQ ISZERO PUSH2 0x10BF JUMP JUMPDEST PUSH1 0x2 PUSH1 0x1 SSTORE PUSH2 0x20C PUSH2 0x207 PUSH2 0x200 DUP6 PUSH1 0x1 PUSH1 0x1 PUSH1 0xA0 SHL SUB AND PUSH1 0x0 MSTORE PUSH1 0x3 PUSH1 0x20 MSTORE PUSH1 0x40 PUSH1 0x0 KECCAK256 SWAP1 JUMP JUMPDEST SLOAD PUSH1 0xFF AND SWAP1 JUMP JUMPDEST PUSH2 0x110A JUMP JUMPDEST PUSH2 0x217 DUP5 ISZERO ISZERO PUSH2 0x1155 JUMP JUMPDEST PUSH2 0x234 DUP4 PUSH1 0x1 PUSH1 0x1 PUSH1 0xA0 SHL SUB AND PUSH1 0x0 MSTORE PUSH1 0x3 PUSH1 0x20 MSTORE PUSH1 0x40 PUSH1 0x0 KECCAK256 SWAP1 JUMP JUMPDEST SWAP3 PUSH1 0x1 DUP5 ADD SWAP1 PUSH2 0x2A2 DUP7 PUSH2 0x28F PUSH1 0x2 DUP6 SLOAD SWAP9 DUP10 ISZERO ISZERO DUP1 PUSH2 0x368 JUMPI JUMPDEST PUSH2 0x258 SWAP1 PUSH2 0x11A0 JUMP JUMPDEST ADD SWAP8 PUSH2 0x289 PUSH2 0x27A PUSH2 0x274 PUSH2 0x26F DUP13 SLOAD DUP1 SWAP8 PUSH2 0x1262 JUMP JUMPDEST PUSH2 0x124B JUMP JUMPDEST SWAP3 PUSH2 0x1201 JUMP JUMPDEST PUSH2 0x283 DUP13 PUSH2 0x124B JUMP JUMPDEST SWAP1 PUSH2 0x1291 JUMP JUMPDEST SWAP1 PUSH2 0x129E JUMP JUMPDEST SWAP9 DUP10 SWAP6 DUP7 LT ISZERO PUSH2 0x12BE JUMP JUMPDEST DUP5 GT ISZERO PUSH2 0x1309 JUMP JUMPDEST PUSH2 0x2B6 PUSH2 0x2AE DUP8 PUSH2 0x1218 JUMP JUMPDEST PUSH2 0x2710 SWAP1 DIV SWAP1 JUMP JUMPDEST SWAP5 PUSH1 0x1 PUSH1 0x1 PUSH1 0xA0 SHL SUB SWAP3 PUSH2 0x31F PUSH2 0x318 DUP6 PUSH32 0x0 AND SWAP9 PUSH2 0x2F6 DUP12 ADDRESS CALLER DUP14 PUSH2 0x1734 JUMP JUMPDEST PUSH2 0x312 DUP2 PUSH2 0x30C PUSH1 0x2 SLOAD PUSH1 0x1 PUSH1 0x1 PUSH1 0xA0 SHL SUB AND SWAP1 JUMP JUMPDEST DUP13 PUSH2 0x17A5 JUMP JUMPDEST DUP11 PUSH2 0x1284 JUMP JUMPDEST DUP3 SLOAD PUSH2 0x1291 JUMP JUMPDEST SWAP1 SSTORE PUSH2 0x32C DUP5 DUP3 SLOAD PUSH2 0x1284 JUMP JUMPDEST SWAP1 SSTORE AND SWAP4 PUSH2 0x33B DUP3 CALLER DUP8 PUSH2 0x17A5 JUMP JUMPDEST PUSH1 0x40 DUP1 MLOAD SWAP2 DUP3 MSTORE PUSH1 0x20 DUP3 ADD SWAP3 SWAP1 SWAP3 MSTORE LOG3 PUSH2 0x354 PUSH1 0x1 DUP1 SSTORE JUMP JUMPDEST PUSH1 0x40 MLOAD SWAP1 DUP2 MSTORE SWAP1 DUP2 SWAP1 PUSH1 0x20 DUP3 ADD SWAP1 JUMP JUMPDEST SUB SWAP1 RETURN JUMPDEST POP DUP1 DUP3 ADD SLOAD ISZERO ISZERO PUSH2 0x24F JUMP JUMPDEST CALLVALUE PUSH2 0x162 JUMPI PUSH1 0x0 CALLDATASIZE PUSH1 0x3 NOT ADD SLT PUSH2 0x162 JUMPI PUSH1 0x20 PUSH1 0x4 SLOAD PUSH1 0x40 MLOAD SWAP1 DUP2 MSTORE RETURN JUMPDEST CALLVALUE PUSH2 0x162 JUMPI PUSH1 0x0 CALLDATASIZE PUSH1 0x3 NOT ADD SLT PUSH2 0x162 JUMPI PUSH1 0x20 PUSH1 0x40 MLOAD PUSH1 0x1 PUSH1 0x1 PUSH1 0xA0 SHL SUB PUSH32 0x0 AND DUP2 MSTORE RETURN JUMPDEST CALLVALUE PUSH2 0x162 JUMPI PUSH2 0x364 PUSH2 0x4C4 PUSH32 0xFA2DDA1CC1B86E41239702756B13EFFBC1A092B5C57E3AD320FBE4F3B13FE235 PUSH2 0x40B CALLDATASIZE PUSH2 0x167 JUMP JUMPDEST PUSH2 0x41E PUSH1 0x2 PUSH1 0x1 SWAP6 SWAP4 SWAP5 SWAP6 SLOAD EQ ISZERO PUSH2 0x10BF JUMP JUMPDEST PUSH1 0x2 PUSH1 0x1 SSTORE PUSH2 0x446 PUSH2 0x207 PUSH2 0x200 DUP7 PUSH1 0x1 PUSH1 0x1 PUSH1 0xA0 SHL SUB AND PUSH1 0x0 MSTORE PUSH1 0x3 PUSH1 0x20 MSTORE PUSH1 0x40 PUSH1 0x0 KECCAK256 SWAP1 JUMP JUMPDEST PUSH2 0x451 DUP4 ISZERO ISZERO PUSH2 0x1155 JUMP JUMPDEST PUSH2 0x46E DUP5 PUSH1 0x1 PUSH1 0x1 PUSH1 0xA0 SHL SUB AND PUSH1 0x0 MSTORE PUSH1 0x3 PUSH1 0x20 MSTORE PUSH1 0x40 PUSH1 0x0 KECCAK256 SWAP1 JUMP JUMPDEST SWAP3 PUSH2 0x33B PUSH1 0x1 DUP6 ADD SWAP6 PUSH2 0x4CC DUP8 SLOAD DUP1 ISZERO ISZERO DUP1 PUSH2 0x554 JUMPI JUMPDEST PUSH2 0x48E SWAP1 PUSH2 0x11A0 JUMP JUMPDEST PUSH2 0x4B9 PUSH1 0x2 PUSH2 0x4A0 PUSH2 0x26F DUP5 DUP10 PUSH2 0x1262 JUMP JUMPDEST SWAP10 ADD SWAP9 PUSH2 0x289 PUSH2 0x4B0 DUP12 SLOAD PUSH2 0x1201 JUMP JUMPDEST PUSH2 0x283 DUP10 PUSH2 0x124B JUMP JUMPDEST SWAP10 DUP11 SWAP7 DUP8 LT ISZERO PUSH2 0x12BE JUMP JUMPDEST DUP6 GT ISZERO PUSH2 0x1354 JUMP JUMPDEST PUSH2 0x4D8 PUSH2 0x2AE DUP6 PUSH2 0x1218 JUMP JUMPDEST SWAP7 PUSH1 0x1 PUSH1 0x1 PUSH1 0xA0 SHL SUB DUP1 SWAP3 AND SWAP7 PUSH2 0x4F1 DUP6 ADDRESS CALLER DUP12 PUSH2 0x1734 JUMP JUMPDEST PUSH2 0x4FC DUP6 DUP3 SLOAD PUSH2 0x1291 JUMP JUMPDEST SWAP1 SSTORE PUSH2 0x509 DUP6 DUP3 SLOAD PUSH2 0x1284 JUMP JUMPDEST SWAP1 SSTORE PUSH32 0x0 AND SWAP6 PUSH2 0x542 PUSH2 0x53B DUP3 DUP7 PUSH2 0x1284 JUMP JUMPDEST CALLER DUP10 PUSH2 0x17A5 JUMP JUMPDEST PUSH1 0x2 SLOAD PUSH1 0x1 PUSH1 0x1 PUSH1 0xA0 SHL SUB AND DUP8 PUSH2 0x17A5 JUMP JUMPDEST POP PUSH1 0x2 DUP9 ADD SLOAD ISZERO ISZERO PUSH2 0x485 JUMP JUMPDEST CALLVALUE PUSH2 0x162 JUMPI PUSH1 0x20 CALLDATASIZE PUSH1 0x3 NOT ADD SLT PUSH2 0x162 JUMPI PUSH1 0x1 PUSH1 0x1 PUSH1 0xA0 SHL SUB PUSH2 0x582 PUSH2 0x14C JUMP JUMPDEST AND PUSH1 0x0 MSTORE PUSH1 0x3 PUSH1 0x20 MSTORE PUSH1 0x60 PUSH1 0x40 PUSH1 0x0 KECCAK256 PUSH1 0xFF DUP2 SLOAD AND SWAP1 PUSH1 0x2 PUSH1 0x1 DUP3 ADD SLOAD SWAP2 ADD SLOAD SWAP1 PUSH1 0x40 MLOAD SWAP3 ISZERO ISZERO DUP4 MSTORE PUSH1 0x20 DUP4 ADD MSTORE PUSH1 0x40 DUP3 ADD MSTORE RETURN JUMPDEST CALLVALUE PUSH2 0x162 JUMPI PUSH32 0xAC1D76749E5447B7B16F5AB61447E1BD502F3BB4807AF3B28E620D1700A6EE45 PUSH2 0x5E6 CALLDATASIZE PUSH2 0x167 JUMP JUMPDEST SWAP1 PUSH2 0x5F9 PUSH1 0x2 PUSH1 0x1 SWAP6 SWAP5 SWAP6 SLOAD EQ ISZERO PUSH2 0x10BF JUMP JUMPDEST PUSH1 0x2 PUSH1 0x1 SSTORE PUSH1 0x2 PUSH1 0x1 PUSH1 0x1 PUSH1 0xA0 SHL SUB PUSH2 0x686 DUP4 PUSH2 0x65A DUP4 DUP10 AND SWAP9 DUP10 PUSH1 0x0 MSTORE PUSH1 0x3 PUSH1 0x20 MSTORE PUSH2 0x62F PUSH2 0x207 PUSH1 0x40 PUSH1 0x0 KECCAK256 PUSH1 0xFF SWAP1 SLOAD AND SWAP1 JUMP JUMPDEST DUP3 ISZERO ISZERO DUP1 PUSH2 0x6D4 JUMPI JUMPDEST PUSH2 0x641 SWAP1 PUSH2 0x139F JUMP JUMPDEST PUSH1 0x1 PUSH1 0x1 PUSH1 0xA0 SHL SUB AND PUSH1 0x0 MSTORE PUSH1 0x3 PUSH1 0x20 MSTORE PUSH1 0x40 PUSH1 0x0 KECCAK256 SWAP1 JUMP JUMPDEST SWAP3 ADDRESS SWAP1 CALLER SWAP1 PUSH32 0x0 AND PUSH2 0x1734 JUMP JUMPDEST PUSH2 0x692 DUP5 ADDRESS CALLER DUP10 PUSH2 0x1734 JUMP JUMPDEST PUSH1 0x1 DUP2 ADD PUSH2 0x6A1 DUP5 DUP3 SLOAD PUSH2 0x1291 JUMP JUMPDEST SWAP1 SSTORE ADD PUSH2 0x6AF DUP4 DUP3 SLOAD PUSH2 0x1291 JUMP JUMPDEST SWAP1 SSTORE PUSH1 0x40 DUP1 MLOAD SWAP2 DUP3 MSTORE PUSH1 0x20 DUP3 ADD SWAP3 SWAP1 SWAP3 MSTORE SWAP1 DUP2 SWAP1 DUP2 ADD JUMPDEST SUB SWAP1 LOG2 PUSH2 0x6D2 PUSH1 0x1 DUP1 SSTORE JUMP JUMPDEST STOP JUMPDEST POP DUP8 ISZERO ISZERO PUSH2 0x638 JUMP JUMPDEST CALLVALUE PUSH2 0x162 JUMPI PUSH1 0x0 DUP1 PUSH1 0x3 NOT CALLDATASIZE ADD SLT PUSH2 0x737 JUMPI PUSH2 0x6F7 PUSH2 0x180B JUMP JUMPDEST DUP1 PUSH1 0x1 PUSH1 0x1 PUSH1 0xA0 SHL SUB DUP2 SLOAD PUSH1 0x1 PUSH1 0x1 PUSH1 0xA0 SHL SUB NOT DUP2 AND DUP4 SSTORE AND PUSH32 0x8BE0079C531659141344CD1FD0A4F28419497F9722A3DAAFE3B4186F6B6457E0 DUP3 DUP1 LOG3 DUP1 RETURN JUMPDEST DUP1 REVERT JUMPDEST CALLVALUE PUSH2 0x162 JUMPI PUSH1 0x0 CALLDATASIZE PUSH1 0x3 NOT ADD SLT PUSH2 0x162 JUMPI PUSH1 0x20 PUSH1 0x40 MLOAD PUSH1 0x1E DUP2 MSTORE RETURN JUMPDEST CALLVALUE PUSH2 0x162 JUMPI PUSH1 0x40 CALLDATASIZE PUSH1 0x3 NOT ADD SLT PUSH2 0x162 JUMPI PUSH2 0x76F PUSH2 0x14C JUMP JUMPDEST PUSH1 0x24 CALLDATALOAD PUSH2 0x77A PUSH2 0x180B JUMP JUMPDEST PUSH1 0x1 PUSH1 0x1 PUSH1 0xA0 SHL SUB SWAP2 DUP3 PUSH32 0x0 AND SWAP3 DUP1 DUP3 AND SWAP2 DUP5 DUP4 EQ PUSH1 0x0 EQ PUSH2 0x889 JUMPI POP PUSH1 0x0 SWAP4 PUSH1 0x0 PUSH1 0x4 SLOAD JUMPDEST DUP1 DUP3 LT PUSH2 0x84E JUMPI POP POP PUSH1 0x40 MLOAD PUSH4 0x70A08231 PUSH1 0xE0 SHL DUP2 MSTORE ADDRESS PUSH1 0x4 DUP3 ADD MSTORE SWAP1 PUSH1 0x20 SWAP1 DUP3 SWAP1 PUSH1 0x24 SWAP1 DUP3 SWAP1 GAS STATICCALL SWAP5 DUP6 ISZERO PUSH2 0x849 JUMPI PUSH2 0x809 DUP6 PUSH2 0x6D2 SWAP8 PUSH2 0x810 SWAP5 PUSH1 0x0 SWAP2 PUSH2 0x81A JUMPI JUMPDEST POP PUSH2 0x1284 JUMP JUMPDEST LT ISZERO PUSH2 0x14CF JUMP JUMPDEST PUSH1 0x0 SLOAD AND SWAP1 PUSH2 0x17A5 JUMP JUMPDEST PUSH2 0x83C SWAP2 POP PUSH1 0x20 RETURNDATASIZE PUSH1 0x20 GT PUSH2 0x842 JUMPI JUMPDEST PUSH2 0x834 DUP2 DUP4 PUSH2 0x1447 JUMP JUMPDEST DUP2 ADD SWAP1 PUSH2 0x1469 JUMP JUMPDEST CODESIZE PUSH2 0x803 JUMP JUMPDEST POP RETURNDATASIZE PUSH2 0x82A JUMP JUMPDEST PUSH2 0x1478 JUMP JUMPDEST SWAP1 SWAP6 PUSH2 0x881 PUSH1 0x1 SWAP2 DUP3 PUSH2 0x879 PUSH2 0x641 PUSH2 0x866 DUP13 PUSH2 0xD6F JUMP JUMPDEST SWAP1 SLOAD PUSH1 0x1 PUSH1 0x1 PUSH1 0xA0 SHL SUB SWAP2 PUSH1 0x3 SHL SHR AND SWAP1 JUMP JUMPDEST ADD SLOAD SWAP1 PUSH2 0x1291 JUMP JUMPDEST SWAP7 ADD SWAP1 PUSH2 0x7BF JUMP JUMPDEST SWAP4 POP PUSH2 0x8B2 PUSH2 0x8AE PUSH2 0x200 DUP7 PUSH1 0x1 PUSH1 0x1 PUSH1 0xA0 SHL SUB AND PUSH1 0x0 MSTORE PUSH1 0x3 PUSH1 0x20 MSTORE PUSH1 0x40 PUSH1 0x0 KECCAK256 SWAP1 JUMP JUMPDEST ISZERO SWAP1 JUMP JUMPDEST SWAP4 DUP5 ISZERO PUSH2 0x8CC JUMPI JUMPDEST POP PUSH2 0x8C7 PUSH2 0x6D2 SWAP5 PUSH2 0x1484 JUMP JUMPDEST PUSH2 0x810 JUMP JUMPDEST PUSH1 0x40 MLOAD PUSH4 0x70A08231 PUSH1 0xE0 SHL DUP2 MSTORE ADDRESS PUSH1 0x4 DUP3 ADD MSTORE SWAP1 SWAP5 POP PUSH1 0x20 DUP2 PUSH1 0x24 DUP2 DUP7 GAS STATICCALL SWAP5 DUP6 ISZERO PUSH2 0x849 JUMPI PUSH1 0x2 PUSH2 0x92A PUSH2 0x910 DUP8 PUSH2 0x6D2 SWAP10 PUSH2 0x8C7 SWAP7 PUSH1 0x0 SWAP2 PUSH2 0x81A JUMPI POP PUSH2 0x1284 JUMP JUMPDEST SWAP3 PUSH1 0x1 PUSH1 0x1 PUSH1 0xA0 SHL SUB AND PUSH1 0x0 MSTORE PUSH1 0x3 PUSH1 0x20 MSTORE PUSH1 0x40 PUSH1 0x0 KECCAK256 SWAP1 JUMP JUMPDEST ADD SLOAD GT ISZERO SWAP5 POP PUSH2 0x8BA JUMP JUMPDEST CALLVALUE PUSH2 0x162 JUMPI PUSH1 0x0 CALLDATASIZE PUSH1 0x3 NOT ADD SLT PUSH2 0x162 JUMPI PUSH1 0x20 PUSH1 0x1 PUSH1 0x1 PUSH1 0xA0 SHL SUB PUSH1 0x0 SLOAD AND PUSH1 0x40 MLOAD SWAP1 DUP2 MSTORE RETURN JUMPDEST CALLVALUE PUSH2 0x162 JUMPI PUSH1 0x20 CALLDATASIZE PUSH1 0x3 NOT ADD SLT PUSH2 0x162 JUMPI PUSH2 0x975 PUSH2 0x14C JUMP JUMPDEST PUSH2 0x97D PUSH2 0x180B JUMP JUMPDEST PUSH1 0x1 PUSH1 0x1 PUSH1 0xA0 SHL SUB DUP1 DUP3 AND SWAP1 DUP2 ISZERO PUSH2 0xA7A JUMPI PUSH2 0x9BD SWAP1 PUSH32 0x0 AND DUP3 EQ ISZERO PUSH2 0x151A JUMP JUMPDEST PUSH2 0x9E8 PUSH2 0x9E3 PUSH2 0x8AE PUSH2 0x200 DUP6 PUSH1 0x1 PUSH1 0x1 PUSH1 0xA0 SHL SUB AND PUSH1 0x0 MSTORE PUSH1 0x3 PUSH1 0x20 MSTORE PUSH1 0x40 PUSH1 0x0 KECCAK256 SWAP1 JUMP JUMPDEST PUSH2 0x1565 JUMP JUMPDEST PUSH2 0xA53 PUSH2 0x9F3 PUSH2 0x15B0 JUMP JUMPDEST PUSH1 0x1 DUP2 MSTORE SWAP3 PUSH2 0xA4E PUSH1 0x0 SWAP5 DUP6 PUSH1 0x20 DUP3 ADD MSTORE DUP6 PUSH1 0x40 DUP3 ADD MSTORE PUSH2 0xA27 DUP4 PUSH1 0x1 PUSH1 0x1 PUSH1 0xA0 SHL SUB AND PUSH1 0x0 MSTORE PUSH1 0x3 PUSH1 0x20 MSTORE PUSH1 0x40 PUSH1 0x0 KECCAK256 SWAP1 JUMP JUMPDEST SWAP1 PUSH1 0x40 PUSH1 0x2 SWAP2 DUP1 MLOAD ISZERO ISZERO PUSH1 0xFF DUP1 NOT DUP7 SLOAD AND SWAP2 AND OR DUP5 SSTORE PUSH1 0x20 DUP2 ADD MLOAD PUSH1 0x1 DUP6 ADD SSTORE ADD MLOAD SWAP2 ADD SSTORE JUMP JUMPDEST PUSH2 0x15D0 JUMP JUMPDEST PUSH32 0x9A8E8B3031C7740F71E486C661D6CDA066A43CA21C18A260BFEE3C6845ED8A28 DUP3 DUP1 LOG2 DUP1 RETURN JUMPDEST PUSH1 0x64 PUSH1 0x40 MLOAD PUSH3 0x461BCD PUSH1 0xE5 SHL DUP2 MSTORE PUSH1 0x20 PUSH1 0x4 DUP3 ADD MSTORE PUSH1 0x1C PUSH1 0x24 DUP3 ADD MSTORE PUSH32 0x546F6B656E2063616E6E6F74206265207A65726F206164647265737300000000 PUSH1 0x44 DUP3 ADD MSTORE REVERT JUMPDEST CALLVALUE PUSH2 0x162 JUMPI PUSH1 0x20 CALLDATASIZE PUSH1 0x3 NOT ADD SLT PUSH2 0x162 JUMPI PUSH2 0xAD7 PUSH2 0x14C JUMP JUMPDEST PUSH2 0xADF PUSH2 0x180B JUMP JUMPDEST PUSH2 0xB07 PUSH2 0xB02 PUSH2 0x200 DUP4 PUSH1 0x1 PUSH1 0x1 PUSH1 0xA0 SHL SUB AND PUSH1 0x0 MSTORE PUSH1 0x3 PUSH1 0x20 MSTORE PUSH1 0x40 PUSH1 0x0 KECCAK256 SWAP1 JUMP JUMPDEST PUSH2 0x1636 JUMP JUMPDEST PUSH1 0x1 SWAP1 PUSH1 0x1 PUSH2 0xB29 DUP3 PUSH1 0x1 PUSH1 0x1 PUSH1 0xA0 SHL SUB AND PUSH1 0x0 MSTORE PUSH1 0x3 PUSH1 0x20 MSTORE PUSH1 0x40 PUSH1 0x0 KECCAK256 SWAP1 JUMP JUMPDEST ADD SLOAD ISZERO DUP1 PUSH2 0xC33 JUMPI JUMPDEST PUSH2 0xB3B SWAP1 PUSH2 0x1681 JUMP JUMPDEST DUP2 PUSH1 0x0 PUSH1 0x1 PUSH1 0x1 PUSH1 0xA0 SHL SUB SWAP1 DUP2 DUP5 AND SWAP5 JUMPDEST PUSH2 0xBAB JUMPI JUMPDEST DUP5 PUSH2 0xB84 PUSH2 0xB72 DUP7 PUSH1 0x1 PUSH1 0x1 PUSH1 0xA0 SHL SUB AND PUSH1 0x0 MSTORE PUSH1 0x3 PUSH1 0x20 MSTORE PUSH1 0x40 PUSH1 0x0 KECCAK256 SWAP1 JUMP JUMPDEST PUSH1 0x2 PUSH1 0x0 SWAP2 DUP3 DUP2 SSTORE DUP3 PUSH1 0x1 DUP3 ADD SSTORE ADD SSTORE JUMP JUMPDEST PUSH32 0x42B32E12FBA575D8587C6751131D30C3C27E44397EA815FA7904EB350CB6EDFF PUSH1 0x0 DUP1 LOG2 STOP JUMPDEST PUSH1 0x4 SLOAD DUP1 DUP3 LT ISZERO PUSH2 0xC2D JUMPI DUP6 DUP4 PUSH2 0xBC4 PUSH2 0x866 DUP6 PUSH2 0xD6F JUMP JUMPDEST AND EQ PUSH2 0xBD3 JUMPI POP DUP3 ADD DUP3 PUSH2 0xB4C JUMP JUMPDEST PUSH2 0xB72 SWAP4 POP PUSH2 0xB84 SWAP5 SWAP3 POP SWAP1 PUSH2 0xBFF PUSH2 0xBF9 PUSH2 0x866 PUSH2 0xBF4 PUSH2 0xC1E SWAP6 PUSH2 0x1275 JUMP JUMPDEST PUSH2 0xD6F JUMP JUMPDEST SWAP2 PUSH2 0xD6F JUMP JUMPDEST SWAP1 SWAP2 SWAP1 PUSH1 0x1 PUSH1 0x1 PUSH1 0xA0 SHL SUB DUP1 DUP5 SLOAD SWAP3 PUSH1 0x3 SHL SWAP4 AND DUP4 SHL SWAP3 SHL NOT AND OR SWAP1 SSTORE JUMP JUMPDEST PUSH2 0xC26 PUSH2 0x16CC JUMP JUMPDEST SWAP2 CODESIZE PUSH2 0xB51 JUMP JUMPDEST POP PUSH2 0xB51 JUMP JUMPDEST POP PUSH2 0xB3B PUSH1 0x2 PUSH2 0xC56 DUP4 PUSH1 0x1 PUSH1 0x1 PUSH1 0xA0 SHL SUB AND PUSH1 0x0 MSTORE PUSH1 0x3 PUSH1 0x20 MSTORE PUSH1 0x40 PUSH1 0x0 KECCAK256 SWAP1 JUMP JUMPDEST ADD SLOAD ISZERO SWAP1 POP PUSH2 0xB32 JUMP JUMPDEST CALLVALUE PUSH2 0x162 JUMPI PUSH1 0x20 CALLDATASIZE PUSH1 0x3 NOT ADD SLT PUSH2 0x162 JUMPI PUSH1 0x1 PUSH1 0x1 PUSH1 0xA0 SHL SUB PUSH2 0xC81 PUSH2 0x14C JUMP JUMPDEST PUSH2 0xC89 PUSH2 0x180B JUMP JUMPDEST AND DUP1 ISZERO PUSH2 0xCC9 JUMPI DUP1 PUSH1 0x1 PUSH1 0x1 PUSH1 0xA0 SHL SUB NOT PUSH1 0x2 SLOAD AND OR PUSH1 0x2 SSTORE PUSH32 0xE5693914D19C789BDEE50A362998C0BC8D035A835F9871DA5D51152F0582C34F PUSH1 0x0 DUP1 LOG2 STOP JUMPDEST PUSH1 0x84 PUSH1 0x40 MLOAD PUSH3 0x461BCD PUSH1 0xE5 SHL DUP2 MSTORE PUSH1 0x20 PUSH1 0x4 DUP3 ADD MSTORE PUSH1 0x24 DUP1 DUP3 ADD MSTORE PUSH32 0x46656520636F6C6C6563746F722063616E6E6F74206265207A65726F20616464 PUSH1 0x44 DUP3 ADD MSTORE PUSH32 0x7265737300000000000000000000000000000000000000000000000000000000 PUSH1 0x64 DUP3 ADD MSTORE REVERT JUMPDEST CALLVALUE PUSH2 0x162 JUMPI PUSH1 0x0 CALLDATASIZE PUSH1 0x3 NOT ADD SLT PUSH2 0x162 JUMPI PUSH1 0x20 PUSH1 0x1 PUSH1 0x1 PUSH1 0xA0 SHL SUB PUSH1 0x2 SLOAD AND PUSH1 0x40 MLOAD SWAP1 DUP2 MSTORE RETURN JUMPDEST PUSH4 0x4E487B71 PUSH1 0xE0 SHL PUSH1 0x0 MSTORE PUSH1 0x32 PUSH1 0x4 MSTORE PUSH1 0x24 PUSH1 0x0 REVERT JUMPDEST PUSH1 0x4 SLOAD DUP2 LT ISZERO PUSH2 0xDA6 JUMPI PUSH1 0x4 PUSH1 0x0 MSTORE PUSH32 0x8A35ACFBC15FF81A39AE7D344FD709F28E8600B4AA8C65C6B64BFE7FE36BD19B ADD SWAP1 PUSH1 0x0 SWAP1 JUMP JUMPDEST PUSH2 0xD59 JUMP JUMPDEST CALLVALUE PUSH2 0x162 JUMPI PUSH1 0x20 CALLDATASIZE PUSH1 0x3 NOT ADD SLT PUSH2 0x162 JUMPI PUSH1 0x4 CALLDATALOAD PUSH1 0x4 SLOAD DUP2 LT ISZERO PUSH2 0x162 JUMPI PUSH1 0x1 PUSH1 0x1 PUSH1 0xA0 SHL SUB PUSH1 0x20 SWAP2 PUSH1 0x4 PUSH1 0x0 MSTORE PUSH32 0x8A35ACFBC15FF81A39AE7D344FD709F28E8600B4AA8C65C6B64BFE7FE36BD19B ADD SLOAD AND PUSH1 0x40 MLOAD SWAP1 DUP2 MSTORE RETURN JUMPDEST CALLVALUE PUSH2 0x162 JUMPI PUSH1 0x0 CALLDATASIZE PUSH1 0x3 NOT ADD SLT PUSH2 0x162 JUMPI PUSH1 0x20 PUSH1 0x40 MLOAD PUSH2 0x2710 DUP2 MSTORE RETURN JUMPDEST CALLVALUE PUSH2 0x162 JUMPI PUSH32 0x96CD817C6329656790EF8FBA7675405193677D39619571282F5E21F3A98CD059 PUSH2 0xE51 CALLDATASIZE PUSH2 0x167 JUMP JUMPDEST SWAP1 PUSH2 0xE64 PUSH1 0x2 PUSH1 0x1 SWAP6 SWAP5 SWAP6 SLOAD EQ ISZERO PUSH2 0x10BF JUMP JUMPDEST PUSH1 0x2 PUSH1 0x1 SSTORE PUSH2 0xE71 PUSH2 0x180B JUMP JUMPDEST PUSH2 0xF06 DUP2 PUSH1 0x1 PUSH1 0x1 PUSH1 0xA0 SHL SUB PUSH2 0xEA0 DUP2 DUP9 AND SWAP8 DUP9 PUSH1 0x0 MSTORE PUSH1 0x3 PUSH1 0x20 MSTORE PUSH2 0x641 PUSH2 0x207 PUSH1 0x40 PUSH1 0x0 KECCAK256 PUSH1 0xFF SWAP1 SLOAD AND SWAP1 JUMP JUMPDEST PUSH2 0xEDB DUP7 PUSH1 0x1 DUP4 ADD SWAP3 PUSH1 0x2 DUP5 SLOAD SWAP2 PUSH2 0xEBA DUP9 DUP5 LT ISZERO PUSH2 0x1354 JUMP JUMPDEST ADD SWAP4 PUSH2 0xED4 DUP8 DUP7 SLOAD SWAP4 PUSH2 0xECF DUP7 DUP7 LT ISZERO PUSH2 0x1309 JUMP JUMPDEST PUSH2 0x1284 JUMP JUMPDEST SWAP1 SSTORE PUSH2 0x1284 JUMP JUMPDEST SWAP1 SSTORE CALLER SWAP1 PUSH32 0x0 AND PUSH2 0x17A5 JUMP JUMPDEST PUSH2 0xF11 DUP3 CALLER DUP7 PUSH2 0x17A5 JUMP JUMPDEST PUSH1 0x40 DUP1 MLOAD SWAP2 DUP3 MSTORE PUSH1 0x20 DUP3 ADD SWAP3 SWAP1 SWAP3 MSTORE SWAP1 DUP2 SWAP1 DUP2 ADD PUSH2 0x6C6 JUMP JUMPDEST CALLVALUE PUSH2 0x162 JUMPI PUSH1 0x20 CALLDATASIZE PUSH1 0x3 NOT ADD SLT PUSH2 0x162 JUMPI PUSH1 0x1 PUSH1 0x1 PUSH1 0xA0 SHL SUB PUSH2 0xF4B PUSH2 0x14C JUMP JUMPDEST AND DUP1 PUSH1 0x0 MSTORE PUSH1 0x3 PUSH1 0x20 MSTORE PUSH2 0xF66 PUSH1 0xFF PUSH1 0x40 PUSH1 0x0 KECCAK256 SLOAD AND PUSH2 0x110A JUMP JUMPDEST PUSH1 0x0 MSTORE PUSH1 0x3 PUSH1 0x20 MSTORE PUSH1 0x40 PUSH1 0x0 KECCAK256 PUSH1 0x2 PUSH1 0x1 DUP3 ADD SLOAD SWAP2 DUP3 ISZERO ISZERO DUP1 PUSH2 0xFDB JUMPI JUMPDEST PUSH2 0xF8D SWAP1 PUSH2 0x11A0 JUMP JUMPDEST ADD SLOAD PUSH8 0xDE0B6B3A7640000 SWAP1 DUP2 DUP2 MUL SWAP2 DUP2 DUP4 DIV EQ DUP2 ISZERO OR ISZERO PUSH2 0xFD6 JUMPI PUSH2 0xFBF PUSH2 0xFB9 DUP5 PUSH2 0xFC4 SWAP5 PUSH2 0x129E JUMP JUMPDEST SWAP4 PUSH2 0x122E JUMP JUMPDEST PUSH2 0x129E JUMP JUMPDEST PUSH1 0x40 DUP1 MLOAD SWAP3 DUP4 MSTORE PUSH1 0x20 DUP4 ADD SWAP2 SWAP1 SWAP2 MSTORE SWAP1 RETURN JUMPDEST PUSH2 0x11EB JUMP JUMPDEST POP DUP1 DUP3 ADD SLOAD ISZERO ISZERO PUSH2 0xF84 JUMP JUMPDEST CALLVALUE PUSH2 0x162 JUMPI PUSH1 0x20 CALLDATASIZE PUSH1 0x3 NOT ADD SLT PUSH2 0x162 JUMPI PUSH2 0x1000 PUSH2 0x14C JUMP JUMPDEST PUSH2 0x1008 PUSH2 0x180B JUMP JUMPDEST PUSH1 0x1 PUSH1 0x1 PUSH1 0xA0 SHL SUB DUP1 SWAP2 AND DUP1 ISZERO PUSH2 0x1055 JUMPI PUSH1 0x0 SWAP2 DUP3 SLOAD DUP3 PUSH1 0x1 PUSH1 0x1 PUSH1 0xA0 SHL SUB NOT DUP3 AND OR DUP5 SSTORE AND PUSH32 0x8BE0079C531659141344CD1FD0A4F28419497F9722A3DAAFE3B4186F6B6457E0 DUP4 DUP1 LOG3 DUP1 RETURN JUMPDEST PUSH1 0x84 PUSH1 0x40 MLOAD PUSH3 0x461BCD PUSH1 0xE5 SHL DUP2 MSTORE PUSH1 0x20 PUSH1 0x4 DUP3 ADD MSTORE PUSH1 0x26 PUSH1 0x24 DUP3 ADD MSTORE PUSH32 0x4F776E61626C653A206E6577206F776E657220697320746865207A65726F2061 PUSH1 0x44 DUP3 ADD MSTORE PUSH32 0x6464726573730000000000000000000000000000000000000000000000000000 PUSH1 0x64 DUP3 ADD MSTORE REVERT JUMPDEST ISZERO PUSH2 0x10C6 JUMPI JUMP JUMPDEST PUSH1 0x64 PUSH1 0x40 MLOAD PUSH3 0x461BCD PUSH1 0xE5 SHL DUP2 MSTORE PUSH1 0x20 PUSH1 0x4 DUP3 ADD MSTORE PUSH1 0x1F PUSH1 0x24 DUP3 ADD MSTORE PUSH32 0x5265656E7472616E637947756172643A207265656E7472616E742063616C6C00 PUSH1 0x44 DUP3 ADD MSTORE REVERT JUMPDEST ISZERO PUSH2 0x1111 JUMPI JUMP JUMPDEST PUSH1 0x64 PUSH1 0x40 MLOAD PUSH3 0x461BCD PUSH1 0xE5 SHL DUP2 MSTORE PUSH1 0x20 PUSH1 0x4 DUP3 ADD MSTORE PUSH1 0x18 PUSH1 0x24 DUP3 ADD MSTORE PUSH32 0x546F6B656E2070616972206E6F7420737570706F727465640000000000000000 PUSH1 0x44 DUP3 ADD MSTORE REVERT JUMPDEST ISZERO PUSH2 0x115C JUMPI JUMP JUMPDEST PUSH1 0x64 PUSH1 0x40 MLOAD PUSH3 0x461BCD PUSH1 0xE5 SHL DUP2 MSTORE PUSH1 0x20 PUSH1 0x4 DUP3 ADD MSTORE PUSH1 0x20 PUSH1 0x24 DUP3 ADD MSTORE PUSH32 0x416D6F756E74206D7573742062652067726561746572207468616E207A65726F PUSH1 0x44 DUP3 ADD MSTORE REVERT JUMPDEST ISZERO PUSH2 0x11A7 JUMPI JUMP JUMPDEST PUSH1 0x64 PUSH1 0x40 MLOAD PUSH3 0x461BCD PUSH1 0xE5 SHL DUP2 MSTORE PUSH1 0x20 PUSH1 0x4 DUP3 ADD MSTORE PUSH1 0x16 PUSH1 0x24 DUP3 ADD MSTORE PUSH32 0x496E73756666696369656E74206C697175696469747900000000000000000000 PUSH1 0x44 DUP3 ADD MSTORE REVERT JUMPDEST PUSH4 0x4E487B71 PUSH1 0xE0 SHL PUSH1 0x0 MSTORE PUSH1 0x11 PUSH1 0x4 MSTORE PUSH1 0x24 PUSH1 0x0 REVERT JUMPDEST SWAP1 PUSH2 0x2710 SWAP2 DUP3 DUP2 MUL SWAP3 DUP2 DUP5 DIV EQ SWAP1 ISZERO OR ISZERO PUSH2 0xFD6 JUMPI JUMP JUMPDEST SWAP1 PUSH1 0x1E DUP3 MUL SWAP2 DUP1 DUP4 DIV PUSH1 0x1E EQ SWAP1 ISZERO OR ISZERO PUSH2 0xFD6 JUMPI JUMP JUMPDEST SWAP1 PUSH8 0xDE0B6B3A7640000 SWAP2 DUP3 DUP2 MUL SWAP3 DUP2 DUP5 DIV EQ SWAP1 ISZERO OR ISZERO PUSH2 0xFD6 JUMPI JUMP JUMPDEST SWAP1 PUSH2 0x26F2 SWAP2 DUP3 DUP2 MUL SWAP3 DUP2 DUP5 DIV EQ SWAP1 ISZERO OR ISZERO PUSH2 0xFD6 JUMPI JUMP JUMPDEST DUP2 DUP2 MUL SWAP3 SWAP2 DUP2 ISZERO SWAP2 DUP5 DIV EQ OR ISZERO PUSH2 0xFD6 JUMPI JUMP JUMPDEST PUSH1 0x0 NOT DUP2 ADD SWAP2 SWAP1 DUP3 GT PUSH2 0xFD6 JUMPI JUMP JUMPDEST SWAP2 SWAP1 DUP3 SUB SWAP2 DUP3 GT PUSH2 0xFD6 JUMPI JUMP JUMPDEST SWAP2 SWAP1 DUP3 ADD DUP1 SWAP3 GT PUSH2 0xFD6 JUMPI JUMP JUMPDEST DUP2 ISZERO PUSH2 0x12A8 JUMPI DIV SWAP1 JUMP JUMPDEST PUSH4 0x4E487B71 PUSH1 0xE0 SHL PUSH1 0x0 MSTORE PUSH1 0x12 PUSH1 0x4 MSTORE PUSH1 0x24 PUSH1 0x0 REVERT JUMPDEST ISZERO PUSH2 0x12C5 JUMPI JUMP JUMPDEST PUSH1 0x64 PUSH1 0x40 MLOAD PUSH3 0x461BCD PUSH1 0xE5 SHL DUP2 MSTORE PUSH1 0x20 PUSH1 0x4 DUP3 ADD MSTORE PUSH1 0x11 PUSH1 0x24 DUP3 ADD MSTORE PUSH32 0x536C69707061676520746F6F2068696768000000000000000000000000000000 PUSH1 0x44 DUP3 ADD MSTORE REVERT JUMPDEST ISZERO PUSH2 0x1310 JUMPI JUMP JUMPDEST PUSH1 0x64 PUSH1 0x40 MLOAD PUSH3 0x461BCD PUSH1 0xE5 SHL DUP2 MSTORE PUSH1 0x20 PUSH1 0x4 DUP3 ADD MSTORE PUSH1 0x1A PUSH1 0x24 DUP3 ADD MSTORE PUSH32 0x496E73756666696369656E7420746F6B656E2072657365727665000000000000 PUSH1 0x44 DUP3 ADD MSTORE REVERT JUMPDEST ISZERO PUSH2 0x135B JUMPI JUMP JUMPDEST PUSH1 0x64 PUSH1 0x40 MLOAD PUSH3 0x461BCD PUSH1 0xE5 SHL DUP2 MSTORE PUSH1 0x20 PUSH1 0x4 DUP3 ADD MSTORE PUSH1 0x1A PUSH1 0x24 DUP3 ADD MSTORE PUSH32 0x496E73756666696369656E742043524F414B2072657365727665000000000000 PUSH1 0x44 DUP3 ADD MSTORE REVERT JUMPDEST ISZERO PUSH2 0x13A6 JUMPI JUMP JUMPDEST PUSH1 0x84 PUSH1 0x40 MLOAD PUSH3 0x461BCD PUSH1 0xE5 SHL DUP2 MSTORE PUSH1 0x20 PUSH1 0x4 DUP3 ADD MSTORE PUSH1 0x21 PUSH1 0x24 DUP3 ADD MSTORE PUSH32 0x416D6F756E7473206D7573742062652067726561746572207468616E207A6572 PUSH1 0x44 DUP3 ADD MSTORE PUSH32 0x6F00000000000000000000000000000000000000000000000000000000000000 PUSH1 0x64 DUP3 ADD MSTORE REVERT JUMPDEST PUSH4 0x4E487B71 PUSH1 0xE0 SHL PUSH1 0x0 MSTORE PUSH1 0x41 PUSH1 0x4 MSTORE PUSH1 0x24 PUSH1 0x0 REVERT JUMPDEST PUSH1 0x40 DUP2 ADD SWAP1 DUP2 LT PUSH8 0xFFFFFFFFFFFFFFFF DUP3 GT OR PUSH2 0x1442 JUMPI PUSH1 0x40 MSTORE JUMP JUMPDEST PUSH2 0x1410 JUMP JUMPDEST SWAP1 PUSH1 0x1F DUP1 NOT SWAP2 ADD AND DUP2 ADD SWAP1 DUP2 LT PUSH8 0xFFFFFFFFFFFFFFFF DUP3 GT OR PUSH2 0x1442 JUMPI PUSH1 0x40 MSTORE JUMP JUMPDEST SWAP1 DUP2 PUSH1 0x20 SWAP2 SUB SLT PUSH2 0x162 JUMPI MLOAD SWAP1 JUMP JUMPDEST PUSH1 0x40 MLOAD RETURNDATASIZE PUSH1 0x0 DUP3 RETURNDATACOPY RETURNDATASIZE SWAP1 REVERT JUMPDEST ISZERO PUSH2 0x148B JUMPI JUMP JUMPDEST PUSH1 0x64 PUSH1 0x40 MLOAD PUSH3 0x461BCD PUSH1 0xE5 SHL DUP2 MSTORE PUSH1 0x20 PUSH1 0x4 DUP3 ADD MSTORE PUSH1 0x1E PUSH1 0x24 DUP3 ADD MSTORE PUSH32 0x43616E6E6F74207265636F76657220726573657276656420746F6B656E730000 PUSH1 0x44 DUP3 ADD MSTORE REVERT JUMPDEST ISZERO PUSH2 0x14D6 JUMPI JUMP JUMPDEST PUSH1 0x64 PUSH1 0x40 MLOAD PUSH3 0x461BCD PUSH1 0xE5 SHL DUP2 MSTORE PUSH1 0x20 PUSH1 0x4 DUP3 ADD MSTORE PUSH1 0x1D PUSH1 0x24 DUP3 ADD MSTORE PUSH32 0x43616E6E6F74207265636F7665722072657365727665642043524F414B000000 PUSH1 0x44 DUP3 ADD MSTORE REVERT JUMPDEST ISZERO PUSH2 0x1521 JUMPI JUMP JUMPDEST PUSH1 0x64 PUSH1 0x40 MLOAD PUSH3 0x461BCD PUSH1 0xE5 SHL DUP2 MSTORE PUSH1 0x20 PUSH1 0x4 DUP3 ADD MSTORE PUSH1 0x15 PUSH1 0x24 DUP3 ADD MSTORE PUSH32 0x546F6B656E2063616E6E6F742062652043524F414B0000000000000000000000 PUSH1 0x44 DUP3 ADD MSTORE REVERT JUMPDEST ISZERO PUSH2 0x156C JUMPI JUMP JUMPDEST PUSH1 0x64 PUSH1 0x40 MLOAD PUSH3 0x461BCD PUSH1 0xE5 SHL DUP2 MSTORE PUSH1 0x20 PUSH1 0x4 DUP3 ADD MSTORE PUSH1 0x19 PUSH1 0x24 DUP3 ADD MSTORE PUSH32 0x546F6B656E207061697220616C72656164792065786973747300000000000000 PUSH1 0x44 DUP3 ADD MSTORE REVERT JUMPDEST PUSH1 0x40 MLOAD SWAP1 PUSH1 0x60 DUP3 ADD DUP3 DUP2 LT PUSH8 0xFFFFFFFFFFFFFFFF DUP3 GT OR PUSH2 0x1442 JUMPI PUSH1 0x40 MSTORE JUMP JUMPDEST PUSH1 0x4 SLOAD PUSH9 0x10000000000000000 DUP2 LT ISZERO PUSH2 0x1442 JUMPI PUSH1 0x1 DUP2 ADD DUP1 PUSH1 0x4 SSTORE DUP2 LT ISZERO PUSH2 0xDA6 JUMPI PUSH1 0x1 PUSH1 0x1 PUSH1 0xA0 SHL SUB SWAP1 PUSH1 0x4 PUSH1 0x0 MSTORE PUSH32 0x8A35ACFBC15FF81A39AE7D344FD709F28E8600B4AA8C65C6B64BFE7FE36BD19B ADD SWAP2 AND PUSH1 0x1 PUSH1 0x1 PUSH1 0xA0 SHL SUB NOT DUP3 SLOAD AND OR SWAP1 SSTORE JUMP JUMPDEST ISZERO PUSH2 0x163D JUMPI JUMP JUMPDEST PUSH1 0x64 PUSH1 0x40 MLOAD PUSH3 0x461BCD PUSH1 0xE5 SHL DUP2 MSTORE PUSH1 0x20 PUSH1 0x4 DUP3 ADD MSTORE PUSH1 0x19 PUSH1 0x24 DUP3 ADD MSTORE PUSH32 0x546F6B656E207061697220646F6573206E6F7420657869737400000000000000 PUSH1 0x44 DUP3 ADD MSTORE REVERT JUMPDEST ISZERO PUSH2 0x1688 JUMPI JUMP JUMPDEST PUSH1 0x64 PUSH1 0x40 MLOAD PUSH3 0x461BCD PUSH1 0xE5 SHL DUP2 MSTORE PUSH1 0x20 PUSH1 0x4 DUP3 ADD MSTORE PUSH1 0x16 PUSH1 0x24 DUP3 ADD MSTORE PUSH32 0x4C6971756964697479206D757374206265207A65726F00000000000000000000 PUSH1 0x44 DUP3 ADD MSTORE REVERT JUMPDEST PUSH1 0x4 SLOAD DUP1 ISZERO PUSH2 0x171E JUMPI PUSH1 0x0 NOT DUP2 ADD SWAP1 DUP1 DUP3 LT ISZERO PUSH2 0xDA6 JUMPI PUSH32 0x8A35ACFBC15FF81A39AE7D344FD709F28E8600B4AA8C65C6B64BFE7FE36BD19A SWAP1 PUSH1 0x4 PUSH1 0x0 MSTORE ADD PUSH1 0x1 PUSH1 0x1 PUSH1 0xA0 SHL SUB NOT DUP2 SLOAD AND SWAP1 SSTORE PUSH1 0x4 SSTORE JUMP JUMPDEST PUSH4 0x4E487B71 PUSH1 0xE0 SHL PUSH1 0x0 MSTORE PUSH1 0x31 PUSH1 0x4 MSTORE PUSH1 0x24 PUSH1 0x0 REVERT JUMPDEST SWAP3 SWAP1 PUSH1 0x40 MLOAD SWAP3 PUSH32 0x23B872DD00000000000000000000000000000000000000000000000000000000 PUSH1 0x20 DUP6 ADD MSTORE PUSH1 0x1 PUSH1 0x1 PUSH1 0xA0 SHL SUB DUP1 SWAP3 AND PUSH1 0x24 DUP6 ADD MSTORE AND PUSH1 0x44 DUP4 ADD MSTORE PUSH1 0x64 DUP3 ADD MSTORE PUSH1 0x64 DUP2 MSTORE PUSH1 0xA0 DUP2 ADD SWAP2 DUP2 DUP4 LT PUSH8 0xFFFFFFFFFFFFFFFF DUP5 GT OR PUSH2 0x1442 JUMPI PUSH2 0x17A3 SWAP3 PUSH1 0x40 MSTORE PUSH2 0x18EC JUMP JUMPDEST JUMP JUMPDEST SWAP2 PUSH1 0x1 PUSH1 0x1 PUSH1 0xA0 SHL SUB PUSH1 0x40 MLOAD SWAP3 PUSH32 0xA9059CBB00000000000000000000000000000000000000000000000000000000 PUSH1 0x20 DUP6 ADD MSTORE AND PUSH1 0x24 DUP4 ADD MSTORE PUSH1 0x44 DUP3 ADD MSTORE PUSH1 0x44 DUP2 MSTORE PUSH1 0x80 DUP2 ADD SWAP2 DUP2 DUP4 LT PUSH8 0xFFFFFFFFFFFFFFFF DUP5 GT OR PUSH2 0x1442 JUMPI PUSH2 0x17A3 SWAP3 PUSH1 0x40 MSTORE PUSH2 0x18EC JUMP JUMPDEST PUSH1 0x1 PUSH1 0x1 PUSH1 0xA0 SHL SUB PUSH1 0x0 SLOAD AND CALLER SUB PUSH2 0x181F JUMPI JUMP JUMPDEST PUSH1 0x64 PUSH1 0x40 MLOAD PUSH3 0x461BCD PUSH1 0xE5 SHL DUP2 MSTORE PUSH1 0x20 PUSH1 0x4 DUP3 ADD MSTORE PUSH1 0x20 PUSH1 0x24 DUP3 ADD MSTORE PUSH32 0x4F776E61626C653A2063616C6C6572206973206E6F7420746865206F776E6572 PUSH1 0x44 DUP3 ADD MSTORE REVERT JUMPDEST SWAP1 DUP2 PUSH1 0x20 SWAP2 SUB SLT PUSH2 0x162 JUMPI MLOAD DUP1 ISZERO ISZERO DUP2 SUB PUSH2 0x162 JUMPI SWAP1 JUMP JUMPDEST ISZERO PUSH2 0x1882 JUMPI JUMP JUMPDEST PUSH1 0x84 PUSH1 0x40 MLOAD PUSH3 0x461BCD PUSH1 0xE5 SHL DUP2 MSTORE PUSH1 0x20 PUSH1 0x4 DUP3 ADD MSTORE PUSH1 0x2A PUSH1 0x24 DUP3 ADD MSTORE PUSH32 0x5361666545524332303A204552433230206F7065726174696F6E20646964206E PUSH1 0x44 DUP3 ADD MSTORE PUSH32 0x6F74207375636365656400000000000000000000000000000000000000000000 PUSH1 0x64 DUP3 ADD MSTORE REVERT JUMPDEST PUSH1 0x1 PUSH1 0x1 PUSH1 0xA0 SHL SUB AND SWAP1 PUSH1 0x40 MLOAD SWAP1 PUSH2 0x1903 DUP3 PUSH2 0x1426 JUMP JUMPDEST PUSH1 0x20 SWAP3 DUP4 DUP4 MSTORE PUSH32 0x5361666545524332303A206C6F772D6C6576656C2063616C6C206661696C6564 DUP5 DUP5 ADD MSTORE DUP1 EXTCODESIZE ISZERO PUSH2 0x197A JUMPI PUSH1 0x0 DUP3 DUP2 SWAP3 DUP3 DUP8 PUSH2 0x1955 SWAP8 SWAP7 MLOAD SWAP4 ADD SWAP2 GAS CALL PUSH2 0x194F PUSH2 0x19BE JUMP JUMPDEST SWAP1 PUSH2 0x19FE JUMP JUMPDEST DUP1 MLOAD SWAP1 DUP2 PUSH2 0x1962 JUMPI POP POP POP JUMP JUMPDEST DUP3 PUSH2 0x17A3 SWAP4 PUSH2 0x1975 SWAP4 DUP4 ADD ADD SWAP2 ADD PUSH2 0x1863 JUMP JUMPDEST PUSH2 0x187B JUMP JUMPDEST PUSH1 0x64 DUP5 PUSH1 0x40 MLOAD SWAP1 PUSH3 0x461BCD PUSH1 0xE5 SHL DUP3 MSTORE PUSH1 0x4 DUP3 ADD MSTORE PUSH1 0x1D PUSH1 0x24 DUP3 ADD MSTORE PUSH32 0x416464726573733A2063616C6C20746F206E6F6E2D636F6E7472616374000000 PUSH1 0x44 DUP3 ADD MSTORE REVERT JUMPDEST RETURNDATASIZE ISZERO PUSH2 0x19F9 JUMPI RETURNDATASIZE SWAP1 PUSH8 0xFFFFFFFFFFFFFFFF DUP3 GT PUSH2 0x1442 JUMPI PUSH1 0x40 MLOAD SWAP2 PUSH2 0x19ED PUSH1 0x1F DUP3 ADD PUSH1 0x1F NOT AND PUSH1 0x20 ADD DUP5 PUSH2 0x1447 JUMP JUMPDEST DUP3 MSTORE RETURNDATASIZE PUSH1 0x0 PUSH1 0x20 DUP5 ADD RETURNDATACOPY JUMP JUMPDEST PUSH1 0x60 SWAP1 JUMP JUMPDEST SWAP1 SWAP2 SWAP1 ISZERO PUSH2 0x1A0A JUMPI POP SWAP1 JUMP JUMPDEST DUP2 MLOAD ISZERO PUSH2 0x1A1A JUMPI POP DUP1 MLOAD SWAP1 PUSH1 0x20 ADD REVERT JUMPDEST PUSH1 0x40 MLOAD SWAP1 PUSH3 0x461BCD PUSH1 0xE5 SHL DUP3 MSTORE DUP2 PUSH1 0x20 DUP1 PUSH1 0x4 DUP4 ADD MSTORE DUP3 MLOAD SWAP1 DUP2 PUSH1 0x24 DUP5 ADD MSTORE PUSH1 0x0 SWAP4 JUMPDEST DUP3 DUP6 LT PUSH2 0x1A60 JUMPI POP POP PUSH1 0x44 SWAP3 POP PUSH1 0x0 DUP4 DUP3 DUP5 ADD ADD MSTORE PUSH1 0x1F DUP1 NOT SWAP2 ADD AND DUP2 ADD SUB ADD SWAP1 REVERT JUMPDEST DUP5 DUP2 ADD DUP3 ADD MLOAD DUP7 DUP7 ADD PUSH1 0x44 ADD MSTORE SWAP4 DUP2 ADD SWAP4 DUP6 SWAP4 POP PUSH2 0x1A3D JUMP INVALID LOG2 PUSH5 0x6970667358 0x22 SLT KECCAK256 MULMOD PUSH12 0x3130D7063FE291423411DE96 0xC9 0xB3 0xBB SUB 0xAF CHAINID 0xE0 SWAP6 ADD SWAP6 GAS SWAP16 0x2C SIGNEXTEND 0xB6 DUP2 0xE5 SWAP8 PUSH5 0x736F6C6343 STOP ADDMOD AND STOP CALLER PUSH1 0xA0 CALLVALUE PUSH3 0x4AB JUMPI PUSH1 0x1F PUSH3 0x1A09 CODESIZE DUP2 SWAP1 SUB DUP3 DUP2 ADD PUSH1 0x1F NOT SWAP1 DUP2 AND DUP6 ADD SWAP5 SWAP3 PUSH1 0x1 PUSH1 0x1 PUSH1 0x40 SHL SUB SWAP3 DUP4 DUP8 GT DUP6 DUP9 LT OR PUSH3 0x3AC JUMPI DUP1 DUP6 SWAP3 PUSH1 0x40 SWAP9 DUP10 MSTORE DUP4 CODECOPY PUSH1 0x20 SWAP5 DUP6 SWAP2 DUP2 ADD SUB SLT PUSH3 0x4AB JUMPI MLOAD PUSH1 0x1 PUSH1 0x1 PUSH1 0xA0 SHL SUB DUP1 DUP3 AND SWAP6 SWAP2 DUP7 SWAP1 SUB PUSH3 0x4AB JUMPI PUSH3 0x6B PUSH3 0x4B0 JUMP JUMPDEST SWAP1 PUSH1 0xB DUP3 MSTORE PUSH11 0x21B937B0B5902A37B5B2B7 PUSH1 0xA9 SHL DUP7 DUP4 ADD MSTORE PUSH3 0x8D PUSH3 0x4B0 JUMP JUMPDEST SWAP5 PUSH1 0x5 SWAP5 DUP6 DUP8 MSTORE PUSH5 0x43524F414B PUSH1 0xD8 SHL DUP9 DUP9 ADD MSTORE DUP4 MLOAD SWAP1 DUP3 DUP3 GT PUSH3 0x3AC JUMPI PUSH1 0x3 SWAP2 DUP3 SLOAD PUSH1 0x1 SWAP7 DUP8 DUP3 DUP2 SHR SWAP3 AND DUP1 ISZERO PUSH3 0x4A0 JUMPI JUMPDEST DUP13 DUP4 LT EQ PUSH3 0x48A JUMPI DUP12 DUP3 DUP11 DUP6 SWAP5 GT PUSH3 0x433 JUMPI JUMPDEST POP POP DUP12 SWAP1 DUP10 DUP4 GT PUSH1 0x1 EQ PUSH3 0x3CE JUMPI PUSH1 0x0 SWAP3 PUSH3 0x3C2 JUMPI JUMPDEST POP POP PUSH1 0x0 NOT DUP3 DUP6 SHL SHR NOT AND SWAP1 DUP7 SHL OR DUP3 SSTORE JUMPDEST DUP8 MLOAD SWAP3 DUP4 GT PUSH3 0x3AC JUMPI PUSH1 0x4 SWAP8 DUP9 SLOAD DUP7 DUP2 DUP2 SHR SWAP2 AND DUP1 ISZERO PUSH3 0x3A1 JUMPI JUMPDEST DUP12 DUP3 LT EQ PUSH3 0x38C JUMPI SWAP1 DUP2 DUP9 DUP14 SWAP8 SWAP7 SWAP6 SWAP5 SWAP4 GT PUSH3 0x330 JUMPI JUMPDEST POP DUP11 SWAP2 DUP9 DUP6 GT PUSH1 0x1 EQ PUSH3 0x2B5 JUMPI POP PUSH1 0x0 SWAP3 SWAP2 SWAP1 DUP5 PUSH3 0x2A9 JUMPI JUMPDEST POP POP DUP3 DUP7 SHL SWAP3 PUSH1 0x0 NOT SWAP2 SHL SHR NOT AND OR DUP7 SSTORE JUMPDEST DUP5 SLOAD PUSH1 0x1 PUSH1 0x1 PUSH1 0xA0 SHL SUB NOT DUP2 AND DUP4 OR SWAP1 SWAP6 SSTORE DUP9 MLOAD SWAP5 AND PUSH32 0x8BE0079C531659141344CD1FD0A4F28419497F9722A3DAAFE3B4186F6B6457E0 PUSH1 0x0 DUP1 LOG3 PUSH2 0x3E8 PUSH1 0x80 MSTORE PUSH2 0x12C DUP1 PUSH1 0x6 SSTORE PUSH1 0x7 SSTORE PUSH1 0x8 SLOAD CALLER SWAP1 PUSH1 0x1 DUP1 PUSH1 0xA8 SHL SUB NOT AND OR PUSH1 0x8 SSTORE CALLER PUSH1 0x0 MSTORE PUSH1 0x9 DUP6 MSTORE DUP7 PUSH1 0x0 KECCAK256 SWAP1 PUSH1 0xFF NOT DUP3 SLOAD AND OR SWAP1 SSTORE DUP5 ISZERO PUSH3 0x26C JUMPI POP POP PUSH1 0x2 SLOAD PUSH11 0xA56FA5B99019A5C8000000 SWAP2 DUP3 DUP3 ADD DUP1 SWAP3 GT PUSH3 0x257 JUMPI POP PUSH1 0x2 SSTORE PUSH1 0x0 DUP4 DUP2 MSTORE DUP1 DUP4 MSTORE DUP5 DUP2 KECCAK256 DUP1 SLOAD DUP4 ADD SWAP1 SSTORE DUP5 MLOAD SWAP2 DUP3 MSTORE SWAP2 PUSH32 0xDDF252AD1BE2C89B69C2B068FC378DAA952BA7F163C4A11628F55A4DF523B3EF SWAP2 LOG3 MLOAD PUSH2 0x1538 SWAP1 DUP2 PUSH3 0x4D1 DUP3 CODECOPY PUSH1 0x80 MLOAD DUP2 DUP2 DUP2 PUSH2 0x59F ADD MSTORE PUSH2 0x924 ADD MSTORE RETURN JUMPDEST PUSH1 0x11 SWAP1 PUSH4 0x4E487B71 PUSH1 0xE0 SHL PUSH1 0x0 MSTORE MSTORE PUSH1 0x24 PUSH1 0x0 REVERT JUMPDEST DUP4 PUSH1 0x64 SWAP4 PUSH3 0x461BCD PUSH1 0xE5 SHL DUP5 MSTORE DUP4 ADD MSTORE PUSH1 0x24 DUP3 ADD MSTORE PUSH32 0x45524332303A206D696E7420746F20746865207A65726F206164647265737300 PUSH1 0x44 DUP3 ADD MSTORE REVERT JUMPDEST ADD MLOAD SWAP2 POP CODESIZE DUP1 PUSH3 0x152 JUMP JUMPDEST SWAP2 DUP5 SWAP4 SWAP2 SWAP3 DUP9 SWAP6 AND SWAP3 DUP12 PUSH1 0x0 MSTORE DUP13 PUSH1 0x0 KECCAK256 SWAP4 DUP14 PUSH1 0x0 SWAP1 JUMPDEST DUP3 DUP3 LT PUSH3 0x308 JUMPI POP POP DUP6 GT PUSH3 0x2ED JUMPI JUMPDEST POP POP POP POP DUP2 SHL ADD DUP7 SSTORE PUSH3 0x164 JUMP JUMPDEST ADD MLOAD SWAP1 PUSH1 0xF8 DUP5 PUSH1 0x0 NOT SWAP3 SHL AND SHR NOT AND SWAP1 SSTORE CODESIZE DUP1 DUP1 DUP1 PUSH3 0x2DE JUMP JUMPDEST SWAP3 SWAP5 SWAP7 SWAP9 SWAP10 POP SWAP5 SWAP7 DUP4 SWAP8 DUP4 SWAP3 SWAP5 DUP7 ADD MLOAD DUP2 SSTORE ADD SWAP7 ADD SWAP4 ADD SWAP2 DUP9 SWAP6 SWAP4 SWAP2 DUP15 SWAP9 SWAP8 SWAP6 SWAP4 DUP15 PUSH3 0x2CC JUMP JUMPDEST SWAP1 SWAP2 SWAP3 SWAP4 SWAP5 SWAP6 POP DUP10 PUSH1 0x0 MSTORE DUP11 PUSH1 0x0 KECCAK256 DUP9 DUP1 DUP8 ADD DUP12 SHR DUP3 ADD SWAP3 DUP14 DUP9 LT PUSH3 0x382 JUMPI JUMPDEST SWAP2 DUP10 SWAP2 DUP16 SWAP10 SWAP9 SWAP8 SWAP7 SWAP6 SWAP5 SWAP4 ADD DUP13 SHR ADD SWAP2 JUMPDEST DUP3 DUP2 LT PUSH3 0x372 JUMPI POP POP PUSH3 0x137 JUMP JUMPDEST PUSH1 0x0 DUP2 SSTORE DUP15 SWAP9 POP DUP10 SWAP2 ADD PUSH3 0x362 JUMP JUMPDEST SWAP3 POP DUP2 SWAP3 PUSH3 0x351 JUMP JUMPDEST PUSH1 0x22 DUP11 PUSH4 0x4E487B71 PUSH1 0xE0 SHL PUSH1 0x0 MSTORE MSTORE PUSH1 0x24 PUSH1 0x0 REVERT JUMPDEST SWAP1 PUSH1 0x7F AND SWAP1 PUSH3 0x11E JUMP JUMPDEST PUSH4 0x4E487B71 PUSH1 0xE0 SHL PUSH1 0x0 MSTORE PUSH1 0x41 PUSH1 0x4 MSTORE PUSH1 0x24 PUSH1 0x0 REVERT JUMPDEST ADD MLOAD SWAP1 POP CODESIZE DUP1 PUSH3 0xEF JUMP JUMPDEST SWAP1 DUP13 SWAP2 DUP6 DUP11 SWAP6 AND DUP8 PUSH1 0x0 MSTORE DUP4 PUSH1 0x0 KECCAK256 SWAP4 PUSH1 0x0 SWAP1 JUMPDEST DUP3 DUP3 LT PUSH3 0x41B JUMPI POP POP DUP5 GT PUSH3 0x402 JUMPI JUMPDEST POP POP POP DUP2 SHL ADD DUP3 SSTORE PUSH3 0x101 JUMP JUMPDEST ADD MLOAD PUSH1 0x0 NOT DUP4 DUP8 SHL PUSH1 0xF8 AND SHR NOT AND SWAP1 SSTORE CODESIZE DUP1 DUP1 PUSH3 0x3F4 JUMP JUMPDEST DUP4 DUP6 ADD MLOAD DUP7 SSTORE DUP13 SWAP8 SWAP1 SWAP6 ADD SWAP5 SWAP4 DUP5 ADD SWAP4 ADD DUP16 PUSH3 0x3E2 JUMP JUMPDEST SWAP1 SWAP2 SWAP3 POP DUP6 PUSH1 0x0 MSTORE DUP10 DUP3 PUSH1 0x0 KECCAK256 SWAP2 DUP2 DUP7 ADD DUP14 SHR DUP4 ADD SWAP4 DUP7 LT PUSH3 0x480 JUMPI JUMPDEST SWAP2 DUP11 SWAP2 DUP7 SWAP6 SWAP5 SWAP4 ADD DUP14 SHR ADD SWAP2 JUMPDEST DUP3 DUP2 LT PUSH3 0x470 JUMPI POP DUP14 SWAP2 POP PUSH3 0xD7 JUMP JUMPDEST PUSH1 0x0 DUP2 SSTORE DUP6 SWAP5 POP DUP11 SWAP2 ADD PUSH3 0x45E JUMP JUMPDEST SWAP3 POP DUP2 SWAP3 PUSH3 0x451 JUMP JUMPDEST PUSH4 0x4E487B71 PUSH1 0xE0 SHL PUSH1 0x0 MSTORE PUSH1 0x22 PUSH1 0x4 MSTORE PUSH1 0x24 PUSH1 0x0 REVERT JUMPDEST SWAP2 PUSH1 0x7F AND SWAP2 PUSH3 0xC2 JUMP JUMPDEST PUSH1 0x0 DUP1 REVERT JUMPDEST PUSH1 0x40 DUP1 MLOAD SWAP2 SWAP1 DUP3 ADD PUSH1 0x1 PUSH1 0x1 PUSH1 0x40 SHL SUB DUP2 GT DUP4 DUP3 LT OR PUSH3 0x3AC JUMPI PUSH1 0x40 MSTORE JUMP INVALID PUSH1 0x80 PUSH1 0x40 DUP2 DUP2 MSTORE PUSH1 0x4 DUP1 CALLDATASIZE LT ISZERO PUSH2 0x15 JUMPI PUSH1 0x0 DUP1 REVERT JUMPDEST PUSH1 0x0 SWAP3 DUP4 CALLDATALOAD PUSH1 0xE0 SHR SWAP1 DUP2 PUSH4 0x6FDDE03 EQ PUSH2 0xD36 JUMPI POP DUP1 PUSH4 0x95EA7B3 EQ PUSH2 0xD0C JUMPI DUP1 PUSH4 0x13F18006 EQ PUSH2 0xCCB JUMPI DUP1 PUSH4 0x16C2BE6B EQ PUSH2 0xC8F JUMPI DUP1 PUSH4 0x18160DDD EQ PUSH2 0xC70 JUMPI DUP1 PUSH4 0x23B872DD EQ PUSH2 0xBA5 JUMPI DUP1 PUSH4 0x24024EFD EQ PUSH2 0xB86 JUMPI DUP1 PUSH4 0x313CE567 EQ PUSH2 0xB6A JUMPI DUP1 PUSH4 0x39509351 EQ PUSH2 0xB1B JUMPI DUP1 PUSH4 0x40C10F19 EQ PUSH2 0xA55 JUMPI DUP1 PUSH4 0x42966C68 EQ PUSH2 0xA37 JUMPI DUP1 PUSH4 0x4ADA218B EQ PUSH2 0xA10 JUMPI DUP1 PUSH4 0x5CB23E12 EQ PUSH2 0x901 JUMPI DUP1 PUSH4 0x6605BFDA EQ PUSH2 0x83F JUMPI DUP1 PUSH4 0x691F224F EQ PUSH2 0x820 JUMPI DUP1 PUSH4 0x70A08231 EQ PUSH2 0x7EA JUMPI DUP1 PUSH4 0x715018A6 EQ PUSH2 0x782 JUMPI DUP1 PUSH4 0x79CC6790 EQ PUSH2 0x6BA JUMPI DUP1 PUSH4 0x8A8C523C EQ PUSH2 0x5EA JUMPI DUP1 PUSH4 0x8DA5CB5B EQ PUSH2 0x5C2 JUMPI DUP1 PUSH4 0x8FA81732 EQ PUSH2 0x587 JUMPI DUP1 PUSH4 0x95D89B41 EQ PUSH2 0x465 JUMPI DUP1 PUSH4 0xA457C2D7 EQ PUSH2 0x3A5 JUMPI DUP1 PUSH4 0xA9059CBB EQ PUSH2 0x374 JUMPI DUP1 PUSH4 0xC125C861 EQ PUSH2 0x2FE JUMPI DUP1 PUSH4 0xC5F956AF EQ PUSH2 0x2D6 JUMPI DUP1 PUSH4 0xCD952C1A EQ PUSH2 0x29A JUMPI DUP1 PUSH4 0xDD62ED3E EQ PUSH2 0x24D JUMPI PUSH4 0xF2FDE38B EQ PUSH2 0x162 JUMPI PUSH1 0x0 DUP1 REVERT JUMPDEST CALLVALUE PUSH2 0x249 JUMPI PUSH1 0x20 CALLDATASIZE PUSH1 0x3 NOT ADD SLT PUSH2 0x249 JUMPI PUSH2 0x17B PUSH2 0xE76 JUMP JUMPDEST SWAP1 PUSH2 0x184 PUSH2 0x102D JUMP JUMPDEST PUSH1 0x1 PUSH1 0x1 PUSH1 0xA0 SHL SUB DUP1 SWAP3 AND SWAP3 DUP4 ISZERO PUSH2 0x1E0 JUMPI POP POP PUSH1 0x5 SLOAD DUP3 PUSH20 0xFFFFFFFFFFFFFFFFFFFFFFFFFFFFFFFFFFFFFFFF NOT DUP3 AND OR PUSH1 0x5 SSTORE AND PUSH32 0x8BE0079C531659141344CD1FD0A4F28419497F9722A3DAAFE3B4186F6B6457E0 DUP4 DUP1 LOG3 DUP1 RETURN JUMPDEST SWAP1 PUSH1 0x20 PUSH1 0x84 SWAP3 MLOAD SWAP2 PUSH3 0x461BCD PUSH1 0xE5 SHL DUP4 MSTORE DUP3 ADD MSTORE PUSH1 0x26 PUSH1 0x24 DUP3 ADD MSTORE PUSH32 0x4F776E61626C653A206E6577206F776E657220697320746865207A65726F2061 PUSH1 0x44 DUP3 ADD MSTORE PUSH32 0x6464726573730000000000000000000000000000000000000000000000000000 PUSH1 0x64 DUP3 ADD MSTORE REVERT JUMPDEST DUP3 DUP1 REVERT JUMPDEST POP POP CALLVALUE PUSH2 0x296 JUMPI DUP1 PUSH1 0x3 NOT CALLDATASIZE ADD SLT PUSH2 0x296 JUMPI DUP1 PUSH1 0x20 SWAP3 PUSH2 0x26B PUSH2 0xE76 JUMP JUMPDEST PUSH2 0x273 PUSH2 0xE91 JUMP JUMPDEST PUSH1 0x1 PUSH1 0x1 PUSH1 0xA0 SHL SUB SWAP2 DUP3 AND DUP4 MSTORE PUSH1 0x1 DUP7 MSTORE DUP4 DUP4 KECCAK256 SWAP2 AND DUP3 MSTORE DUP5 MSTORE KECCAK256 SLOAD SWAP1 MLOAD SWAP1 DUP2 MSTORE RETURN JUMPDEST POP DUP1 REVERT JUMPDEST POP POP CALLVALUE PUSH2 0x296 JUMPI PUSH1 0x20 CALLDATASIZE PUSH1 0x3 NOT ADD SLT PUSH2 0x296 JUMPI PUSH1 0xFF DUP2 PUSH1 0x20 SWAP4 PUSH1 0x1 PUSH1 0x1 PUSH1 0xA0 SHL SUB PUSH2 0x2C3 PUSH2 0xE76 JUMP JUMPDEST AND DUP2 MSTORE PUSH1 0xA DUP6 MSTORE KECCAK256 SLOAD AND SWAP1 MLOAD SWAP1 ISZERO ISZERO DUP2 MSTORE RETURN JUMPDEST POP POP CALLVALUE PUSH2 0x296 JUMPI DUP2 PUSH1 0x3 NOT CALLDATASIZE ADD SLT PUSH2 0x296 JUMPI PUSH1 0x20 SWAP1 PUSH1 0x1 PUSH1 0x1 PUSH1 0xA0 SHL SUB PUSH1 0x8 SLOAD AND SWAP1 MLOAD SWAP1 DUP2 MSTORE RETURN JUMPDEST POP POP CALLVALUE PUSH2 0x296 JUMPI PUSH32 0xFBFAE68F9027DEB3162C567E8A5A612CD34DC187A51BDC30A207ADD323BEBE35 SWAP1 PUSH1 0x1 PUSH1 0x1 PUSH1 0xA0 SHL SUB PUSH2 0x338 CALLDATASIZE PUSH2 0xEA7 JUMP JUMPDEST SWAP2 SWAP1 PUSH2 0x342 PUSH2 0x102D JUMP JUMPDEST AND SWAP1 DUP2 DUP6 MSTORE PUSH1 0x9 PUSH1 0x20 MSTORE PUSH2 0x364 DUP2 DUP5 DUP8 KECCAK256 SWAP1 PUSH1 0xFF DUP1 NOT DUP4 SLOAD AND SWAP2 ISZERO ISZERO AND OR SWAP1 SSTORE JUMP JUMPDEST DUP3 MLOAD SWAP2 DUP3 MSTORE ISZERO ISZERO PUSH1 0x20 DUP3 ADD MSTORE LOG1 DUP1 RETURN JUMPDEST POP POP CALLVALUE PUSH2 0x296 JUMPI DUP1 PUSH1 0x3 NOT CALLDATASIZE ADD SLT PUSH2 0x296 JUMPI PUSH1 0x20 SWAP1 PUSH2 0x39E PUSH2 0x394 PUSH2 0xE76 JUMP JUMPDEST PUSH1 0x24 CALLDATALOAD SWAP1 CALLER PUSH2 0x1098 JUMP JUMPDEST MLOAD PUSH1 0x1 DUP2 MSTORE RETURN JUMPDEST POP DUP3 CALLVALUE PUSH2 0x462 JUMPI DUP3 PUSH1 0x3 NOT CALLDATASIZE ADD SLT PUSH2 0x462 JUMPI PUSH2 0x3BF PUSH2 0xE76 JUMP JUMPDEST SWAP2 DUP4 PUSH1 0x24 CALLDATALOAD SWAP3 CALLER DUP2 MSTORE PUSH1 0x1 PUSH1 0x20 MSTORE DUP2 DUP2 KECCAK256 PUSH1 0x1 PUSH1 0x1 PUSH1 0xA0 SHL SUB DUP7 AND DUP3 MSTORE PUSH1 0x20 MSTORE KECCAK256 SLOAD SWAP1 DUP3 DUP3 LT PUSH2 0x3F9 JUMPI PUSH1 0x20 DUP6 PUSH2 0x39E DUP6 DUP6 SUB DUP8 CALLER PUSH2 0xEF9 JUMP JUMPDEST PUSH1 0x84 SWAP1 PUSH1 0x20 DUP7 MLOAD SWAP2 PUSH3 0x461BCD PUSH1 0xE5 SHL DUP4 MSTORE DUP3 ADD MSTORE PUSH1 0x25 PUSH1 0x24 DUP3 ADD MSTORE PUSH32 0x45524332303A2064656372656173656420616C6C6F77616E63652062656C6F77 PUSH1 0x44 DUP3 ADD MSTORE PUSH32 0x207A65726F000000000000000000000000000000000000000000000000000000 PUSH1 0x64 DUP3 ADD MSTORE REVERT JUMPDEST DUP1 REVERT JUMPDEST POP SWAP2 SWAP1 CALLVALUE PUSH2 0x296 JUMPI DUP2 PUSH1 0x3 NOT CALLDATASIZE ADD SLT PUSH2 0x296 JUMPI DUP1 MLOAD SWAP1 DUP3 DUP5 SLOAD PUSH1 0x1 DUP2 PUSH1 0x1 SHR SWAP1 PUSH1 0x1 DUP4 AND SWAP3 DUP4 ISZERO PUSH2 0x57D JUMPI JUMPDEST PUSH1 0x20 SWAP4 DUP5 DUP5 LT DUP2 EQ PUSH2 0x56A JUMPI DUP4 DUP9 MSTORE SWAP1 DUP2 ISZERO PUSH2 0x54E JUMPI POP PUSH1 0x1 EQ PUSH2 0x4F9 JUMPI JUMPDEST POP POP POP DUP3 SWAP1 SUB PUSH1 0x1F ADD PUSH1 0x1F NOT AND DUP3 ADD SWAP3 PUSH8 0xFFFFFFFFFFFFFFFF DUP5 GT DUP4 DUP6 LT OR PUSH2 0x4E6 JUMPI POP DUP3 SWAP2 DUP3 PUSH2 0x4E2 SWAP3 MSTORE DUP3 PUSH2 0xE2D JUMP JUMPDEST SUB SWAP1 RETURN JUMPDEST DUP1 PUSH1 0x41 DUP7 PUSH4 0x4E487B71 PUSH1 0xE0 SHL PUSH1 0x24 SWAP5 MSTORE MSTORE REVERT JUMPDEST DUP8 DUP8 MSTORE SWAP2 SWAP3 POP DUP6 SWAP2 DUP4 PUSH32 0x8A35ACFBC15FF81A39AE7D344FD709F28E8600B4AA8C65C6B64BFE7FE36BD19B JUMPDEST DUP4 DUP6 LT PUSH2 0x53A JUMPI POP POP POP POP DUP4 ADD ADD CODESIZE DUP1 DUP1 PUSH2 0x4B0 JUMP JUMPDEST DUP1 SLOAD DUP9 DUP7 ADD DUP4 ADD MSTORE SWAP4 ADD SWAP3 DUP5 SWAP1 DUP3 ADD PUSH2 0x524 JUMP JUMPDEST PUSH1 0xFF NOT AND DUP8 DUP6 ADD MSTORE POP POP ISZERO ISZERO PUSH1 0x5 SHL DUP5 ADD ADD SWAP1 POP CODESIZE DUP1 DUP1 PUSH2 0x4B0 JUMP JUMPDEST PUSH1 0x24 DUP10 PUSH1 0x22 DUP13 PUSH4 0x4E487B71 PUSH1 0xE0 SHL DUP4 MSTORE MSTORE REVERT JUMPDEST SWAP2 PUSH1 0x7F AND SWAP2 PUSH2 0x491 JUMP JUMPDEST POP POP CALLVALUE PUSH2 0x296 JUMPI DUP2 PUSH1 0x3 NOT CALLDATASIZE ADD SLT PUSH2 0x296 JUMPI PUSH1 0x20 SWAP1 MLOAD PUSH32 0x0 DUP2 MSTORE RETURN JUMPDEST POP POP CALLVALUE PUSH2 0x296 JUMPI DUP2 PUSH1 0x3 NOT CALLDATASIZE ADD SLT PUSH2 0x296 JUMPI PUSH1 0x20 SWAP1 PUSH1 0x1 PUSH1 0x1 PUSH1 0xA0 SHL SUB PUSH1 0x5 SLOAD AND SWAP1 MLOAD SWAP1 DUP2 MSTORE RETURN JUMPDEST POP CALLVALUE PUSH2 0x249 JUMPI DUP3 PUSH1 0x3 NOT CALLDATASIZE ADD SLT PUSH2 0x249 JUMPI PUSH2 0x603 PUSH2 0x102D JUMP JUMPDEST PUSH1 0x8 SLOAD SWAP2 PUSH1 0xFF DUP4 PUSH1 0xA0 SHR AND PUSH2 0x677 JUMPI DUP4 PUSH21 0x10000000000000000000000000000000000000000 PUSH32 0xFFFFFFFFFFFFFFFFFFFFFF00FFFFFFFFFFFFFFFFFFFFFFFFFFFFFFFFFFFFFFFF DUP6 AND OR PUSH1 0x8 SSTORE PUSH32 0x799663458A5EF2936F7FA0C99B3336C69C25890F82974F04E811E5BB359186C7 DUP2 DUP1 LOG1 DUP1 RETURN JUMPDEST SWAP1 PUSH1 0x20 PUSH1 0x64 SWAP3 MLOAD SWAP2 PUSH3 0x461BCD PUSH1 0xE5 SHL DUP4 MSTORE DUP3 ADD MSTORE PUSH1 0x17 PUSH1 0x24 DUP3 ADD MSTORE PUSH32 0x54726164696E6720616C726561647920656E61626C6564000000000000000000 PUSH1 0x44 DUP3 ADD MSTORE REVERT JUMPDEST POP DUP3 SWAP1 CALLVALUE PUSH2 0x296 JUMPI DUP3 PUSH1 0x3 NOT CALLDATASIZE ADD SLT PUSH2 0x296 JUMPI PUSH2 0x6D5 PUSH2 0xE76 JUMP JUMPDEST PUSH1 0x24 CALLDATALOAD SWAP2 PUSH1 0x1 PUSH1 0x1 PUSH1 0xA0 SHL SUB DUP3 AND DUP5 MSTORE PUSH1 0x1 PUSH1 0x20 MSTORE DUP5 DUP5 KECCAK256 CALLER DUP6 MSTORE PUSH1 0x20 MSTORE DUP5 DUP5 KECCAK256 SLOAD SWAP1 DUP4 DUP3 LT PUSH2 0x71A JUMPI POP SWAP1 PUSH2 0x712 DUP4 PUSH2 0x717 SWAP5 SWAP4 SUB CALLER DUP4 PUSH2 0xEF9 JUMP JUMPDEST PUSH2 0x1212 JUMP JUMPDEST DUP1 RETURN JUMPDEST PUSH1 0x84 SWAP1 PUSH1 0x20 DUP8 MLOAD SWAP2 PUSH3 0x461BCD PUSH1 0xE5 SHL DUP4 MSTORE DUP3 ADD MSTORE PUSH1 0x24 DUP1 DUP3 ADD MSTORE PUSH32 0x45524332303A206275726E20616D6F756E74206578636565647320616C6C6F77 PUSH1 0x44 DUP3 ADD MSTORE PUSH32 0x616E636500000000000000000000000000000000000000000000000000000000 PUSH1 0x64 DUP3 ADD MSTORE REVERT JUMPDEST DUP4 CALLVALUE PUSH2 0x462 JUMPI DUP1 PUSH1 0x3 NOT CALLDATASIZE ADD SLT PUSH2 0x462 JUMPI PUSH2 0x79B PUSH2 0x102D JUMP JUMPDEST DUP1 PUSH1 0x1 PUSH1 0x1 PUSH1 0xA0 SHL SUB PUSH1 0x5 SLOAD PUSH20 0xFFFFFFFFFFFFFFFFFFFFFFFFFFFFFFFFFFFFFFFF NOT DUP2 AND PUSH1 0x5 SSTORE AND PUSH32 0x8BE0079C531659141344CD1FD0A4F28419497F9722A3DAAFE3B4186F6B6457E0 DUP3 DUP1 LOG3 DUP1 RETURN JUMPDEST POP POP CALLVALUE PUSH2 0x296 JUMPI PUSH1 0x20 CALLDATASIZE PUSH1 0x3 NOT ADD SLT PUSH2 0x296 JUMPI DUP1 PUSH1 0x20 SWAP3 PUSH1 0x1 PUSH1 0x1 PUSH1 0xA0 SHL SUB PUSH2 0x811 PUSH2 0xE76 JUMP JUMPDEST AND DUP2 MSTORE DUP1 DUP5 MSTORE KECCAK256 SLOAD SWAP1 MLOAD SWAP1 DUP2 MSTORE RETURN JUMPDEST POP POP CALLVALUE PUSH2 0x296 JUMPI DUP2 PUSH1 0x3 NOT CALLDATASIZE ADD SLT PUSH2 0x296 JUMPI PUSH1 0x20 SWAP1 PUSH1 0x6 SLOAD SWAP1 MLOAD SWAP1 DUP2 MSTORE RETURN JUMPDEST POP SWAP1 CALLVALUE PUSH2 0x249 JUMPI PUSH1 0x20 CALLDATASIZE PUSH1 0x3 NOT ADD SLT PUSH2 0x249 JUMPI PUSH1 0x1 PUSH1 0x1 PUSH1 0xA0 SHL SUB PUSH2 0x862 PUSH2 0xE76 JUMP JUMPDEST PUSH2 0x86A PUSH2 0x102D JUMP JUMPDEST AND SWAP2 DUP3 ISZERO PUSH2 0x8BF JUMPI POP DUP2 PUSH1 0x20 SWAP2 PUSH32 0x9073DFAC663173E64AA95665FAEDAE52E2246F9BCDD3890FBFAF6733B46BBA13 SWAP4 PUSH20 0xFFFFFFFFFFFFFFFFFFFFFFFFFFFFFFFFFFFFFFFF NOT PUSH1 0x8 SLOAD AND OR PUSH1 0x8 SSTORE MLOAD SWAP1 DUP2 MSTORE LOG1 DUP1 RETURN JUMPDEST PUSH1 0x20 PUSH1 0x64 SWAP3 MLOAD SWAP2 PUSH3 0x461BCD PUSH1 0xE5 SHL DUP4 MSTORE DUP3 ADD MSTORE PUSH1 0x1F PUSH1 0x24 DUP3 ADD MSTORE PUSH32 0x54726561737572792063616E6E6F74206265207A65726F206164647265737300 PUSH1 0x44 DUP3 ADD MSTORE REVERT JUMPDEST POP SWAP2 SWAP1 CALLVALUE PUSH2 0x296 JUMPI DUP1 PUSH1 0x3 NOT CALLDATASIZE ADD SLT PUSH2 0x296 JUMPI DUP3 CALLDATALOAD PUSH1 0x24 CALLDATALOAD SWAP4 PUSH2 0x922 PUSH2 0x102D JUMP JUMPDEST PUSH32 0x0 DUP1 DUP4 GT PUSH2 0x9CD JUMPI DUP6 GT PUSH2 0x98A JUMPI POP PUSH32 0xAB04935564BD7F43810636A24DEB03E99F1516E9BA0B68115F9F8C8E3C08F333 SWAP3 SWAP4 DUP2 PUSH1 0x6 SSTORE DUP1 PUSH1 0x7 SSTORE DUP3 MLOAD SWAP2 DUP3 MSTORE PUSH1 0x20 DUP3 ADD MSTORE LOG1 DUP1 RETURN JUMPDEST PUSH1 0x64 SWAP1 PUSH1 0x20 DUP5 MLOAD SWAP2 PUSH3 0x461BCD PUSH1 0xE5 SHL DUP4 MSTORE DUP3 ADD MSTORE PUSH1 0x1D PUSH1 0x24 DUP3 ADD MSTORE PUSH32 0x53656C6C2074617820726174652065786365656473206D6178696D756D000000 PUSH1 0x44 DUP3 ADD MSTORE REVERT JUMPDEST PUSH1 0x64 DUP3 PUSH1 0x20 DUP7 MLOAD SWAP2 PUSH3 0x461BCD PUSH1 0xE5 SHL DUP4 MSTORE DUP3 ADD MSTORE PUSH1 0x1C PUSH1 0x24 DUP3 ADD MSTORE PUSH32 0x4275792074617820726174652065786365656473206D6178696D756D00000000 PUSH1 0x44 DUP3 ADD MSTORE REVERT JUMPDEST POP POP CALLVALUE PUSH2 0x296 JUMPI DUP2 PUSH1 0x3 NOT CALLDATASIZE ADD SLT PUSH2 0x296 JUMPI PUSH1 0x20 SWAP1 PUSH1 0xFF PUSH1 0x8 SLOAD PUSH1 0xA0 SHR AND SWAP1 MLOAD SWAP1 ISZERO ISZERO DUP2 MSTORE RETURN JUMPDEST DUP4 DUP3 CALLVALUE PUSH2 0x296 JUMPI PUSH1 0x20 CALLDATASIZE PUSH1 0x3 NOT ADD SLT PUSH2 0x296 JUMPI PUSH2 0x717 SWAP1 CALLDATALOAD CALLER PUSH2 0x1212 JUMP JUMPDEST POP SWAP1 CALLVALUE PUSH2 0x249 JUMPI DUP1 PUSH1 0x3 NOT CALLDATASIZE ADD SLT PUSH2 0x249 JUMPI PUSH2 0xA6F PUSH2 0xE76 JUMP JUMPDEST SWAP1 PUSH1 0x1 PUSH1 0x1 PUSH1 0xA0 SHL SUB PUSH1 0x24 CALLDATALOAD SWAP3 PUSH2 0xA84 PUSH2 0x102D JUMP JUMPDEST AND SWAP3 DUP4 ISZERO PUSH2 0xAD9 JUMPI POP PUSH1 0x20 DUP3 PUSH32 0xDDF252AD1BE2C89B69C2B068FC378DAA952BA7F163C4A11628F55A4DF523B3EF SWAP3 PUSH2 0xABF DUP8 SWAP6 PUSH1 0x2 SLOAD PUSH2 0xED6 JUMP JUMPDEST PUSH1 0x2 SSTORE DUP6 DUP6 MSTORE DUP5 DUP4 MSTORE DUP1 DUP6 KECCAK256 DUP3 DUP2 SLOAD ADD SWAP1 SSTORE MLOAD SWAP1 DUP2 MSTORE LOG3 DUP1 RETURN JUMPDEST PUSH1 0x20 PUSH1 0x64 SWAP3 MLOAD SWAP2 PUSH3 0x461BCD PUSH1 0xE5 SHL DUP4 MSTORE DUP3 ADD MSTORE PUSH1 0x1F PUSH1 0x24 DUP3 ADD MSTORE PUSH32 0x45524332303A206D696E7420746F20746865207A65726F206164647265737300 PUSH1 0x44 DUP3 ADD MSTORE REVERT JUMPDEST POP POP CALLVALUE PUSH2 0x296 JUMPI DUP1 PUSH1 0x3 NOT CALLDATASIZE ADD SLT PUSH2 0x296 JUMPI PUSH2 0x39E PUSH1 0x20 SWAP3 PUSH2 0xB63 PUSH2 0xB3E PUSH2 0xE76 JUMP JUMPDEST SWAP2 CALLER DUP2 MSTORE PUSH1 0x1 DUP7 MSTORE DUP5 DUP2 KECCAK256 PUSH1 0x1 PUSH1 0x1 PUSH1 0xA0 SHL SUB DUP5 AND DUP3 MSTORE DUP7 MSTORE DUP5 PUSH1 0x24 CALLDATALOAD SWAP2 KECCAK256 SLOAD PUSH2 0xED6 JUMP JUMPDEST SWAP1 CALLER PUSH2 0xEF9 JUMP JUMPDEST POP POP CALLVALUE PUSH2 0x296 JUMPI DUP2 PUSH1 0x3 NOT CALLDATASIZE ADD SLT PUSH2 0x296 JUMPI PUSH1 0x20 SWAP1 MLOAD PUSH1 0x12 DUP2 MSTORE RETURN JUMPDEST POP POP CALLVALUE PUSH2 0x296 JUMPI DUP2 PUSH1 0x3 NOT CALLDATASIZE ADD SLT PUSH2 0x296 JUMPI PUSH1 0x20 SWAP1 PUSH1 0x7 SLOAD SWAP1 MLOAD SWAP1 DUP2 MSTORE RETURN JUMPDEST POP DUP3 SWAP1 CALLVALUE PUSH2 0x296 JUMPI PUSH1 0x60 CALLDATASIZE PUSH1 0x3 NOT ADD SLT PUSH2 0x296 JUMPI PUSH2 0xBC1 PUSH2 0xE76 JUMP JUMPDEST PUSH2 0xBC9 PUSH2 0xE91 JUMP JUMPDEST SWAP2 DUP5 PUSH1 0x44 CALLDATALOAD SWAP5 PUSH1 0x1 PUSH1 0x1 PUSH1 0xA0 SHL SUB DUP5 AND DUP2 MSTORE PUSH1 0x1 PUSH1 0x20 MSTORE DUP2 DUP2 KECCAK256 CALLER DUP3 MSTORE PUSH1 0x20 MSTORE KECCAK256 SLOAD SWAP1 PUSH1 0x0 NOT DUP3 SUB PUSH2 0xC04 JUMPI JUMPDEST PUSH1 0x20 DUP7 PUSH2 0x39E DUP8 DUP8 DUP8 PUSH2 0x1098 JUMP JUMPDEST DUP5 DUP3 LT PUSH2 0xC2D JUMPI POP SWAP2 DUP4 SWAP2 PUSH2 0xC22 PUSH1 0x20 SWAP7 SWAP6 PUSH2 0x39E SWAP6 SUB CALLER DUP4 PUSH2 0xEF9 JUMP JUMPDEST SWAP2 SWAP4 SWAP5 DUP2 SWAP4 POP PUSH2 0xBF6 JUMP JUMPDEST PUSH1 0x64 SWAP1 PUSH1 0x20 DUP8 MLOAD SWAP2 PUSH3 0x461BCD PUSH1 0xE5 SHL DUP4 MSTORE DUP3 ADD MSTORE PUSH1 0x1D PUSH1 0x24 DUP3 ADD MSTORE PUSH32 0x45524332303A20696E73756666696369656E7420616C6C6F77616E6365000000 PUSH1 0x44 DUP3 ADD MSTORE REVERT JUMPDEST POP POP CALLVALUE PUSH2 0x296 JUMPI DUP2 PUSH1 0x3 NOT CALLDATASIZE ADD SLT PUSH2 0x296 JUMPI PUSH1 0x20 SWAP1 PUSH1 0x2 SLOAD SWAP1 MLOAD SWAP1 DUP2 MSTORE RETURN JUMPDEST POP POP CALLVALUE PUSH2 0x296 JUMPI PUSH1 0x20 CALLDATASIZE PUSH1 0x3 NOT ADD SLT PUSH2 0x296 JUMPI PUSH1 0xFF DUP2 PUSH1 0x20 SWAP4 PUSH1 0x1 PUSH1 0x1 PUSH1 0xA0 SHL SUB PUSH2 0xCB8 PUSH2 0xE76 JUMP JUMPDEST AND DUP2 MSTORE PUSH1 0x9 DUP6 MSTORE KECCAK256 SLOAD AND SWAP1 MLOAD SWAP1 ISZERO ISZERO DUP2 MSTORE RETURN JUMPDEST POP POP CALLVALUE PUSH2 0x296 JUMPI PUSH1 0x1 PUSH1 0x1 PUSH1 0xA0 SHL SUB PUSH2 0x717 SWAP2 PUSH2 0xCE7 CALLDATASIZE PUSH2 0xEA7 JUMP JUMPDEST SWAP3 SWAP1 PUSH2 0xCF1 PUSH2 0x102D JUMP JUMPDEST AND DUP5 MSTORE PUSH1 0xA PUSH1 0x20 MSTORE DUP4 KECCAK256 SWAP1 PUSH1 0xFF DUP1 NOT DUP4 SLOAD AND SWAP2 ISZERO ISZERO AND OR SWAP1 SSTORE JUMP JUMPDEST POP POP CALLVALUE PUSH2 0x296 JUMPI DUP1 PUSH1 0x3 NOT CALLDATASIZE ADD SLT PUSH2 0x296 JUMPI PUSH1 0x20 SWAP1 PUSH2 0x39E PUSH2 0xD2C PUSH2 0xE76 JUMP JUMPDEST PUSH1 0x24 CALLDATALOAD SWAP1 CALLER PUSH2 0xEF9 JUMP JUMPDEST DUP5 SWAP2 POP DUP4 CALLVALUE PUSH2 0x249 JUMPI DUP3 PUSH1 0x3 NOT CALLDATASIZE ADD SLT PUSH2 0x249 JUMPI DUP3 PUSH1 0x3 SLOAD PUSH1 0x1 DUP2 PUSH1 0x1 SHR SWAP1 PUSH1 0x1 DUP4 AND SWAP3 DUP4 ISZERO PUSH2 0xE23 JUMPI JUMPDEST PUSH1 0x20 SWAP4 DUP5 DUP5 LT DUP2 EQ PUSH2 0x56A JUMPI DUP4 DUP9 MSTORE SWAP1 DUP2 ISZERO PUSH2 0xE07 JUMPI POP PUSH1 0x1 EQ PUSH2 0xDB1 JUMPI POP POP POP DUP3 SWAP1 SUB PUSH1 0x1F ADD PUSH1 0x1F NOT AND DUP3 ADD SWAP3 PUSH8 0xFFFFFFFFFFFFFFFF DUP5 GT DUP4 DUP6 LT OR PUSH2 0x4E6 JUMPI POP DUP3 SWAP2 DUP3 PUSH2 0x4E2 SWAP3 MSTORE DUP3 PUSH2 0xE2D JUMP JUMPDEST PUSH1 0x3 DUP8 MSTORE SWAP2 SWAP3 POP DUP6 SWAP2 DUP4 PUSH32 0xC2575A0E9E593C00F959F8C92F12DB2869C3395A3B0502D05E2516446F71F85B JUMPDEST DUP4 DUP6 LT PUSH2 0xDF3 JUMPI POP POP POP POP DUP4 ADD ADD DUP6 DUP1 DUP1 PUSH2 0x4B0 JUMP JUMPDEST DUP1 SLOAD DUP9 DUP7 ADD DUP4 ADD MSTORE SWAP4 ADD SWAP3 DUP5 SWAP1 DUP3 ADD PUSH2 0xDDD JUMP JUMPDEST PUSH1 0xFF NOT AND DUP8 DUP6 ADD MSTORE POP POP ISZERO ISZERO PUSH1 0x5 SHL DUP5 ADD ADD SWAP1 POP DUP6 DUP1 DUP1 PUSH2 0x4B0 JUMP JUMPDEST SWAP2 PUSH1 0x7F AND SWAP2 PUSH2 0xD61 JUMP JUMPDEST PUSH1 0x20 DUP1 DUP3 MSTORE DUP3 MLOAD DUP2 DUP4 ADD DUP2 SWAP1 MSTORE SWAP1 SWAP4 SWAP3 PUSH1 0x0 JUMPDEST DUP3 DUP2 LT PUSH2 0xE62 JUMPI POP POP PUSH1 0x40 SWAP3 SWAP4 POP PUSH1 0x0 DUP4 DUP3 DUP5 ADD ADD MSTORE PUSH1 0x1F DUP1 NOT SWAP2 ADD AND ADD ADD SWAP1 JUMP JUMPDEST DUP2 DUP2 ADD DUP7 ADD MLOAD DUP5 DUP3 ADD PUSH1 0x40 ADD MSTORE DUP6 ADD PUSH2 0xE40 JUMP JUMPDEST PUSH1 0x4 CALLDATALOAD SWAP1 PUSH1 0x1 PUSH1 0x1 PUSH1 0xA0 SHL SUB DUP3 AND DUP3 SUB PUSH2 0xE8C JUMPI JUMP JUMPDEST PUSH1 0x0 DUP1 REVERT JUMPDEST PUSH1 0x24 CALLDATALOAD SWAP1 PUSH1 0x1 PUSH1 0x1 PUSH1 0xA0 SHL SUB DUP3 AND DUP3 SUB PUSH2 0xE8C JUMPI JUMP JUMPDEST PUSH1 0x40 SWAP1 PUSH1 0x3 NOT ADD SLT PUSH2 0xE8C JUMPI PUSH1 0x4 CALLDATALOAD PUSH1 0x1 PUSH1 0x1 PUSH1 0xA0 SHL SUB DUP2 AND DUP2 SUB PUSH2 0xE8C JUMPI SWAP1 PUSH1 0x24 CALLDATALOAD DUP1 ISZERO ISZERO DUP2 SUB PUSH2 0xE8C JUMPI SWAP1 JUMP JUMPDEST SWAP2 SWAP1 DUP3 ADD DUP1 SWAP3 GT PUSH2 0xEE3 JUMPI JUMP JUMPDEST PUSH4 0x4E487B71 PUSH1 0xE0 SHL PUSH1 0x0 MSTORE PUSH1 0x11 PUSH1 0x4 MSTORE PUSH1 0x24 PUSH1 0x0 REVERT JUMPDEST PUSH1 0x1 PUSH1 0x1 PUSH1 0xA0 SHL SUB DUP1 SWAP2 AND SWAP2 DUP3 ISZERO PUSH2 0xFC4 JUMPI AND SWAP2 DUP3 ISZERO PUSH2 0xF5A JUMPI PUSH1 0x20 PUSH32 0x8C5BE1E5EBEC7D5BD14F71427D1E84F3DD0314C0F7B2291E5B200AC8C7C3B925 SWAP2 DUP4 PUSH1 0x0 MSTORE PUSH1 0x1 DUP3 MSTORE PUSH1 0x40 PUSH1 0x0 KECCAK256 DUP6 PUSH1 0x0 MSTORE DUP3 MSTORE DUP1 PUSH1 0x40 PUSH1 0x0 KECCAK256 SSTORE PUSH1 0x40 MLOAD SWAP1 DUP2 MSTORE LOG3 JUMP JUMPDEST PUSH1 0x84 PUSH1 0x40 MLOAD PUSH3 0x461BCD PUSH1 0xE5 SHL DUP2 MSTORE PUSH1 0x20 PUSH1 0x4 DUP3 ADD MSTORE PUSH1 0x22 PUSH1 0x24 DUP3 ADD MSTORE PUSH32 0x45524332303A20617070726F766520746F20746865207A65726F206164647265 PUSH1 0x44 DUP3 ADD MSTORE PUSH32 0x7373000000000000000000000000000000000000000000000000000000000000 PUSH1 0x64 DUP3 ADD MSTORE REVERT JUMPDEST PUSH1 0x84 PUSH1 0x40 MLOAD PUSH3 0x461BCD PUSH1 0xE5 SHL DUP2 MSTORE PUSH1 0x20 PUSH1 0x4 DUP3 ADD MSTORE PUSH1 0x24 DUP1 DUP3 ADD MSTORE PUSH32 0x45524332303A20617070726F76652066726F6D20746865207A65726F20616464 PUSH1 0x44 DUP3 ADD MSTORE PUSH32 0x7265737300000000000000000000000000000000000000000000000000000000 PUSH1 0x64 DUP3 ADD MSTORE REVERT JUMPDEST PUSH1 0x1 PUSH1 0x1 PUSH1 0xA0 SHL SUB PUSH1 0x5 SLOAD AND CALLER SUB PUSH2 0x1041 JUMPI JUMP JUMPDEST PUSH1 0x64 PUSH1 0x40 MLOAD PUSH3 0x461BCD PUSH1 0xE5 SHL DUP2 MSTORE PUSH1 0x20 PUSH1 0x4 DUP3 ADD MSTORE PUSH1 0x20 PUSH1 0x24 DUP3 ADD MSTORE PUSH32 0x4F776E61626C653A2063616C6C6572206973206E6F7420746865206F776E6572 PUSH1 0x44 DUP3 ADD MSTORE REVERT JUMPDEST DUP2 DUP2 MUL SWAP3 SWAP2 DUP2 ISZERO SWAP2 DUP5 DIV EQ OR ISZERO PUSH2 0xEE3 JUMPI JUMP JUMPDEST SWAP3 SWAP2 SWAP1 PUSH1 0xFF SWAP4 DUP5 PUSH1 0x8 SLOAD PUSH1 0xA0 SHR AND ISZERO PUSH2 0x1191 JUMPI JUMPDEST PUSH1 0x1 PUSH1 0x1 PUSH1 0xA0 SHL SUB DUP1 DUP3 AND SWAP1 PUSH1 0x0 SWAP7 DUP3 DUP9 MSTORE PUSH1 0x9 PUSH1 0x20 MSTORE DUP1 PUSH1 0x40 DUP10 KECCAK256 SLOAD AND DUP1 ISZERO PUSH2 0x117F JUMPI JUMPDEST PUSH2 0x1171 JUMPI DUP8 SWAP3 DUP9 MSTORE PUSH1 0xA PUSH1 0x20 MSTORE DUP1 PUSH1 0x40 DUP10 KECCAK256 SLOAD AND PUSH1 0x0 EQ PUSH2 0x1149 JUMPI POP SWAP1 POP PUSH2 0x2710 PUSH2 0x10FE PUSH1 0x6 SLOAD DUP7 PUSH2 0x1085 JUMP JUMPDEST DIV SWAP1 JUMPDEST DUP2 DUP1 PUSH2 0x1134 JUMPI JUMPDEST POP POP DUP4 SUB SWAP3 DUP4 GT PUSH2 0x1120 JUMPI PUSH2 0x111E SWAP4 SWAP5 POP PUSH2 0x134E JUMP JUMPDEST JUMP JUMPDEST PUSH1 0x24 DUP6 PUSH4 0x4E487B71 PUSH1 0xE0 SHL DUP2 MSTORE PUSH1 0x11 PUSH1 0x4 MSTORE REVERT JUMPDEST PUSH2 0x1142 SWAP2 PUSH1 0x8 SLOAD AND DUP5 PUSH2 0x134E JUMP JUMPDEST CODESIZE DUP2 PUSH2 0x1108 JUMP JUMPDEST DUP2 DUP6 AND DUP9 MSTORE PUSH1 0x40 DUP9 KECCAK256 SLOAD AND ISZERO PUSH2 0x1101 JUMPI SWAP1 POP PUSH2 0x2710 PUSH2 0x116A PUSH1 0x7 SLOAD DUP7 PUSH2 0x1085 JUMP JUMPDEST DIV SWAP1 PUSH2 0x1101 JUMP JUMPDEST POP POP POP PUSH2 0x111E SWAP4 SWAP5 POP PUSH2 0x134E JUMP JUMPDEST POP DUP2 DUP6 AND DUP9 MSTORE DUP1 PUSH1 0x40 DUP10 KECCAK256 SLOAD AND PUSH2 0x10D1 JUMP JUMPDEST PUSH1 0x1 PUSH1 0x1 PUSH1 0xA0 SHL SUB DUP1 DUP3 AND PUSH1 0x0 MSTORE PUSH1 0x9 PUSH1 0x20 MSTORE DUP6 PUSH1 0x40 PUSH1 0x0 KECCAK256 SLOAD AND SWAP1 DUP2 ISZERO PUSH2 0x11FD JUMPI JUMPDEST POP PUSH2 0x10AC JUMPI PUSH1 0x64 PUSH1 0x40 MLOAD PUSH3 0x461BCD PUSH1 0xE5 SHL DUP2 MSTORE PUSH1 0x20 PUSH1 0x4 DUP3 ADD MSTORE PUSH1 0x17 PUSH1 0x24 DUP3 ADD MSTORE PUSH32 0x54726164696E67206E6F742079657420656E61626C6564000000000000000000 PUSH1 0x44 DUP3 ADD MSTORE REVERT JUMPDEST SWAP1 POP DUP3 AND PUSH1 0x0 MSTORE DUP5 PUSH1 0x40 PUSH1 0x0 KECCAK256 SLOAD AND CODESIZE PUSH2 0x11B4 JUMP JUMPDEST PUSH1 0x1 PUSH1 0x1 PUSH1 0xA0 SHL SUB AND DUP1 ISZERO PUSH2 0x12E4 JUMPI PUSH1 0x0 SWAP2 DUP2 DUP4 MSTORE DUP3 PUSH1 0x20 MSTORE PUSH1 0x40 DUP4 KECCAK256 SLOAD DUP2 DUP2 LT PUSH2 0x127A JUMPI DUP2 PUSH32 0xDDF252AD1BE2C89B69C2B068FC378DAA952BA7F163C4A11628F55A4DF523B3EF SWAP3 PUSH1 0x20 SWAP3 DUP6 DUP8 MSTORE DUP7 DUP5 MSTORE SUB PUSH1 0x40 DUP7 KECCAK256 SSTORE DUP1 PUSH1 0x2 SLOAD SUB PUSH1 0x2 SSTORE PUSH1 0x40 MLOAD SWAP1 DUP2 MSTORE LOG3 JUMP JUMPDEST PUSH1 0x84 PUSH1 0x40 MLOAD PUSH3 0x461BCD PUSH1 0xE5 SHL DUP2 MSTORE PUSH1 0x20 PUSH1 0x4 DUP3 ADD MSTORE PUSH1 0x22 PUSH1 0x24 DUP3 ADD MSTORE PUSH32 0x45524332303A206275726E20616D6F756E7420657863656564732062616C616E PUSH1 0x44 DUP3 ADD MSTORE PUSH32 0x6365000000000000000000000000000000000000000000000000000000000000 PUSH1 0x64 DUP3 ADD MSTORE REVERT JUMPDEST PUSH1 0x84 PUSH1 0x40 MLOAD PUSH3 0x461BCD PUSH1 0xE5 SHL DUP2 MSTORE PUSH1 0x20 PUSH1 0x4 DUP3 ADD MSTORE PUSH1 0x21 PUSH1 0x24 DUP3 ADD MSTORE PUSH32 0x45524332303A206275726E2066726F6D20746865207A65726F20616464726573 PUSH1 0x44 DUP3 ADD MSTORE PUSH32 0x7300000000000000000000000000000000000000000000000000000000000000 PUSH1 0x64 DUP3 ADD MSTORE REVERT JUMPDEST PUSH1 0x1 PUSH1 0x1 PUSH1 0xA0 SHL SUB DUP1 SWAP2 AND SWAP2 DUP3 ISZERO PUSH2 0x1498 JUMPI AND SWAP2 DUP3 ISZERO PUSH2 0x142E JUMPI PUSH1 0x0 DUP3 DUP2 MSTORE DUP1 PUSH1 0x20 MSTORE PUSH1 0x40 DUP2 KECCAK256 SLOAD SWAP2 DUP1 DUP4 LT PUSH2 0x13C4 JUMPI PUSH1 0x40 DUP3 DUP3 PUSH32 0xDDF252AD1BE2C89B69C2B068FC378DAA952BA7F163C4A11628F55A4DF523B3EF SWAP6 DUP8 PUSH1 0x20 SWAP7 MSTORE DUP3 DUP7 MSTORE SUB DUP3 DUP3 KECCAK256 SSTORE DUP7 DUP2 MSTORE KECCAK256 DUP2 DUP2 SLOAD ADD SWAP1 SSTORE PUSH1 0x40 MLOAD SWAP1 DUP2 MSTORE LOG3 JUMP JUMPDEST PUSH1 0x84 PUSH1 0x40 MLOAD PUSH3 0x461BCD PUSH1 0xE5 SHL DUP2 MSTORE PUSH1 0x20 PUSH1 0x4 DUP3 ADD MSTORE PUSH1 0x26 PUSH1 0x24 DUP3 ADD MSTORE PUSH32 0x45524332303A207472616E7366657220616D6F756E7420657863656564732062 PUSH1 0x44 DUP3 ADD MSTORE PUSH32 0x616C616E63650000000000000000000000000000000000000000000000000000 PUSH1 0x64 DUP3 ADD MSTORE REVERT JUMPDEST PUSH1 0x84 PUSH1 0x40 MLOAD PUSH3 0x461BCD PUSH1 0xE5 SHL DUP2 MSTORE PUSH1 0x20 PUSH1 0x4 DUP3 ADD MSTORE PUSH1 0x23 PUSH1 0x24 DUP3 ADD MSTORE PUSH32 0x45524332303A207472616E7366657220746F20746865207A65726F2061646472 PUSH1 0x44 DUP3 ADD MSTORE PUSH32 0x6573730000000000000000000000000000000000000000000000000000000000 PUSH1 0x64 DUP3 ADD MSTORE REVERT JUMPDEST PUSH1 0x84 PUSH1 0x40 MLOAD PUSH3 0x461BCD PUSH1 0xE5 SHL DUP2 MSTORE PUSH1 0x20 PUSH1 0x4 DUP3 ADD MSTORE PUSH1 0x25 PUSH1 0x24 DUP3 ADD MSTORE PUSH32 0x45524332303A207472616E736665722066726F6D20746865207A65726F206164 PUSH1 0x44 DUP3 ADD MSTORE PUSH32 0x6472657373000000000000000000000000000000000000000000000000000000 PUSH1 0x64 DUP3 ADD MSTORE REVERT INVALID LOG2 PUSH5 0x6970667358 0x22 SLT KECCAK256 SWAP12 RETURNDATACOPY NUMBER CREATE2 DUP9 SWAP4 0xF8 MULMOD MULMOD 0xC9 CREATE SWAP11 PUSH26 0x1959D93B6CEE7A98C2E02DB551906F5BC600F264736F6C634300 ADDMOD AND STOP CALLER "},"methodIdentifiers":{"addLiquidity(address,uint256,uint256)":"55776b77","croakToken()":"29fa1bdc","enableTrading()":"8a8c523c","getContractAddresses()":"953874d2","owner()":"8da5cb5b","recoverERC20(address,uint256)":"8980f11f","renounceOwnership()":"715018a6","setupTokenPair(address)":"20f62672","stakingContract()":"ee99205c","swapContract()":"8ea83031","transferOwnership(address)":"f2fde38b","treasuryAddress()":"c5f956af","updateStakingContract(address)":"3347e4d6","updateSwapContract(address)":"6e985dc0","updateTreasuryAddress(address)":"841e4561"}}}}}