{"contracts/staking/CroakStaking.sol":{"CroakStaking":{"abi":[{"inputs":[{"internalType":"address","name":"_stakingToken","type":"address"},{"internalType":"uint256","name":"_rewardRate","type":"uint256"},{"internalType":"address","name":"_feeRecipient","type":"address"},{"internalType":"address","name":"initialOwner","type":"address"}],"stateMutability":"nonpayable","type":"constructor"},{"anonymous":false,"inputs":[{"indexed":false,"internalType":"uint256","name":"newFee","type":"uint256"}],"name":"EarlyWithdrawalFeeUpdated","type":"event"},{"anonymous":false,"inputs":[{"indexed":false,"internalType":"address","name":"newRecipient","type":"address"}],"name":"FeeRecipientUpdated","type":"event"},{"anonymous":false,"inputs":[{"indexed":false,"internalType":"uint256","name":"newMinimum","type":"uint256"}],"name":"MinimumStakeUpdated","type":"event"},{"anonymous":false,"inputs":[{"indexed":true,"internalType":"address","name":"previousOwner","type":"address"},{"indexed":true,"internalType":"address","name":"newOwner","type":"address"}],"name":"OwnershipTransferred","type":"event"},{"anonymous":false,"inputs":[{"indexed":true,"internalType":"address","name":"user","type":"address"},{"indexed":false,"internalType":"uint256","name":"reward","type":"uint256"}],"name":"RewardClaimed","type":"event"},{"anonymous":false,"inputs":[{"indexed":false,"internalType":"uint256","name":"newRate","type":"uint256"}],"name":"RewardRateUpdated","type":"event"},{"anonymous":false,"inputs":[{"indexed":true,"internalType":"address","name":"user","type":"address"},{"indexed":false,"internalType":"uint256","name":"amount","type":"uint256"},{"indexed":false,"internalType":"uint256","name":"lockPeriod","type":"uint256"}],"name":"Staked","type":"event"},{"anonymous":false,"inputs":[{"indexed":true,"internalType":"address","name":"user","type":"address"},{"indexed":false,"internalType":"uint256","name":"amount","type":"uint256"}],"name":"Withdrawn","type":"event"},{"inputs":[],"name":"BASIS_POINTS","outputs":[{"internalType":"uint256","name":"","type":"uint256"}],"stateMutability":"view","type":"function"},{"inputs":[],"name":"BONUS_30_DAYS","outputs":[{"internalType":"uint256","name":"","type":"uint256"}],"stateMutability":"view","type":"function"},{"inputs":[],"name":"BONUS_7_DAYS","outputs":[{"internalType":"uint256","name":"","type":"uint256"}],"stateMutability":"view","type":"function"},{"inputs":[],"name":"BONUS_90_DAYS","outputs":[{"internalType":"uint256","name":"","type":"uint256"}],"stateMutability":"view","type":"function"},{"inputs":[],"name":"LOCK_PERIOD_30_DAYS","outputs":[{"internalType":"uint256","name":"","type":"uint256"}],"stateMutability":"view","type":"function"},{"inputs":[],"name":"LOCK_PERIOD_7_DAYS","outputs":[{"internalType":"uint256","name":"","type":"uint256"}],"stateMutability":"view","type":"function"},{"inputs":[],"name":"LOCK_PERIOD_90_DAYS","outputs":[{"internalType":"uint256","name":"","type":"uint256"}],"stateMutability":"view","type":"function"},{"inputs":[],"name":"claimReward","outputs":[],"stateMutability":"nonpayable","type":"function"},{"inputs":[],"name":"earlyWithdrawalFee","outputs":[{"internalType":"uint256","name":"","type":"uint256"}],"stateMutability":"view","type":"function"},{"inputs":[{"internalType":"address","name":"account","type":"address"}],"name":"earned","outputs":[{"internalType":"uint256","name":"","type":"uint256"}],"stateMutability":"view","type":"function"},{"inputs":[],"name":"feeRecipient","outputs":[{"internalType":"address","name":"","type":"address"}],"stateMutability":"view","type":"function"},{"inputs":[{"internalType":"address","name":"account","type":"address"}],"name":"getStakerInfo","outputs":[{"internalType":"uint256","name":"stakedAmount","type":"uint256"},{"internalType":"uint256","name":"lockPeriod","type":"uint256"},{"internalType":"uint256","name":"lockEndTime","type":"uint256"},{"internalType":"uint256","name":"pendingRewards","type":"uint256"}],"stateMutability":"view","type":"function"},{"inputs":[],"name":"lastUpdateTime","outputs":[{"internalType":"uint256","name":"","type":"uint256"}],"stateMutability":"view","type":"function"},{"inputs":[],"name":"minimumStake","outputs":[{"internalType":"uint256","name":"","type":"uint256"}],"stateMutability":"view","type":"function"},{"inputs":[],"name":"owner","outputs":[{"internalType":"address","name":"","type":"address"}],"stateMutability":"view","type":"function"},{"inputs":[{"internalType":"address","name":"tokenAddress","type":"address"},{"internalType":"uint256","name":"amount","type":"uint256"}],"name":"recoverERC20","outputs":[],"stateMutability":"nonpayable","type":"function"},{"inputs":[],"name":"renounceOwnership","outputs":[],"stateMutability":"nonpayable","type":"function"},{"inputs":[],"name":"rewardPerToken","outputs":[{"internalType":"uint256","name":"","type":"uint256"}],"stateMutability":"view","type":"function"},{"inputs":[],"name":"rewardPerTokenStored","outputs":[{"internalType":"uint256","name":"","type":"uint256"}],"stateMutability":"view","type":"function"},{"inputs":[],"name":"rewardRate","outputs":[{"internalType":"uint256","name":"","type":"uint256"}],"stateMutability":"view","type":"function"},{"inputs":[{"internalType":"uint256","name":"_earlyWithdrawalFee","type":"uint256"}],"name":"setEarlyWithdrawalFee","outputs":[],"stateMutability":"nonpayable","type":"function"},{"inputs":[{"internalType":"address","name":"_feeRecipient","type":"address"}],"name":"setFeeRecipient","outputs":[],"stateMutability":"nonpayable","type":"function"},{"inputs":[{"internalType":"uint256","name":"_minimumStake","type":"uint256"}],"name":"setMinimumStake","outputs":[],"stateMutability":"nonpayable","type":"function"},{"inputs":[{"internalType":"uint256","name":"_rewardRate","type":"uint256"}],"name":"setRewardRate","outputs":[],"stateMutability":"nonpayable","type":"function"},{"inputs":[{"internalType":"uint256","name":"amount","type":"uint256"},{"internalType":"uint256","name":"lockPeriod","type":"uint256"}],"name":"stake","outputs":[],"stateMutability":"nonpayable","type":"function"},{"inputs":[{"internalType":"address","name":"","type":"address"}],"name":"stakers","outputs":[{"internalType":"uint256","name":"stakedAmount","type":"uint256"},{"internalType":"uint256","name":"lockPeriod","type":"uint256"},{"internalType":"uint256","name":"lockEndTime","type":"uint256"},{"internalType":"uint256","name":"lastRewardPerToken","type":"uint256"},{"internalType":"uint256","name":"rewards","type":"uint256"}],"stateMutability":"view","type":"function"},{"inputs":[],"name":"stakingToken","outputs":[{"internalType":"contract IERC20","name":"","type":"address"}],"stateMutability":"view","type":"function"},{"inputs":[],"name":"totalStaked","outputs":[{"internalType":"uint256","name":"","type":"uint256"}],"stateMutability":"view","type":"function"},{"inputs":[{"internalType":"address","name":"newOwner","type":"address"}],"name":"transferOwnership","outputs":[],"stateMutability":"nonpayable","type":"function"},{"inputs":[{"internalType":"uint256","name":"amount","type":"uint256"}],"name":"withdraw","outputs":[],"stateMutability":"nonpayable","type":"function"}],"evm":{"bytecode":{"linkReferences":{},"object":"60a034620001d657601f6200166438819003918201601f19168301916001600160401b03831184841017620001db57808492608094604052833981010312620001d6576200004d81620001f1565b60208201516200006e60606200006660408601620001f1565b9401620001f1565b600080546001600160a01b03198082166001600160a01b039485169081178455604051979196919385938416907f8be0079c531659141344cd1fd0a4f28419497f9722a3daafe3b4186f6b6457e09080a36001805568056bc75e2d631000006005556107d06007551694851562000188575016928315620001375760805260025560085416176008554260035560405161145d908162000207823960805181818161039501528181610435015281816105810152818161070901528181610e9501526111060152f35b60405162461bcd60e51b8152602060048201526024808201527f46656520726563697069656e742063616e6e6f74206265207a65726f206164646044820152637265737360e01b6064820152608490fd5b62461bcd60e51b8152602060048201526024808201527f5374616b696e6720746f6b656e2063616e6e6f74206265207a65726f206164646044820152637265737360e01b6064820152608490fd5b600080fd5b634e487b7160e01b600052604160045260246000fd5b51906001600160a01b0382168203620001d65756fe6080604052600436101561001257600080fd5b60003560e01c80628cc262146101f15780630906cfc61461017e57806311f7758f146101ec57806316330d40146101e75780631ea860d6146101e2578063233e9903146101dd5780632e1a7d4d146101d857806346904840146101d3578063715018a6146101ce57806372f702f3146101c95780637304eb8d146101c4578063733bdef0146101bf5780637b0472f0146101ba5780637b0a47ee146101b5578063817b1cd2146101b05780638980f11f146101ab5780638da5cb5b146101a65780639168ae72146101a15780639e447fc61461019c578063a84cd70814610197578063b88a802f14610192578063c8f33c911461018d578063cd3daf9d14610188578063df136d6514610183578063e1f1c4a71461017e578063e74b981b14610179578063ec5ffac214610174578063ecf008891461016f578063f2fde38b1461016a5763f826ed2e1461016557600080fd5b610bc4565b610adf565b610ac2565b610aa4565b6109b0565b61023c565b610992565b610977565b610959565b6108e6565b6108c8565b61086d565b610807565b6107e0565b6106d9565b6106bb565b61069d565b610622565b6105c2565b6105a5565b610561565b6104f7565b6104d0565b6102ff565b6102b3565b610295565b610277565b610259565b610211565b600435906001600160a01b038216820361020c57565b600080fd5b3461020c57602036600319011261020c57602061023461022f6101f6565b610ca6565b604051908152f35b3461020c57600036600319011261020c5760206040516127108152f35b3461020c57600036600319011261020c57602060405162093a808152f35b3461020c57600036600319011261020c576020600754604051908152f35b3461020c57600036600319011261020c57602060405162278d008152f35b3461020c57602036600319011261020c577ff4045d7dd317de89564c3f12c35961242ed2a4dce3ae4e7a75847ffa04bb083460206004356102f2611056565b80600555604051908152a1005b3461020c57602036600319011261020c5760043561032260026001541415610d5b565b600260015561032f611003565b60045542600355336104a6575b33600090815260096020526040902090808254106104625761035d336110ae565b600282015442109181926103f2575b818161037f61038e946103899454610c74565b9055600654610c74565b600655565b6103b981337f000000000000000000000000000000000000000000000000000000000000000061113a565b60405190815233907f7084f5476618d8e60b11ef0d7d3f06914655adb8793e28ff7f018d4c76d505d590602090a26103f060018055565b005b915061038961038e9161041261040a60075483610c86565b612710900490565b936104596104208684610c74565b956104336008546001600160a01b031690565b7f000000000000000000000000000000000000000000000000000000000000000061113a565b9150915061036c565b606460405162461bcd60e51b815260206004820152601a60248201527f496e73756666696369656e74207374616b656420616d6f756e740000000000006044820152fd5b6104af33610ca6565b3360005260096020526040600020906004820155600360045491015561033c565b3461020c57600036600319011261020c5760206001600160a01b0360085416604051908152f35b3461020c5760008060031936011261055e57610511611056565b806001600160a01b03815473ffffffffffffffffffffffffffffffffffffffff1981168355167f8be0079c531659141344cd1fd0a4f28419497f9722a3daafe3b4186f6b6457e08280a380f35b80fd5b3461020c57600036600319011261020c5760206040516001600160a01b037f0000000000000000000000000000000000000000000000000000000000000000168152f35b3461020c57600036600319011261020c576020604051613a988152f35b3461020c57602036600319011261020c5760806105dd6101f6565b6001600160a01b0381166000526009602052604060002080549161060a6002600184015493015491610ca6565b91604051938452602084015260408301526060820152f35b3461020c57604036600319011261020c5761064260026001541415610d5b565b600260015561064f611003565b6004554260035533610673575b61066a602435600435610e3c565b6103f060018055565b61067c33610ca6565b3360005260096020526040600020906004820155600360045491015561065c565b3461020c57600036600319011261020c576020600254604051908152f35b3461020c57600036600319011261020c576020600654604051908152f35b3461020c57604036600319011261020c576106f26101f6565b6024356106fd611056565b6001600160a01b0380807f000000000000000000000000000000000000000000000000000000000000000016931690838214610743575b6103f09350600054169061113a565b6040517f70a0823100000000000000000000000000000000000000000000000000000000815230600482015293602090859060249082905afa80156107db5761079f6107a7916103f0966000916107ac575b5060065490610c74565b841115610fb8565b610734565b6107ce915060203d6020116107d4575b6107c68183610f7b565b810190610f9d565b38610795565b503d6107bc565b610fac565b3461020c57600036600319011261020c5760206001600160a01b0360005416604051908152f35b3461020c57602036600319011261020c576001600160a01b036108286101f6565b16600052600960205260a06040600020805490600181015490600281015460046003830154920154926040519485526020850152604084015260608301526080820152f35b3461020c57602036600319011261020c577f41d466ebd06fb97e7786086ac8b69b7eb7da798592036251291d34e9791cde0160206004356108ac611056565b6108b4611003565b6004554260035580600255604051908152a1005b3461020c57600036600319011261020c5760206040516276a7008152f35b3461020c5760008060031936011261055e5761090760026001541415610d5b565b6002600155610914611003565b6004554260035533610931575b61092a336110ae565b6001805580f35b61093a33610ca6565b3382526009602052604082209060048201556003600454910155610921565b3461020c57600036600319011261020c576020600354604051908152f35b3461020c57600036600319011261020c576020610234611003565b3461020c57600036600319011261020c576020600454604051908152f35b3461020c57602036600319011261020c576109c96101f6565b6109d1611056565b6001600160a01b0381168015610a3b576008805473ffffffffffffffffffffffffffffffffffffffff19169190911790556040516001600160a01b039190911681527f7a7b5a0a132f9e0581eb8527f66eae9ee89c2a3e79d4ac7e41a1f1f4d48a7fc290602090a1005b608460405162461bcd60e51b8152602060048201526024808201527f46656520726563697069656e742063616e6e6f74206265207a65726f2061646460448201527f72657373000000000000000000000000000000000000000000000000000000006064820152fd5b3461020c57600036600319011261020c576020600554604051908152f35b3461020c57600036600319011261020c576020604051612ee08152f35b3461020c57602036600319011261020c57610af86101f6565b610b00611056565b6001600160a01b038091168015610b5a5760009182548273ffffffffffffffffffffffffffffffffffffffff198216178455167f8be0079c531659141344cd1fd0a4f28419497f9722a3daafe3b4186f6b6457e08380a380f35b608460405162461bcd60e51b815260206004820152602660248201527f4f776e61626c653a206e6577206f776e657220697320746865207a65726f206160448201527f64647265737300000000000000000000000000000000000000000000000000006064820152fd5b3461020c57602036600319011261020c57600435610be0611056565b610bb88111610c1a576020817f45108bbe17e2c6b15aef1a0c3b1668a1bc7f6d41aeb46a048100e839ba6fdac892600755604051908152a1005b606460405162461bcd60e51b815260206004820152600c60248201527f46656520746f6f206869676800000000000000000000000000000000000000006044820152fd5b634e487b7160e01b600052601160045260246000fd5b91908203918211610c8157565b610c5e565b81810292918115918404141715610c8157565b91908201809211610c8157565b6001600160a01b031660005260096020526040600020600481015490805480610cce57505090565b61040a610d309392610d0a610cfc610d2a94610cf6610ceb611003565b600386015490610c74565b90610c86565b670de0b6b3a7640000900490565b6001600092015462093a808114600014610d33575061271091505b610c86565b90610c99565b90565b62278d008103610d485750612ee09150610c86565b6276a70003610d2557613a989150610c86565b15610d6257565b606460405162461bcd60e51b815260206004820152601f60248201527f5265656e7472616e637947756172643a207265656e7472616e742063616c6c006044820152fd5b15610dad57565b606460405162461bcd60e51b815260206004820152601a60248201527f416d6f756e742062656c6f77206d696e696d756d207374616b650000000000006044820152fd5b15610df857565b606460405162461bcd60e51b815260206004820152601360248201527f496e76616c6964206c6f636b20706572696f64000000000000000000000000006044820152fd5b90610f197f1449c6dd7851abc30abf37f57715f492010519147cc2652fbc38202c18a6ee9091610e70600554851015610da6565b62093a8081148015610f38575b8015610f2c575b610e8d90610df1565b610eb98430337f00000000000000000000000000000000000000000000000000000000000000006111a2565b3360009081526009602052604090208054610f1e575b610eda858254610c99565b81558160018201556002610eee8342610c99565b910155610f0061038985600654610c99565b6040805194855260208501919091523393918291820190565b0390a2565b610f27336110ae565b610ecf565b506276a7008114610e84565b5062278d008114610e7d565b634e487b7160e01b600052604160045260246000fd5b6040810190811067ffffffffffffffff821117610f7657604052565b610f44565b90601f8019910116810190811067ffffffffffffffff821117610f7657604052565b9081602091031261020c575190565b6040513d6000823e3d90fd5b15610fbf57565b606460405162461bcd60e51b815260206004820152601c60248201527f43616e6e6f74207265636f766572207374616b656420746f6b656e73000000006044820152fd5b600654801561104f57600454906003544203428111610c815760025461102891610c86565b670de0b6b3a764000090818102918183041490151715610c8157048101809111610c815790565b5060045490565b6001600160a01b0360005416330361106a57565b606460405162461bcd60e51b815260206004820152602060248201527f4f776e61626c653a2063616c6c6572206973206e6f7420746865206f776e65726044820152fd5b6001600160a01b0381169081600052600960205260046040600020018054806110d8575b50505050565b61112a817f106f923f993c2149d49b4255ff723acafa1f2d94393f561d3eda32ae348f7241946000602095557f000000000000000000000000000000000000000000000000000000000000000061113a565b604051908152a2388080806110d2565b916001600160a01b03604051927fa9059cbb000000000000000000000000000000000000000000000000000000006020850152166024830152604482015260448152608081019181831067ffffffffffffffff841117610f76576111a09260405261129a565b565b9290604051927f23b872dd0000000000000000000000000000000000000000000000000000000060208501526001600160a01b03809216602485015216604483015260648201526064815260a081019181831067ffffffffffffffff841117610f76576111a09260405261129a565b9081602091031261020c5751801515810361020c5790565b1561123057565b608460405162461bcd60e51b815260206004820152602a60248201527f5361666545524332303a204552433230206f7065726174696f6e20646964206e60448201527f6f742073756363656564000000000000000000000000000000000000000000006064820152fd5b6001600160a01b031690604051906112b182610f5a565b6020928383527f5361666545524332303a206c6f772d6c6576656c2063616c6c206661696c656484840152803b1561132857600082819282876113039796519301915af16112fd61136c565b906113ac565b8051908161131057505050565b826111a093611323938301019101611211565b611229565b6064846040519062461bcd60e51b82526004820152601d60248201527f416464726573733a2063616c6c20746f206e6f6e2d636f6e74726163740000006044820152fd5b3d156113a7573d9067ffffffffffffffff8211610f76576040519161139b601f8201601f191660200184610f7b565b82523d6000602084013e565b606090565b909190156113b8575090565b8151156113c85750805190602001fd5b6040519062461bcd60e51b82528160208060048301528251908160248401526000935b82851061140e575050604492506000838284010152601f80199101168101030190fd5b84810182015186860160440152938101938593506113eb56fea2646970667358221220c64dfa7beb1091d54b20d9c904cb3f2cb605f5309457c9a1b16903a42ee309da64736f6c63430008160033","opcodes":"PUSH1 0xA0 CALLVALUE PUSH3 0x1D6 JUMPI PUSH1 0x1F PUSH3 0x1664 CODESIZE DUP2 SWAP1 SUB SWAP2 DUP3 ADD PUSH1 0x1F NOT AND DUP4 ADD SWAP2 PUSH1 0x1 PUSH1 0x1 PUSH1 0x40 SHL SUB DUP4 GT DUP5 DUP5 LT OR PUSH3 0x1DB JUMPI DUP1 DUP5 SWAP3 PUSH1 0x80 SWAP5 PUSH1 0x40 MSTORE DUP4 CODECOPY DUP2 ADD SUB SLT PUSH3 0x1D6 JUMPI PUSH3 0x4D DUP2 PUSH3 0x1F1 JUMP JUMPDEST PUSH1 0x20 DUP3 ADD MLOAD PUSH3 0x6E PUSH1 0x60 PUSH3 0x66 PUSH1 0x40 DUP7 ADD PUSH3 0x1F1 JUMP JUMPDEST SWAP5 ADD PUSH3 0x1F1 JUMP JUMPDEST PUSH1 0x0 DUP1 SLOAD PUSH1 0x1 PUSH1 0x1 PUSH1 0xA0 SHL SUB NOT DUP1 DUP3 AND PUSH1 0x1 PUSH1 0x1 PUSH1 0xA0 SHL SUB SWAP5 DUP6 AND SWAP1 DUP2 OR DUP5 SSTORE PUSH1 0x40 MLOAD SWAP8 SWAP2 SWAP7 SWAP2 SWAP4 DUP6 SWAP4 DUP5 AND SWAP1 PUSH32 0x8BE0079C531659141344CD1FD0A4F28419497F9722A3DAAFE3B4186F6B6457E0 SWAP1 DUP1 LOG3 PUSH1 0x1 DUP1 SSTORE PUSH9 0x56BC75E2D63100000 PUSH1 0x5 SSTORE PUSH2 0x7D0 PUSH1 0x7 SSTORE AND SWAP5 DUP6 ISZERO PUSH3 0x188 JUMPI POP AND SWAP3 DUP4 ISZERO PUSH3 0x137 JUMPI PUSH1 0x80 MSTORE PUSH1 0x2 SSTORE PUSH1 0x8 SLOAD AND OR PUSH1 0x8 SSTORE TIMESTAMP PUSH1 0x3 SSTORE PUSH1 0x40 MLOAD PUSH2 0x145D SWAP1 DUP2 PUSH3 0x207 DUP3 CODECOPY PUSH1 0x80 MLOAD DUP2 DUP2 DUP2 PUSH2 0x395 ADD MSTORE DUP2 DUP2 PUSH2 0x435 ADD MSTORE DUP2 DUP2 PUSH2 0x581 ADD MSTORE DUP2 DUP2 PUSH2 0x709 ADD MSTORE DUP2 DUP2 PUSH2 0xE95 ADD MSTORE PUSH2 0x1106 ADD MSTORE RETURN JUMPDEST PUSH1 0x40 MLOAD PUSH3 0x461BCD PUSH1 0xE5 SHL DUP2 MSTORE PUSH1 0x20 PUSH1 0x4 DUP3 ADD MSTORE PUSH1 0x24 DUP1 DUP3 ADD MSTORE PUSH32 0x46656520726563697069656E742063616E6E6F74206265207A65726F20616464 PUSH1 0x44 DUP3 ADD MSTORE PUSH4 0x72657373 PUSH1 0xE0 SHL PUSH1 0x64 DUP3 ADD MSTORE PUSH1 0x84 SWAP1 REVERT JUMPDEST PUSH3 0x461BCD PUSH1 0xE5 SHL DUP2 MSTORE PUSH1 0x20 PUSH1 0x4 DUP3 ADD MSTORE PUSH1 0x24 DUP1 DUP3 ADD MSTORE PUSH32 0x5374616B696E6720746F6B656E2063616E6E6F74206265207A65726F20616464 PUSH1 0x44 DUP3 ADD MSTORE PUSH4 0x72657373 PUSH1 0xE0 SHL PUSH1 0x64 DUP3 ADD MSTORE PUSH1 0x84 SWAP1 REVERT JUMPDEST PUSH1 0x0 DUP1 REVERT JUMPDEST PUSH4 0x4E487B71 PUSH1 0xE0 SHL PUSH1 0x0 MSTORE PUSH1 0x41 PUSH1 0x4 MSTORE PUSH1 0x24 PUSH1 0x0 REVERT JUMPDEST MLOAD SWAP1 PUSH1 0x1 PUSH1 0x1 PUSH1 0xA0 SHL SUB DUP3 AND DUP3 SUB PUSH3 0x1D6 JUMPI JUMP INVALID PUSH1 0x80 PUSH1 0x40 MSTORE PUSH1 0x4 CALLDATASIZE LT ISZERO PUSH2 0x12 JUMPI PUSH1 0x0 DUP1 REVERT JUMPDEST PUSH1 0x0 CALLDATALOAD PUSH1 0xE0 SHR DUP1 PUSH3 0x8CC262 EQ PUSH2 0x1F1 JUMPI DUP1 PUSH4 0x906CFC6 EQ PUSH2 0x17E JUMPI DUP1 PUSH4 0x11F7758F EQ PUSH2 0x1EC JUMPI DUP1 PUSH4 0x16330D40 EQ PUSH2 0x1E7 JUMPI DUP1 PUSH4 0x1EA860D6 EQ PUSH2 0x1E2 JUMPI DUP1 PUSH4 0x233E9903 EQ PUSH2 0x1DD JUMPI DUP1 PUSH4 0x2E1A7D4D EQ PUSH2 0x1D8 JUMPI DUP1 PUSH4 0x46904840 EQ PUSH2 0x1D3 JUMPI DUP1 PUSH4 0x715018A6 EQ PUSH2 0x1CE JUMPI DUP1 PUSH4 0x72F702F3 EQ PUSH2 0x1C9 JUMPI DUP1 PUSH4 0x7304EB8D EQ PUSH2 0x1C4 JUMPI DUP1 PUSH4 0x733BDEF0 EQ PUSH2 0x1BF JUMPI DUP1 PUSH4 0x7B0472F0 EQ PUSH2 0x1BA JUMPI DUP1 PUSH4 0x7B0A47EE EQ PUSH2 0x1B5 JUMPI DUP1 PUSH4 0x817B1CD2 EQ PUSH2 0x1B0 JUMPI DUP1 PUSH4 0x8980F11F EQ PUSH2 0x1AB JUMPI DUP1 PUSH4 0x8DA5CB5B EQ PUSH2 0x1A6 JUMPI DUP1 PUSH4 0x9168AE72 EQ PUSH2 0x1A1 JUMPI DUP1 PUSH4 0x9E447FC6 EQ PUSH2 0x19C JUMPI DUP1 PUSH4 0xA84CD708 EQ PUSH2 0x197 JUMPI DUP1 PUSH4 0xB88A802F EQ PUSH2 0x192 JUMPI DUP1 PUSH4 0xC8F33C91 EQ PUSH2 0x18D JUMPI DUP1 PUSH4 0xCD3DAF9D EQ PUSH2 0x188 JUMPI DUP1 PUSH4 0xDF136D65 EQ PUSH2 0x183 JUMPI DUP1 PUSH4 0xE1F1C4A7 EQ PUSH2 0x17E JUMPI DUP1 PUSH4 0xE74B981B EQ PUSH2 0x179 JUMPI DUP1 PUSH4 0xEC5FFAC2 EQ PUSH2 0x174 JUMPI DUP1 PUSH4 0xECF00889 EQ PUSH2 0x16F JUMPI DUP1 PUSH4 0xF2FDE38B EQ PUSH2 0x16A JUMPI PUSH4 0xF826ED2E EQ PUSH2 0x165 JUMPI PUSH1 0x0 DUP1 REVERT JUMPDEST PUSH2 0xBC4 JUMP JUMPDEST PUSH2 0xADF JUMP JUMPDEST PUSH2 0xAC2 JUMP JUMPDEST PUSH2 0xAA4 JUMP JUMPDEST PUSH2 0x9B0 JUMP JUMPDEST PUSH2 0x23C JUMP JUMPDEST PUSH2 0x992 JUMP JUMPDEST PUSH2 0x977 JUMP JUMPDEST PUSH2 0x959 JUMP JUMPDEST PUSH2 0x8E6 JUMP JUMPDEST PUSH2 0x8C8 JUMP JUMPDEST PUSH2 0x86D JUMP JUMPDEST PUSH2 0x807 JUMP JUMPDEST PUSH2 0x7E0 JUMP JUMPDEST PUSH2 0x6D9 JUMP JUMPDEST PUSH2 0x6BB JUMP JUMPDEST PUSH2 0x69D JUMP JUMPDEST PUSH2 0x622 JUMP JUMPDEST PUSH2 0x5C2 JUMP JUMPDEST PUSH2 0x5A5 JUMP JUMPDEST PUSH2 0x561 JUMP JUMPDEST PUSH2 0x4F7 JUMP JUMPDEST PUSH2 0x4D0 JUMP JUMPDEST PUSH2 0x2FF JUMP JUMPDEST PUSH2 0x2B3 JUMP JUMPDEST PUSH2 0x295 JUMP JUMPDEST PUSH2 0x277 JUMP JUMPDEST PUSH2 0x259 JUMP JUMPDEST PUSH2 0x211 JUMP JUMPDEST PUSH1 0x4 CALLDATALOAD SWAP1 PUSH1 0x1 PUSH1 0x1 PUSH1 0xA0 SHL SUB DUP3 AND DUP3 SUB PUSH2 0x20C JUMPI JUMP JUMPDEST PUSH1 0x0 DUP1 REVERT JUMPDEST CALLVALUE PUSH2 0x20C JUMPI PUSH1 0x20 CALLDATASIZE PUSH1 0x3 NOT ADD SLT PUSH2 0x20C JUMPI PUSH1 0x20 PUSH2 0x234 PUSH2 0x22F PUSH2 0x1F6 JUMP JUMPDEST PUSH2 0xCA6 JUMP JUMPDEST PUSH1 0x40 MLOAD SWAP1 DUP2 MSTORE RETURN JUMPDEST CALLVALUE PUSH2 0x20C JUMPI PUSH1 0x0 CALLDATASIZE PUSH1 0x3 NOT ADD SLT PUSH2 0x20C JUMPI PUSH1 0x20 PUSH1 0x40 MLOAD PUSH2 0x2710 DUP2 MSTORE RETURN JUMPDEST CALLVALUE PUSH2 0x20C JUMPI PUSH1 0x0 CALLDATASIZE PUSH1 0x3 NOT ADD SLT PUSH2 0x20C JUMPI PUSH1 0x20 PUSH1 0x40 MLOAD PUSH3 0x93A80 DUP2 MSTORE RETURN JUMPDEST CALLVALUE PUSH2 0x20C JUMPI PUSH1 0x0 CALLDATASIZE PUSH1 0x3 NOT ADD SLT PUSH2 0x20C JUMPI PUSH1 0x20 PUSH1 0x7 SLOAD PUSH1 0x40 MLOAD SWAP1 DUP2 MSTORE RETURN JUMPDEST CALLVALUE PUSH2 0x20C JUMPI PUSH1 0x0 CALLDATASIZE PUSH1 0x3 NOT ADD SLT PUSH2 0x20C JUMPI PUSH1 0x20 PUSH1 0x40 MLOAD PUSH3 0x278D00 DUP2 MSTORE RETURN JUMPDEST CALLVALUE PUSH2 0x20C JUMPI PUSH1 0x20 CALLDATASIZE PUSH1 0x3 NOT ADD SLT PUSH2 0x20C JUMPI PUSH32 0xF4045D7DD317DE89564C3F12C35961242ED2A4DCE3AE4E7A75847FFA04BB0834 PUSH1 0x20 PUSH1 0x4 CALLDATALOAD PUSH2 0x2F2 PUSH2 0x1056 JUMP JUMPDEST DUP1 PUSH1 0x5 SSTORE PUSH1 0x40 MLOAD SWAP1 DUP2 MSTORE LOG1 STOP JUMPDEST CALLVALUE PUSH2 0x20C JUMPI PUSH1 0x20 CALLDATASIZE PUSH1 0x3 NOT ADD SLT PUSH2 0x20C JUMPI PUSH1 0x4 CALLDATALOAD PUSH2 0x322 PUSH1 0x2 PUSH1 0x1 SLOAD EQ ISZERO PUSH2 0xD5B JUMP JUMPDEST PUSH1 0x2 PUSH1 0x1 SSTORE PUSH2 0x32F PUSH2 0x1003 JUMP JUMPDEST PUSH1 0x4 SSTORE TIMESTAMP PUSH1 0x3 SSTORE CALLER PUSH2 0x4A6 JUMPI JUMPDEST CALLER PUSH1 0x0 SWAP1 DUP2 MSTORE PUSH1 0x9 PUSH1 0x20 MSTORE PUSH1 0x40 SWAP1 KECCAK256 SWAP1 DUP1 DUP3 SLOAD LT PUSH2 0x462 JUMPI PUSH2 0x35D CALLER PUSH2 0x10AE JUMP JUMPDEST PUSH1 0x2 DUP3 ADD SLOAD TIMESTAMP LT SWAP2 DUP2 SWAP3 PUSH2 0x3F2 JUMPI JUMPDEST DUP2 DUP2 PUSH2 0x37F PUSH2 0x38E SWAP5 PUSH2 0x389 SWAP5 SLOAD PUSH2 0xC74 JUMP JUMPDEST SWAP1 SSTORE PUSH1 0x6 SLOAD PUSH2 0xC74 JUMP JUMPDEST PUSH1 0x6 SSTORE JUMP JUMPDEST PUSH2 0x3B9 DUP2 CALLER PUSH32 0x0 PUSH2 0x113A JUMP JUMPDEST PUSH1 0x40 MLOAD SWAP1 DUP2 MSTORE CALLER SWAP1 PUSH32 0x7084F5476618D8E60B11EF0D7D3F06914655ADB8793E28FF7F018D4C76D505D5 SWAP1 PUSH1 0x20 SWAP1 LOG2 PUSH2 0x3F0 PUSH1 0x1 DUP1 SSTORE JUMP JUMPDEST STOP JUMPDEST SWAP2 POP PUSH2 0x389 PUSH2 0x38E SWAP2 PUSH2 0x412 PUSH2 0x40A PUSH1 0x7 SLOAD DUP4 PUSH2 0xC86 JUMP JUMPDEST PUSH2 0x2710 SWAP1 DIV SWAP1 JUMP JUMPDEST SWAP4 PUSH2 0x459 PUSH2 0x420 DUP7 DUP5 PUSH2 0xC74 JUMP JUMPDEST SWAP6 PUSH2 0x433 PUSH1 0x8 SLOAD PUSH1 0x1 PUSH1 0x1 PUSH1 0xA0 SHL SUB AND SWAP1 JUMP JUMPDEST PUSH32 0x0 PUSH2 0x113A JUMP JUMPDEST SWAP2 POP SWAP2 POP PUSH2 0x36C JUMP JUMPDEST PUSH1 0x64 PUSH1 0x40 MLOAD PUSH3 0x461BCD PUSH1 0xE5 SHL DUP2 MSTORE PUSH1 0x20 PUSH1 0x4 DUP3 ADD MSTORE PUSH1 0x1A PUSH1 0x24 DUP3 ADD MSTORE PUSH32 0x496E73756666696369656E74207374616B656420616D6F756E74000000000000 PUSH1 0x44 DUP3 ADD MSTORE REVERT JUMPDEST PUSH2 0x4AF CALLER PUSH2 0xCA6 JUMP JUMPDEST CALLER PUSH1 0x0 MSTORE PUSH1 0x9 PUSH1 0x20 MSTORE PUSH1 0x40 PUSH1 0x0 KECCAK256 SWAP1 PUSH1 0x4 DUP3 ADD SSTORE PUSH1 0x3 PUSH1 0x4 SLOAD SWAP2 ADD SSTORE PUSH2 0x33C JUMP JUMPDEST CALLVALUE PUSH2 0x20C JUMPI PUSH1 0x0 CALLDATASIZE PUSH1 0x3 NOT ADD SLT PUSH2 0x20C JUMPI PUSH1 0x20 PUSH1 0x1 PUSH1 0x1 PUSH1 0xA0 SHL SUB PUSH1 0x8 SLOAD AND PUSH1 0x40 MLOAD SWAP1 DUP2 MSTORE RETURN JUMPDEST CALLVALUE PUSH2 0x20C JUMPI PUSH1 0x0 DUP1 PUSH1 0x3 NOT CALLDATASIZE ADD SLT PUSH2 0x55E JUMPI PUSH2 0x511 PUSH2 0x1056 JUMP JUMPDEST DUP1 PUSH1 0x1 PUSH1 0x1 PUSH1 0xA0 SHL SUB DUP2 SLOAD PUSH20 0xFFFFFFFFFFFFFFFFFFFFFFFFFFFFFFFFFFFFFFFF NOT DUP2 AND DUP4 SSTORE AND PUSH32 0x8BE0079C531659141344CD1FD0A4F28419497F9722A3DAAFE3B4186F6B6457E0 DUP3 DUP1 LOG3 DUP1 RETURN JUMPDEST DUP1 REVERT JUMPDEST CALLVALUE PUSH2 0x20C JUMPI PUSH1 0x0 CALLDATASIZE PUSH1 0x3 NOT ADD SLT PUSH2 0x20C JUMPI PUSH1 0x20 PUSH1 0x40 MLOAD PUSH1 0x1 PUSH1 0x1 PUSH1 0xA0 SHL SUB PUSH32 0x0 AND DUP2 MSTORE RETURN JUMPDEST CALLVALUE PUSH2 0x20C JUMPI PUSH1 0x0 CALLDATASIZE PUSH1 0x3 NOT ADD SLT PUSH2 0x20C JUMPI PUSH1 0x20 PUSH1 0x40 MLOAD PUSH2 0x3A98 DUP2 MSTORE RETURN JUMPDEST CALLVALUE PUSH2 0x20C JUMPI PUSH1 0x20 CALLDATASIZE PUSH1 0x3 NOT ADD SLT PUSH2 0x20C JUMPI PUSH1 0x80 PUSH2 0x5DD PUSH2 0x1F6 JUMP JUMPDEST PUSH1 0x1 PUSH1 0x1 PUSH1 0xA0 SHL SUB DUP2 AND PUSH1 0x0 MSTORE PUSH1 0x9 PUSH1 0x20 MSTORE PUSH1 0x40 PUSH1 0x0 KECCAK256 DUP1 SLOAD SWAP2 PUSH2 0x60A PUSH1 0x2 PUSH1 0x1 DUP5 ADD SLOAD SWAP4 ADD SLOAD SWAP2 PUSH2 0xCA6 JUMP JUMPDEST SWAP2 PUSH1 0x40 MLOAD SWAP4 DUP5 MSTORE PUSH1 0x20 DUP5 ADD MSTORE PUSH1 0x40 DUP4 ADD MSTORE PUSH1 0x60 DUP3 ADD MSTORE RETURN JUMPDEST CALLVALUE PUSH2 0x20C JUMPI PUSH1 0x40 CALLDATASIZE PUSH1 0x3 NOT ADD SLT PUSH2 0x20C JUMPI PUSH2 0x642 PUSH1 0x2 PUSH1 0x1 SLOAD EQ ISZERO PUSH2 0xD5B JUMP JUMPDEST PUSH1 0x2 PUSH1 0x1 SSTORE PUSH2 0x64F PUSH2 0x1003 JUMP JUMPDEST PUSH1 0x4 SSTORE TIMESTAMP PUSH1 0x3 SSTORE CALLER PUSH2 0x673 JUMPI JUMPDEST PUSH2 0x66A PUSH1 0x24 CALLDATALOAD PUSH1 0x4 CALLDATALOAD PUSH2 0xE3C JUMP JUMPDEST PUSH2 0x3F0 PUSH1 0x1 DUP1 SSTORE JUMP JUMPDEST PUSH2 0x67C CALLER PUSH2 0xCA6 JUMP JUMPDEST CALLER PUSH1 0x0 MSTORE PUSH1 0x9 PUSH1 0x20 MSTORE PUSH1 0x40 PUSH1 0x0 KECCAK256 SWAP1 PUSH1 0x4 DUP3 ADD SSTORE PUSH1 0x3 PUSH1 0x4 SLOAD SWAP2 ADD SSTORE PUSH2 0x65C JUMP JUMPDEST CALLVALUE PUSH2 0x20C JUMPI PUSH1 0x0 CALLDATASIZE PUSH1 0x3 NOT ADD SLT PUSH2 0x20C JUMPI PUSH1 0x20 PUSH1 0x2 SLOAD PUSH1 0x40 MLOAD SWAP1 DUP2 MSTORE RETURN JUMPDEST CALLVALUE PUSH2 0x20C JUMPI PUSH1 0x0 CALLDATASIZE PUSH1 0x3 NOT ADD SLT PUSH2 0x20C JUMPI PUSH1 0x20 PUSH1 0x6 SLOAD PUSH1 0x40 MLOAD SWAP1 DUP2 MSTORE RETURN JUMPDEST CALLVALUE PUSH2 0x20C JUMPI PUSH1 0x40 CALLDATASIZE PUSH1 0x3 NOT ADD SLT PUSH2 0x20C JUMPI PUSH2 0x6F2 PUSH2 0x1F6 JUMP JUMPDEST PUSH1 0x24 CALLDATALOAD PUSH2 0x6FD PUSH2 0x1056 JUMP JUMPDEST PUSH1 0x1 PUSH1 0x1 PUSH1 0xA0 SHL SUB DUP1 DUP1 PUSH32 0x0 AND SWAP4 AND SWAP1 DUP4 DUP3 EQ PUSH2 0x743 JUMPI JUMPDEST PUSH2 0x3F0 SWAP4 POP PUSH1 0x0 SLOAD AND SWAP1 PUSH2 0x113A JUMP JUMPDEST PUSH1 0x40 MLOAD PUSH32 0x70A0823100000000000000000000000000000000000000000000000000000000 DUP2 MSTORE ADDRESS PUSH1 0x4 DUP3 ADD MSTORE SWAP4 PUSH1 0x20 SWAP1 DUP6 SWAP1 PUSH1 0x24 SWAP1 DUP3 SWAP1 GAS STATICCALL DUP1 ISZERO PUSH2 0x7DB JUMPI PUSH2 0x79F PUSH2 0x7A7 SWAP2 PUSH2 0x3F0 SWAP7 PUSH1 0x0 SWAP2 PUSH2 0x7AC JUMPI JUMPDEST POP PUSH1 0x6 SLOAD SWAP1 PUSH2 0xC74 JUMP JUMPDEST DUP5 GT ISZERO PUSH2 0xFB8 JUMP JUMPDEST PUSH2 0x734 JUMP JUMPDEST PUSH2 0x7CE SWAP2 POP PUSH1 0x20 RETURNDATASIZE PUSH1 0x20 GT PUSH2 0x7D4 JUMPI JUMPDEST PUSH2 0x7C6 DUP2 DUP4 PUSH2 0xF7B JUMP JUMPDEST DUP2 ADD SWAP1 PUSH2 0xF9D JUMP JUMPDEST CODESIZE PUSH2 0x795 JUMP JUMPDEST POP RETURNDATASIZE PUSH2 0x7BC JUMP JUMPDEST PUSH2 0xFAC JUMP JUMPDEST CALLVALUE PUSH2 0x20C JUMPI PUSH1 0x0 CALLDATASIZE PUSH1 0x3 NOT ADD SLT PUSH2 0x20C JUMPI PUSH1 0x20 PUSH1 0x1 PUSH1 0x1 PUSH1 0xA0 SHL SUB PUSH1 0x0 SLOAD AND PUSH1 0x40 MLOAD SWAP1 DUP2 MSTORE RETURN JUMPDEST CALLVALUE PUSH2 0x20C JUMPI PUSH1 0x20 CALLDATASIZE PUSH1 0x3 NOT ADD SLT PUSH2 0x20C JUMPI PUSH1 0x1 PUSH1 0x1 PUSH1 0xA0 SHL SUB PUSH2 0x828 PUSH2 0x1F6 JUMP JUMPDEST AND PUSH1 0x0 MSTORE PUSH1 0x9 PUSH1 0x20 MSTORE PUSH1 0xA0 PUSH1 0x40 PUSH1 0x0 KECCAK256 DUP1 SLOAD SWAP1 PUSH1 0x1 DUP2 ADD SLOAD SWAP1 PUSH1 0x2 DUP2 ADD SLOAD PUSH1 0x4 PUSH1 0x3 DUP4 ADD SLOAD SWAP3 ADD SLOAD SWAP3 PUSH1 0x40 MLOAD SWAP5 DUP6 MSTORE PUSH1 0x20 DUP6 ADD MSTORE PUSH1 0x40 DUP5 ADD MSTORE PUSH1 0x60 DUP4 ADD MSTORE PUSH1 0x80 DUP3 ADD MSTORE RETURN JUMPDEST CALLVALUE PUSH2 0x20C JUMPI PUSH1 0x20 CALLDATASIZE PUSH1 0x3 NOT ADD SLT PUSH2 0x20C JUMPI PUSH32 0x41D466EBD06FB97E7786086AC8B69B7EB7DA798592036251291D34E9791CDE01 PUSH1 0x20 PUSH1 0x4 CALLDATALOAD PUSH2 0x8AC PUSH2 0x1056 JUMP JUMPDEST PUSH2 0x8B4 PUSH2 0x1003 JUMP JUMPDEST PUSH1 0x4 SSTORE TIMESTAMP PUSH1 0x3 SSTORE DUP1 PUSH1 0x2 SSTORE PUSH1 0x40 MLOAD SWAP1 DUP2 MSTORE LOG1 STOP JUMPDEST CALLVALUE PUSH2 0x20C JUMPI PUSH1 0x0 CALLDATASIZE PUSH1 0x3 NOT ADD SLT PUSH2 0x20C JUMPI PUSH1 0x20 PUSH1 0x40 MLOAD PUSH3 0x76A700 DUP2 MSTORE RETURN JUMPDEST CALLVALUE PUSH2 0x20C JUMPI PUSH1 0x0 DUP1 PUSH1 0x3 NOT CALLDATASIZE ADD SLT PUSH2 0x55E JUMPI PUSH2 0x907 PUSH1 0x2 PUSH1 0x1 SLOAD EQ ISZERO PUSH2 0xD5B JUMP JUMPDEST PUSH1 0x2 PUSH1 0x1 SSTORE PUSH2 0x914 PUSH2 0x1003 JUMP JUMPDEST PUSH1 0x4 SSTORE TIMESTAMP PUSH1 0x3 SSTORE CALLER PUSH2 0x931 JUMPI JUMPDEST PUSH2 0x92A CALLER PUSH2 0x10AE JUMP JUMPDEST PUSH1 0x1 DUP1 SSTORE DUP1 RETURN JUMPDEST PUSH2 0x93A CALLER PUSH2 0xCA6 JUMP JUMPDEST CALLER DUP3 MSTORE PUSH1 0x9 PUSH1 0x20 MSTORE PUSH1 0x40 DUP3 KECCAK256 SWAP1 PUSH1 0x4 DUP3 ADD SSTORE PUSH1 0x3 PUSH1 0x4 SLOAD SWAP2 ADD SSTORE PUSH2 0x921 JUMP JUMPDEST CALLVALUE PUSH2 0x20C JUMPI PUSH1 0x0 CALLDATASIZE PUSH1 0x3 NOT ADD SLT PUSH2 0x20C JUMPI PUSH1 0x20 PUSH1 0x3 SLOAD PUSH1 0x40 MLOAD SWAP1 DUP2 MSTORE RETURN JUMPDEST CALLVALUE PUSH2 0x20C JUMPI PUSH1 0x0 CALLDATASIZE PUSH1 0x3 NOT ADD SLT PUSH2 0x20C JUMPI PUSH1 0x20 PUSH2 0x234 PUSH2 0x1003 JUMP JUMPDEST CALLVALUE PUSH2 0x20C JUMPI PUSH1 0x0 CALLDATASIZE PUSH1 0x3 NOT ADD SLT PUSH2 0x20C JUMPI PUSH1 0x20 PUSH1 0x4 SLOAD PUSH1 0x40 MLOAD SWAP1 DUP2 MSTORE RETURN JUMPDEST CALLVALUE PUSH2 0x20C JUMPI PUSH1 0x20 CALLDATASIZE PUSH1 0x3 NOT ADD SLT PUSH2 0x20C JUMPI PUSH2 0x9C9 PUSH2 0x1F6 JUMP JUMPDEST PUSH2 0x9D1 PUSH2 0x1056 JUMP JUMPDEST PUSH1 0x1 PUSH1 0x1 PUSH1 0xA0 SHL SUB DUP2 AND DUP1 ISZERO PUSH2 0xA3B JUMPI PUSH1 0x8 DUP1 SLOAD PUSH20 0xFFFFFFFFFFFFFFFFFFFFFFFFFFFFFFFFFFFFFFFF NOT AND SWAP2 SWAP1 SWAP2 OR SWAP1 SSTORE PUSH1 0x40 MLOAD PUSH1 0x1 PUSH1 0x1 PUSH1 0xA0 SHL SUB SWAP2 SWAP1 SWAP2 AND DUP2 MSTORE PUSH32 0x7A7B5A0A132F9E0581EB8527F66EAE9EE89C2A3E79D4AC7E41A1F1F4D48A7FC2 SWAP1 PUSH1 0x20 SWAP1 LOG1 STOP JUMPDEST PUSH1 0x84 PUSH1 0x40 MLOAD PUSH3 0x461BCD PUSH1 0xE5 SHL DUP2 MSTORE PUSH1 0x20 PUSH1 0x4 DUP3 ADD MSTORE PUSH1 0x24 DUP1 DUP3 ADD MSTORE PUSH32 0x46656520726563697069656E742063616E6E6F74206265207A65726F20616464 PUSH1 0x44 DUP3 ADD MSTORE PUSH32 0x7265737300000000000000000000000000000000000000000000000000000000 PUSH1 0x64 DUP3 ADD MSTORE REVERT JUMPDEST CALLVALUE PUSH2 0x20C JUMPI PUSH1 0x0 CALLDATASIZE PUSH1 0x3 NOT ADD SLT PUSH2 0x20C JUMPI PUSH1 0x20 PUSH1 0x5 SLOAD PUSH1 0x40 MLOAD SWAP1 DUP2 MSTORE RETURN JUMPDEST CALLVALUE PUSH2 0x20C JUMPI PUSH1 0x0 CALLDATASIZE PUSH1 0x3 NOT ADD SLT PUSH2 0x20C JUMPI PUSH1 0x20 PUSH1 0x40 MLOAD PUSH2 0x2EE0 DUP2 MSTORE RETURN JUMPDEST CALLVALUE PUSH2 0x20C JUMPI PUSH1 0x20 CALLDATASIZE PUSH1 0x3 NOT ADD SLT PUSH2 0x20C JUMPI PUSH2 0xAF8 PUSH2 0x1F6 JUMP JUMPDEST PUSH2 0xB00 PUSH2 0x1056 JUMP JUMPDEST PUSH1 0x1 PUSH1 0x1 PUSH1 0xA0 SHL SUB DUP1 SWAP2 AND DUP1 ISZERO PUSH2 0xB5A JUMPI PUSH1 0x0 SWAP2 DUP3 SLOAD DUP3 PUSH20 0xFFFFFFFFFFFFFFFFFFFFFFFFFFFFFFFFFFFFFFFF NOT DUP3 AND OR DUP5 SSTORE AND PUSH32 0x8BE0079C531659141344CD1FD0A4F28419497F9722A3DAAFE3B4186F6B6457E0 DUP4 DUP1 LOG3 DUP1 RETURN JUMPDEST PUSH1 0x84 PUSH1 0x40 MLOAD PUSH3 0x461BCD PUSH1 0xE5 SHL DUP2 MSTORE PUSH1 0x20 PUSH1 0x4 DUP3 ADD MSTORE PUSH1 0x26 PUSH1 0x24 DUP3 ADD MSTORE PUSH32 0x4F776E61626C653A206E6577206F776E657220697320746865207A65726F2061 PUSH1 0x44 DUP3 ADD MSTORE PUSH32 0x6464726573730000000000000000000000000000000000000000000000000000 PUSH1 0x64 DUP3 ADD MSTORE REVERT JUMPDEST CALLVALUE PUSH2 0x20C JUMPI PUSH1 0x20 CALLDATASIZE PUSH1 0x3 NOT ADD SLT PUSH2 0x20C JUMPI PUSH1 0x4 CALLDATALOAD PUSH2 0xBE0 PUSH2 0x1056 JUMP JUMPDEST PUSH2 0xBB8 DUP2 GT PUSH2 0xC1A JUMPI PUSH1 0x20 DUP2 PUSH32 0x45108BBE17E2C6B15AEF1A0C3B1668A1BC7F6D41AEB46A048100E839BA6FDAC8 SWAP3 PUSH1 0x7 SSTORE PUSH1 0x40 MLOAD SWAP1 DUP2 MSTORE LOG1 STOP JUMPDEST PUSH1 0x64 PUSH1 0x40 MLOAD PUSH3 0x461BCD PUSH1 0xE5 SHL DUP2 MSTORE PUSH1 0x20 PUSH1 0x4 DUP3 ADD MSTORE PUSH1 0xC PUSH1 0x24 DUP3 ADD MSTORE PUSH32 0x46656520746F6F20686967680000000000000000000000000000000000000000 PUSH1 0x44 DUP3 ADD MSTORE REVERT JUMPDEST PUSH4 0x4E487B71 PUSH1 0xE0 SHL PUSH1 0x0 MSTORE PUSH1 0x11 PUSH1 0x4 MSTORE PUSH1 0x24 PUSH1 0x0 REVERT JUMPDEST SWAP2 SWAP1 DUP3 SUB SWAP2 DUP3 GT PUSH2 0xC81 JUMPI JUMP JUMPDEST PUSH2 0xC5E JUMP JUMPDEST DUP2 DUP2 MUL SWAP3 SWAP2 DUP2 ISZERO SWAP2 DUP5 DIV EQ OR ISZERO PUSH2 0xC81 JUMPI JUMP JUMPDEST SWAP2 SWAP1 DUP3 ADD DUP1 SWAP3 GT PUSH2 0xC81 JUMPI JUMP JUMPDEST PUSH1 0x1 PUSH1 0x1 PUSH1 0xA0 SHL SUB AND PUSH1 0x0 MSTORE PUSH1 0x9 PUSH1 0x20 MSTORE PUSH1 0x40 PUSH1 0x0 KECCAK256 PUSH1 0x4 DUP2 ADD SLOAD SWAP1 DUP1 SLOAD DUP1 PUSH2 0xCCE JUMPI POP POP SWAP1 JUMP JUMPDEST PUSH2 0x40A PUSH2 0xD30 SWAP4 SWAP3 PUSH2 0xD0A PUSH2 0xCFC PUSH2 0xD2A SWAP5 PUSH2 0xCF6 PUSH2 0xCEB PUSH2 0x1003 JUMP JUMPDEST PUSH1 0x3 DUP7 ADD SLOAD SWAP1 PUSH2 0xC74 JUMP JUMPDEST SWAP1 PUSH2 0xC86 JUMP JUMPDEST PUSH8 0xDE0B6B3A7640000 SWAP1 DIV SWAP1 JUMP JUMPDEST PUSH1 0x1 PUSH1 0x0 SWAP3 ADD SLOAD PUSH3 0x93A80 DUP2 EQ PUSH1 0x0 EQ PUSH2 0xD33 JUMPI POP PUSH2 0x2710 SWAP2 POP JUMPDEST PUSH2 0xC86 JUMP JUMPDEST SWAP1 PUSH2 0xC99 JUMP JUMPDEST SWAP1 JUMP JUMPDEST PUSH3 0x278D00 DUP2 SUB PUSH2 0xD48 JUMPI POP PUSH2 0x2EE0 SWAP2 POP PUSH2 0xC86 JUMP JUMPDEST PUSH3 0x76A700 SUB PUSH2 0xD25 JUMPI PUSH2 0x3A98 SWAP2 POP PUSH2 0xC86 JUMP JUMPDEST ISZERO PUSH2 0xD62 JUMPI JUMP JUMPDEST PUSH1 0x64 PUSH1 0x40 MLOAD PUSH3 0x461BCD PUSH1 0xE5 SHL DUP2 MSTORE PUSH1 0x20 PUSH1 0x4 DUP3 ADD MSTORE PUSH1 0x1F PUSH1 0x24 DUP3 ADD MSTORE PUSH32 0x5265656E7472616E637947756172643A207265656E7472616E742063616C6C00 PUSH1 0x44 DUP3 ADD MSTORE REVERT JUMPDEST ISZERO PUSH2 0xDAD JUMPI JUMP JUMPDEST PUSH1 0x64 PUSH1 0x40 MLOAD PUSH3 0x461BCD PUSH1 0xE5 SHL DUP2 MSTORE PUSH1 0x20 PUSH1 0x4 DUP3 ADD MSTORE PUSH1 0x1A PUSH1 0x24 DUP3 ADD MSTORE PUSH32 0x416D6F756E742062656C6F77206D696E696D756D207374616B65000000000000 PUSH1 0x44 DUP3 ADD MSTORE REVERT JUMPDEST ISZERO PUSH2 0xDF8 JUMPI JUMP JUMPDEST PUSH1 0x64 PUSH1 0x40 MLOAD PUSH3 0x461BCD PUSH1 0xE5 SHL DUP2 MSTORE PUSH1 0x20 PUSH1 0x4 DUP3 ADD MSTORE PUSH1 0x13 PUSH1 0x24 DUP3 ADD MSTORE PUSH32 0x496E76616C6964206C6F636B20706572696F6400000000000000000000000000 PUSH1 0x44 DUP3 ADD MSTORE REVERT JUMPDEST SWAP1 PUSH2 0xF19 PUSH32 0x1449C6DD7851ABC30ABF37F57715F492010519147CC2652FBC38202C18A6EE90 SWAP2 PUSH2 0xE70 PUSH1 0x5 SLOAD DUP6 LT ISZERO PUSH2 0xDA6 JUMP JUMPDEST PUSH3 0x93A80 DUP2 EQ DUP1 ISZERO PUSH2 0xF38 JUMPI JUMPDEST DUP1 ISZERO PUSH2 0xF2C JUMPI JUMPDEST PUSH2 0xE8D SWAP1 PUSH2 0xDF1 JUMP JUMPDEST PUSH2 0xEB9 DUP5 ADDRESS CALLER PUSH32 0x0 PUSH2 0x11A2 JUMP JUMPDEST CALLER PUSH1 0x0 SWAP1 DUP2 MSTORE PUSH1 0x9 PUSH1 0x20 MSTORE PUSH1 0x40 SWAP1 KECCAK256 DUP1 SLOAD PUSH2 0xF1E JUMPI JUMPDEST PUSH2 0xEDA DUP6 DUP3 SLOAD PUSH2 0xC99 JUMP JUMPDEST DUP2 SSTORE DUP2 PUSH1 0x1 DUP3 ADD SSTORE PUSH1 0x2 PUSH2 0xEEE DUP4 TIMESTAMP PUSH2 0xC99 JUMP JUMPDEST SWAP2 ADD SSTORE PUSH2 0xF00 PUSH2 0x389 DUP6 PUSH1 0x6 SLOAD PUSH2 0xC99 JUMP JUMPDEST PUSH1 0x40 DUP1 MLOAD SWAP5 DUP6 MSTORE PUSH1 0x20 DUP6 ADD SWAP2 SWAP1 SWAP2 MSTORE CALLER SWAP4 SWAP2 DUP3 SWAP2 DUP3 ADD SWAP1 JUMP JUMPDEST SUB SWAP1 LOG2 JUMP JUMPDEST PUSH2 0xF27 CALLER PUSH2 0x10AE JUMP JUMPDEST PUSH2 0xECF JUMP JUMPDEST POP PUSH3 0x76A700 DUP2 EQ PUSH2 0xE84 JUMP JUMPDEST POP PUSH3 0x278D00 DUP2 EQ PUSH2 0xE7D JUMP JUMPDEST PUSH4 0x4E487B71 PUSH1 0xE0 SHL PUSH1 0x0 MSTORE PUSH1 0x41 PUSH1 0x4 MSTORE PUSH1 0x24 PUSH1 0x0 REVERT JUMPDEST PUSH1 0x40 DUP2 ADD SWAP1 DUP2 LT PUSH8 0xFFFFFFFFFFFFFFFF DUP3 GT OR PUSH2 0xF76 JUMPI PUSH1 0x40 MSTORE JUMP JUMPDEST PUSH2 0xF44 JUMP JUMPDEST SWAP1 PUSH1 0x1F DUP1 NOT SWAP2 ADD AND DUP2 ADD SWAP1 DUP2 LT PUSH8 0xFFFFFFFFFFFFFFFF DUP3 GT OR PUSH2 0xF76 JUMPI PUSH1 0x40 MSTORE JUMP JUMPDEST SWAP1 DUP2 PUSH1 0x20 SWAP2 SUB SLT PUSH2 0x20C JUMPI MLOAD SWAP1 JUMP JUMPDEST PUSH1 0x40 MLOAD RETURNDATASIZE PUSH1 0x0 DUP3 RETURNDATACOPY RETURNDATASIZE SWAP1 REVERT JUMPDEST ISZERO PUSH2 0xFBF JUMPI JUMP JUMPDEST PUSH1 0x64 PUSH1 0x40 MLOAD PUSH3 0x461BCD PUSH1 0xE5 SHL DUP2 MSTORE PUSH1 0x20 PUSH1 0x4 DUP3 ADD MSTORE PUSH1 0x1C PUSH1 0x24 DUP3 ADD MSTORE PUSH32 0x43616E6E6F74207265636F766572207374616B656420746F6B656E7300000000 PUSH1 0x44 DUP3 ADD MSTORE REVERT JUMPDEST PUSH1 0x6 SLOAD DUP1 ISZERO PUSH2 0x104F JUMPI PUSH1 0x4 SLOAD SWAP1 PUSH1 0x3 SLOAD TIMESTAMP SUB TIMESTAMP DUP2 GT PUSH2 0xC81 JUMPI PUSH1 0x2 SLOAD PUSH2 0x1028 SWAP2 PUSH2 0xC86 JUMP JUMPDEST PUSH8 0xDE0B6B3A7640000 SWAP1 DUP2 DUP2 MUL SWAP2 DUP2 DUP4 DIV EQ SWAP1 ISZERO OR ISZERO PUSH2 0xC81 JUMPI DIV DUP2 ADD DUP1 SWAP2 GT PUSH2 0xC81 JUMPI SWAP1 JUMP JUMPDEST POP PUSH1 0x4 SLOAD SWAP1 JUMP JUMPDEST PUSH1 0x1 PUSH1 0x1 PUSH1 0xA0 SHL SUB PUSH1 0x0 SLOAD AND CALLER SUB PUSH2 0x106A JUMPI JUMP JUMPDEST PUSH1 0x64 PUSH1 0x40 MLOAD PUSH3 0x461BCD PUSH1 0xE5 SHL DUP2 MSTORE PUSH1 0x20 PUSH1 0x4 DUP3 ADD MSTORE PUSH1 0x20 PUSH1 0x24 DUP3 ADD MSTORE PUSH32 0x4F776E61626C653A2063616C6C6572206973206E6F7420746865206F776E6572 PUSH1 0x44 DUP3 ADD MSTORE REVERT JUMPDEST PUSH1 0x1 PUSH1 0x1 PUSH1 0xA0 SHL SUB DUP2 AND SWAP1 DUP2 PUSH1 0x0 MSTORE PUSH1 0x9 PUSH1 0x20 MSTORE PUSH1 0x4 PUSH1 0x40 PUSH1 0x0 KECCAK256 ADD DUP1 SLOAD DUP1 PUSH2 0x10D8 JUMPI JUMPDEST POP POP POP POP JUMP JUMPDEST PUSH2 0x112A DUP2 PUSH32 0x106F923F993C2149D49B4255FF723ACAFA1F2D94393F561D3EDA32AE348F7241 SWAP5 PUSH1 0x0 PUSH1 0x20 SWAP6 SSTORE PUSH32 0x0 PUSH2 0x113A JUMP JUMPDEST PUSH1 0x40 MLOAD SWAP1 DUP2 MSTORE LOG2 CODESIZE DUP1 DUP1 DUP1 PUSH2 0x10D2 JUMP JUMPDEST SWAP2 PUSH1 0x1 PUSH1 0x1 PUSH1 0xA0 SHL SUB PUSH1 0x40 MLOAD SWAP3 PUSH32 0xA9059CBB00000000000000000000000000000000000000000000000000000000 PUSH1 0x20 DUP6 ADD MSTORE AND PUSH1 0x24 DUP4 ADD MSTORE PUSH1 0x44 DUP3 ADD MSTORE PUSH1 0x44 DUP2 MSTORE PUSH1 0x80 DUP2 ADD SWAP2 DUP2 DUP4 LT PUSH8 0xFFFFFFFFFFFFFFFF DUP5 GT OR PUSH2 0xF76 JUMPI PUSH2 0x11A0 SWAP3 PUSH1 0x40 MSTORE PUSH2 0x129A JUMP JUMPDEST JUMP JUMPDEST SWAP3 SWAP1 PUSH1 0x40 MLOAD SWAP3 PUSH32 0x23B872DD00000000000000000000000000000000000000000000000000000000 PUSH1 0x20 DUP6 ADD MSTORE PUSH1 0x1 PUSH1 0x1 PUSH1 0xA0 SHL SUB DUP1 SWAP3 AND PUSH1 0x24 DUP6 ADD MSTORE AND PUSH1 0x44 DUP4 ADD MSTORE PUSH1 0x64 DUP3 ADD MSTORE PUSH1 0x64 DUP2 MSTORE PUSH1 0xA0 DUP2 ADD SWAP2 DUP2 DUP4 LT PUSH8 0xFFFFFFFFFFFFFFFF DUP5 GT OR PUSH2 0xF76 JUMPI PUSH2 0x11A0 SWAP3 PUSH1 0x40 MSTORE PUSH2 0x129A JUMP JUMPDEST SWAP1 DUP2 PUSH1 0x20 SWAP2 SUB SLT PUSH2 0x20C JUMPI MLOAD DUP1 ISZERO ISZERO DUP2 SUB PUSH2 0x20C JUMPI SWAP1 JUMP JUMPDEST ISZERO PUSH2 0x1230 JUMPI JUMP JUMPDEST PUSH1 0x84 PUSH1 0x40 MLOAD PUSH3 0x461BCD PUSH1 0xE5 SHL DUP2 MSTORE PUSH1 0x20 PUSH1 0x4 DUP3 ADD MSTORE PUSH1 0x2A PUSH1 0x24 DUP3 ADD MSTORE PUSH32 0x5361666545524332303A204552433230206F7065726174696F6E20646964206E PUSH1 0x44 DUP3 ADD MSTORE PUSH32 0x6F74207375636365656400000000000000000000000000000000000000000000 PUSH1 0x64 DUP3 ADD MSTORE REVERT JUMPDEST PUSH1 0x1 PUSH1 0x1 PUSH1 0xA0 SHL SUB AND SWAP1 PUSH1 0x40 MLOAD SWAP1 PUSH2 0x12B1 DUP3 PUSH2 0xF5A JUMP JUMPDEST PUSH1 0x20 SWAP3 DUP4 DUP4 MSTORE PUSH32 0x5361666545524332303A206C6F772D6C6576656C2063616C6C206661696C6564 DUP5 DUP5 ADD MSTORE DUP1 EXTCODESIZE ISZERO PUSH2 0x1328 JUMPI PUSH1 0x0 DUP3 DUP2 SWAP3 DUP3 DUP8 PUSH2 0x1303 SWAP8 SWAP7 MLOAD SWAP4 ADD SWAP2 GAS CALL PUSH2 0x12FD PUSH2 0x136C JUMP JUMPDEST SWAP1 PUSH2 0x13AC JUMP JUMPDEST DUP1 MLOAD SWAP1 DUP2 PUSH2 0x1310 JUMPI POP POP POP JUMP JUMPDEST DUP3 PUSH2 0x11A0 SWAP4 PUSH2 0x1323 SWAP4 DUP4 ADD ADD SWAP2 ADD PUSH2 0x1211 JUMP JUMPDEST PUSH2 0x1229 JUMP JUMPDEST PUSH1 0x64 DUP5 PUSH1 0x40 MLOAD SWAP1 PUSH3 0x461BCD PUSH1 0xE5 SHL DUP3 MSTORE PUSH1 0x4 DUP3 ADD MSTORE PUSH1 0x1D PUSH1 0x24 DUP3 ADD MSTORE PUSH32 0x416464726573733A2063616C6C20746F206E6F6E2D636F6E7472616374000000 PUSH1 0x44 DUP3 ADD MSTORE REVERT JUMPDEST RETURNDATASIZE ISZERO PUSH2 0x13A7 JUMPI RETURNDATASIZE SWAP1 PUSH8 0xFFFFFFFFFFFFFFFF DUP3 GT PUSH2 0xF76 JUMPI PUSH1 0x40 MLOAD SWAP2 PUSH2 0x139B PUSH1 0x1F DUP3 ADD PUSH1 0x1F NOT AND PUSH1 0x20 ADD DUP5 PUSH2 0xF7B JUMP JUMPDEST DUP3 MSTORE RETURNDATASIZE PUSH1 0x0 PUSH1 0x20 DUP5 ADD RETURNDATACOPY JUMP JUMPDEST PUSH1 0x60 SWAP1 JUMP JUMPDEST SWAP1 SWAP2 SWAP1 ISZERO PUSH2 0x13B8 JUMPI POP SWAP1 JUMP JUMPDEST DUP2 MLOAD ISZERO PUSH2 0x13C8 JUMPI POP DUP1 MLOAD SWAP1 PUSH1 0x20 ADD REVERT JUMPDEST PUSH1 0x40 MLOAD SWAP1 PUSH3 0x461BCD PUSH1 0xE5 SHL DUP3 MSTORE DUP2 PUSH1 0x20 DUP1 PUSH1 0x4 DUP4 ADD MSTORE DUP3 MLOAD SWAP1 DUP2 PUSH1 0x24 DUP5 ADD MSTORE PUSH1 0x0 SWAP4 JUMPDEST DUP3 DUP6 LT PUSH2 0x140E JUMPI POP POP PUSH1 0x44 SWAP3 POP PUSH1 0x0 DUP4 DUP3 DUP5 ADD ADD MSTORE PUSH1 0x1F DUP1 NOT SWAP2 ADD AND DUP2 ADD SUB ADD SWAP1 REVERT JUMPDEST DUP5 DUP2 ADD DUP3 ADD MLOAD DUP7 DUP7 ADD PUSH1 0x44 ADD MSTORE SWAP4 DUP2 ADD SWAP4 DUP6 SWAP4 POP PUSH2 0x13EB JUMP INVALID LOG2 PUSH5 0x6970667358 0x22 SLT KECCAK256 0xC6 0x4D STATICCALL PUSH28 0xEB1091D54B20D9C904CB3F2CB605F5309457C9A1B16903A42EE309DA PUSH5 0x736F6C6343 STOP ADDMOD AND STOP CALLER "},"methodIdentifiers":{"BASIS_POINTS()":"e1f1c4a7","BONUS_30_DAYS()":"ecf00889","BONUS_7_DAYS()":"0906cfc6","BONUS_90_DAYS()":"7304eb8d","LOCK_PERIOD_30_DAYS()":"1ea860d6","LOCK_PERIOD_7_DAYS()":"11f7758f","LOCK_PERIOD_90_DAYS()":"a84cd708","claimReward()":"b88a802f","earlyWithdrawalFee()":"16330d40","earned(address)":"008cc262","feeRecipient()":"46904840","getStakerInfo(address)":"733bdef0","lastUpdateTime()":"c8f33c91","minimumStake()":"ec5ffac2","owner()":"8da5cb5b","recoverERC20(address,uint256)":"8980f11f","renounceOwnership()":"715018a6","rewardPerToken()":"cd3daf9d","rewardPerTokenStored()":"df136d65","rewardRate()":"7b0a47ee","setEarlyWithdrawalFee(uint256)":"f826ed2e","setFeeRecipient(address)":"e74b981b","setMinimumStake(uint256)":"233e9903","setRewardRate(uint256)":"9e447fc6","stake(uint256,uint256)":"7b0472f0","stakers(address)":"9168ae72","stakingToken()":"72f702f3","totalStaked()":"817b1cd2","transferOwnership(address)":"f2fde38b","withdraw(uint256)":"2e1a7d4d"}}}}}