{
  "_format": "hh-sol-artifact-1",
  "contractName": "CroakStaking",
  "sourceName": "contracts/staking/CroakStaking.sol",
  "abi": [
    {
      "inputs": [
        {
          "internalType": "address",
          "name": "_stakingToken",
          "type": "address"
        },
        {
          "internalType": "uint256",
          "name": "_rewardRate",
          "type": "uint256"
        },
        {
          "internalType": "address",
          "name": "_feeRecipient",
          "type": "address"
        },
        {
          "internalType": "address",
          "name": "initialOwner",
          "type": "address"
        }
      ],
      "stateMutability": "nonpayable",
      "type": "constructor"
    },
    {
      "anonymous": false,
      "inputs": [
        {
          "indexed": false,
          "internalType": "uint256",
          "name": "newFee",
          "type": "uint256"
        }
      ],
      "name": "EarlyWithdrawalFeeUpdated",
      "type": "event"
    },
    {
      "anonymous": false,
      "inputs": [
        {
          "indexed": false,
          "internalType": "address",
          "name": "newRecipient",
          "type": "address"
        }
      ],
      "name": "FeeRecipientUpdated",
      "type": "event"
    },
    {
      "anonymous": false,
      "inputs": [
        {
          "indexed": false,
          "internalType": "uint256",
          "name": "newMinimum",
          "type": "uint256"
        }
      ],
      "name": "MinimumStakeUpdated",
      "type": "event"
    },
    {
      "anonymous": false,
      "inputs": [
        {
          "indexed": true,
          "internalType": "address",
          "name": "previousOwner",
          "type": "address"
        },
        {
          "indexed": true,
          "internalType": "address",
          "name": "newOwner",
          "type": "address"
        }
      ],
      "name": "OwnershipTransferred",
      "type": "event"
    },
    {
      "anonymous": false,
      "inputs": [
        {
          "indexed": true,
          "internalType": "address",
          "name": "user",
          "type": "address"
        },
        {
          "indexed": false,
          "internalType": "uint256",
          "name": "reward",
          "type": "uint256"
        }
      ],
      "name": "RewardClaimed",
      "type": "event"
    },
    {
      "anonymous": false,
      "inputs": [
        {
          "indexed": false,
          "internalType": "uint256",
          "name": "newRate",
          "type": "uint256"
        }
      ],
      "name": "RewardRateUpdated",
      "type": "event"
    },
    {
      "anonymous": false,
      "inputs": [
        {
          "indexed": true,
          "internalType": "address",
          "name": "user",
          "type": "address"
        },
        {
          "indexed": false,
          "internalType": "uint256",
          "name": "amount",
          "type": "uint256"
        },
        {
          "indexed": false,
          "internalType": "uint256",
          "name": "lockPeriod",
          "type": "uint256"
        }
      ],
      "name": "Staked",
      "type": "event"
    },
    {
      "anonymous": false,
      "inputs": [
        {
          "indexed": true,
          "internalType": "address",
          "name": "user",
          "type": "address"
        },
        {
          "indexed": false,
          "internalType": "uint256",
          "name": "amount",
          "type": "uint256"
        }
      ],
      "name": "Withdrawn",
      "type": "event"
    },
    {
      "inputs": [],
      "name": "BASIS_POINTS",
      "outputs": [
        {
          "internalType": "uint256",
          "name": "",
          "type": "uint256"
        }
      ],
      "stateMutability": "view",
      "type": "function"
    },
    {
      "inputs": [],
      "name": "BONUS_30_DAYS",
      "outputs": [
        {
          "internalType": "uint256",
          "name": "",
          "type": "uint256"
        }
      ],
      "stateMutability": "view",
      "type": "function"
    },
    {
      "inputs": [],
      "name": "BONUS_7_DAYS",
      "outputs": [
        {
          "internalType": "uint256",
          "name": "",
          "type": "uint256"
        }
      ],
      "stateMutability": "view",
      "type": "function"
    },
    {
      "inputs": [],
      "name": "BONUS_90_DAYS",
      "outputs": [
        {
          "internalType": "uint256",
          "name": "",
          "type": "uint256"
        }
      ],
      "stateMutability": "view",
      "type": "function"
    },
    {
      "inputs": [],
      "name": "LOCK_PERIOD_30_DAYS",
      "outputs": [
        {
          "internalType": "uint256",
          "name": "",
          "type": "uint256"
        }
      ],
      "stateMutability": "view",
      "type": "function"
    },
    {
      "inputs": [],
      "name": "LOCK_PERIOD_7_DAYS",
      "outputs": [
        {
          "internalType": "uint256",
          "name": "",
          "type": "uint256"
        }
      ],
      "stateMutability": "view",
      "type": "function"
    },
    {
      "inputs": [],
      "name": "LOCK_PERIOD_90_DAYS",
      "outputs": [
        {
          "internalType": "uint256",
          "name": "",
          "type": "uint256"
        }
      ],
      "stateMutability": "view",
      "type": "function"
    },
    {
      "inputs": [],
      "name": "claimReward",
      "outputs": [],
      "stateMutability": "nonpayable",
      "type": "function"
    },
    {
      "inputs": [],
      "name": "earlyWithdrawalFee",
      "outputs": [
        {
          "internalType": "uint256",
          "name": "",
          "type": "uint256"
        }
      ],
      "stateMutability": "view",
      "type": "function"
    },
    {
      "inputs": [
        {
          "internalType": "address",
          "name": "account",
          "type": "address"
        }
      ],
      "name": "earned",
      "outputs": [
        {
          "internalType": "uint256",
          "name": "",
          "type": "uint256"
        }
      ],
      "stateMutability": "view",
      "type": "function"
    },
    {
      "inputs": [],
      "name": "feeRecipient",
      "outputs": [
        {
          "internalType": "address",
          "name": "",
          "type": "address"
        }
      ],
      "stateMutability": "view",
      "type": "function"
    },
    {
      "inputs": [
        {
          "internalType": "address",
          "name": "account",
          "type": "address"
        }
      ],
      "name": "getStakerInfo",
      "outputs": [
        {
          "internalType": "uint256",
          "name": "stakedAmount",
          "type": "uint256"
        },
        {
          "internalType": "uint256",
          "name": "lockPeriod",
          "type": "uint256"
        },
        {
          "internalType": "uint256",
          "name": "lockEndTime",
          "type": "uint256"
        },
        {
          "internalType": "uint256",
          "name": "pendingRewards",
          "type": "uint256"
        }
      ],
      "stateMutability": "view",
      "type": "function"
    },
    {
      "inputs": [],
      "name": "lastUpdateTime",
      "outputs": [
        {
          "internalType": "uint256",
          "name": "",
          "type": "uint256"
        }
      ],
      "stateMutability": "view",
      "type": "function"
    },
    {
      "inputs": [],
      "name": "minimumStake",
      "outputs": [
        {
          "internalType": "uint256",
          "name": "",
          "type": "uint256"
        }
      ],
      "stateMutability": "view",
      "type": "function"
    },
    {
      "inputs": [],
      "name": "owner",
      "outputs": [
        {
          "internalType": "address",
          "name": "",
          "type": "address"
        }
      ],
      "stateMutability": "view",
      "type": "function"
    },
    {
      "inputs": [
        {
          "internalType": "address",
          "name": "tokenAddress",
          "type": "address"
        },
        {
          "internalType": "uint256",
          "name": "amount",
          "type": "uint256"
        }
      ],
      "name": "recoverERC20",
      "outputs": [],
      "stateMutability": "nonpayable",
      "type": "function"
    },
    {
      "inputs": [],
      "name": "renounceOwnership",
      "outputs": [],
      "stateMutability": "nonpayable",
      "type": "function"
    },
    {
      "inputs": [],
      "name": "rewardPerToken",
      "outputs": [
        {
          "internalType": "uint256",
          "name": "",
          "type": "uint256"
        }
      ],
      "stateMutability": "view",
      "type": "function"
    },
    {
      "inputs": [],
      "name": "rewardPerTokenStored",
      "outputs": [
        {
          "internalType": "uint256",
          "name": "",
          "type": "uint256"
        }
      ],
      "stateMutability": "view",
      "type": "function"
    },
    {
      "inputs": [],
      "name": "rewardRate",
      "outputs": [
        {
          "internalType": "uint256",
          "name": "",
          "type": "uint256"
        }
      ],
      "stateMutability": "view",
      "type": "function"
    },
    {
      "inputs": [
        {
          "internalType": "uint256",
          "name": "_earlyWithdrawalFee",
          "type": "uint256"
        }
      ],
      "name": "setEarlyWithdrawalFee",
      "outputs": [],
      "stateMutability": "nonpayable",
      "type": "function"
    },
    {
      "inputs": [
        {
          "internalType": "address",
          "name": "_feeRecipient",
          "type": "address"
        }
      ],
      "name": "setFeeRecipient",
      "outputs": [],
      "stateMutability": "nonpayable",
      "type": "function"
    },
    {
      "inputs": [
        {
          "internalType": "uint256",
          "name": "_minimumStake",
          "type": "uint256"
        }
      ],
      "name": "setMinimumStake",
      "outputs": [],
      "stateMutability": "nonpayable",
      "type": "function"
    },
    {
      "inputs": [
        {
          "internalType": "uint256",
          "name": "_rewardRate",
          "type": "uint256"
        }
      ],
      "name": "setRewardRate",
      "outputs": [],
      "stateMutability": "nonpayable",
      "type": "function"
    },
    {
      "inputs": [
        {
          "internalType": "uint256",
          "name": "amount",
          "type": "uint256"
        },
        {
          "internalType": "uint256",
          "name": "lockPeriod",
          "type": "uint256"
        }
      ],
      "name": "stake",
      "outputs": [],
      "stateMutability": "nonpayable",
      "type": "function"
    },
    {
      "inputs": [
        {
          "internalType": "address",
          "name": "",
          "type": "address"
        }
      ],
      "name": "stakers",
      "outputs": [
        {
          "internalType": "uint256",
          "name": "stakedAmount",
          "type": "uint256"
        },
        {
          "internalType": "uint256",
          "name": "lockPeriod",
          "type": "uint256"
        },
        {
          "internalType": "uint256",
          "name": "lockEndTime",
          "type": "uint256"
        },
        {
          "internalType": "uint256",
          "name": "lastRewardPerToken",
          "type": "uint256"
        },
        {
          "internalType": "uint256",
          "name": "rewards",
          "type": "uint256"
        }
      ],
      "stateMutability": "view",
      "type": "function"
    },
    {
      "inputs": [],
      "name": "stakingToken",
      "outputs": [
        {
          "internalType": "contract IERC20",
          "name": "",
          "type": "address"
        }
      ],
      "stateMutability": "view",
      "type": "function"
    },
    {
      "inputs": [],
      "name": "totalStaked",
      "outputs": [
        {
          "internalType": "uint256",
          "name": "",
          "type": "uint256"
        }
      ],
      "stateMutability": "view",
      "type": "function"
    },
    {
      "inputs": [
        {
          "internalType": "address",
          "name": "newOwner",
          "type": "address"
        }
      ],
      "name": "transferOwnership",
      "outputs": [],
      "stateMutability": "nonpayable",
      "type": "function"
    },
    {
      "inputs": [
        {
          "internalType": "uint256",
          "name": "amount",
          "type": "uint256"
        }
      ],
      "name": "withdraw",
      "outputs": [],
      "stateMutability": "nonpayable",
      "type": "function"
    }
  ],
  "bytecode": "0x60a034620001d657601f6200166438819003918201601f19168301916001600160401b03831184841017620001db57808492608094604052833981010312620001d6576200004d81620001f1565b60208201516200006e60606200006660408601620001f1565b9401620001f1565b600080546001600160a01b03198082166001600160a01b039485169081178455604051979196919385938416907f8be0079c531659141344cd1fd0a4f28419497f9722a3daafe3b4186f6b6457e09080a36001805568056bc75e2d631000006005556107d06007551694851562000188575016928315620001375760805260025560085416176008554260035560405161145d908162000207823960805181818161039501528181610435015281816105810152818161070901528181610e9501526111060152f35b60405162461bcd60e51b8152602060048201526024808201527f46656520726563697069656e742063616e6e6f74206265207a65726f206164646044820152637265737360e01b6064820152608490fd5b62461bcd60e51b8152602060048201526024808201527f5374616b696e6720746f6b656e2063616e6e6f74206265207a65726f206164646044820152637265737360e01b6064820152608490fd5b600080fd5b634e487b7160e01b600052604160045260246000fd5b51906001600160a01b0382168203620001d65756fe6080604052600436101561001257600080fd5b60003560e01c80628cc262146101f15780630906cfc61461017e57806311f7758f146101ec57806316330d40146101e75780631ea860d6146101e2578063233e9903146101dd5780632e1a7d4d146101d857806346904840146101d3578063715018a6146101ce57806372f702f3146101c95780637304eb8d146101c4578063733bdef0146101bf5780637b0472f0146101ba5780637b0a47ee146101b5578063817b1cd2146101b05780638980f11f146101ab5780638da5cb5b146101a65780639168ae72146101a15780639e447fc61461019c578063a84cd70814610197578063b88a802f14610192578063c8f33c911461018d578063cd3daf9d14610188578063df136d6514610183578063e1f1c4a71461017e578063e74b981b14610179578063ec5ffac214610174578063ecf008891461016f578063f2fde38b1461016a5763f826ed2e1461016557600080fd5b610bc4565b610adf565b610ac2565b610aa4565b6109b0565b61023c565b610992565b610977565b610959565b6108e6565b6108c8565b61086d565b610807565b6107e0565b6106d9565b6106bb565b61069d565b610622565b6105c2565b6105a5565b610561565b6104f7565b6104d0565b6102ff565b6102b3565b610295565b610277565b610259565b610211565b600435906001600160a01b038216820361020c57565b600080fd5b3461020c57602036600319011261020c57602061023461022f6101f6565b610ca6565b604051908152f35b3461020c57600036600319011261020c5760206040516127108152f35b3461020c57600036600319011261020c57602060405162093a808152f35b3461020c57600036600319011261020c576020600754604051908152f35b3461020c57600036600319011261020c57602060405162278d008152f35b3461020c57602036600319011261020c577ff4045d7dd317de89564c3f12c35961242ed2a4dce3ae4e7a75847ffa04bb083460206004356102f2611056565b80600555604051908152a1005b3461020c57602036600319011261020c5760043561032260026001541415610d5b565b600260015561032f611003565b60045542600355336104a6575b33600090815260096020526040902090808254106104625761035d336110ae565b600282015442109181926103f2575b818161037f61038e946103899454610c74565b9055600654610c74565b600655565b6103b981337f000000000000000000000000000000000000000000000000000000000000000061113a565b60405190815233907f7084f5476618d8e60b11ef0d7d3f06914655adb8793e28ff7f018d4c76d505d590602090a26103f060018055565b005b915061038961038e9161041261040a60075483610c86565b612710900490565b936104596104208684610c74565b956104336008546001600160a01b031690565b7f000000000000000000000000000000000000000000000000000000000000000061113a565b9150915061036c565b606460405162461bcd60e51b815260206004820152601a60248201527f496e73756666696369656e74207374616b656420616d6f756e740000000000006044820152fd5b6104af33610ca6565b3360005260096020526040600020906004820155600360045491015561033c565b3461020c57600036600319011261020c5760206001600160a01b0360085416604051908152f35b3461020c5760008060031936011261055e57610511611056565b806001600160a01b03815473ffffffffffffffffffffffffffffffffffffffff1981168355167f8be0079c531659141344cd1fd0a4f28419497f9722a3daafe3b4186f6b6457e08280a380f35b80fd5b3461020c57600036600319011261020c5760206040516001600160a01b037f0000000000000000000000000000000000000000000000000000000000000000168152f35b3461020c57600036600319011261020c576020604051613a988152f35b3461020c57602036600319011261020c5760806105dd6101f6565b6001600160a01b0381166000526009602052604060002080549161060a6002600184015493015491610ca6565b91604051938452602084015260408301526060820152f35b3461020c57604036600319011261020c5761064260026001541415610d5b565b600260015561064f611003565b6004554260035533610673575b61066a602435600435610e3c565b6103f060018055565b61067c33610ca6565b3360005260096020526040600020906004820155600360045491015561065c565b3461020c57600036600319011261020c576020600254604051908152f35b3461020c57600036600319011261020c576020600654604051908152f35b3461020c57604036600319011261020c576106f26101f6565b6024356106fd611056565b6001600160a01b0380807f000000000000000000000000000000000000000000000000000000000000000016931690838214610743575b6103f09350600054169061113a565b6040517f70a0823100000000000000000000000000000000000000000000000000000000815230600482015293602090859060249082905afa80156107db5761079f6107a7916103f0966000916107ac575b5060065490610c74565b841115610fb8565b610734565b6107ce915060203d6020116107d4575b6107c68183610f7b565b810190610f9d565b38610795565b503d6107bc565b610fac565b3461020c57600036600319011261020c5760206001600160a01b0360005416604051908152f35b3461020c57602036600319011261020c576001600160a01b036108286101f6565b16600052600960205260a06040600020805490600181015490600281015460046003830154920154926040519485526020850152604084015260608301526080820152f35b3461020c57602036600319011261020c577f41d466ebd06fb97e7786086ac8b69b7eb7da798592036251291d34e9791cde0160206004356108ac611056565b6108b4611003565b6004554260035580600255604051908152a1005b3461020c57600036600319011261020c5760206040516276a7008152f35b3461020c5760008060031936011261055e5761090760026001541415610d5b565b6002600155610914611003565b6004554260035533610931575b61092a336110ae565b6001805580f35b61093a33610ca6565b3382526009602052604082209060048201556003600454910155610921565b3461020c57600036600319011261020c576020600354604051908152f35b3461020c57600036600319011261020c576020610234611003565b3461020c57600036600319011261020c576020600454604051908152f35b3461020c57602036600319011261020c576109c96101f6565b6109d1611056565b6001600160a01b0381168015610a3b576008805473ffffffffffffffffffffffffffffffffffffffff19169190911790556040516001600160a01b039190911681527f7a7b5a0a132f9e0581eb8527f66eae9ee89c2a3e79d4ac7e41a1f1f4d48a7fc290602090a1005b608460405162461bcd60e51b8152602060048201526024808201527f46656520726563697069656e742063616e6e6f74206265207a65726f2061646460448201527f72657373000000000000000000000000000000000000000000000000000000006064820152fd5b3461020c57600036600319011261020c576020600554604051908152f35b3461020c57600036600319011261020c576020604051612ee08152f35b3461020c57602036600319011261020c57610af86101f6565b610b00611056565b6001600160a01b038091168015610b5a5760009182548273ffffffffffffffffffffffffffffffffffffffff198216178455167f8be0079c531659141344cd1fd0a4f28419497f9722a3daafe3b4186f6b6457e08380a380f35b608460405162461bcd60e51b815260206004820152602660248201527f4f776e61626c653a206e6577206f776e657220697320746865207a65726f206160448201527f64647265737300000000000000000000000000000000000000000000000000006064820152fd5b3461020c57602036600319011261020c57600435610be0611056565b610bb88111610c1a576020817f45108bbe17e2c6b15aef1a0c3b1668a1bc7f6d41aeb46a048100e839ba6fdac892600755604051908152a1005b606460405162461bcd60e51b815260206004820152600c60248201527f46656520746f6f206869676800000000000000000000000000000000000000006044820152fd5b634e487b7160e01b600052601160045260246000fd5b91908203918211610c8157565b610c5e565b81810292918115918404141715610c8157565b91908201809211610c8157565b6001600160a01b031660005260096020526040600020600481015490805480610cce57505090565b61040a610d309392610d0a610cfc610d2a94610cf6610ceb611003565b600386015490610c74565b90610c86565b670de0b6b3a7640000900490565b6001600092015462093a808114600014610d33575061271091505b610c86565b90610c99565b90565b62278d008103610d485750612ee09150610c86565b6276a70003610d2557613a989150610c86565b15610d6257565b606460405162461bcd60e51b815260206004820152601f60248201527f5265656e7472616e637947756172643a207265656e7472616e742063616c6c006044820152fd5b15610dad57565b606460405162461bcd60e51b815260206004820152601a60248201527f416d6f756e742062656c6f77206d696e696d756d207374616b650000000000006044820152fd5b15610df857565b606460405162461bcd60e51b815260206004820152601360248201527f496e76616c6964206c6f636b20706572696f64000000000000000000000000006044820152fd5b90610f197f1449c6dd7851abc30abf37f57715f492010519147cc2652fbc38202c18a6ee9091610e70600554851015610da6565b62093a8081148015610f38575b8015610f2c575b610e8d90610df1565b610eb98430337f00000000000000000000000000000000000000000000000000000000000000006111a2565b3360009081526009602052604090208054610f1e575b610eda858254610c99565b81558160018201556002610eee8342610c99565b910155610f0061038985600654610c99565b6040805194855260208501919091523393918291820190565b0390a2565b610f27336110ae565b610ecf565b506276a7008114610e84565b5062278d008114610e7d565b634e487b7160e01b600052604160045260246000fd5b6040810190811067ffffffffffffffff821117610f7657604052565b610f44565b90601f8019910116810190811067ffffffffffffffff821117610f7657604052565b9081602091031261020c575190565b6040513d6000823e3d90fd5b15610fbf57565b606460405162461bcd60e51b815260206004820152601c60248201527f43616e6e6f74207265636f766572207374616b656420746f6b656e73000000006044820152fd5b600654801561104f57600454906003544203428111610c815760025461102891610c86565b670de0b6b3a764000090818102918183041490151715610c8157048101809111610c815790565b5060045490565b6001600160a01b0360005416330361106a57565b606460405162461bcd60e51b815260206004820152602060248201527f4f776e61626c653a2063616c6c6572206973206e6f7420746865206f776e65726044820152fd5b6001600160a01b0381169081600052600960205260046040600020018054806110d8575b50505050565b61112a817f106f923f993c2149d49b4255ff723acafa1f2d94393f561d3eda32ae348f7241946000602095557f000000000000000000000000000000000000000000000000000000000000000061113a565b604051908152a2388080806110d2565b916001600160a01b03604051927fa9059cbb000000000000000000000000000000000000000000000000000000006020850152166024830152604482015260448152608081019181831067ffffffffffffffff841117610f76576111a09260405261129a565b565b9290604051927f23b872dd0000000000000000000000000000000000000000000000000000000060208501526001600160a01b03809216602485015216604483015260648201526064815260a081019181831067ffffffffffffffff841117610f76576111a09260405261129a565b9081602091031261020c5751801515810361020c5790565b1561123057565b608460405162461bcd60e51b815260206004820152602a60248201527f5361666545524332303a204552433230206f7065726174696f6e20646964206e60448201527f6f742073756363656564000000000000000000000000000000000000000000006064820152fd5b6001600160a01b031690604051906112b182610f5a565b6020928383527f5361666545524332303a206c6f772d6c6576656c2063616c6c206661696c656484840152803b1561132857600082819282876113039796519301915af16112fd61136c565b906113ac565b8051908161131057505050565b826111a093611323938301019101611211565b611229565b6064846040519062461bcd60e51b82526004820152601d60248201527f416464726573733a2063616c6c20746f206e6f6e2d636f6e74726163740000006044820152fd5b3d156113a7573d9067ffffffffffffffff8211610f76576040519161139b601f8201601f191660200184610f7b565b82523d6000602084013e565b606090565b909190156113b8575090565b8151156113c85750805190602001fd5b6040519062461bcd60e51b82528160208060048301528251908160248401526000935b82851061140e575050604492506000838284010152601f80199101168101030190fd5b84810182015186860160440152938101938593506113eb56fea2646970667358221220c64dfa7beb1091d54b20d9c904cb3f2cb605f5309457c9a1b16903a42ee309da64736f6c63430008160033",
  "linkReferences": {},
  "deployedLinkReferences": {}
}