{
  "_format": "hh-sol-artifact-1",
  "contractName": "CroakSwap",
  "sourceName": "contracts/swap/CroakSwap.sol",
  "abi": [
    {
      "inputs": [
        {
          "internalType": "address",
          "name": "_croakToken",
          "type": "address"
        },
        {
          "internalType": "address",
          "name": "_feeCollector",
          "type": "address"
        },
        {
          "internalType": "address",
          "name": "initialOwner",
          "type": "address"
        }
      ],
      "stateMutability": "nonpayable",
      "type": "constructor"
    },
    {
      "anonymous": false,
      "inputs": [
        {
          "indexed": true,
          "internalType": "address",
          "name": "newFeeCollector",
          "type": "address"
        }
      ],
      "name": "FeeCollectorUpdated",
      "type": "event"
    },
    {
      "anonymous": false,
      "inputs": [
        {
          "indexed": true,
          "internalType": "address",
          "name": "token",
          "type": "address"
        },
        {
          "indexed": false,
          "internalType": "uint256",
          "name": "croakAmount",
          "type": "uint256"
        },
        {
          "indexed": false,
          "internalType": "uint256",
          "name": "tokenAmount",
          "type": "uint256"
        }
      ],
      "name": "LiquidityAdded",
      "type": "event"
    },
    {
      "anonymous": false,
      "inputs": [
        {
          "indexed": true,
          "internalType": "address",
          "name": "token",
          "type": "address"
        },
        {
          "indexed": false,
          "internalType": "uint256",
          "name": "croakAmount",
          "type": "uint256"
        },
        {
          "indexed": false,
          "internalType": "uint256",
          "name": "tokenAmount",
          "type": "uint256"
        }
      ],
      "name": "LiquidityRemoved",
      "type": "event"
    },
    {
      "anonymous": false,
      "inputs": [
        {
          "indexed": true,
          "internalType": "address",
          "name": "previousOwner",
          "type": "address"
        },
        {
          "indexed": true,
          "internalType": "address",
          "name": "newOwner",
          "type": "address"
        }
      ],
      "name": "OwnershipTransferred",
      "type": "event"
    },
    {
      "anonymous": false,
      "inputs": [
        {
          "indexed": true,
          "internalType": "address",
          "name": "fromToken",
          "type": "address"
        },
        {
          "indexed": true,
          "internalType": "address",
          "name": "toToken",
          "type": "address"
        },
        {
          "indexed": false,
          "internalType": "uint256",
          "name": "amountIn",
          "type": "uint256"
        },
        {
          "indexed": false,
          "internalType": "uint256",
          "name": "amountOut",
          "type": "uint256"
        }
      ],
      "name": "Swap",
      "type": "event"
    },
    {
      "anonymous": false,
      "inputs": [
        {
          "indexed": true,
          "internalType": "address",
          "name": "token",
          "type": "address"
        }
      ],
      "name": "TokenPairAdded",
      "type": "event"
    },
    {
      "anonymous": false,
      "inputs": [
        {
          "indexed": true,
          "internalType": "address",
          "name": "token",
          "type": "address"
        }
      ],
      "name": "TokenPairRemoved",
      "type": "event"
    },
    {
      "inputs": [],
      "name": "BASIS_POINTS",
      "outputs": [
        {
          "internalType": "uint256",
          "name": "",
          "type": "uint256"
        }
      ],
      "stateMutability": "view",
      "type": "function"
    },
    {
      "inputs": [],
      "name": "SWAP_FEE",
      "outputs": [
        {
          "internalType": "uint256",
          "name": "",
          "type": "uint256"
        }
      ],
      "stateMutability": "view",
      "type": "function"
    },
    {
      "inputs": [
        {
          "internalType": "address",
          "name": "token",
          "type": "address"
        },
        {
          "internalType": "uint256",
          "name": "croakAmount",
          "type": "uint256"
        },
        {
          "internalType": "uint256",
          "name": "tokenAmount",
          "type": "uint256"
        }
      ],
      "name": "addLiquidity",
      "outputs": [],
      "stateMutability": "nonpayable",
      "type": "function"
    },
    {
      "inputs": [
        {
          "internalType": "address",
          "name": "token",
          "type": "address"
        }
      ],
      "name": "addTokenPair",
      "outputs": [],
      "stateMutability": "nonpayable",
      "type": "function"
    },
    {
      "inputs": [],
      "name": "croakToken",
      "outputs": [
        {
          "internalType": "address",
          "name": "",
          "type": "address"
        }
      ],
      "stateMutability": "view",
      "type": "function"
    },
    {
      "inputs": [],
      "name": "feeCollector",
      "outputs": [
        {
          "internalType": "address",
          "name": "",
          "type": "address"
        }
      ],
      "stateMutability": "view",
      "type": "function"
    },
    {
      "inputs": [
        {
          "internalType": "address",
          "name": "token",
          "type": "address"
        }
      ],
      "name": "getExchangeRate",
      "outputs": [
        {
          "internalType": "uint256",
          "name": "croakToToken",
          "type": "uint256"
        },
        {
          "internalType": "uint256",
          "name": "tokenToCroak",
          "type": "uint256"
        }
      ],
      "stateMutability": "view",
      "type": "function"
    },
    {
      "inputs": [],
      "name": "getSupportedTokensCount",
      "outputs": [
        {
          "internalType": "uint256",
          "name": "",
          "type": "uint256"
        }
      ],
      "stateMutability": "view",
      "type": "function"
    },
    {
      "inputs": [],
      "name": "owner",
      "outputs": [
        {
          "internalType": "address",
          "name": "",
          "type": "address"
        }
      ],
      "stateMutability": "view",
      "type": "function"
    },
    {
      "inputs": [
        {
          "internalType": "address",
          "name": "tokenAddress",
          "type": "address"
        },
        {
          "internalType": "uint256",
          "name": "amount",
          "type": "uint256"
        }
      ],
      "name": "recoverERC20",
      "outputs": [],
      "stateMutability": "nonpayable",
      "type": "function"
    },
    {
      "inputs": [
        {
          "internalType": "address",
          "name": "token",
          "type": "address"
        },
        {
          "internalType": "uint256",
          "name": "croakAmount",
          "type": "uint256"
        },
        {
          "internalType": "uint256",
          "name": "tokenAmount",
          "type": "uint256"
        }
      ],
      "name": "removeLiquidity",
      "outputs": [],
      "stateMutability": "nonpayable",
      "type": "function"
    },
    {
      "inputs": [
        {
          "internalType": "address",
          "name": "token",
          "type": "address"
        }
      ],
      "name": "removeTokenPair",
      "outputs": [],
      "stateMutability": "nonpayable",
      "type": "function"
    },
    {
      "inputs": [],
      "name": "renounceOwnership",
      "outputs": [],
      "stateMutability": "nonpayable",
      "type": "function"
    },
    {
      "inputs": [
        {
          "internalType": "address",
          "name": "_feeCollector",
          "type": "address"
        }
      ],
      "name": "setFeeCollector",
      "outputs": [],
      "stateMutability": "nonpayable",
      "type": "function"
    },
    {
      "inputs": [
        {
          "internalType": "uint256",
          "name": "",
          "type": "uint256"
        }
      ],
      "name": "supportedTokens",
      "outputs": [
        {
          "internalType": "address",
          "name": "",
          "type": "address"
        }
      ],
      "stateMutability": "view",
      "type": "function"
    },
    {
      "inputs": [
        {
          "internalType": "address",
          "name": "token",
          "type": "address"
        },
        {
          "internalType": "uint256",
          "name": "croakAmount",
          "type": "uint256"
        },
        {
          "internalType": "uint256",
          "name": "minTokenAmount",
          "type": "uint256"
        }
      ],
      "name": "swapCroakForToken",
      "outputs": [
        {
          "internalType": "uint256",
          "name": "",
          "type": "uint256"
        }
      ],
      "stateMutability": "nonpayable",
      "type": "function"
    },
    {
      "inputs": [
        {
          "internalType": "address",
          "name": "token",
          "type": "address"
        },
        {
          "internalType": "uint256",
          "name": "tokenAmount",
          "type": "uint256"
        },
        {
          "internalType": "uint256",
          "name": "minCroakAmount",
          "type": "uint256"
        }
      ],
      "name": "swapTokenForCroak",
      "outputs": [
        {
          "internalType": "uint256",
          "name": "",
          "type": "uint256"
        }
      ],
      "stateMutability": "nonpayable",
      "type": "function"
    },
    {
      "inputs": [
        {
          "internalType": "address",
          "name": "",
          "type": "address"
        }
      ],
      "name": "tokenPairs",
      "outputs": [
        {
          "internalType": "bool",
          "name": "isSupported",
          "type": "bool"
        },
        {
          "internalType": "uint256",
          "name": "croakReserve",
          "type": "uint256"
        },
        {
          "internalType": "uint256",
          "name": "tokenReserve",
          "type": "uint256"
        }
      ],
      "stateMutability": "view",
      "type": "function"
    },
    {
      "inputs": [
        {
          "internalType": "address",
          "name": "newOwner",
          "type": "address"
        }
      ],
      "name": "transferOwnership",
      "outputs": [],
      "stateMutability": "nonpayable",
      "type": "function"
    }
  ],
  "bytecode": "0x60a034620001bb57601f62001c9b38819003918201601f19168301916001600160401b03831184841017620001c057808492606094604052833981010312620001bb576200004d81620001d6565b906200006a60406200006260208401620001d6565b9201620001d6565b600080546001600160a01b039283166001600160a01b03198083168217845560405190959390928516907f8be0079c531659141344cd1fd0a4f28419497f9722a3daafe3b4186f6b6457e09080a360018055828516156200016e5750169182156200011d576080526002541617600255604051611aaf9081620001ec82396080518181816102c9015281816103b20152818161050d0152818161066101528181610786015281816109950152610ee10152f35b60405162461bcd60e51b8152602060048201526024808201527f46656520636f6c6c6563746f722063616e6e6f74206265207a65726f206164646044820152637265737360e01b6064820152608490fd5b62461bcd60e51b815260206004820152602260248201527f43524f414b20746f6b656e2063616e6e6f74206265207a65726f206164647265604482015261737360f01b6064820152608490fd5b600080fd5b634e487b7160e01b600052604160045260246000fd5b51906001600160a01b0382168203620001bb5756fe6080604052600436101561001257600080fd5b60003560e01c80630459f882146101475780631d1639231461014257806329fa1bdc1461013d5780632d2eb9f31461013857806347bbbdf51461013357806355776b771461012e578063715018a614610129578063768aebde146101245780638980f11f1461011f5780638da5cb5b1461011a57806399a3a755146101155780639df6a37914610110578063a42dce801461010b578063c415b95c14610106578063c625562614610101578063e1f1c4a7146100fc578063e38192e3146100f7578063efb7601d146100f25763f2fde38b146100ed57600080fd5b610fe7565b610f2a565b610e22565b610e05565b610dab565b610d32565b610c60565b610abe565b61095c565b610935565b610756565b61073a565b6106dd565b6105b7565b610561565b6103d6565b610392565b610374565b610191565b600435906001600160a01b038216820361016257565b600080fd5b6060906003190112610162576004356001600160a01b038116810361016257906024359060443590565b346101625761036461029a7ffa2dda1cc1b86e41239702756b13effbc1a092b5c57e3ad320fbe4f3b13fe2356101c636610167565b6101d8600260019593955414156110bf565b600260015561020c610207610200856001600160a01b03166000526003602052604060002090565b5460ff1690565b61110a565b610217841515611155565b610234836001600160a01b03166000526003602052604060002090565b9260018401906102a28661028f600285549889151580610368575b610258906111a0565b019761028961027a61027461026f8c548097611262565b61124b565b92611201565b6102838c61124b565b90611291565b9061129e565b9889958610156112be565b841115611309565b6102b66102ae87611218565b612710900490565b946001600160a01b039261031f610318857f000000000000000000000000000000000000000000000000000000000000000016986102f68b30338d611734565b6103128161030c6002546001600160a01b031690565b8c6117a5565b8a611284565b8254611291565b905561032c848254611284565b9055169361033b8233876117a5565b604080519182526020820192909252a361035460018055565b6040519081529081906020820190565b0390f35b5080820154151561024f565b34610162576000366003190112610162576020600454604051908152f35b346101625760003660031901126101625760206040516001600160a01b037f0000000000000000000000000000000000000000000000000000000000000000168152f35b34610162576103646104c47ffa2dda1cc1b86e41239702756b13effbc1a092b5c57e3ad320fbe4f3b13fe23561040b36610167565b61041e60026001959394955414156110bf565b6002600155610446610207610200866001600160a01b03166000526003602052604060002090565b610451831515611155565b61046e846001600160a01b03166000526003602052604060002090565b9261033b60018501956104cc875480151580610554575b61048e906111a0565b6104b960026104a061026f8489611262565b9901986102896104b08b54611201565b6102838961124b565b998a968710156112be565b851115611354565b6104d86102ae85611218565b966001600160a01b03809216966104f18530338b611734565b6104fc858254611291565b9055610509858254611284565b90557f0000000000000000000000000000000000000000000000000000000000000000169561054261053b8286611284565b33896117a5565b6002546001600160a01b0316876117a5565b5060028801541515610485565b34610162576020366003190112610162576001600160a01b0361058261014c565b1660005260036020526060604060002060ff815416906002600182015491015490604051921515835260208301526040820152f35b34610162577fac1d76749e5447b7b16f5ab61447e1bd502f3bb4807af3b28e620d1700a6ee456105e636610167565b906105f9600260019594955414156110bf565b600260015560026001600160a01b036106868361065a8389169889600052600360205261062f610207604060002060ff90541690565b821515806106d4575b6106419061139f565b6001600160a01b03166000526003602052604060002090565b92309033907f000000000000000000000000000000000000000000000000000000000000000016611734565b61069284303389611734565b600181016106a1848254611291565b9055016106af838254611291565b905560408051918252602082019290925290819081015b0390a26106d260018055565b005b50871515610638565b3461016257600080600319360112610737576106f761180b565b806001600160a01b0381546001600160a01b031981168355167f8be0079c531659141344cd1fd0a4f28419497f9722a3daafe3b4186f6b6457e08280a380f35b80fd5b34610162576000366003190112610162576020604051601e8152f35b346101625760403660031901126101625761076f61014c565b60243561077a61180b565b6001600160a01b0391827f0000000000000000000000000000000000000000000000000000000000000000169280821691848314600014610889575060009360006004545b80821061084e5750506040516370a0823160e01b815230600482015290602090829060249082905afa94851561084957610809856106d2976108109460009161081a575b50611284565b10156114cf565b60005416906117a5565b61083c915060203d602011610842575b6108348183611447565b810190611469565b38610803565b503d61082a565b611478565b9095610881600191826108796106416108668c610d6f565b90546001600160a01b039160031b1c1690565b015490611291565b9601906107bf565b93506108b26108ae610200866001600160a01b03166000526003602052604060002090565b1590565b9384156108cc575b506108c76106d294611484565b610810565b6040516370a0823160e01b8152306004820152909450602081602481865afa94851561084957600261092a610910876106d2996108c79660009161081a5750611284565b926001600160a01b03166000526003602052604060002090565b0154111594506108ba565b346101625760003660031901126101625760206001600160a01b0360005416604051908152f35b346101625760203660031901126101625761097561014c565b61097d61180b565b6001600160a01b03808216908115610a7a576109bd907f00000000000000000000000000000000000000000000000000000000000000001682141561151a565b6109e86109e36108ae610200856001600160a01b03166000526003602052604060002090565b611565565b610a536109f36115b0565b6001815292610a4e600094856020820152856040820152610a27836001600160a01b03166000526003602052604060002090565b9060406002918051151560ff80198654169116178455602081015160018501550151910155565b6115d0565b7f9a8e8b3031c7740f71e486c661d6cda066a43ca21c18a260bfee3c6845ed8a288280a280f35b606460405162461bcd60e51b815260206004820152601c60248201527f546f6b656e2063616e6e6f74206265207a65726f2061646472657373000000006044820152fd5b3461016257602036600319011261016257610ad761014c565b610adf61180b565b610b07610b02610200836001600160a01b03166000526003602052604060002090565b611636565b6001906001610b29826001600160a01b03166000526003602052604060002090565b01541580610c33575b610b3b90611681565b8160006001600160a01b0390818416945b610bab575b84610b84610b72866001600160a01b03166000526003602052604060002090565b60026000918281558260018201550155565b7f42b32e12fba575d8587c6751131d30c3c27e44397ea815fa7904eb350cb6edff600080a2005b60045480821015610c2d578583610bc461086685610d6f565b1614610bd35750820182610b4c565b610b729350610b8494925090610bff610bf9610866610bf4610c1e95611275565b610d6f565b91610d6f565b9091906001600160a01b038084549260031b9316831b921b1916179055565b610c266116cc565b9138610b51565b50610b51565b50610b3b6002610c56836001600160a01b03166000526003602052604060002090565b0154159050610b32565b34610162576020366003190112610162576001600160a01b03610c8161014c565b610c8961180b565b168015610cc957806001600160a01b031960025416176002557fe5693914d19c789bdee50a362998c0bc8d035a835f9871da5d51152f0582c34f600080a2005b608460405162461bcd60e51b8152602060048201526024808201527f46656520636f6c6c6563746f722063616e6e6f74206265207a65726f2061646460448201527f72657373000000000000000000000000000000000000000000000000000000006064820152fd5b346101625760003660031901126101625760206001600160a01b0360025416604051908152f35b634e487b7160e01b600052603260045260246000fd5b600454811015610da65760046000527f8a35acfbc15ff81a39ae7d344fd709f28e8600b4aa8c65c6b64bfe7fe36bd19b0190600090565b610d59565b3461016257602036600319011261016257600435600454811015610162576001600160a01b0360209160046000527f8a35acfbc15ff81a39ae7d344fd709f28e8600b4aa8c65c6b64bfe7fe36bd19b015416604051908152f35b346101625760003660031901126101625760206040516127108152f35b34610162577f96cd817c6329656790ef8fba7675405193677d39619571282f5e21f3a98cd059610e5136610167565b90610e64600260019594955414156110bf565b6002600155610e7161180b565b610f06816001600160a01b03610ea081881697886000526003602052610641610207604060002060ff90541690565b610edb8660018301926002845491610eba88841015611354565b0193610ed487865493610ecf86861015611309565b611284565b9055611284565b905533907f0000000000000000000000000000000000000000000000000000000000000000166117a5565b610f118233866117a5565b60408051918252602082019290925290819081016106c6565b34610162576020366003190112610162576001600160a01b03610f4b61014c565b16806000526003602052610f6660ff6040600020541661110a565b60005260036020526040600020600260018201549182151580610fdb575b610f8d906111a0565b0154670de0b6b3a764000090818102918183041481151715610fd657610fbf610fb984610fc49461129e565b9361122e565b61129e565b60408051928352602083019190915290f35b6111eb565b50808201541515610f84565b346101625760203660031901126101625761100061014c565b61100861180b565b6001600160a01b038091168015611055576000918254826001600160a01b03198216178455167f8be0079c531659141344cd1fd0a4f28419497f9722a3daafe3b4186f6b6457e08380a380f35b608460405162461bcd60e51b815260206004820152602660248201527f4f776e61626c653a206e6577206f776e657220697320746865207a65726f206160448201527f64647265737300000000000000000000000000000000000000000000000000006064820152fd5b156110c657565b606460405162461bcd60e51b815260206004820152601f60248201527f5265656e7472616e637947756172643a207265656e7472616e742063616c6c006044820152fd5b1561111157565b606460405162461bcd60e51b815260206004820152601860248201527f546f6b656e2070616972206e6f7420737570706f7274656400000000000000006044820152fd5b1561115c57565b606460405162461bcd60e51b815260206004820152602060248201527f416d6f756e74206d7573742062652067726561746572207468616e207a65726f6044820152fd5b156111a757565b606460405162461bcd60e51b815260206004820152601660248201527f496e73756666696369656e74206c6971756964697479000000000000000000006044820152fd5b634e487b7160e01b600052601160045260246000fd5b9061271091828102928184041490151715610fd657565b90601e820291808304601e1490151715610fd657565b90670de0b6b3a764000091828102928184041490151715610fd657565b906126f291828102928184041490151715610fd657565b81810292918115918404141715610fd657565b600019810191908211610fd657565b91908203918211610fd657565b91908201809211610fd657565b81156112a8570490565b634e487b7160e01b600052601260045260246000fd5b156112c557565b606460405162461bcd60e51b815260206004820152601160248201527f536c69707061676520746f6f20686967680000000000000000000000000000006044820152fd5b1561131057565b606460405162461bcd60e51b815260206004820152601a60248201527f496e73756666696369656e7420746f6b656e20726573657276650000000000006044820152fd5b1561135b57565b606460405162461bcd60e51b815260206004820152601a60248201527f496e73756666696369656e742043524f414b20726573657276650000000000006044820152fd5b156113a657565b608460405162461bcd60e51b815260206004820152602160248201527f416d6f756e7473206d7573742062652067726561746572207468616e207a657260448201527f6f000000000000000000000000000000000000000000000000000000000000006064820152fd5b634e487b7160e01b600052604160045260246000fd5b6040810190811067ffffffffffffffff82111761144257604052565b611410565b90601f8019910116810190811067ffffffffffffffff82111761144257604052565b90816020910312610162575190565b6040513d6000823e3d90fd5b1561148b57565b606460405162461bcd60e51b815260206004820152601e60248201527f43616e6e6f74207265636f76657220726573657276656420746f6b656e7300006044820152fd5b156114d657565b606460405162461bcd60e51b815260206004820152601d60248201527f43616e6e6f74207265636f7665722072657365727665642043524f414b0000006044820152fd5b1561152157565b606460405162461bcd60e51b815260206004820152601560248201527f546f6b656e2063616e6e6f742062652043524f414b00000000000000000000006044820152fd5b1561156c57565b606460405162461bcd60e51b815260206004820152601960248201527f546f6b656e207061697220616c726561647920657869737473000000000000006044820152fd5b604051906060820182811067ffffffffffffffff82111761144257604052565b60045468010000000000000000811015611442576001810180600455811015610da6576001600160a01b039060046000527f8a35acfbc15ff81a39ae7d344fd709f28e8600b4aa8c65c6b64bfe7fe36bd19b0191166001600160a01b0319825416179055565b1561163d57565b606460405162461bcd60e51b815260206004820152601960248201527f546f6b656e207061697220646f6573206e6f74206578697374000000000000006044820152fd5b1561168857565b606460405162461bcd60e51b815260206004820152601660248201527f4c6971756964697479206d757374206265207a65726f000000000000000000006044820152fd5b600454801561171e5760001981019080821015610da6577f8a35acfbc15ff81a39ae7d344fd709f28e8600b4aa8c65c6b64bfe7fe36bd19a906004600052016001600160a01b03198154169055600455565b634e487b7160e01b600052603160045260246000fd5b9290604051927f23b872dd0000000000000000000000000000000000000000000000000000000060208501526001600160a01b03809216602485015216604483015260648201526064815260a081019181831067ffffffffffffffff841117611442576117a3926040526118ec565b565b916001600160a01b03604051927fa9059cbb000000000000000000000000000000000000000000000000000000006020850152166024830152604482015260448152608081019181831067ffffffffffffffff841117611442576117a3926040526118ec565b6001600160a01b0360005416330361181f57565b606460405162461bcd60e51b815260206004820152602060248201527f4f776e61626c653a2063616c6c6572206973206e6f7420746865206f776e65726044820152fd5b90816020910312610162575180151581036101625790565b1561188257565b608460405162461bcd60e51b815260206004820152602a60248201527f5361666545524332303a204552433230206f7065726174696f6e20646964206e60448201527f6f742073756363656564000000000000000000000000000000000000000000006064820152fd5b6001600160a01b0316906040519061190382611426565b6020928383527f5361666545524332303a206c6f772d6c6576656c2063616c6c206661696c656484840152803b1561197a57600082819282876119559796519301915af161194f6119be565b906119fe565b8051908161196257505050565b826117a393611975938301019101611863565b61187b565b6064846040519062461bcd60e51b82526004820152601d60248201527f416464726573733a2063616c6c20746f206e6f6e2d636f6e74726163740000006044820152fd5b3d156119f9573d9067ffffffffffffffff821161144257604051916119ed601f8201601f191660200184611447565b82523d6000602084013e565b606090565b90919015611a0a575090565b815115611a1a5750805190602001fd5b6040519062461bcd60e51b82528160208060048301528251908160248401526000935b828510611a60575050604492506000838284010152601f80199101168101030190fd5b8481018201518686016044015293810193859350611a3d56fea2646970667358221220096b3130d7063fe291423411de96c9b3bb03af46e09501955a9f2c0bb681e59764736f6c63430008160033",
  "linkReferences": {},
  "deployedLinkReferences": {}
}