{
  "_format": "hh-sol-artifact-1",
  "contractName": "CroakToken",
  "sourceName": "contracts/token/CroakToken.sol",
  "abi": [
    {
      "inputs": [
        {
          "internalType": "address",
          "name": "initialOwner",
          "type": "address"
        }
      ],
      "stateMutability": "nonpayable",
      "type": "constructor"
    },
    {
      "anonymous": false,
      "inputs": [
        {
          "indexed": true,
          "internalType": "address",
          "name": "owner",
          "type": "address"
        },
        {
          "indexed": true,
          "internalType": "address",
          "name": "spender",
          "type": "address"
        },
        {
          "indexed": false,
          "internalType": "uint256",
          "name": "value",
          "type": "uint256"
        }
      ],
      "name": "Approval",
      "type": "event"
    },
    {
      "anonymous": false,
      "inputs": [
        {
          "indexed": true,
          "internalType": "address",
          "name": "previousOwner",
          "type": "address"
        },
        {
          "indexed": true,
          "internalType": "address",
          "name": "newOwner",
          "type": "address"
        }
      ],
      "name": "OwnershipTransferred",
      "type": "event"
    },
    {
      "anonymous": false,
      "inputs": [
        {
          "indexed": false,
          "internalType": "address",
          "name": "account",
          "type": "address"
        },
        {
          "indexed": false,
          "internalType": "bool",
          "name": "status",
          "type": "bool"
        }
      ],
      "name": "TaxExemptStatusChanged",
      "type": "event"
    },
    {
      "anonymous": false,
      "inputs": [
        {
          "indexed": false,
          "internalType": "uint256",
          "name": "newBuyTaxRate",
          "type": "uint256"
        },
        {
          "indexed": false,
          "internalType": "uint256",
          "name": "newSellTaxRate",
          "type": "uint256"
        }
      ],
      "name": "TaxRateChanged",
      "type": "event"
    },
    {
      "anonymous": false,
      "inputs": [],
      "name": "TradingEnabled",
      "type": "event"
    },
    {
      "anonymous": false,
      "inputs": [
        {
          "indexed": true,
          "internalType": "address",
          "name": "from",
          "type": "address"
        },
        {
          "indexed": true,
          "internalType": "address",
          "name": "to",
          "type": "address"
        },
        {
          "indexed": false,
          "internalType": "uint256",
          "name": "value",
          "type": "uint256"
        }
      ],
      "name": "Transfer",
      "type": "event"
    },
    {
      "anonymous": false,
      "inputs": [
        {
          "indexed": false,
          "internalType": "address",
          "name": "newTreasuryAddress",
          "type": "address"
        }
      ],
      "name": "TreasuryAddressChanged",
      "type": "event"
    },
    {
      "inputs": [],
      "name": "MAX_TAX_RATE",
      "outputs": [
        {
          "internalType": "uint256",
          "name": "",
          "type": "uint256"
        }
      ],
      "stateMutability": "view",
      "type": "function"
    },
    {
      "inputs": [
        {
          "internalType": "address",
          "name": "owner",
          "type": "address"
        },
        {
          "internalType": "address",
          "name": "spender",
          "type": "address"
        }
      ],
      "name": "allowance",
      "outputs": [
        {
          "internalType": "uint256",
          "name": "",
          "type": "uint256"
        }
      ],
      "stateMutability": "view",
      "type": "function"
    },
    {
      "inputs": [
        {
          "internalType": "address",
          "name": "spender",
          "type": "address"
        },
        {
          "internalType": "uint256",
          "name": "amount",
          "type": "uint256"
        }
      ],
      "name": "approve",
      "outputs": [
        {
          "internalType": "bool",
          "name": "",
          "type": "bool"
        }
      ],
      "stateMutability": "nonpayable",
      "type": "function"
    },
    {
      "inputs": [
        {
          "internalType": "address",
          "name": "account",
          "type": "address"
        }
      ],
      "name": "balanceOf",
      "outputs": [
        {
          "internalType": "uint256",
          "name": "",
          "type": "uint256"
        }
      ],
      "stateMutability": "view",
      "type": "function"
    },
    {
      "inputs": [
        {
          "internalType": "uint256",
          "name": "amount",
          "type": "uint256"
        }
      ],
      "name": "burn",
      "outputs": [],
      "stateMutability": "nonpayable",
      "type": "function"
    },
    {
      "inputs": [
        {
          "internalType": "address",
          "name": "account",
          "type": "address"
        },
        {
          "internalType": "uint256",
          "name": "amount",
          "type": "uint256"
        }
      ],
      "name": "burnFrom",
      "outputs": [],
      "stateMutability": "nonpayable",
      "type": "function"
    },
    {
      "inputs": [],
      "name": "buyTaxRate",
      "outputs": [
        {
          "internalType": "uint256",
          "name": "",
          "type": "uint256"
        }
      ],
      "stateMutability": "view",
      "type": "function"
    },
    {
      "inputs": [],
      "name": "decimals",
      "outputs": [
        {
          "internalType": "uint8",
          "name": "",
          "type": "uint8"
        }
      ],
      "stateMutability": "view",
      "type": "function"
    },
    {
      "inputs": [
        {
          "internalType": "address",
          "name": "spender",
          "type": "address"
        },
        {
          "internalType": "uint256",
          "name": "subtractedValue",
          "type": "uint256"
        }
      ],
      "name": "decreaseAllowance",
      "outputs": [
        {
          "internalType": "bool",
          "name": "",
          "type": "bool"
        }
      ],
      "stateMutability": "nonpayable",
      "type": "function"
    },
    {
      "inputs": [],
      "name": "enableTrading",
      "outputs": [],
      "stateMutability": "nonpayable",
      "type": "function"
    },
    {
      "inputs": [
        {
          "internalType": "address",
          "name": "spender",
          "type": "address"
        },
        {
          "internalType": "uint256",
          "name": "addedValue",
          "type": "uint256"
        }
      ],
      "name": "increaseAllowance",
      "outputs": [
        {
          "internalType": "bool",
          "name": "",
          "type": "bool"
        }
      ],
      "stateMutability": "nonpayable",
      "type": "function"
    },
    {
      "inputs": [
        {
          "internalType": "address",
          "name": "",
          "type": "address"
        }
      ],
      "name": "isAuthorizedPair",
      "outputs": [
        {
          "internalType": "bool",
          "name": "",
          "type": "bool"
        }
      ],
      "stateMutability": "view",
      "type": "function"
    },
    {
      "inputs": [
        {
          "internalType": "address",
          "name": "",
          "type": "address"
        }
      ],
      "name": "isTaxExempt",
      "outputs": [
        {
          "internalType": "bool",
          "name": "",
          "type": "bool"
        }
      ],
      "stateMutability": "view",
      "type": "function"
    },
    {
      "inputs": [
        {
          "internalType": "address",
          "name": "to",
          "type": "address"
        },
        {
          "internalType": "uint256",
          "name": "amount",
          "type": "uint256"
        }
      ],
      "name": "mint",
      "outputs": [],
      "stateMutability": "nonpayable",
      "type": "function"
    },
    {
      "inputs": [],
      "name": "name",
      "outputs": [
        {
          "internalType": "string",
          "name": "",
          "type": "string"
        }
      ],
      "stateMutability": "view",
      "type": "function"
    },
    {
      "inputs": [],
      "name": "owner",
      "outputs": [
        {
          "internalType": "address",
          "name": "",
          "type": "address"
        }
      ],
      "stateMutability": "view",
      "type": "function"
    },
    {
      "inputs": [],
      "name": "renounceOwnership",
      "outputs": [],
      "stateMutability": "nonpayable",
      "type": "function"
    },
    {
      "inputs": [],
      "name": "sellTaxRate",
      "outputs": [
        {
          "internalType": "uint256",
          "name": "",
          "type": "uint256"
        }
      ],
      "stateMutability": "view",
      "type": "function"
    },
    {
      "inputs": [
        {
          "internalType": "address",
          "name": "pair",
          "type": "address"
        },
        {
          "internalType": "bool",
          "name": "status",
          "type": "bool"
        }
      ],
      "name": "setAuthorizedPair",
      "outputs": [],
      "stateMutability": "nonpayable",
      "type": "function"
    },
    {
      "inputs": [
        {
          "internalType": "address",
          "name": "account",
          "type": "address"
        },
        {
          "internalType": "bool",
          "name": "status",
          "type": "bool"
        }
      ],
      "name": "setTaxExemptStatus",
      "outputs": [],
      "stateMutability": "nonpayable",
      "type": "function"
    },
    {
      "inputs": [
        {
          "internalType": "uint256",
          "name": "newBuyTaxRate",
          "type": "uint256"
        },
        {
          "internalType": "uint256",
          "name": "newSellTaxRate",
          "type": "uint256"
        }
      ],
      "name": "setTaxRates",
      "outputs": [],
      "stateMutability": "nonpayable",
      "type": "function"
    },
    {
      "inputs": [
        {
          "internalType": "address",
          "name": "newTreasuryAddress",
          "type": "address"
        }
      ],
      "name": "setTreasuryAddress",
      "outputs": [],
      "stateMutability": "nonpayable",
      "type": "function"
    },
    {
      "inputs": [],
      "name": "symbol",
      "outputs": [
        {
          "internalType": "string",
          "name": "",
          "type": "string"
        }
      ],
      "stateMutability": "view",
      "type": "function"
    },
    {
      "inputs": [],
      "name": "totalSupply",
      "outputs": [
        {
          "internalType": "uint256",
          "name": "",
          "type": "uint256"
        }
      ],
      "stateMutability": "view",
      "type": "function"
    },
    {
      "inputs": [],
      "name": "tradingEnabled",
      "outputs": [
        {
          "internalType": "bool",
          "name": "",
          "type": "bool"
        }
      ],
      "stateMutability": "view",
      "type": "function"
    },
    {
      "inputs": [
        {
          "internalType": "address",
          "name": "to",
          "type": "address"
        },
        {
          "internalType": "uint256",
          "name": "amount",
          "type": "uint256"
        }
      ],
      "name": "transfer",
      "outputs": [
        {
          "internalType": "bool",
          "name": "",
          "type": "bool"
        }
      ],
      "stateMutability": "nonpayable",
      "type": "function"
    },
    {
      "inputs": [
        {
          "internalType": "address",
          "name": "from",
          "type": "address"
        },
        {
          "internalType": "address",
          "name": "to",
          "type": "address"
        },
        {
          "internalType": "uint256",
          "name": "amount",
          "type": "uint256"
        }
      ],
      "name": "transferFrom",
      "outputs": [
        {
          "internalType": "bool",
          "name": "",
          "type": "bool"
        }
      ],
      "stateMutability": "nonpayable",
      "type": "function"
    },
    {
      "inputs": [
        {
          "internalType": "address",
          "name": "newOwner",
          "type": "address"
        }
      ],
      "name": "transferOwnership",
      "outputs": [],
      "stateMutability": "nonpayable",
      "type": "function"
    },
    {
      "inputs": [],
      "name": "treasuryAddress",
      "outputs": [
        {
          "internalType": "address",
          "name": "",
          "type": "address"
        }
      ],
      "stateMutability": "view",
      "type": "function"
    }
  ],
  "bytecode": "0x60a034620004ab57601f62001a0938819003828101601f19908116850194926001600160401b039283871185881017620003ac5780859260409889528339602094859181010312620004ab57516001600160a01b038082169591869003620004ab576200006b620004b0565b90600b82526a21b937b0b5902a37b5b2b760a91b868301526200008d620004b0565b946005948587526443524f414b60d81b88880152835190828211620003ac5760039182546001968782811c92168015620004a0575b8c8310146200048a578b828a85941162000433575b50508b90898311600114620003ce57600092620003c2575b505060001982851b1c191690861b1782555b8751928311620003ac5760049788548681811c91168015620003a1575b8b8210146200038c579081888d97969594931162000330575b508a91888511600114620002b55750600092919084620002a9575b505082861b92600019911b1c19161786555b84546001600160a01b031981168317909555885194167f8be0079c531659141344cd1fd0a4f28419497f9722a3daafe3b4186f6b6457e0600080a36103e860805261012c80600655600755600854339060018060a81b031916176008553360005260098552866000209060ff1982541617905584156200026c5750506002546aa56fa5b99019a5c80000009182820180921162000257575060025560008381528083528481208054830190558451918252917fddf252ad1be2c89b69c2b068fc378daa952ba7f163c4a11628f55a4df523b3ef91a3516115389081620004d1823960805181818161059f01526109240152f35b601190634e487b7160e01b6000525260246000fd5b8360649362461bcd60e51b845283015260248201527f45524332303a206d696e7420746f20746865207a65726f2061646472657373006044820152fd5b01519150388062000152565b9184939192889516928b6000528c600020938d6000905b828210620003085750508511620002ed575b50505050811b01865562000164565b01519060f884600019921b161c1916905538808080620002de565b929496989950949683978392948601518155019601930191889593918e989795938e620002cc565b90919293949550896000528a600020888087018b1c8201928d881062000382575b9189918f99989796959493018c1c01915b8281106200037257505062000137565b600081558e985089910162000362565b9250819262000351565b60228a634e487b7160e01b6000525260246000fd5b90607f16906200011e565b634e487b7160e01b600052604160045260246000fd5b015190503880620000ef565b908c91858a95168760005283600020936000905b8282106200041b575050841162000402575b505050811b01825562000101565b015160001983871b60f8161c19169055388080620003f4565b8385015186558c979095019493840193018f620003e2565b90919250856000528982600020918186018d1c830193861062000480575b918a9186959493018d1c01915b8281106200047057508d9150620000d7565b600081558594508a91016200045e565b9250819262000451565b634e487b7160e01b600052602260045260246000fd5b91607f1691620000c2565b600080fd5b60408051919082016001600160401b03811183821017620003ac5760405256fe6080604081815260048036101561001557600080fd5b600092833560e01c90816306fdde0314610d3657508063095ea7b314610d0c57806313f1800614610ccb57806316c2be6b14610c8f57806318160ddd14610c7057806323b872dd14610ba557806324024efd14610b86578063313ce56714610b6a5780633950935114610b1b57806340c10f1914610a5557806342966c6814610a375780634ada218b14610a105780635cb23e12146109015780636605bfda1461083f578063691f224f1461082057806370a08231146107ea578063715018a61461078257806379cc6790146106ba5780638a8c523c146105ea5780638da5cb5b146105c25780638fa817321461058757806395d89b4114610465578063a457c2d7146103a5578063a9059cbb14610374578063c125c861146102fe578063c5f956af146102d6578063cd952c1a1461029a578063dd62ed3e1461024d5763f2fde38b1461016257600080fd5b346102495760203660031901126102495761017b610e76565b9061018461102d565b6001600160a01b038092169283156101e05750506005548273ffffffffffffffffffffffffffffffffffffffff19821617600555167f8be0079c531659141344cd1fd0a4f28419497f9722a3daafe3b4186f6b6457e08380a380f35b906020608492519162461bcd60e51b8352820152602660248201527f4f776e61626c653a206e6577206f776e657220697320746865207a65726f206160448201527f64647265737300000000000000000000000000000000000000000000000000006064820152fd5b8280fd5b5050346102965780600319360112610296578060209261026b610e76565b610273610e91565b6001600160a01b0391821683526001865283832091168252845220549051908152f35b5080fd5b5050346102965760203660031901126102965760ff816020936001600160a01b036102c3610e76565b168152600a855220541690519015158152f35b5050346102965781600319360112610296576020906001600160a01b03600854169051908152f35b505034610296577ffbfae68f9027deb3162c567e8a5a612cd34dc187a51bdc30a207add323bebe35906001600160a01b0361033836610ea7565b919061034261102d565b16908185526009602052610364818487209060ff801983541691151516179055565b825191825215156020820152a180f35b50503461029657806003193601126102965760209061039e610394610e76565b6024359033611098565b5160018152f35b5082346104625782600319360112610462576103bf610e76565b91836024359233815260016020528181206001600160a01b03861682526020522054908282106103f95760208561039e8585038733610ef9565b608490602086519162461bcd60e51b8352820152602560248201527f45524332303a2064656372656173656420616c6c6f77616e63652062656c6f7760448201527f207a65726f0000000000000000000000000000000000000000000000000000006064820152fd5b80fd5b5091903461029657816003193601126102965780519082845460018160011c906001831692831561057d575b602093848410811461056a5783885290811561054e57506001146104f9575b505050829003601f01601f191682019267ffffffffffffffff8411838510176104e657508291826104e2925282610e2d565b0390f35b80604186634e487b7160e01b6024945252fd5b8787529192508591837f8a35acfbc15ff81a39ae7d344fd709f28e8600b4aa8c65c6b64bfe7fe36bd19b5b83851061053a57505050508301013880806104b0565b805488860183015293019284908201610524565b60ff1916878501525050151560051b84010190503880806104b0565b60248960228c634e487b7160e01b835252fd5b91607f1691610491565b505034610296578160031936011261029657602090517f00000000000000000000000000000000000000000000000000000000000000008152f35b5050346102965781600319360112610296576020906001600160a01b03600554169051908152f35b503461024957826003193601126102495761060361102d565b6008549160ff8360a01c166106775783740100000000000000000000000000000000000000007fffffffffffffffffffffff00ffffffffffffffffffffffffffffffffffffffff8516176008557f799663458a5ef2936f7fa0c99b3336c69c25890f82974f04e811e5bb359186c78180a180f35b906020606492519162461bcd60e51b8352820152601760248201527f54726164696e6720616c726561647920656e61626c65640000000000000000006044820152fd5b508290346102965782600319360112610296576106d5610e76565b602435916001600160a01b03821684526001602052848420338552602052848420549083821061071a575090610712836107179493033383610ef9565b611212565b80f35b608490602087519162461bcd60e51b83528201526024808201527f45524332303a206275726e20616d6f756e74206578636565647320616c6c6f7760448201527f616e6365000000000000000000000000000000000000000000000000000000006064820152fd5b833461046257806003193601126104625761079b61102d565b806001600160a01b0360055473ffffffffffffffffffffffffffffffffffffffff198116600555167f8be0079c531659141344cd1fd0a4f28419497f9722a3daafe3b4186f6b6457e08280a380f35b50503461029657602036600319011261029657806020926001600160a01b03610811610e76565b16815280845220549051908152f35b5050346102965781600319360112610296576020906006549051908152f35b509034610249576020366003190112610249576001600160a01b03610862610e76565b61086a61102d565b169182156108bf5750816020917f9073dfac663173e64aa95665faedae52e2246f9bcdd3890fbfaf6733b46bba139373ffffffffffffffffffffffffffffffffffffffff19600854161760085551908152a180f35b6020606492519162461bcd60e51b8352820152601f60248201527f54726561737572792063616e6e6f74206265207a65726f2061646472657373006044820152fd5b5091903461029657806003193601126102965782356024359361092261102d565b7f00000000000000000000000000000000000000000000000000000000000000008083116109cd57851161098a57507fab04935564bd7f43810636a24deb03e99f1516e9ba0b68115f9f8c8e3c08f3339293816006558060075582519182526020820152a180f35b606490602084519162461bcd60e51b8352820152601d60248201527f53656c6c2074617820726174652065786365656473206d6178696d756d0000006044820152fd5b606482602086519162461bcd60e51b8352820152601c60248201527f4275792074617820726174652065786365656473206d6178696d756d000000006044820152fd5b50503461029657816003193601126102965760209060ff60085460a01c1690519015158152f35b83823461029657602036600319011261029657610717903533611212565b509034610249578060031936011261024957610a6f610e76565b906001600160a01b0360243592610a8461102d565b16928315610ad957506020827fddf252ad1be2c89b69c2b068fc378daa952ba7f163c4a11628f55a4df523b3ef92610abf8795600254610ed6565b60025585855284835280852082815401905551908152a380f35b6020606492519162461bcd60e51b8352820152601f60248201527f45524332303a206d696e7420746f20746865207a65726f2061646472657373006044820152fd5b50503461029657806003193601126102965761039e602092610b63610b3e610e76565b91338152600186528481206001600160a01b0384168252865284602435912054610ed6565b9033610ef9565b5050346102965781600319360112610296576020905160128152f35b5050346102965781600319360112610296576020906007549051908152f35b5082903461029657606036600319011261029657610bc1610e76565b610bc9610e91565b9184604435946001600160a01b038416815260016020528181203382526020522054906000198203610c04575b60208661039e878787611098565b848210610c2d5750918391610c226020969561039e95033383610ef9565b919394819350610bf6565b606490602087519162461bcd60e51b8352820152601d60248201527f45524332303a20696e73756666696369656e7420616c6c6f77616e63650000006044820152fd5b5050346102965781600319360112610296576020906002549051908152f35b5050346102965760203660031901126102965760ff816020936001600160a01b03610cb8610e76565b1681526009855220541690519015158152f35b505034610296576001600160a01b0361071791610ce736610ea7565b9290610cf161102d565b168452600a60205283209060ff801983541691151516179055565b50503461029657806003193601126102965760209061039e610d2c610e76565b6024359033610ef9565b84915083346102495782600319360112610249578260035460018160011c9060018316928315610e23575b602093848410811461056a57838852908115610e075750600114610db157505050829003601f01601f191682019267ffffffffffffffff8411838510176104e657508291826104e2925282610e2d565b600387529192508591837fc2575a0e9e593c00f959f8c92f12db2869c3395a3b0502d05e2516446f71f85b5b838510610df357505050508301018580806104b0565b805488860183015293019284908201610ddd565b60ff1916878501525050151560051b84010190508580806104b0565b91607f1691610d61565b6020808252825181830181905290939260005b828110610e6257505060409293506000838284010152601f8019910116010190565b818101860151848201604001528501610e40565b600435906001600160a01b0382168203610e8c57565b600080fd5b602435906001600160a01b0382168203610e8c57565b6040906003190112610e8c576004356001600160a01b0381168103610e8c57906024358015158103610e8c5790565b91908201809211610ee357565b634e487b7160e01b600052601160045260246000fd5b6001600160a01b03809116918215610fc45716918215610f5a5760207f8c5be1e5ebec7d5bd14f71427d1e84f3dd0314c0f7b2291e5b200ac8c7c3b925918360005260018252604060002085600052825280604060002055604051908152a3565b608460405162461bcd60e51b815260206004820152602260248201527f45524332303a20617070726f766520746f20746865207a65726f20616464726560448201527f73730000000000000000000000000000000000000000000000000000000000006064820152fd5b608460405162461bcd60e51b8152602060048201526024808201527f45524332303a20617070726f76652066726f6d20746865207a65726f2061646460448201527f72657373000000000000000000000000000000000000000000000000000000006064820152fd5b6001600160a01b0360055416330361104157565b606460405162461bcd60e51b815260206004820152602060248201527f4f776e61626c653a2063616c6c6572206973206e6f7420746865206f776e65726044820152fd5b81810292918115918404141715610ee357565b92919060ff938460085460a01c1615611191575b6001600160a01b0380821690600096828852600960205280604089205416801561117f575b6111715787928852600a60205280604089205416600014611149575090506127106110fe60065486611085565b04905b8180611134575b505083039283116111205761111e93945061134e565b565b602485634e487b7160e01b81526011600452fd5b61114291600854168461134e565b3881611108565b81851688526040882054161561110157905061271061116a60075486611085565b0490611101565b50505061111e93945061134e565b508185168852806040892054166110d1565b6001600160a01b03808216600052600960205285604060002054169081156111fd575b506110ac57606460405162461bcd60e51b815260206004820152601760248201527f54726164696e67206e6f742079657420656e61626c65640000000000000000006044820152fd5b905082166000528460406000205416386111b4565b6001600160a01b031680156112e45760009181835282602052604083205481811061127a57817fddf252ad1be2c89b69c2b068fc378daa952ba7f163c4a11628f55a4df523b3ef926020928587528684520360408620558060025403600255604051908152a3565b608460405162461bcd60e51b815260206004820152602260248201527f45524332303a206275726e20616d6f756e7420657863656564732062616c616e60448201527f63650000000000000000000000000000000000000000000000000000000000006064820152fd5b608460405162461bcd60e51b815260206004820152602160248201527f45524332303a206275726e2066726f6d20746865207a65726f2061646472657360448201527f73000000000000000000000000000000000000000000000000000000000000006064820152fd5b6001600160a01b03809116918215611498571691821561142e576000828152806020526040812054918083106113c457604082827fddf252ad1be2c89b69c2b068fc378daa952ba7f163c4a11628f55a4df523b3ef958760209652828652038282205586815220818154019055604051908152a3565b608460405162461bcd60e51b815260206004820152602660248201527f45524332303a207472616e7366657220616d6f756e742065786365656473206260448201527f616c616e636500000000000000000000000000000000000000000000000000006064820152fd5b608460405162461bcd60e51b815260206004820152602360248201527f45524332303a207472616e7366657220746f20746865207a65726f206164647260448201527f65737300000000000000000000000000000000000000000000000000000000006064820152fd5b608460405162461bcd60e51b815260206004820152602560248201527f45524332303a207472616e736665722066726f6d20746865207a65726f20616460448201527f64726573730000000000000000000000000000000000000000000000000000006064820152fdfea26469706673582212209b3e43f58893f80909c9f09a791959d93b6cee7a98c2e02db551906f5bc600f264736f6c63430008160033",
  "linkReferences": {},
  "deployedLinkReferences": {}
}